:100000000C9462000C948A000C948A000C948A0070
:100010000C948A000C948A000C948A000C948A0038
:100020000C948A000C948A000C948A000C948A0028
:100030000C948A000C948A000C948A000C948A0018
:100040000C94F8060C948A000C9468070C944207F0
:100050000C948A000C948A000C948A000C948A00F8
:100060000C949A070C948A000000000024002700DA
:100070002A0000000000250028002B0000000000DE
:1000800023002600290004040404040404040202DA
:100090000202020203030303030301020408102007
:1000A0004080010204081020010204081020000012
:1000B0000008000201000003040700000000000027
:1000C0000000B90811241FBECFEFD8E0DEBFCDBFBE
:1000D00012E0A0E0B1E0E2EEF4E202C005900D9281
:1000E000A83CB107D9F725E0A8ECB2E001C01D9209
:1000F000A437B207E1F710E0C2E6D0E004C02197D0
:10010000FE010E944411C136D107C9F70E94F608CA
:100110000C946F120C9400000895089580E480936D
:100120007C0080917A00806480937A0080917A00CC
:1001300086FDFCCF809178009091790008958330FE
:1001400081F028F4813099F08230A9F00895873049
:10015000A9F08830C9F08430B1F4809180008F7D9F
:1001600003C0809180008F7780938000089584B5CC
:100170008F7784BD089584B58F7DFBCF8091B000CB
:100180008F778093B00008958091B0008F7DF9CF74
:10019000CF93DF93282F30E0F901E255FF4F849190
:1001A000F901E656FF4FD491F901EA57FF4FC49188
:1001B000CC23A1F081110E949F00EC2FF0E0EE0F04
:1001C000FF1FE458FF4FA591B491EC91ED2381E01E
:1001D00090E009F480E0DF91CF91089580E090E015
:1001E000FACF1F93CF93DF93282F30E0F901E25528
:1001F000FF4F8491F901E656FF4FD491F901EA5778
:10020000FF4FC491CC23A9F0162F81110E949F00AB
:10021000EC2FF0E0EE0FFF1FEE58FF4FA591B491C9
:100220008FB7F894EC91111108C0D095DE23DC93C0
:100230008FBFDF91CF911F910895DE2BF8CFCF9321
:10024000DF9390E0FC01E656FF4F24918A579F4FC1
:10025000FC0184918823C9F090E0880F991FFC016C
:10026000E859FF4FA591B491FC01EE58FF4FC5919D
:10027000D49161110DC09FB7F8948C912095822381
:100280008C938881282328839FBFDF91CF91089585
:10029000623051F49FB7F8943C91822F809583236C
:1002A0008C93E8812E2BEFCF8FB7F894EC912E2B07
:1002B0002C938FBFEACF3FB7F89480916B04909155
:1002C0006C04A0916D04B0916E0426B5A89B05C086
:1002D0002F3F19F00196A11DB11D3FBFBA2FA92FC5
:1002E000982F8827BC01CD01620F711D811D911DC2
:1002F00042E0660F771F881F991F4A95D1F708952E
:100300008F929F92AF92BF92CF92DF92EF92FF9225
:100310006B017C010E945B014B015C01C114D104A3
:10032000E104F104B9F00E945B01681979098A09B6
:100330009B09683E73408105910580F321E0C21A54
:10034000D108E108F10888EE880E83E0981EA11C10
:10035000B11CE4CFFF90EF90DF90CF90BF90AF90B3
:100360009F908F9008952FB7F894609167047091D3
:1003700068048091690490916A042FBF0895AF9238
:10038000BF92CF92DF92EF92FF920F931F93CF9382
:10039000DF936C017B018B01040F151FEB015E01E4
:1003A000AE18BF08C017D10759F06991D601ED9179
:1003B000FC910190F081E02DC6010995892B79F718
:1003C000C501DF91CF911F910F91FF90EF90DF90CA
:1003D000CF90BF90AF900895FC01538D448D252F91
:1003E00030E0842F90E0821B930B541710F0CF96CF
:1003F000089501970895FC01918D828D981761F001
:10040000A28DAE0FBF2FB11D5D968C91928D9F5F17
:100410009F73928F90E008958FEF9FEF0895FC01F6
:10042000918D828D981731F0828DE80FF11D858DA9
:1004300090E008958FEF9FEF0895FC01918D228D3C
:10044000892F90E0805C9F4F821B91098F739927C1
:10045000089585EC94E00E941D0221E0892B09F4A7
:1004600020E0822F089580E090E0892B29F00E94FF
:10047000290281110C9400000895FC01A48DA80F9D
:10048000B92FB11DA35ABF4F2C91848D90E00196D6
:100490008F739927848FA689B7892C93A089B189F6
:1004A0008C91837080648C93938D848D981306C097
:1004B0000288F389E02D80818F7D80830895EF92FB
:1004C000FF920F931F93CF93DF93EC0181E0888F0E
:1004D0009B8D8C8D98131AC0E889F989808185FFDE
:1004E00015C09FB7F894EE89FF896083E889F98980
:1004F00080818370806480839FBF81E090E0DF9182
:10050000CF911F910F91FF90EF900895F62E0B8DD4
:1005100010E00F5F1F4F0F731127E02E8C8D8E118F
:100520000CC00FB607FCFACFE889F989808185FFF6
:10053000F5CFCE010E943D02F1CFEB8DEC0FFD2FE8
:10054000F11DE35AFF4FF0829FB7F8940B8FEA89B1
:10055000FB8980818062CFCFCF93DF93EC01888DC0
:100560008823B9F0AA89BB89E889F9898C9185FD2E
:1005700003C0808186FD0DC00FB607FCF7CF8C91BC
:1005800085FFF2CF808185FFEDCFCE010E943D0235
:10059000E9CFDF91CF91089520911603260F3327DD
:1005A000331F21323105ECF420919B04FC0190E0D3
:1005B00080E0243069F082E00895A0911603219133
:1005C000AC014A505D4FA40FB52FB11D2C9301967D
:1005D000861798F380911603680F6093160380E0E6
:1005E000089581E0089510929B0481E080939A041D
:1005F0001092750461E082E10E94F10061E083E104
:100600000E94F100E9EBF0E080818E7F80838081A1
:100610008D7F808388E48093B80085E48093BC005C
:10062000089510927404109273041092A204109210
:10063000C4040E94F3028CE890E0909372048093CB
:1006400071048DE890E09093700480936F04089596
:10065000CF93DF9391E09093F5028823B9F0C09196
:10066000B800D091BA008091BC008A7B8093BC0016
:1006700060E082E10E94F10060E083E10E94F1000D
:100680000E94F302D093BA00C093B800DF91CF91DB
:1006900008958F929F92AF92BF92CF92DF92EF9286
:1006A000FF920F931F93CF93DF93D091C404D13265
:1006B00008F0D7C0182FC091C3040E945B016B01E2
:1006C0007C0180919B0481116BC082E080939B042C
:1006D00010939A048FEF8093990410929804D0930A
:1006E0009704A3EAB4E0E7E7F4E080E0D81391C010
:1006F0001092760480917604CC0FC82BC0937604B8
:1007000080917504813009F088C0109275040E94B0
:100710005B016B017C01809176048093BB0080912A
:100720009D0490919E04A0919F04B091A004892BF8
:100730008A2B8B2BA1F00E945B0100919D041091EC
:100740009E0420919F043091A0046C197D098E09AC
:100750009F09061717072807390708F442C0809138
:10076000BC0083FDD8CF85EC8093BC000E945B0168
:100770006B017C0180919B04823009F450C0809110
:1007800099048F3F09F46FC080919904803209F475
:100790006CC080919904803309F469C084E026C05C
:1007A00080919D0490919E04A0919F04B091A0041B
:1007B000892B8A2B8B2B09F484CF0E945B018090BC
:1007C0009D0490909E04A0909F04B090A0046C198A
:1007D0007D098E099F0986169706A806B90608F0B6
:1007E00070CF80919C040E94280385E01092A2049F
:1007F0001092C4041092A104DF91CF911F910F9128
:10080000FF90EF90DF90CF90BF90AF909F908F9030
:1008100008959D9191938F5F69CF85EEA5CF8091CB
:100820009D0490919E04A0919F04B091A004892BF7
:100830008A2B8B2B09F49ECF0E945B0100919D04B3
:1008400010919E0420919F043091A0046C197D09A1
:100850008E099F09061717072807390708F08ACF5E
:10086000C0CF81E0C3CF80E0C1CF82E0BFCF83E0C3
:10087000BDCFCF93DF93EC018B818823A1F08881DA
:1008800091E09093A1048093C3041092A20410926B
:10089000C40481E00E94490391E0811190E0892F16
:1008A000DF91CF9108950E94110381E08B83CE01E7
:1008B0000E943904982F8111E2CFF1CF0895E09181
:1008C000740480917304E81730F4F0E0EB52FD4FAC
:1008D000808190E008958FEF9FEF089590917404C8
:1008E000809173042FEF3FEF981748F4E92FF0E061
:1008F000EB52FD4F208130E09F5F90937404C9015B
:1009000008958091730490917404891B990B089544
:10091000CF92DF92EF92FF920F931F93CF93DF93CB
:100920007C01CB018A012091A104222389F0EB01F3
:100930006B01C40ED51ECC15DD0569F06991D70198
:10094000ED91FC910190F081E02DC7010995F3CF65
:10095000642F0E94CC02C801DF91CF911F910F91AB
:10096000FF90EF90DF90CF900895CF93DF931F9289
:10097000CDB7DEB769832091A1042223F9F020913D
:10098000C404203258F021E030E0FC01338322839C
:1009900090E080E00F90DF91CF9108958091A204C4
:1009A000E82FF0E0ED55FB4F998190838F5F8093A6
:1009B000A2048093C40481E090E0ECCF61E0CE011A
:1009C00001960E94CC02F7CF90E080E00895CF938B
:1009D000DF9300D01F92CDB7DEB71092B9002CE0A4
:1009E0002093B80020E429839C0194E03695279554
:1009F0009A95E1F72A838295807F8B83E0916E053B
:100A0000F0916F0584819581039738F480E00F9011
:100A10000F900F90DF91CF91089581819281208175
:100A200031E03093A1042093C3041092A2041092E9
:100A3000C404DC01ED91FC910280F381E02D43E0E0
:100A400050E0BE016F5F7F4F09950397F9F681E093
:100A50000E9449038111DACF1092B90088E4809393
:100A6000B80081E0D4CFCF92DF92EF92FF928091D5
:100A7000D402882309F444C00E945B016B017C010D
:100A80008091D0029091D102A091D202B091D30274
:100A9000B701A601481B590B6A0B7B0B8091CE0254
:100AA0009091CF02092E000CAA0BBB0B48175907D7
:100AB0006A077B0728F18091CC029091CD022091AA
:100AC000CA023091CB02820F931F9093CD02809384
:100AD000CC020E94E704C092D002D092D102E092F0
:100AE000D202F092D3022091CC023091CD028091BB
:100AF000C8029091C9022817390711F41092D40244
:100B0000FF90EF90DF90CF9008958F929F92AF92D9
:100B1000BF92CF92DF92EF92FF920F931F93CF93EA
:100B2000DF9369017A012FE338EA4FE454E40E942D
:100B3000C7100E94DA0F4B018B017093C9026093BA
:100B4000C802C091CC02D091CD026C177D07F1F1A3
:100B5000C114D104E104F104C9F181E08093D4020D
:100B60000E945B016093D0027093D1028093D20205
:100B70009093D3029E012819390937FF03C031959C
:100B800021953109032E000C440B550BC701B6010A
:100B90000E94C50E3093CF022093CE028FEF9FEFBD
:100BA000C017D10714F481E090E09093CB028093BA
:100BB000CA02DF91CF911F910F91FF90EF90DF90CC
:100BC000CF90BF90AF909F908F9008959092CD025C
:100BD0008092CC02C4010E94E7041092D402E9CFB3
:100BE000FC0101900020E9F73197AF01481B590B38
:100BF000BC0185EC94E00C94BF018F929F92AF9260
:100C0000BF920F931F93CF93DF93CDB7DEB7A1971A
:100C10000FB6F894DEBF0FBECDBF19A2423008F464
:100C20004AE08E010F5D1F4F842E912CB12CA12C18
:100C3000A50194010E94C50EE62FB901CA01EA3050
:100C4000F4F4E05DD801EE938D01232B242B252BAA
:100C500079F790E080E0109719F0CD010E94F0053F
:100C6000A1960FB6F894DEBF0FBECDBFDF91CF9136
:100C70001F910F91BF90AF909F908F900895E95C66
:100C8000E1CFCF92DF92EF92FF92CF93DF936B0190
:100C90007C016DE285EC94E00E945F02EC01662726
:100CA0007727CB016C197D098E099F094AE00E94C4
:100CB000FD058C0F9D1FDF91CF91FF90EF90DF908E
:100CC000CF900895CF93DF93BC01990F880B990BB8
:100CD00097FF0CC00E944106EC018EEF91E00E944C
:100CE000F0058C0F9D1FDF91CF9108954AE00E947F
:100CF000FD05F2CFCF93DF930E94F005EC018EEF5C
:100D000091E00E94F0058C0F9D1FDF91CF91089517
:100D10000F931F93CF93DF938C01EB010E94850EFD
:100D20008883C80101960E94850E8983CE01DF91D8
:100D3000CF911F910F910895FF920F931F93CF931F
:100D4000DF93EC018B01FB01F0800E94850EF81609
:100D500021F06F2DCE010E948D0EF801F1802196B9
:100D6000CE010E94850EF81621F06F2DCE010E9453
:100D70008D0EC801DF91CF911F910F91FF900895C3
:100D800085ED8093BC0080919D0490919E04A0917C
:100D90009F04B091A0040796A11DB11D23E0B69554
:100DA000A795979587952A95D1F72091BC0024FDAA
:100DB00003C010929B04089540919D0450919E049D
:100DC00060919F047091A004452B462B472B69F33B
:100DD0000097A105B10541F02AE22A95F1F700C07C
:100DE0000197A109B109E1CF80919C040C942803DB
:100DF0001F920F920FB60F9211242F933F938F9350
:100E00009F93AF93BF938091670490916804A091E2
:100E10006904B0916A043091660423E0230F2D37F2
:100E200058F50196A11DB11D2093660480936704B7
:100E300090936804A0936904B0936A0480916B0452
:100E400090916C04A0916D04B0916E040196A11D67
:100E5000B11D80936B0490936C04A0936D04B093C8
:100E60006E04BF91AF919F918F913F912F910F9001
:100E70000FBE0F901F90189526E8230F0296A11D14
:100E8000B11DD2CF1F920F920FB60F9211242F9344
:100E90003F934F935F936F937F938F939F93AF9302
:100EA000BF93EF93FF9385EC94E00E943D02FF9186
:100EB000EF91BF91AF919F918F917F916F915F91D2
:100EC0004F913F912F910F900FBE0F901F9018954B
:100ED0001F920F920FB60F9211242F938F939F930F
:100EE000EF93FF93E091D504F091D6048081E091D7
:100EF000DB04F091DC0482FD1BC090818091DE0454
:100F00008F5F8F732091DF04821741F0E091DE0440
:100F1000F0E0EB53FB4F958F8093DE04FF91EF9150
:100F20009F918F912F910F900FBE0F901F9018954A
:100F30008081F4CF1F920F920FB60F9211242F933E
:100F40003F934F935F936F937F938F939F93AF9351
:100F5000BF93EF93FF938091B900887F803609F4A7
:100F60004AC0F0F5883209F4A7C018F5803109F4B9
:100F70009BC0B8F4882309F4F9C0883009F494C000
:100F8000FF91EF91BF91AF919F918F917F916F9161
:100F90005F914F913F912F910F900FBE0F901F9037
:100FA0001895883109F488C0803251F780939904EC
:100FB00014C0803409F49DC040F48033B9F3883301
:100FC000F9F68093990485ECB0C0803509F485C0AA
:100FD000883509F496C0883499F60E94C006D0CFAF
:100FE000883909F48CC038F5883729F050F48836F0
:100FF00011F0803729F683E080939B041092380328
:1010000057C0883809F47BC0803919F0803809F05E
:10101000B7CF80913803803208F071C0E091380377
:1010200081E08E0F809338038091BB00F0E0E85E92
:10103000FC4F80833DC0803B39F0E0F4803A09F4F6
:1010400079C0883A09F09CCF84E080939B04109289
:10105000170310921603E0917104F0917204099540
:101060008091160381110FC081E0809316031092C6
:10107000F60209C0803C09F4A6CF883C09F4A3CF4E
:10108000883B09F07DCFE091170381E08E0F8093BC
:101090001703F0E0EA50FD4F80818093BB009091F0
:1010A00017038091160329C0809176048093BB00BA
:1010B00085EC8093BC0064CF909198048091970454
:1010C000981758F5E091980481E08E0F809398046A
:1010D000F0E0E958FB4F8081E9CFE091980481E08E
:1010E0008E0F809398048091BB00F0E0E958FB4F8D
:1010F000808390919804809197049817C8F285E8AE
:10110000D8CFE091980481E08E0F8093980480916D
:10111000BB00F0E0E958FB4F808380919A04811175
:101120005CCF81E08093750484EA8093BC001092C8
:101130009B0426CF85EC8093BC0010929B04809189
:101140003803803230F4E0913803F0E0E85EFC4F81
:1011500010826091380370E0E0916F04F0917004A8
:1011600088E193E00995109238030ACF1092990410
:1011700034CFE5ECF4E01382128288EE93E0A0E035
:10118000B0E084839583A683B7832EED31E031836D
:10119000208325EC30E03587248724EC30E0378746
:1011A000268720EC30E0318B208B21EC30E0338B34
:1011B000228B22EC30E0358B248B26EC30E0378B11
:1011C000268B118E128E138E148EE2E6F5E01382BA
:1011D000128284839583A683B78380EF91E0918305
:1011E000808310926F0510926E050895CF93DF9360
:1011F000CDB7DEB763970FB6F894DEBF0FBECDBF95
:10120000789484B5826084BD84B5816084BD85B5E1
:10121000826085BD85B5816085BD80916E008160ED
:1012200080936E0010928100809181008260809393
:101230008100809181008160809381008091800095
:101240008160809380008091B10084608093B100C0
:101250008091B00081608093B00080917A008460BA
:1012600080937A0080917A00826080937A008091E6
:101270007A00816080937A0080917A008068809300
:101280007A001092C1000E94110380916E05909126
:101290006F05009711F00E94E61186E090E00E9431
:1012A0004A118C0180E6F801808382E695E0928302
:1012B0008183138280E290E09583848310936F058D
:1012C00000936E050E94110381E0F8018383C80139
:1012D0000E943904E091D504F091D60482E0808325
:1012E000E091D104F091D2041082E091D304F09106
:1012F000D4048FEC80831092DD04E091D904F09146
:10130000DA0486E08083E091D704F091D8048081EC
:1013100080618083E091D704F091D8048081886057
:101320008083E091D704F091D80480818068808325
:10133000E091D704F091D80480818F7D808376ED91
:10134000C72E71E0D72E0EE313E023ED31E03A878C
:10135000298762E0E985FA858191FA87E9870E9409
:101360001F01780126ED31E038872F8361E0EF819E
:10137000F8858191F887EF830E941F01F701119290
:101380001192119211927F012F8138852A5D31408F
:1013900069F7005F1F4F89859A85C816D906C9F677
:1013A00010926E0310926F031092700310927103EB
:1013B00010927203109273031092740310927503CB
:1013C00010927603109277031092780310927903AB
:1013D00062E089E00E941F0162E08AE00E941F0132
:1013E00061E08BE00E941F0162E08CE00E941F011F
:1013F00060E08EE00E941F0160E08BE00E94F1003F
:10140000BE016B5F7F4F90E080E00E9488068D8177
:101410009E8189339043B1F181E092E00E947A0687
:101420006EEC71E090E080E00E949C0604E010E029
:10143000980124503F4F6901F12CE12CF601919065
:101440006F015701A00EB11EC5010E94850E9816AE
:1014500021F0692DC5010E948D0EFFEFEF1AFF0AE2
:1014600024E0E216F10451F70C5F1F4F083C110510
:10147000F9F61A821982BE016F5F7F4F88EC90E007
:101480000E949C06BE016D5F7F4F88EC90E00E9439
:1014900088068B819C818233994009F444C08FE394
:1014A00092E00E947A065EE7E52E53E0F52E04E016
:1014B00010E064E0662E712CA80142585C4F5A017E
:1014C000670148018E189F08C4018C0D9D1D0E9464
:1014D000850EF60181936F01AE16BF06A9F7F701DD
:1014E00061917191819191917F0120E030E04AE713
:1014F00054E40E94C7100E94DA0F7A836983BE0108
:101500006F5F7F4FC3010E949C06F2E06F0E711C5B
:101510000C5F1F4F083C110579F66CEC71E088EC0C
:1015200090E00E949C064EE7E42E43E0F42E04E097
:1015300010E0BE016F5F7F4FC8010E94880669817D
:101540007A81072E000C880B990B0E94121020E064
:1015500030E04AE754E40E94680FF7016193719309
:10156000819391937F010E5F1F4F0636110509F796
:101570008EEF91E00E94F00584E792E00E94F00572
:101580008EE892E00E94F00583E690E00E946206F9
:1015900082EA92E00E94F0054AE064E070E080E0B8
:1015A00090E00E94FD0582EC92E00E94F00585E645
:1015B00090E00E94620689E00E94C800892B61F4D5
:1015C0008AE00E94C800892B39F481E0809361048D
:1015D00061E08BE00E94F1000E9433050E94B3019C
:1015E00000916204109163042091640430916504B9
:1015F000601B710B820B930B6B3F7105810591058D
:1016000008F441C089E00E94C800892BF9F43091A8
:101610005F042091600480916104882309F47CC1F7
:10162000832F922F8430910514F083E090E001968F
:101630009093600480935F040E94B30160936204FE
:101640007093630480936404909365048AE00E941D
:10165000C800892BC1F480915F0490916004181632
:10166000190614F081E090E0019790936004809354
:101670005F040E94B30160936204709363048093DB
:1016800064049093650410916104112309F4F0C17E
:1016900089E00E94C800892B09F047C18AE00E94B6
:1016A000C800892B09F041C10E94B30100915B047D
:1016B00010915C0420915D0430915E04601B710BFD
:1016C000820B930B613D77408105910508F03AC18B
:1016D00092E4A92E94E0B92E26ED622E21E0722E1E
:1016E00010E000E03CE0332EF30141903F0160E068
:1016F000842D0E94F100650183ED882E81E0982EF3
:10170000F12CE12CF40181914F010E94C800552475
:101710005394009709F0512C892B09F043C0F6012E
:1017200080819181892BF1F520915F0430916004D3
:10173000C701880F991F880F991F800F911F329E34
:10174000A001339E500D1124840F951F9093C50165
:101750008093C4012430310561F4E114F10449F4AB
:101760000115110531F420E330E03093C5012093D9
:10177000C401E091C401F091C501EE0FFF1FEE0F0F
:10178000FF1FE258FC4F2FE338EA4FE454E4608136
:101790007181828193810E94C7100E94DA0FCB0170
:1017A0000E94E704852D90E0F60191838083FFEF8E
:1017B000EF1AFF0A28E0C20ED11C33E0E316F10451
:1017C00009F0A0CF61E0842D0E94F1000F5F1F4F50
:1017D00042E0A40EB11C0430110509F085CF8CE065
:1017E0000E94C800892B09F075C0E090C401F090F8
:1017F000C5015FEFE516F50609F46CC08701000F1F
:10180000111F000F111FF801E050FF4F80809180E1
:10181000A280B3800E948E00BC01990F880B990BA7
:101820000E94121020E030EC4FE754E40E94680F51
:1018300020E030E040E85EE30E94C71020E030E0A6
:1018400040E05EE30E94F60EA50194010E94F70EAF
:101850004B015C01E114F10409F08CC020E030E0A0
:10186000A9010E94C21018161CF0812C912C540161
:10187000F801E258FC4F80829182A282B3822FE36A
:1018800038EA4FE454E4C501B4010E94C7100E9435
:10189000DA0FCB010E94E70420E030E04AE754E48D
:1018A000C501B4010E94C7100E94DA0F7A836983D0
:1018B0008091C4019091C5010296BE016F5F7F4F78
:1018C000880F991F0E949C068FEF9FEF9093C50190
:1018D0008093C4018AE00E94C800892B31F489E01A
:1018E0000E94C800892B09F05BC010927A03109205
:1018F0007B0310927C0310927D030E94330580E0ED
:1019000090E0892B09F468CE0E942902882309F40B
:1019100063CE0E94000060CE832F922F833091050A
:101920000CF485CE82E090E082CE0E94B3016093F9
:101930005B0470935C0480935D0490935E0410924A
:101940005A04C6CE80915A048111C2CE109261040D
:1019500021E020935A0460E08BE00E94F1000E9495
:10196000B30160935B0470935C0480935D04909377
:101970005E04AECE80E3E816F10409F079CF20E0F2
:1019800030E040E850E4C501B4010E94630F87FDD8
:101990006FCF812C912C60E8A62E60E4B62E68CF24
:1019A000C0907A03D0907B03E0907C03F0907D039D
:1019B000C114D104E104F10459F40E94B30160930D
:1019C0007A0370937B0380937C0390937D0395CF80
:1019D0000E94B3016C197D098E099F0961347F4112
:1019E0008105910508F489CF84ECE0E0F1E0AEE7F1
:1019F000B3E001900D928A95E1F740E0E42E41E0DA
:101A0000F42E04E010E0F7016191719181919191C0
:101A10007F0120E030E04AE754E40E94C7100E94B2
:101A2000DA0F7A836983BE016F5F7F4FC8010E941E
:101A30009C060E5F1F4F0636110529F706E010E0E1
:101A400061E08BE00E94F1006AEF70E080E090E0DE
:101A50000E94800160E08BE00E94F1006AEF70E07C
:101A600080E090E00E9480010150110949F73DCFCC
:101A70000E9433050E948E00C12CD12C7601823049
:101A800091056CF1BC01990F880B990B0E94121003
:101A900020E030EC4FE754E40E94680F9B01AC015A
:101AA0000E94C71020E030EC4FE754E40E94C710BA
:101AB0000E94DA0F9B01AC016FE774E88EE190E0C1
:101AC0000E9434112FEF33E040E050E00E949B0E63
:101AD00069017A01FFEFCF1ADF0AEF0AFF0A0E94BD
:101AE00033052EE333E03E872D874EE653E0588BD7
:101AF0004F8786ED91E09C878B87EB85FC85219154
:101B0000FC87EB872B8B60E0822F0E94F1006D84B5
:101B10007E84AF84B88843ED51E05A8B498BE989C4
:101B2000FA898191FA8BE98B0E94C8004C0101E08F
:101B3000892B09F000E00E94B3011B012C01F50183
:101B40008081081709F4CFC0F30180819181A281BF
:101B5000B381A2019101281B390B4A0B5B0BDA01FF
:101B6000C901CD97A105B10590F1F50100830E944F
:101B70003305892839F561E08BE00E94F10020915E
:101B80005F0430916004FCE0F29FC001F39F900D70
:101B9000112495012E563340820F931F81339105F6
:101BA00008F09DC0880F991F880F991FFC01E2580B
:101BB000FC4F6081718182819381A70196010E940F
:101BC000850511E0F3012082318242825382F4E0E4
:101BD000AF0EB11C20E1620E711C49895A898985BA
:101BE0009A854817590709F09ACF61E08B890E94BE
:101BF000F100EF85F8893196F88BEF872D853E85CA
:101C00002C5F3F4F3E872D874F8158858B859C8564
:101C10004817590709F071CF0E9433058CE00E94E4
:101C2000C8005C0101E0892B09F000E00E94B301CB
:101C300020913D03021709F446C0409039035090AB
:101C40003A0360903B0370903C039B01AC01241964
:101C500035094609570929013A013CE34316510465
:101C60006104710480F100933D0360933903709324
:101C70003A0380933B0390933C030E943305A114E5
:101C8000B104C9F561E08BE00E94F10080915F042E
:101C9000909160048330910558F580539E4FFC016C
:101CA0008081082E000C990B880F991F880F991FAF
:101CB000FC01E258FC4F6081718182819381A70110
:101CC00096010E9485050E943305111103C060E052
:101CD000AB2809F461E08BE00E94F1000ECE60E0D9
:101CE00070E0CB016ACF892809F071CF11E06FCF86
:101CF00080E390E0D9CF111105C060E08BE00E9435
:101D0000F100E1CF0E943305E5CFF999FECF92BDF6
:101D100081BDF89A992780B50895262FF999FECFAD
:101D20001FBA92BD81BD20BD0FB6F894FA9AF99AF8
:101D30000FBE01960895052E97FB1EF400940E9495
:101D4000B20E57FD07D00E94C50E07FC03D04EF41B
:101D50000C94B20E50954095309521953F4F4F4FC2
:101D60005F4F089590958095709561957F4F8F4F47
:101D70009F4F08950E94E70EA59F900DB49F900D70
:101D8000A49F800D911D11240895A1E21A2EAA1B73
:101D9000BB1BFD010DC0AA1FBB1FEE1FFF1FA2171B
:101DA000B307E407F50720F0A21BB30BE40BF50B18
:101DB000661F771F881F991F1A9469F760957095A1
:101DC000809590959B01AC01BD01CF010895A29F24
:101DD000B001B39FC001A39F700D811D1124911DFF
:101DE000B29F700D811D1124911D08955058BB277D
:101DF000AA270E940E0F0C9488100E947A1038F0C7
:101E00000E94811020F039F49F3F19F426F40C94BD
:101E100077100EF4E095E7FB0C947110E92F0E9407
:101E2000991058F3BA17620773078407950720F0D3
:101E300079F4A6F50C94BB100EF4E0950B2EBA2F96
:101E4000A02D0B01B90190010C01CA01A0011124C0
:101E5000FF27591B99F0593F50F4503E68F11A166C
:101E6000F040A22F232F342F4427585FF3CF4695FD
:101E700037952795A795F0405395C9F77EF41F161F
:101E8000BA0B620B730B840BBAF09150A1F0FF0FE9
:101E9000BB1F661F771F881FC2F70EC0BA0F621FD5
:101EA000731F841F48F4879577956795B795F795C5
:101EB0009E3F08F0B0CF9395880F08F09927EE0F5A
:101EC0009795879508950E944D1008F481E0089534
:101ED0000E947C0F0C9488100E94811058F00E9480
:101EE0007A1040F029F45F3F29F00C9471105111E1
:101EF0000C94BC100C9477100E94991068F39923ED
:101F0000B1F3552391F3951B550BBB27AA276217F5
:101F10007307840738F09F5F5F4F220F331F441F02
:101F2000AA1FA9F335D00E2E3AF0E0E832D0915036
:101F30005040E695001CCAF72BD0FE2F29D0660F23
:101F4000771F881FBB1F261737074807AB07B0E866
:101F500009F0BB0B802DBF01FF2793585F4F3AF06C
:101F60009E3F510578F00C9471100C94BC105F3FAB
:101F7000E4F3983ED4F3869577956795B795F795F2
:101F80009F5FC9F7880F911D9695879597F90895DA
:101F9000E1E0660F771F881FBB1F62177307840776
:101FA000BA0720F0621B730B840BBA0BEE1F88F785
:101FB000E09508950E94E10F6894B1110C94BC1053
:101FC00008950E94A11088F09F5798F0B92F992783
:101FD000B751B0F0E1F0660F771F881F991F1AF014
:101FE000BA95C9F714C0B13091F00E94BB10B1E0AE
:101FF00008950C94BB10672F782F8827B85F39F0AD
:10200000B93FCCF3869577956795B395D9F73EF4AC
:1020100090958095709561957F4F8F4F9F4F089554
:10202000E89409C097FB3EF4909580957095619572
:102030007F4F8F4F9F4F9923A9F0F92F96E9BB2728
:102040009395F695879577956795B795F111F8CFA4
:10205000FAF4BB0F11F460FF1BC06F5F7F4F8F4F0F
:102060009F4F16C0882311F096E911C0772321F005
:102070009EE8872F762F05C0662371F096E8862F9D
:1020800070E060E02AF09A95660F771F881FDAF7F4
:10209000880F9695879597F90895990F0008550F21
:1020A000AA0BE0E8FEEF16161706E807F907C0F0DE
:1020B00012161306E407F50798F0621B730B840BE6
:1020C000950B39F40A2661F0232B242B252B21F4C0
:1020D00008950A2609F4A140A6958FEF811D811D60
:1020E000089597F99F6780E870E060E008959FEF9A
:1020F00080EC089500240A9416161706180609069F
:10210000089500240A94121613061406050608956D
:10211000092E0394000C11F4882352F0BB0F40F4F5
:10212000BF2B11F460FF04C06F5F7F4F8F4F9F4F35
:10213000089557FD9058440F551F59F05F3F71F0B7
:102140004795880F97FB991F61F09F3F79F087951E
:102150000895121613061406551FF2CF4695F1DFA7
:1021600008C0161617061806991FF1CF8695710537
:10217000610508940895E894BB2766277727CB016B
:1021800097F908950E944D1008F48FEF08950E946A
:10219000DA100C9488100E947A1038F00E94811096
:1021A00020F0952311F00C9471100C9477101124E9
:1021B0000C94BC100E94991070F3959FC1F3950F79
:1021C00050E0551F629FF001729FBB27F00DB11DBB
:1021D000639FAA27F00DB11DAA1F649F6627B00D4B
:1021E000A11D661F829F2227B00DA11D621F739F34
:1021F000B00DA11D621F839FA00D611D221F749F42
:102200003327A00D611D231F849F600D211D822F88
:10221000762F6A2F11249F5750409AF0F1F08823AF
:102220004AF0EE0FFF1FBB1F661F771F881F9150DC
:102230005040A9F79E3F510580F00C9471100C940A
:10224000BC105F3FE4F3983ED4F38695779567958D
:10225000B795F795E7959F5FC1F7FE2B880F911D06
:102260009695879597F90895DB018F939F930E9428
:10227000BA0EBF91AF91A29F800D911DA39F900DAB
:10228000B29F900D11240895EE0FFF1F0590F49159
:10229000E02D09940F931F93CF93DF938230910524
:1022A00010F482E090E0E0917205F091730530E067
:1022B00020E0B0E0A0E0309799F42115310509F451
:1022C0004AC0281B390B24303105D8F58A819B81FF
:1022D0006115710589F1FB0193838283FE0111C0B1
:1022E000408151810281138148175907E0F0481756
:1022F000590799F4109761F012960C931297139660
:102300001C933296CF01DF91CF911F910F910895C9
:102310000093720510937305F4CF2115310551F028
:102320004217530738F0A901DB019A01BD01DF0113
:10233000F801C1CFEF01F9CF909373058093720537
:10234000CDCFFE01E20FF31F81939193225031090B
:1023500039832883D7CF2091700530917105232BC5
:1023600041F42091C8013091C90130937105209347
:1023700070052091C6013091C7012115310541F446
:102380002DB73EB74091CA015091CB01241B350BAC
:10239000E0917005F0917105E217F307A0F42E1B90
:1023A0003F0B2817390778F0AC014E5F5F4F2417B9
:1023B000350748F04E0F5F1F50937105409370052D
:1023C000819391939FCFF0E0E0E09CCFCF93DF9398
:1023D0000097E9F0FC01329713821282A0917205F6
:1023E000B0917305ED0130E020E01097A1F4208159
:1023F0003181820F931F209170053091710528174C
:10240000390709F061C0F0937105E0937005DF9121
:10241000CF910895EA01CE17DF07E8F54A815B8185
:102420009E0141155105B1F7E901FB83EA8349910A
:102430005991C40FD51FEC17FD0761F4808191817C
:102440000296840F951FE901998388838281938185
:102450009B838A83F0E0E0E012968D919C91139724
:102460000097B9F52D913C911197CD010296820FFD
:10247000931F20917005309171052817390739F69F
:10248000309751F51092730510927205B093710553
:10249000A0937005BCCFD383C28340815181840F48
:1024A000951FC817D90761F44E5F5F4F88819981E6
:1024B000480F591F518340838A819B819383828374
:1024C0002115310509F0B0CFF0937305E093720543
:1024D0009ECFFD01DC01C0CF13821282D7CFF894CA
:0224E000FFCF2C
:1024E20000000000E7FBA93D0C022B3E0000803EED
:1024F200FA7EAA3E0681D53E0000003F7D3F153F91
:1025020083C02A3F0000403F7D3F553F83C06A3F62
:102512000000803FBE9F8A3F4260953F0000A03F7F
:10252200BE9FAA3F4260B53F0000C03FBE9FCA3F68
:102532004260D53F0000E03FBE9FEA3F4260F53F68
:1025420000000040DF4F054021B00A40000010406B
:10255200DF4F154021B01A4000002040DF4F2540D8
:1025620021B02A4000003040DF4F354021B03A40D0
:1025720000004040DF4F454021B04A40000050403B
:10258200DF4F554021B05A4000006040DF4F6540A8
:1025920021B06A4000007040DF4F754021B07A40A0
:1025A20000008040FFFF00007405800032093930CE
:1025B2000C182402030405060708000000005F024D
:1025C200BF01EC01AC021D02FB010F020000000082
:1025D200B5048804E4045E0481046E045F040D0AF9
:1025E20000454550524F4D207369676E6174757294
:1025F20065206E6F7420666F756E642E20496E6959
:102602007469616C697A696E67207769746820649D
:10261200656661756C742076616C7565732E004613
:102622006C6F617420666F726D617420646574658D
:10263200637465642E20436F6E76657274696E678B
:1026420020746F20696E746567657220666F726DA3
:1026520061742E00454550524F4D20557361676598
:1026620020496E666F726D6174696F6E3A000A542A
:102672006F74616C20627974657320757365643A56
:102682002000446174612073746F72656420626516
:10269200747765656E206164647265737365733AFD
:0826A200200020616E6420009D
:00000001FF
