:100000000C9462000C948A000C948A000C948A0070
:100010000C948A000C948A000C948A000C948A0038
:100020000C948A000C948A000C948A000C948A0028
:100030000C948A000C948A000C948A000C948A0018
:100040000C94F4060C948A000C9464070C943E07FC
:100050000C948A000C948A000C948A000C948A00F8
:100060000C9496070C948A000000000024002700DE
:100070002A0000000000250028002B0000000000DE
:1000800023002600290004040404040404040202DA
:100090000202020203030303030301020408102007
:1000A0004080010204081020010204081020000012
:1000B0000008000201000003040700000000000027
:1000C0000000B50811241FBECFEFD8E0DEBFCDBFC2
:1000D00012E0A0E0B1E0E0E9FAE202C005900D9282
:1000E000AC3DB107D9F725E0ACEDB2E001C01D92FF
:1000F000A73BB207E1F710E0C2E6D0E004C02197C9
:10010000FE010E941B14C136D107C9F70E94F208F4
:100110000C9446150C94000008950895833081F0E6
:1001200028F4813099F08230A9F008958730A9F041
:100130008830C9F08430B1F4809180008F7D03C095
:10014000809180008F7780938000089584B58F77A9
:1001500084BD089584B58F7DFBCF8091B0008F77EB
:100160008093B00008958091B0008F7DF9CFCF9338
:10017000DF93282F30E0F901E255FF4F8491F90118
:10018000E656FF4FD491F901EA57FF4FC491CC23B3
:10019000A1F081110E948E00EC2FF0E0EE0FFF1F06
:1001A000E458FF4FA591B491EC91ED2381E090E0EC
:1001B00009F480E0DF91CF91089580E090E0FACFDC
:1001C0001F93CF93DF93282F30E0F901E255FF4FC3
:1001D0008491F901E656FF4FD491F901EA57FF4F98
:1001E000C491CC23A9F0162F81110E948E00EC2F10
:1001F000F0E0EE0FFF1FEE58FF4FA591B4918FB7BF
:10020000F894EC91111108C0D095DE23DC938FBFD8
:10021000DF91CF911F910895DE2BF8CFCF93DF931D
:1002200090E0FC01E656FF4F24918A579F4FFC0156
:1002300084918823C9F090E0880F991FFC01E85948
:10024000FF4FA591B491FC01EE58FF4FC591D49199
:1002500061110DC09FB7F8948C91209582238C93E7
:100260008881282328839FBFDF91CF910895623032
:1002700051F49FB7F8943C91822F809583238C93FF
:10028000E8812E2BEFCF8FB7F894EC912E2B2C9387
:100290008FBFEACF8E3008F08E50877080648093D5
:1002A0007C0080917A00806480937A0080917A004B
:1002B00086FDFCCF809178009091790008953FB73A
:1002C000F8948091AE049091AF04A091B004B091E5
:1002D000B10426B5A89B05C02F3F19F00196A11DBA
:1002E000B11D3FBFBA2FA92F982F8827BC01CD0180
:1002F000620F711D811D911D42E0660F771F881FDF
:10030000991F4A95D1F708952FB7F8946091AA04E0
:100310007091AB048091AC049091AD042FBF08950F
:10032000AF92BF92CF92DF92EF92FF920F931F9303
:10033000CF93DF936C017B018B01040F151FEB0141
:100340005E01AE18BF08C017D10759F06991D601F8
:10035000ED91FC910190F081E02DC6010995892B6A
:1003600079F7C501DF91CF911F910F91FF90EF9029
:10037000DF90CF90BF90AF900895FC01538D448DD6
:10038000252F30E0842F90E0821B930B541710F040
:10039000CF96089501970895FC01918D828D98174D
:1003A00061F0A28DAE0FBF2FB11D5D968C91928D25
:1003B0009F5F9F73928F90E008958FEF9FEF089556
:1003C000FC01918D828D981731F0828DE80FF11D1F
:1003D000858D90E008958FEF9FEF0895FC01918D3A
:1003E000228D892F90E0805C9F4F821B91098F7333
:1003F0009927089588E095E00E94EE0121E0892B7D
:1004000009F420E0822F089580E090E0892B29F004
:100410000E94FA0181110C9400000895FC01A48D42
:10042000A80FB92FB11DA35ABF4F2C91848D90E016
:1004300001968F739927848FA689B7892C93A089F9
:10044000B1898C91837080648C93938D848D981383
:1004500006C00288F389E02D80818F7D8083089516
:10046000EF92FF920F931F93CF93DF93EC0181E004
:10047000888F9B8D8C8D98131AC0E889F9898081AB
:1004800085FF15C09FB7F894EE89FF896083E889DE
:10049000F98980818370806480839FBF81E090E0D0
:1004A000DF91CF911F910F91FF90EF900895F62E5D
:1004B0000B8D10E00F5F1F4F0F731127E02E8C8DF7
:1004C0008E110CC00FB607FCFACFE889F98980813C
:1004D00085FFF5CFCE010E940E02F1CFEB8DEC0F20
:1004E000FD2FF11DE35AFF4FF0829FB7F8940B8F59
:1004F000EA89FB8980818062CFCFCF93DF93EC01C3
:10050000888D8823B9F0AA89BB89E889F9898C91FB
:1005100085FD03C0808186FD0DC00FB607FCF7CFB7
:100520008C9185FFF2CF808185FFEDCFCE010E94B7
:100530000E02E9CFDF91CF91089520911D03260F80
:100540003327331F21323105ECF42091DE04FC0106
:1005500090E080E0243069F082E00895A0911D03CE
:100560002191AC0143505D4FA40FB52FB11D2C93C9
:100570000196861798F380911D03680F60931D0301
:1005800080E0089581E008951092DE0481E0809378
:10059000DD041092B80461E082E10E94E00061E0B5
:1005A00083E10E94E000E9EBF0E080818E7F8083B0
:1005B00080818D7F808388E48093B80085E4809378
:1005C000BC0008951092B7041092B6041092E5048E
:1005D000109207050E94C4028CE890E09093B50445
:1005E0008093B4048DE890E09093B3048093B204B8
:1005F0000895CF93DF9391E09093FC028823B9F0A4
:10060000C091B800D091BA008091BC008A7B8093E1
:10061000BC0060E082E10E94E00060E083E10E94B3
:10062000E0000E94C402D093BA00C093B800DF91EA
:10063000CF9108958F929F92AF92BF92CF92DF9207
:10064000EF92FF920F931F93CF93DF93D091070503
:10065000D13208F0D7C0182FC09106050E945F0163
:100660006B017C018091DE0481116BC082E080937C
:10067000DE041093DD048FEF8093DC041092DB0422
:10068000D093DA04A6EEB4E0EAEBF4E080E0D8130D
:1006900091C01092B9048091B904CC0FC82BC093BB
:1006A000B9048091B804813009F088C01092B80470
:1006B0000E945F016B017C018091B9048093BB00B3
:1006C0008091E0049091E104A091E204B091E304F0
:1006D000892B8A2B8B2BA1F00E945F010091E004F3
:1006E0001091E1042091E2043091E3046C197D093A
:1006F0008E099F09061717072807390708F442C013
:100700008091BC0083FDD8CF85EC8093BC000E9413
:100710005F016B017C018091DE04823009F450C0DE
:100720008091DC048F3F09F46FC08091DC0480323B
:1007300009F46CC08091DC04803309F469C084E062
:1007400026C08091E0049091E104A091E204B09170
:10075000E304892B8A2B8B2B09F484CF0E945F0141
:100760008090E0049090E104A090E204B090E30453
:100770006C197D098E099F0986169706A806B90689
:1007800008F070CF8091DF040E94F90285E010929A
:10079000E504109207051092E404DF91CF911F91B8
:1007A0000F91FF90EF90DF90CF90BF90AF909F9010
:1007B0008F9008959D9191938F5F69CF85EEA5CF1E
:1007C0008091E0049091E104A091E204B091E304EF
:1007D000892B8A2B8B2B09F49ECF0E945F010091FD
:1007E000E0041091E1042091E2043091E3046C19DB
:1007F0007D098E099F09061717072807390708F092
:100800008ACFC0CF81E0C3CF80E0C1CF82E0BFCF2D
:1008100083E0BDCFCF93DF93EC018B818823A1F0E0
:10082000888191E09093E404809306051092E5049A
:100830001092070581E00E941A0391E0811190E077
:10084000892FDF91CF9108950E94E20281E08B838E
:10085000CE010E940A04982F8111E2CFF1CF0895B2
:10086000E091B7048091B604E81730F4F0E0E45268
:10087000FD4F808190E008958FEF9FEF0895909154
:10088000B7048091B6042FEF3FEF981748F4E92F93
:10089000F0E0E452FD4F208130E09F5F9093B70479
:1008A000C90108958091B6049091B704891B990BF2
:1008B0000895CF92DF92EF92FF920F931F93CF9301
:1008C000DF937C01CB018A012091E404222389F08B
:1008D000EB016B01C40ED51ECC15DD0569F06991E5
:1008E000D701ED91FC910190F081E02DC7010995B0
:1008F000F3CF642F0E949D02C801DF91CF911F9119
:100900000F91FF90EF90DF90CF900895CF93DF93FA
:100910001F92CDB7DEB769832091E4042223F9F05A
:1009200020910705203258F021E030E0FC013383AC
:10093000228390E080E00F90DF91CF910895809125
:10094000E504E82FF0E0EA51FB4F998190838F5F37
:100950008093E5048093070581E090E0ECCF61E0AF
:10096000CE0101960E949D02F7CF90E080E00895AD
:10097000CF93DF9300D01F92CDB7DEB71092B900AE
:100980002CE02093B80020E429839C0194E0369564
:1009900027959A95E1F72A838295807F8B83E09152
:1009A000B105F091B20584819581039738F480E018
:1009B0000F900F900F90DF91CF91089581819281D8
:1009C000208131E03093E404209306051092E50481
:1009D00010920705DC01ED91FC910280F381E02D7E
:1009E00043E050E0BE016F5F7F4F09950397F9F632
:1009F00081E00E941A038111DACF1092B90088E4D5
:100A00008093B80081E0D4CFFC0101900020E9F789
:100A10003197AF01481B590BBC0188E095E00C945D
:100A200090018F929F92AF92BF920F931F93CF939B
:100A3000DF93CDB7DEB7A1970FB6F894DEBF0FBE38
:100A4000CDBF19A2423008F44AE08E010F5D1F4F5E
:100A5000842E912CB12CA12CA50194010E947F1110
:100A6000E62FB901CA01EA30F4F4E05DD801EE9353
:100A70008D01232B242B252B79F790E080E0109714
:100A800019F0CD010E940405A1960FB6F894DEBFBF
:100A90000FBECDBFDF91CF911F910F91BF90AF904F
:100AA0009F908F900895E95CE1CFCF92DF92EF9213
:100AB000FF92CF93DF936B017C016DE288E095E0BC
:100AC0000E943002EC0166277727CB016C197D0963
:100AD0008E099F094AE00E9411058C0F9D1FDF912E
:100AE000CF91FF90EF90DF90CF900895BC01990FC8
:100AF000880B990B97FD0C9455054AE00C94110551
:100B0000CF93DF93BC01990F880B990B97FF0CC013
:100B10000E945505EC0185E092E00E9404058C0FCF
:100B20009D1FDF91CF9108954AE00E941105F2CFF9
:100B30000C940405CF93DF930E940405EC0185E03B
:100B400092E00E9404058C0F9D1FDF91CF910895C4
:100B50004F925F926F927F928F929F92AF92BF92CD
:100B6000CF92DF92EF92FF920F931F93CF936B017F
:100B70007C01742EAC019B010E94EE13882399F036
:100B800088E092E0CF911F910F91FF90EF90DF905E
:100B9000CF90BF90AF909F908F907F906F905F901D
:100BA0004F900C94040546015701E894B7F82FEFD5
:100BB0003FEF4FE75FE7C501B4010E94EE138111DB
:100BC0000DC02FEF3FEF4FE75FE7C501B4010E9473
:100BD0001D1218161CF48CE092E0D4CF2FEF3FEFDB
:100BE0004FE75FE4C701B6010E947C1318161CF49E
:100BF00080E192E0C7CF2FEF3FEF4FE75FECC701F7
:100C0000B6010E941D1287FDF3CF20E030E0A9015C
:100C1000C701B6010E941D1210E000E087FF0AC064
:100C20006DE288E095E00E9430028C01F7FAF094C2
:100C3000F7F8F094C0E060E070E080E09FE37C169D
:100C400041F020E030E040E251E40E942212CF5F08
:100C5000F6CFA70196010E94B1112B013C010E9421
:100C60009B124B015C014AE00E9411057C01E00EE1
:100C7000F11ECC23C1F1C501B4010E94CA129B012F
:100C8000AC01C301B2010E94B0114B015C016EE2E4
:100C900088E095E00E943002E80EF91EC15018F17C
:100CA00020E030E040E251E4C501B4010E9481132C
:100CB0002B013C010E949B124B01B12CA12C4AE05C
:100CC000C501B4010E941105E80EF91EC501B40169
:100CD0000E94CA129B01AC01C301B2010E94B01173
:100CE0004B015C01DBCFC701CF911F910F91FF90AA
:100CF000EF90DF90CF90BF90AF909F908F907F90BC
:100D00006F905F904F9008950F931F93CF93DF9351
:100D10008C01EB010E9437118883C80101960E9463
:100D200037118983CE01DF91CF911F910F910895E3
:100D3000FF920F931F93CF93DF93EC018B01FB0185
:100D4000F0800E943711F81621F06F2DCE010E941D
:100D50003F11F801F1802196CE010E943711F8165B
:100D600021F06F2DCE010E943F11C801DF91CF917C
:100D70001F910F91FF90089585ED8093BC008091A5
:100D8000E0049091E104A091E204B091E30407969D
:100D9000A11DB11D23E0B695A795979587952A9536
:100DA000D1F72091BC0024FD03C01092DE04089509
:100DB0004091E0045091E1046091E2047091E304F9
:100DC000452B462B472B69F30097A105B10541F050
:100DD0002AE22A95F1F700C00197A109B109E1CFF4
:100DE0008091DF040C94F9021F920F920FB60F92BC
:100DF00011242F933F938F939F93AF93BF93809131
:100E0000AA049091AB04A091AC04B091AD043091D0
:100E1000A90423E0230F2D3758F50196A11DB11D1C
:100E20002093A9048093AA049093AB04A093AC04EC
:100E3000B093AD048091AE049091AF04A091B00442
:100E4000B091B1040196A11DB11D8093AE049093A1
:100E5000AF04A093B004B093B104BF91AF919F9140
:100E60008F913F912F910F900FBE0F901F9018956B
:100E700026E8230F0296A11DB11DD2CF1F920F921B
:100E80000FB60F9211242F933F934F935F936F935D
:100E90007F938F939F93AF93BF93EF93FF9388E0DC
:100EA00095E00E940E02FF91EF91BF91AF919F914B
:100EB0008F917F916F915F914F913F912F910F9003
:100EC0000FBE0F901F9018951F920F920FB60F92A2
:100ED00011242F938F939F93EF93FF93E091180525
:100EE000F09119058081E0911E05F0911F0582FDAA
:100EF0001BC09081809121058F5F8F732091220507
:100F0000821741F0E0912105F0E0E85FFA4F958FFC
:100F100080932105FF91EF919F918F912F910F90D9
:100F20000FBE0F901F9018958081F4CF1F920F92E3
:100F30000FB60F9211242F933F934F935F936F93AC
:100F40007F938F939F93AF93BF93EF93FF93809182
:100F5000B900887F803609F44AC0F0F5883209F478
:100F6000A7C018F5803109F49BC0B8F4882309F4B0
:100F7000F9C0883009F494C0FF91EF91BF91AF910F
:100F80009F918F917F916F915F914F913F912F91A1
:100F90000F900FBE0F901F901895883109F488C0EC
:100FA000803251F78093DC0414C0803409F49DC072
:100FB00040F48033B9F38833F9F68093DC0485EC90
:100FC000B0C0803509F485C0883509F496C08834EE
:100FD00099F60E94BC06D0CF883909F48CC038F548
:100FE000883729F050F4883611F0803729F683E0ED
:100FF0008093DE0410923F0357C0883809F47BC009
:10100000803919F0803809F0B7CF80913F038032E2
:1010100008F071C0E0913F0381E08E0F80933F03A1
:101020008091BB00F0E0E15EFC4F80833DC0803BDF
:1010300039F0E0F4803A09F479C0883A09F09CCF9D
:1010400084E08093DE0410921E0310921D03E09151
:10105000B404F091B504099580911D0381110FC06E
:1010600081E080931D031092FD0209C0803C09F4C9
:10107000A6CF883C09F4A3CF883B09F07DCFE0914F
:101080001E0381E08E0F80931E03F0E0E350FD4FBE
:1010900080818093BB0090911E0380911D0329C025
:1010A0008091B9048093BB0085EC8093BC0064CF31
:1010B0009091DB048091DA04981758F5E091DB04F5
:1010C00081E08E0F8093DB04F0E0E654FB4F8081DB
:1010D000E9CFE091DB0481E08E0F8093DB04809107
:1010E000BB00F0E0E654FB4F80839091DB048091DD
:1010F000DA049817C8F285E8D8CFE091DB0481E0E4
:101100008E0F8093DB048091BB00F0E0E654FB4F30
:1011100080838091DD0481115CCF81E08093B804ED
:1011200084EA8093BC001092DE0426CF85EC809385
:10113000BC001092DE0480913F03803230F4E091D5
:101140003F03F0E0E15EFC4F108260913F0370E0EE
:10115000E091B204F091B3048FE193E0099510920D
:101160003F030ACF1092DC0434CFE8E0F5E01382AD
:10117000128288EE93E0A0E0B0E084839583A6839A
:10118000B78325EE31E03183208325EC30E03587CD
:10119000248724EC30E03787268720EC30E0318B41
:1011A000208B21EC30E0338B228B22EC30E0358B2E
:1011B000248B26EC30E0378B268B118E128E138E0B
:1011C000148EE5EAF5E01382128284839583A68368
:1011D000B78387EF91E0918380831092B2051092DC
:1011E000B1050895CF93DF93CDB7DEB762970FB601
:1011F000F894DEBF0FBECDBF789484B5826084BD05
:1012000084B5816084BD85B5826085BD85B581600A
:1012100085BD80916E00816080936E001092810088
:101220008091810082608093810080918100816043
:101230008093810080918000816080938000809104
:10124000B10084608093B1008091B0008160809390
:10125000B00080917A00846080937A0080917A0057
:10126000826080937A0080917A00816080937A0016
:1012700080917A00806880937A001092C1000E9469
:10128000E2028091B1059091B205009711F00E94A1
:10129000BD1486E090E00E9421148C0180E6D80104
:1012A0008C9385EA95E012969C938E9311971396F2
:1012B0001C92139780E290E015969C938E9314975E
:1012C0001093B2050093B1050E94E20281E0F8019B
:1012D0008383C8010E940A04E0911805F091190562
:1012E00082E08083E0911405F09115051082E09171
:1012F0001605F09117058FEC808310922005E09180
:101300001C05F0911D0586E08083E0911A05F0919F
:101310001B05808180618083E0911A05F0911B0597
:10132000808188608083E0911A05F0911B0580819F
:1013300080688083E0911A05F0911B0580818F7D84
:10134000808327E5E22E24E0F22E0AED11E062E030
:10135000D8018D918D010E940E0157019DEDC92E7E
:1013600091E0D92E61E0F60181916F010E940E019A
:10137000D5011D921D921D921D925D01B1EECB16FD
:10138000B1E0DB0679F7E0E1EE0EF11CF1E00D3D96
:101390001F07E9F6109287041092880410928904BE
:1013A00010928A0410928B0410928C0410928D0477
:1013B00010928E0410928F04109290041092910457
:1013C0001092920462E089E00E940E0162E08AE0DD
:1013D0000E940E0160E08BE00E940E0162E08CE052
:1013E0000E940E0160E08EE00E940E0161E08DE03F
:1013F0000E940E0160E08BE00E94E0000E948401E8
:101400006B017C010E9484016C197D098E099F0982
:10141000603D77408105910588F489E00E94B7001E
:10142000892B81F78AE00E94B700892B59F781E068
:1014300080939E0461E08BE00E94E000BE016B5F40
:101440007F4F90E080E00E9484068D819E818933E9
:101450009043B1F184E192E00E949A0565ED71E05C
:1014600090E080E00E94980604E010E0A80144505B
:101470005F4F6A01F12CE12CD6019D906D0157015F
:10148000A00EB11EC5010E943711981621F0692DDA
:10149000C5010E943F11BFEFEB1AFB0AE4E0EE1614
:1014A000F10451F70C5F1F4F083C1105F9F61A8241
:1014B0001982BE016F5F7F4F88EC90E00E94980612
:1014C000BE016D5F7F4F88EC90E00E9484068B81A7
:1014D0009C818233994009F444C082E592E00E94E5
:1014E0009A05B7E6EB2EB3E0FB2E04E010E084E0B3
:1014F000682E712C980129593C4F59016701480108
:101500008E189F08C4018C0D9D1D0E943711D601B5
:101510008D936D01AA16BB06A9F7F7016191719130
:10152000819191917F0120E030E04AE754E40E94EC
:1015300081130E9494127A836983BE016F5F7F4F8B
:10154000C3010E949806F2E06F0E711C0C5F1F4FE2
:10155000083C110579F663ED71E088EC90E00E949B
:101560009806A7E6EA2EA3E0FA2E04E010E0BE01FA
:101570006F5F7F4FC8010E94840669817A81072EC0
:10158000000C880B990B0E94CC1220E030E04AE757
:1015900054E40E942212D7016D937D938D939D9305
:1015A0007D010E5F1F4F0636110509F785E092E0B9
:1015B0000E94040587E892E00E94980581EA92E083
:1015C0000E94980583E690E00E94800585EB92E0FA
:1015D0000E94980584E090E00E94760585ED92E0F7
:1015E0000E94980585E690E00E9480052091C50143
:1015F0003091C601E5E3F4E090E080E082179307C4
:1016000024F4119211920196F9CF3093560420934D
:1016100055040E9484012B013C0189E00E94B7001F
:101620008C018AE00E94B7004091A5045091A60465
:101630006091A7047091A80473016201C41AD50ACD
:10164000E60AF70A2091A4040115110509F091C3D7
:1016500021110BC04092A0045092A1046092A204F8
:101660007092A30421E02093A40420919B04892B71
:1016700009F0BCC321110BC04092A0045092A104F8
:101680006092A2047092A30481E080939B04012BDA
:1016900009F0DDC380919E048111D9C380919A0421
:1016A00081110CC040929604509297046092980465
:1016B0007092990481E080939A04CBC38091960440
:1016C00090919704A0919804B0919904530142011C
:1016D000881A990AAA0ABB0AD501C4018536910560
:1016E000A105B10508F4B7C380919F048111B3C36C
:1016F00080919C0490919D04909395048093940410
:1017000080912D0490912E04019665E070E00E9476
:10171000F313909364038093630381E080936603E3
:10172000109265034092A5045092A6046092A7040B
:101730007092A80480939F041092A40410929B04BA
:101740008AC3843521E092073CF444E050E0509392
:10175000C8014093C7018DC38E3F51E095073CF40B
:1017600065E070E07093C8016093C70182C3883A56
:1017700072E097073CF486E090E09093C801809374
:10178000C70177C3823593403CF4E8E0F0E0F09382
:10179000C801E093C7016DC3E0E18E2E912C9092B9
:1017A000C8018092C70165C30E94840160935F03F2
:1017B00070936003809361039093620310925E03C1
:1017C0008BC380915E03811187C310929E0481E0D8
:1017D00080935E0360E08BE00E94E0000E94840141
:1017E00060935F037093600380936103909362033F
:1017F00073C340E3E416F10409F043C420E030E091
:1018000040E850E40E941D1287FD3BC4812C912CBE
:1018100080E8A82E80E4B82E34C4C0904003D09055
:101820004103E0904203F0904303C114D104E1046A
:10183000F10459F40E9484016093400370934103C2
:10184000809342039093430361C40E9484016C1906
:101850007D098E099F0961347F418105910508F456
:1018600055C484ECE0E0F1E0A7E6B3E001900D920E
:101870008A95E1F7A0E0EA2EA1E0FA2E04E010E05C
:10188000D7016D917D918D919D917D0120E030E09A
:101890004AE754E40E9481130E9494127A83698378
:1018A000BE016F5F7F4FC8010E9498060E5F1F4FF9
:1018B0000636110529F722C477E5872E74E0972EA6
:1018C000E7E8AE2EE4E0BE2EEDEDF1E0F887EF8321
:1018D000C801880F991F9C012D5C3B4F3C872B87CB
:1018E000AF81B8852D90B887AF8360E0822D0E94CC
:1018F000E00064017501EAEDF1E0FA87E987A98566
:10190000BA858D91BA87A9870E94B7009A8B898B77
:1019100021E0892B09F020E0F7013081231709F439
:10192000FAC0D6014D915D916D917C91D301C201B8
:10193000841B950BA60BB70B4F97A105B105B0F112
:101940002083A989BA89AB2B59F561E08DE00E940B
:10195000E00080919C0490919D04BCE0B89F9001B0
:10196000B99F300D1124C70187589440280F391FA3
:101970008091550490915604801791070CF0BBC0DC
:10198000AC014F5F5F4F5093560440935504880F4E
:10199000991FFC01EB5CFB4F31832083332433948C
:1019A000D6014D925D926D927C921397F4E0EF0E0A
:1019B000F11C20E1C20ED11C49855A854D5D514074
:1019C00009F09DCF61E0822D0E94E0007FEFA71A11
:1019D000B70A84E0880E911CAF81B885A15EB14042
:1019E00009F07ECF8CE00E94B70021E0009709F05B
:1019F00020E030913404231709F4B0C04091300442
:101A000050913104609132047091330453014201CA
:101A1000841A950AA60AB70AB501A4014E315105E8
:101A20006105710508F49AC0209334044092300493
:101A3000509231046092320470923304892B09F081
:101A400085C061E08DE00E94E00080919C0490914F
:101A50009D0420E330E08330910538F489529E4F95
:101A6000DC012C91022E000C330B809155049091D7
:101A70005604801791070CF056C0AC014F5F5F4FC2
:101A80005093560440935504880F991FFC01EB5C5A
:101A9000FB4F3183208361E08DE00E94E0008BE00A
:101AA0000E94B700FF24F394009709F4F12C892BCE
:101AB00009F45CC180912F04811158C10E948401F6
:101AC0008091550490915604181619060CF04EC1D9
:101AD00080912D0490912E048230910509F4DEC08E
:101AE00008F042C0009709F45FC0019709F4C7C02D
:101AF00030E020E06CC0E5E3F4E081E090E08017A6
:101B0000910734F442815381419351930196F7CF69
:101B1000EB85FC8541CFE989FA89EF2B09F046CFA7
:101B20003324339443CFE5E3F4E081E090E0801781
:101B3000910734F442815381419351930196F7CF39
:101B4000F801EE0FFF1FED5CFB4FA3CF3110A3CFC9
:101B500060E08DE00E94E00060E09ECF31109BCFFE
:101B6000892B09F498CFF8CF8330910509F4C0C0D0
:101B7000049709F0BDCF4801110FAA08BB088114D2
:101B80009104A104B10439F00E94DF10A501940171
:101B90000E944D114B018401000F111F0B5C1B4F64
:101BA000F8012081318113C080912B0490912C0485
:101BB000FC01EE0FFF1FEB5CFB4F20813181019692
:101BC000B8010E94F31390932C0480932B0460E0DF
:101BD00070E0CB012133310558F4220F331F220F5F
:101BE000331FF901E959FC4F608171818281938132
:101BF0002FE338EA4FE454E40E9481130E949412C8
:101C0000CB010E94B80400912B0410912C04011503
:101C1000110509F094C080919304882309F48FC0C2
:101C20008091C7019091C8019093C6018093C5012E
:101C30001092930420915504309156048217930713
:101C40000CF07DC0220F331FBC01660F771F71950A
:101C500061957109E5E3F4E050E040E04817590769
:101C60000CF069C0DF01A20FB31FA60FB71F0D90C4
:101C7000BC91A02DA193B1934F5F5F4FEFCF8091A7
:101C80002B0490912C04FC01EE0FFF1FEB5CFB4F2B
:101C9000208131810197800F911F92CF80912B0479
:101CA00090912C04FC01EE0FFF1FEB5CFB4F208199
:101CB00031814091C401442371F0019690932C042A
:101CC00080932B0401501109801791070CF47FCFEA
:101CD0001092C4017CCF019790932C0480932B0425
:101CE000181619060CF473CF81E08093C4016FCFEE
:101CF00080912B0490912C04FC01EE0FFF1FEB5CF4
:101D0000FB4F208131814091C401442361F0019651
:101D1000801791070CF457CF0150110910932C0430
:101D200000932B04D5CF019797FF4DCF10922C0431
:101D300010922B04D9CF9093560480935504809130
:101D40006603882399F0012B89F480916503811142
:101D50000DC0809163039091640390932E0480934F
:101D60002D041092660381E080936503F0922F04A6
:101D7000CDC1222309F479CC0097A9F14091A004A8
:101D80005091A1046091A2047091A30453014201F7
:101D9000841A950AA60AB70AB501A4014F31510564
:101DA0006105710500F120919F0421111CC024EFF1
:101DB000C21621E0D206E104F104A8F020919E04AD
:101DC00044E050E0211102C043E050E020919C0427
:101DD00030919D042417350734F42F5F3F4F309323
:101DE0009D0420939C041092A4043FCC222379F1FB
:101DF000012B59F18091A0049091A104A091A2041B
:101E0000B091A304B301A201481B590B6A0B7B0BD1
:101E1000DB01CA014F97A105B105B8F080919F047D
:101E2000811113C054EFC51651E0D506E104F10449
:101E300060F080919C0490919D04181619062CF472
:101E4000019790939D0480939C0410929B041092A0
:101E50009A0410929F048EE00E944A018A3A9105EA
:101E60000CF06FCCF3E0AF2EB12CB092C801A09271
:101E7000C7010091C5011091C6018091C7019091E1
:101E8000C8018017910719F081E080939304309086
:101E90009E04332009F410CD89E00E94B700892BFD
:101EA00009F082CC8AE00E94B700892B09F07CCC33
:101EB0000E94840100915F031091600320916103EF
:101EC00030916203601B710B820B930B613D774075
:101ED0008105910508F075CC66E4A62E63E0B62E68
:101EE0007DED672E71E0772E10E000E0D3014D907C
:101EF0003D0160E0842D0E94E00065015AED852ED1
:101F000051E0952EF12CE12CF40181914F010E94BA
:101F1000B70055245394009709F0512C892B09F0F0
:101F200049C0D6018D919C91892B09F043C0209125
:101F30009C0430919D04C701880F991F880F991F39
:101F4000800F911FBCE0B29FA001B39F500D1124E0
:101F5000840F951F909345038093440324303105EB
:101F600061F4E114F10449F40115110531F4E0E3E1
:101F7000F0E0F0934503E093440380914403909193
:101F8000450381339105B0F4880F991F880F991F7D
:101F9000FC01E959FC4F2FE338EA4FE454E4608137
:101FA0007181828193810E9481130E949412CB01DE
:101FB0000E94B804852D90E0D6018D939C93BFEFCD
:101FC000EB1AFB0AE8E0CE0ED11CF3E0EF16F104A9
:101FD00009F09ACF61E0842D0E94E0000F5F1F4F4F
:101FE00022E0A20EB11C0430110509F07FCF8CE075
:101FF0000E94B700892B09F076C0E0904403F0906E
:1020000045033FEFE316F30609F46DC08701000FA7
:10201000111F000F111FF801E050FF4F80809180C9
:10202000A280B3808EE00E944A01BC01990F880B08
:10203000990B0E94CC1220E030EC4FE754E40E9450
:10204000221220E030E040E85EE30E94811320E0AD
:1020500030E040E05EE30E94B011A50194010E94CF
:10206000B1114B015C01E114F10409F0C2CB20E095
:1020700030E0A9010E947C1318161CF0812C912CD1
:102080005401F801E959FC4F80829182A282B38207
:102090002FE338EA4FE454E4C501B4010E948113F0
:1020A0000E949412CB010E94B80420E030E04AE77D
:1020B00054E4C501B4010E9481130E9494127A83F2
:1020C000698380914403909145030296BE016F5F3E
:1020D0007F4F880F991F0E9498068FEF9FEF909374
:1020E0004503809344038AE00E94B700892B31F4B2
:1020F00089E00E94B700892B09F08FCB1092400332
:1021000010924103109242031092430380E090E04A
:10211000892B09F47ECA0E94FA01882309F479CA3E
:102120000E94000076CA8F929F92AF92BF92CF9288
:10213000DF92EF92FF92CF93DF93EC016881798178
:102140008A819B81611571058105910521F464E205
:1021500079ED8BE597E02DE133EF41E050E00E940F
:102160004D1149015A019B01AC01A7EAB1E40E945B
:102170006C116B017C01ACEEB4EFA50194010E94DF
:102180007A11C60ED71EE81EF91EF7FE06C081E0C2
:10219000C81AD108E10880E8F80AC882D982EA8220
:1021A000FB82C701B6019F77DF91CF91FF90EF903F
:1021B000DF90CF90BF90AF909F908F9008958F92B7
:1021C0009F92AF92BF92CF92DF92EF92FF92609177
:1021D000C9017091CA018091CB019091CC01611528
:1021E00071058105910521F464E279ED8BE597E0B5
:1021F0002DE133EF41E050E00E944D1149015A01B9
:102200009B01AC01A7EAB1E40E946C116B017C0157
:10221000ACEEB4EFA50194010E947A11C60ED71E50
:10222000E81EF91EF7FE06C081E0C81AD108E108D1
:1022300080E8F80AC092C901D092CA01E092CB01AD
:10224000F092CC01C701B6019F77FF90EF90DF902D
:10225000CF90BF90AF909F908F9008956093C901E9
:102260007093CA018093CB019093CC010895F999A2
:10227000FECF92BD81BDF89A992780B50895262F8B
:10228000F999FECF1FBA92BD81BD20BD0FB6F8945B
:10229000FA9AF99A0FBE01960895052E97FB1EF43F
:1022A00000940E94641157FD07D00E947F1107FC23
:1022B00003D04EF40C9464115095409530952195BF
:1022C0003F4F4F4F5F4F0895909580957095619562
:1022D0007F4F8F4F9F4F08950E94A111A59F900D92
:1022E000B49F900DA49F800D911D11240895B7FFF8
:1022F0000C946C110E946C11821B930B0895A1E247
:102300001A2EAA1BBB1BFD010DC0AA1FBB1FEE1F6F
:10231000FF1FA217B307E407F50720F0A21BB30BBA
:10232000E40BF50B661F771F881F991F1A9469F736
:1023300060957095809590959B01AC01BD01CF0192
:102340000895A29FB001B39FC001A39F700D811D8E
:102350001124911DB29F700D811D1124911D0895AE
:102360005058BB27AA270E94C8110C9442130E9400
:10237000341338F00E943B1320F039F49F3F19F4D6
:1023800026F40C9431130EF4E095E7FB0C942B1318
:10239000E92F0E94531358F3BA1762077307840793
:1023A000950720F079F4A6F50C9475130EF4E095DA
:1023B0000B2EBA2FA02D0B01B90190010C01CA01FF
:1023C000A0011124FF27591B99F0593F50F4503EAA
:1023D00068F11A16F040A22F232F342F4427585F9C
:1023E000F3CF469537952795A795F0405395C9F7B4
:1023F0007EF41F16BA0B620B730B840BBAF091506C
:10240000A1F0FF0FBB1F661F771F881FC2F70EC00A
:10241000BA0F621F731F841F48F4879577956795DD
:10242000B795F7959E3F08F0B0CF9395880F08F0C9
:102430009927EE0F9795879508950E94071308F442
:1024400081E008950E9436120C9442130E943B13BF
:1024500058F00E94341340F029F45F3F29F00C94A7
:102460002B1351110C9476130C9431130E945313B7
:1024700068F39923B1F3552391F3951B550BBB27B3
:10248000AA2762177307840738F09F5F5F4F220FF8
:10249000331F441FAA1FA9F335D00E2E3AF0E0E8EF
:1024A00032D091505040E695001CCAF72BD0FE2F39
:1024B00029D0660F771F881FBB1F261737074807CD
:1024C000AB07B0E809F0BB0B802DBF01FF27935885
:1024D0005F4F3AF09E3F510578F00C942B130C940B
:1024E00076135F3FE4F3983ED4F38695779567952E
:1024F000B795F7959F5FC9F7880F911D96958795BA
:1025000097F90895E1E0660F771F881FBB1F6217D8
:1025100073078407BA0720F0621B730B840BBA0B96
:10252000EE1F88F7E09508950E949B126894B11100
:102530000C94761308950E945B1388F09F5798F0CF
:10254000B92F9927B751B0F0E1F0660F771F881FB8
:10255000991F1AF0BA95C9F714C0B13091F00E94D2
:102560007513B1E008950C947513672F782F8827A1
:10257000B85F39F0B93FCCF3869577956795B395F9
:10258000D9F73EF490958095709561957F4F8F4F68
:102590009F4F0895E89409C097FB3EF4909580956D
:1025A000709561957F4F8F4F9F4F9923A9F0F92F19
:1025B00096E9BB279395F695879577956795B79597
:1025C000F111F8CFFAF4BB0F11F460FF1BC06F5F7D
:1025D0007F4F8F4F9F4F16C0882311F096E911C08F
:1025E000772321F09EE8872F762F05C0662371F0B0
:1025F00096E8862F70E060E02AF09A95660F771FC4
:10260000881FDAF7880F9695879597F90895990F9F
:102610000008550FAA0BE0E8FEEF16161706E807AC
:10262000F907C0F012161306E407F50798F0621BCD
:10263000730B840B950B39F40A2661F0232B242BA2
:10264000252B21F408950A2609F4A140A6958FEFC1
:10265000811D811D089597F99F6780E870E060E013
:1026600008959FEF80EC089500240A94161617062B
:1026700018060906089500240A9412161306140673
:1026800005060895092E0394000C11F4882352F0D6
:10269000BB0F40F4BF2B11F460FF04C06F5F7F4F8E
:1026A0008F4F9F4F089557FD9058440F551F59F075
:1026B0005F3F71F04795880F97FB991F61F09F3F2F
:1026C00079F087950895121613061406551FF2CF58
:1026D0004695F1DF08C0161617061806991FF1CFA8
:1026E00086957105610508940895E894BB276627CF
:1026F0007727CB0197F908950E94071308F48FEF0D
:1027000008950E9494130C9442130E94341338F0DD
:102710000E943B1320F0952311F00C942B130C9482
:10272000311311240C9476130E94531370F3959F68
:10273000C1F3950F50E0551F629FF001729FBB27B8
:10274000F00DB11D639FAA27F00DB11DAA1F649F54
:102750006627B00DA11D661F829F2227B00DA11D07
:10276000621F739FB00DA11D621F839FA00D611D8D
:10277000221F749F3327A00D611D231F849F600DAE
:10278000211D822F762F6A2F11249F5750409AF0D7
:10279000F1F088234AF0EE0FFF1FBB1F661F771F63
:1027A000881F91505040A9F79E3F510580F00C942E
:1027B0002B130C9476135F3FE4F3983ED4F3869585
:1027C00077956795B795F795E7959F5FC1F7FE2BCE
:1027D000880F911D9695879597F908950E94071384
:1027E000880B990B089597FB072E16F4009407D0D9
:1027F00077FD09D00E94071407FC05D03EF49095A0
:1028000081959F4F0895709561957F4F0895AA1BFC
:10281000BB1B51E107C0AA1FBB1FA617B70710F0CB
:10282000A61BB70B881F991F5A95A9F780959095FD
:10283000BC01CD010895EE0FFF1F0590F491E02D2E
:1028400009940F931F93CF93DF938230910510F477
:1028500082E090E0E091B505F091B60530E020E02F
:10286000B0E0A0E0309799F42115310509F44AC091
:10287000281B390B24303105D8F58A819B816115DD
:10288000710589F1FB0193838283FE0111C04081B0
:1028900051810281138148175907E0F04817590701
:1028A00099F4109761F012960C93129713961C935B
:1028B0003296CF01DF91CF911F910F910895009330
:1028C000B5051093B605F4CF2115310551F0421727
:1028D000530738F0A901DB019A01BD01DF01F801BE
:1028E000C1CFEF01F9CF9093B6058093B505CDCF59
:1028F000FE01E20FF31F8193919322503109398336
:102900002883D7CF2091B3053091B405232B41F410
:102910002091CF013091D0013093B4052093B305BD
:102920002091CD013091CE012115310541F42DB713
:102930003EB74091D1015091D201241B350BE0915B
:10294000B305F091B405E217F307A0F42E1B3F0B7B
:102950002817390778F0AC014E5F5F4F2417350711
:1029600048F04E0F5F1F5093B4054093B305819319
:1029700091939FCFF0E0E0E09CCFCF93DF9300975F
:10298000E9F0FC01329713821282A091B505B09153
:10299000B605ED0130E020E01097A1F420813181EF
:1029A000820F931F2091B3053091B4052817390782
:1029B00009F061C0F093B405E093B305DF91CF91C6
:1029C0000895EA01CE17DF07E8F54A815B819E0191
:1029D00041155105B1F7E901FB83EA83499159910A
:1029E000C40FD51FEC17FD0761F480819181029619
:1029F000840F951FE90199838883828193819B834A
:102A00008A83F0E0E0E012968D919C9113970097F5
:102A1000B9F52D913C911197CD010296820F931F2C
:102A20002091B3053091B4052817390739F630974E
:102A300051F51092B6051092B505B093B405A09368
:102A4000B305BCCFD383C28340815181840F951FCE
:102A5000C817D90761F44E5F5F4F88819981480F8D
:102A6000591F518340838A819B81938382832115DF
:102A7000310509F0B0CFF093B605E093B5059ECFD0
:102A8000FD01DC01C0CF13821282D7CFF894FFCFB3
:102A900000000000E7FBA93D0C022B3E0000803E39
:102AA000FA7EAA3E0681D53E0000003F7D3F153FDD
:102AB00083C02A3F0000403F7D3F553F83C06A3FAF
:102AC0000000803FBE9F8A3F4260953F0000A03FCC
:102AD000BE9FAA3F4260B53F0000C03FBE9FCA3FB5
:102AE0004260D53F0000E03FBE9FEA3F4260F53FB5
:102AF00000000040DF4F054021B00A4000001040B8
:102B0000DF4F154021B01A4000002040DF4F254024
:102B100021B02A4000003040DF4F354021B03A401C
:102B200000004040DF4F454021B04A400000504087
:102B3000DF4F554021B05A4000006040DF4F6540F4
:102B400021B06A4000007040DF4F754021B07A40EC
:102B5000000080400108000800010000000000B7EC
:102B6000058000320939300C1824020304050607D9
:102B7000080000000030029001BD017D02EE01CC92
:102B800001E0010000000086045904B5042F04523E
:102B9000043F0430040D0A006E616E00696E660029
:102BA0006F766600454550524F4D207369676E61E0
:102BB00074757265206E6F7420666F756E642E205A
:102BC000496E697469616C697A696E6720776974A6
:102BD000682064656661756C742076616C756573D8
:102BE0002E00466C6F617420666F726D6174206494
:102BF000657465637465642E20436F6E76657274C8
:102C0000696E6720746F20696E74656765722066EF
:102C10006F726D61742E00454550524F4D205573B3
:102C200061676520496E666F726D6174696F6E3A97
:102C3000000A546F74616C20627974657320757337
:102C400065643A2000446174612073746F72656436
:102C5000206265747765656E206164647265737364
:0C2C600065733A200020616E64200000C3
:00000001FF
