:100000000C9462000C948A000C948A000C948A0070
:100010000C948A000C948A000C948A000C948A0038
:100020000C948A000C948A000C948A000C948A0028
:100030000C948A000C948A000C948A000C948A0018
:100040000C948A060C948A000C94FA060C94D4063C
:100050000C948A000C948A000C948A000C948A00F8
:100060000C942C070C948A00000000002400270048
:100070002A0000000000250028002B0000000000DE
:1000800023002600290004040404040404040202DA
:100090000202020203030303030301020408102007
:1000A0004080010204081020010204081020000012
:1000B0000008000201000003040700000000000027
:1000C00000004B0811241FBECFEFD8E0DEBFCDBF2C
:1000D00012E0A0E0B1E0E8EEF0E302C005900D927E
:1000E000A83BB107D9F725E0A8EBB2E001C01D920B
:1000F000AC3AB207E1F710E0C2E6D0E004C02197C5
:10010000FE010E943317C136D107C9F70E94880843
:100110000C9472180C94000008950895833081F0B7
:1001200028F4813099F08230A9F008958730A9F041
:100130008830C9F08430B1F4809180008F7D03C095
:10014000809180008F7780938000089584B58F77A9
:1001500084BD089584B58F7DFBCF8091B0008F77EB
:100160008093B00008958091B0008F7DF9CFCF9338
:10017000DF93282F30E0F901E255FF4F8491F90118
:10018000E656FF4FD491F901EA57FF4FC491CC23B3
:10019000A1F081110E948E00EC2FF0E0EE0FFF1F06
:1001A000E458FF4FA591B491EC91ED2381E090E0EC
:1001B00009F480E0DF91CF91089580E090E0FACFDC
:1001C0001F93CF93DF93282F30E0F901E255FF4FC3
:1001D0008491F901E656FF4FD491F901EA57FF4F98
:1001E000C491CC23A9F0162F81110E948E00EC2F10
:1001F000F0E0EE0FFF1FEE58FF4FA591B4918FB7BF
:10020000F894EC91111108C0D095DE23DC938FBFD8
:10021000DF91CF911F910895DE2BF8CFCF93DF931D
:1002200090E0FC01E656FF4F24918A579F4FFC0156
:1002300084918823C9F090E0880F991FFC01E85948
:10024000FF4FA591B491FC01EE58FF4FC591D49199
:1002500061110DC09FB7F8948C91209582238C93E7
:100260008881282328839FBFDF91CF910895623032
:1002700051F49FB7F8943C91822F809583238C93FF
:10028000E8812E2BEFCF8FB7F894EC912E2B2C9387
:100290008FBFEACF8E3008F08E50877080648093D5
:1002A0007C0080917A00806480937A0080917A004B
:1002B00086FDFCCF809178009091790008953FB73A
:1002C000F8948091A3049091A404A091A504B09106
:1002D000A60426B5A89B05C02F3F19F00196A11DC5
:1002E000B11D3FBFBA2FA92F982F8827BC01CD0180
:1002F000620F711D811D911D42E0660F771F881FDF
:10030000991F4A95D1F708952FB7F89460919F04EB
:100310007091A0048091A1049091A2042FBF089530
:10032000AF92BF92CF92DF92EF92FF920F931F9303
:10033000CF93DF936C017B018B01040F151FEB0141
:100340005E01AE18BF08C017D10759F06991D601F8
:10035000ED91FC910190F081E02DC6010995892B6A
:1003600079F7C501DF91CF911F910F91FF90EF9029
:10037000DF90CF90BF90AF900895FC01538D448DD6
:10038000252F30E0842F90E0821B930B541710F040
:10039000CF96089501970895FC01918D828D98174D
:1003A00061F0A28DAE0FBF2FB11D5D968C91928D25
:1003B0009F5F9F73928F90E008958FEF9FEF089556
:1003C000FC01918D828D981731F0828DE80FF11D1F
:1003D000858D90E008958FEF9FEF0895FC01918D3A
:1003E000228D892F90E0805C9F4F821B91098F7333
:1003F000992708958DEF94E00E94EE0121E0892B6A
:1004000009F420E0822F089580E090E0892B29F004
:100410000E94FA0181110C9400000895FC01A48D42
:10042000A80FB92FB11DA35ABF4F2C91848D90E016
:1004300001968F739927848FA689B7892C93A089F9
:10044000B1898C91837080648C93938D848D981383
:1004500006C00288F389E02D80818F7D8083089516
:10046000EF92FF920F931F93CF93DF93EC0181E004
:10047000888F9B8D8C8D98131AC0E889F9898081AB
:1004800085FF15C09FB7F894EE89FF896083E889DE
:10049000F98980818370806480839FBF81E090E0D0
:1004A000DF91CF911F910F91FF90EF900895F62E5D
:1004B0000B8D10E00F5F1F4F0F731127E02E8C8DF7
:1004C0008E110CC00FB607FCFACFE889F98980813C
:1004D00085FFF5CFCE010E940E02F1CFEB8DEC0F20
:1004E000FD2FF11DE35AFF4FF0829FB7F8940B8F59
:1004F000EA89FB8980818062CFCFCF93DF93EC01C3
:10050000888D8823B9F0AA89BB89E889F9898C91FB
:1005100085FD03C0808186FD0DC00FB607FCF7CFB7
:100520008C9185FFF2CF808185FFEDCFCE010E94B7
:100530000E02E9CFDF91CF9108952091F902260FA5
:100540003327331F21323105ECF42091D304FC0111
:1005500090E080E0243069F082E00895A091F902F3
:100560002191AC0147525D4FA40FB52FB11D2C93C3
:100570000196861798F38091F902680F6093F9024B
:1005800080E0089581E008951092D30481E0809383
:10059000D2041092AD0461E082E10E94E00061E0CB
:1005A00083E10E94E000E9EBF0E080818E7F8083B0
:1005B00080818D7F808388E48093B80085E4809378
:1005C000BC0008951092AC041092AB041092DA04AF
:1005D0001092FC040E94C4028CE890E09093AA045C
:1005E0008093A9048DE890E09093A8048093A704D9
:1005F0000895CF93DF9391E09093D8028823B9F0C8
:10060000C091B800D091BA008091BC008A7B8093E1
:10061000BC0060E082E10E94E00060E083E10E94B3
:10062000E0000E94C402D093BA00C093B800DF91EA
:10063000CF9108958F929F92AF92BF92CF92DF9207
:10064000EF92FF920F931F93CF93DF93D091FC040F
:10065000D13208F0D7C0182FC091FB040E945F016F
:100660006B017C018091D30481116BC082E0809387
:10067000D3041093D2048FEF8093D1041092D0044E
:10068000D093CF04ABEDB4E0EFEAF4E080E0D81310
:1006900091C01092AE048091AE04CC0FC82BC093D1
:1006A000AE048091AD04813009F088C01092AD0491
:1006B0000E945F016B017C018091AE048093BB00BE
:1006C0008091D5049091D604A091D704B091D8041C
:1006D000892B8A2B8B2BA1F00E945F010091D504FE
:1006E0001091D6042091D7043091D8046C197D095B
:1006F0008E099F09061717072807390708F442C013
:100700008091BC0083FDD8CF85EC8093BC000E9413
:100710005F016B017C018091D304823009F450C0E9
:100720008091D1048F3F09F46FC08091D104803251
:1007300009F46CC08091D104803309F469C084E06D
:1007400026C08091D5049091D604A091D704B09191
:10075000D804892B8A2B8B2B09F484CF0E945F014C
:100760008090D5049090D604A090D704B090D8047F
:100770006C197D098E099F0986169706A806B90689
:1007800008F070CF8091D4040E94F90285E01092A5
:10079000DA041092FC041092D904DF91CF911F91DA
:1007A0000F91FF90EF90DF90CF90BF90AF909F9010
:1007B0008F9008959D9191938F5F69CF85EEA5CF1E
:1007C0008091D5049091D604A091D704B091D8041B
:1007D000892B8A2B8B2B09F49ECF0E945F010091FD
:1007E000D5041091D6042091D7043091D8046C1907
:1007F0007D098E099F09061717072807390708F092
:100800008ACFC0CF81E0C3CF80E0C1CF82E0BFCF2D
:1008100083E0BDCFCF93DF93EC018B818823A1F0E0
:10082000888191E09093D9048093FB041092DA04BC
:100830001092FC0481E00E941A0391E0811190E083
:10084000892FDF91CF9108950E94E20281E08B838E
:10085000CE010E940A04982F8111E2CFF1CF0895B2
:10086000E091AC048091AB04E81730F4F0E0E85478
:10087000FD4F808190E008958FEF9FEF0895909154
:10088000AC048091AB042FEF3FEF981748F4E92FA9
:10089000F0E0E854FD4F208130E09F5F9093AC047E
:1008A000C90108958091AB049091AC04891B990B08
:1008B0000895CF92DF92EF92FF920F931F93CF9301
:1008C000DF937C01CB018A012091D904222389F096
:1008D000EB016B01C40ED51ECC15DD0569F06991E5
:1008E000D701ED91FC910190F081E02DC7010995B0
:1008F000F3CF642F0E949D02C801DF91CF911F9119
:100900000F91FF90EF90DF90CF900895CF93DF93FA
:100910001F92CDB7DEB769832091D9042223F9F065
:100920002091FC04203258F021E030E0FC013383B8
:10093000228390E080E00F90DF91CF910895809125
:10094000DA04E82FF0E0E552FB4F998190838F5F46
:100950008093DA048093FC0481E090E0ECCF61E0C6
:10096000CE0101960E949D02F7CF90E080E00895AD
:10097000CF93DF9300D01F92CDB7DEB71092B900AE
:100980002CE02093B80020E429839C0194E0369564
:1009900027959A95E1F72A838295807F8B83E09152
:1009A000A605F091A70584819581039738F480E02E
:1009B0000F900F900F90DF91CF91089581819281D8
:1009C000208131E03093D9042093FB041092DA04A3
:1009D0001092FC04DC01ED91FC910280F381E02D8A
:1009E00043E050E0BE016F5F7F4F09950397F9F632
:1009F00081E00E941A038111DACF1092B90088E4D5
:100A00008093B80081E0D4CFFC0101900020E9F789
:100A10003197AF01481B590BBC018DEF94E00C944A
:100A200090018F929F92AF92BF920F931F93CF939B
:100A3000DF93CDB7DEB7A1970FB6F894DEBF0FBE38
:100A4000CDBF19A2423008F44AE08E010F5D1F4F5E
:100A5000842E912CB12CA12CA50194010E944E143E
:100A6000E62FB901CA01EA30F4F4E05DD801EE9353
:100A70008D01232B242B252B79F790E080E0109714
:100A800019F0CD010E940405A1960FB6F894DEBFBF
:100A90000FBECDBFDF91CF911F910F91BF90AF904F
:100AA0009F908F900895E95CE1CFCF92DF92EF9213
:100AB000FF92CF93DF936B017C016DE28DEF94E0A9
:100AC0000E943002EC0166277727CB016C197D0963
:100AD0008E099F094AE00E9411058C0F9D1FDF912E
:100AE000CF91FF90EF90DF90CF900895CF93DF9359
:100AF000BC01990F880B990B4AE00E941105EC018B
:100B000085E092E00E9404058C0F9D1FDF91CF913C
:100B100008950F931F93CF93DF938C01EB010E94F5
:100B200006148883C80101960E9406148983CE01A9
:100B3000DF91CF911F910F910895EF92FF920F9344
:100B40001F93CF93DF9389E690E00E940614853AC5
:100B500059F010924F0310924E03DF91CF911F91E5
:100B60000F91FF90EF90089588E690E00E940614A0
:100B7000813108F080E1C82FD0E0D0934F03C093BB
:100B80004E0337E5E32E34E0F32E10E000E00C17BF
:100B90001D0784F4C80186599F4F0E9406148133B3
:100BA00008F080E390E0F701819391937F010F5F5C
:100BB0001F4FEDCF209789F28091C5019091C6011A
:100BC0008C179D070CF4CE019093C6018093C5014C
:100BD0009093C8018093C701809157049091580465
:100BE00081339105D8F4880F991F880F991FFC0154
:100BF000ED56FC4F60817181828193812FE338EA49
:100C00004FE454E40E94B2160E946315CB010E9487
:100C1000B80410927804109277049FCF60E070E0DF
:100C2000CB01ECCF85ED8093BC008091D5049091F1
:100C3000D604A091D704B091D8040796A11DB11D88
:100C400023E0B695A795979587952A95D1F720919A
:100C5000BC0024FD03C01092D30408954091D50434
:100C60005091D6046091D7047091D804452B462B3F
:100C7000472B69F30097A105B10541F02AE22A95B7
:100C8000F1F700C00197A109B109E1CF8091D40427
:100C90000C94F902FF920F931F93CF93DF93EC0113
:100CA000F62E08811981C8010E940614F81621F059
:100CB0006F2DC8010E940E14CE01DF91CF911F91BC
:100CC0000F91FF900895EF92FF920F931F93CF9390
:100CD000DF9300D0CDB7DEB78C017B019A83898387
:100CE000FB016081CE0101960E944A060F5F1F4FF3
:100CF0001A830983F7016181CE0101960E944A0699
:100D0000C7010F900F90DF91CF911F910F91FF902E
:100D1000EF9008951F920F920FB60F9211242F9308
:100D20003F938F939F93AF93BF9380919F04909134
:100D3000A004A091A104B091A20430919E0423E0EC
:100D4000230F2D3758F50196A11DB11D20939E0448
:100D500080939F049093A004A093A104B093A20455
:100D60008091A3049091A404A091A504B091A6043D
:100D70000196A11DB11D8093A3049093A404A09398
:100D8000A504B093A604BF91AF919F918F913F911D
:100D90002F910F900FBE0F901F90189526E8230FEC
:100DA0000296A11DB11DD2CF1F920F920FB60F92C6
:100DB00011242F933F934F935F936F937F938F9360
:100DC0009F93AF93BF93EF93FF938DEF94E00E94B7
:100DD0000E02FF91EF91BF91AF919F918F917F9103
:100DE0006F915F914F913F912F910F900FBE0F9098
:100DF0001F9018951F920F920FB60F9211242F93E8
:100E00008F939F93EF93FF93E0910D05F0910E0563
:100E10008081E0911305F091140582FD1BC0908143
:100E2000809116058F5F8F7320911705821741F00F
:100E3000E0911605F0E0E350FB4F958F8093160587
:100E4000FF91EF919F918F912F910F900FBE0F9077
:100E50001F9018958081F4CF1F920F920FB60F92BA
:100E600011242F933F934F935F936F937F938F93AF
:100E70009F93AF93BF93EF93FF938091B900887FC7
:100E8000803609F44AC0F0F5883209F4A7C018F595
:100E9000803109F49BC0B8F4882309F4F9C0883084
:100EA00009F494C0FF91EF91BF91AF919F918F9101
:100EB0007F916F915F914F913F912F910F900FBE56
:100EC0000F901F901895883109F488C0803251F72F
:100ED0008093D10414C0803409F49DC040F4803361
:100EE000B9F38833F9F68093D10485ECB0C080352E
:100EF00009F485C0883509F496C0883499F60E94B3
:100F00001206D0CF883909F48CC038F5883729F01B
:100F100050F4883611F0803729F683E08093D304AB
:100F200010921B0357C0883809F47BC0803919F030
:100F3000803809F0B7CF80911B03803208F071C070
:100F4000E0911B0381E08E0F80931B038091BB0017
:100F5000F0E0E550FD4F80833DC0803B39F0E0F488
:100F6000803A09F479C0883A09F09CCF84E08093F4
:100F7000D3041092FA021092F902E091A904F091C0
:100F8000AA0409958091F90281110FC081E0809334
:100F9000F9021092D90209C0803C09F4A6CF883C1E
:100FA00009F4A3CF883B09F07DCFE091FA0281E0FC
:100FB0008E0F8093FA02F0E0E752FD4F808180931C
:100FC000BB009091FA028091F90229C08091AE0491
:100FD0008093BB0085EC8093BC0064CF9091D004DB
:100FE0008091CF04981758F5E091D00481E08E0FDE
:100FF0008093D004F0E0E155FB4F8081E9CFE09190
:10100000D00481E08E0F8093D0048091BB00F0E08B
:10101000E155FB4F80839091D0048091CF049817C5
:10102000C8F285E8D8CFE091D00481E08E0F80939C
:10103000D0048091BB00F0E0E155FB4F80838091AC
:10104000D20481115CCF81E08093AD0484EA809367
:10105000BC001092D30426CF85EC8093BC00109284
:10106000D30480911B03803230F4E0911B03F0E045
:10107000E550FD4F108260911B0370E0E091A704E2
:10108000F091A8048BEF92E0099510921B030ACF10
:101090001092D10434CFEDEFF4E01382128288EE87
:1010A00093E0A0E0B0E084839583A683B78325EE28
:1010B00031E03183208325EC30E03587248724EC30
:1010C00030E03787268720EC30E0318B208B21EC15
:1010D00030E0338B228B22EC30E0358B248B26ECF6
:1010E00030E0378B268B118E128E138E148EEAE928
:1010F000F5E01382128284839583A683B78387EFFA
:1011000091E0918380831092A7051092A60508951F
:10111000CF93DF93CDB7DEB764970FB6F894DEBFF9
:101120000FBECDBF789484B5826084BD84B58160E4
:1011300084BD85B5826085BD85B5816085BD8091A2
:101140006E00816080936E0010928100809181001A
:101150008260809381008091810081608093810012
:10116000809180008160809380008091B1008460D4
:101170008093B1008091B00081608093B000809135
:101180007A00846080937A0080917A0082608093F4
:101190007A0080917A00816080937A0080917A0051
:1011A000806880937A001092C1000E94E2028091D0
:1011B000A6059091A705009711F00E94E91786E017
:1011C00090E00E944D178C0180E6D8018C938AE94B
:1011D00095E012969C938E93119713961C921397F9
:1011E00080E290E015969C938E9314971093A70538
:1011F0000093A6050E94E20281E0F8018383C80102
:101200000E940A04E0910D05F0910E0582E08083B2
:10121000E0910905F0910A051082E0910B05F0912B
:101220000C058FEC808310921505E0911105F0916B
:10123000120586E08083E0910F05F0911005808112
:1012400080618083E0910F05F091100580818860B6
:101250008083E0910F05F091100580818068808384
:10126000E0910F05F091100580818F7D80833DED29
:10127000C32E31E0D32E06E513E02AED31E03887A6
:101280002F8362E0AF81B8858D91B887AF830E94CC
:101290000E017801EDEDF1E0FA87E98761E0A985BB
:1012A000BA858D91BA87A9870E940E01F701119224
:1012B0001192119211927F0129853A85215E314068
:1012C00069F7005F1F4F8F819885C816D906C9F648
:1012D000109286031092870310928803109289035C
:1012E00010928A0310928B0310928C0310928D033C
:1012F00010928E0310928F0310929003109291031C
:1013000062E089E00E940E0162E08AE00E940E0124
:1013100060E08BE00E940E0162E08CE00E940E0112
:1013200060E08EE00E940E0161E08DE00E940E01FF
:1013300060E08BE00E94E0000E9484016B017C0170
:101340000E9484016C197D098E099F09603D7740D8
:101350008105910588F489E00E94B700892B81F707
:101360008AE00E94B700892B59F781E080938F04AF
:1013700061E08BE00E94E000BE016B5F7F4F90E078
:1013800080E00E9489058D819E8189339043A1F17F
:1013900065ED71E090E080E00E94630620E0E22EBF
:1013A00021E0F22E04E010E0F801E050FF4F5F0171
:1013B000670148018E189F08C4018C0D9D1D9A83FA
:1013C0008983D6016D916D01CE0101960E944A0676
:1013D000AC14BD0489F7B4E0EB0EF11C0C5F1F4F99
:1013E000083C110509F71A821982BE016F5F7F4F11
:1013F00088EC90E00E946306BE016D5F7F4F88EC31
:1014000090E00E9489058B819C818233994009F488
:1014100048C088E092E00E94040585E092E00E94C6
:10142000040583E9E82E83E0F82E04E010E094E060
:10143000692E712C98012D563C4F590167014801C6
:101440008E189F08C4018C0D9D1D0E940614D601A4
:101450008D936D01AA16BB06A9F7F70161917191F1
:10146000819191917F0120E030E04AE754E40E94AD
:10147000B2160E9463157A836983BE016F5F7F4F46
:10148000C3010E946306F2E06F0E711C0C5F1F4FD8
:10149000083C110579F663ED71E088EC90E00E945C
:1014A000630603E9E02E03E0F02E04E010E0BE0145
:1014B0006F5F7F4FC8010E94890569817A81072E7D
:1014C000000C880B990B0E949B1520E030E04AE746
:1014D00054E40E94F114D7016D937D938D939D93F5
:1014E0007D010E5F1F4F0636110509F785E092E07A
:1014F0000E9404058DE392E00E94040587E592E0D6
:101500000E94040583E690E00E9476058BE692E057
:101510000E9404054AE064E070E080E090E00E94F0
:1015200011058BE892E00E94040585E690E00E9498
:10153000760581E992E00E94040588E090E09093AE
:10154000C6018093C5019093C8018093C701109292
:101550004F0310924E030E949D050E9484016B016F
:101560007C0189E00E94B7008C018AE00E94B700EC
:1015700040919A0450919B0460919C0470919D0449
:1015800046015701841A950AA60AB70A20919904C0
:1015900060918F040115110509F0DAC721110BC004
:1015A000C0929504D0929604E0929704F092980429
:1015B00021E02093990420918C04892B11F00C9444
:1015C000FD12211113C0C0929504D0929604E092AE
:1015D0009704F092980481E080938C04C092880470
:1015E000D0928904E0928A04F0928B04012B11F0CE
:1015F0000C944E1361110C944E1380918704811149
:101600000DC0C0928304D0928404E0928504F092CD
:10161000860481E0809387040C94501380918304A6
:1016200090918404A0918504B0918604970186016D
:10163000081B190B2A0B3B0BD901C80185369105F4
:10164000A105B10510F40C945213809194048111FA
:101650000C94521380918D0490918E049093820487
:10166000809381048091500390915103019666E02C
:1016700070E00E941F17909355038093540381E0FC
:1016800080935303C0929A04D0929B04E0929C04EE
:10169000F0929D04809394041092990410928C040B
:1016A0000C945213843511E091070CF09AC124E098
:1016B00030E03093C8012093C7012091C7013091D9
:1016C000C8018091C5019091C6012817390719F00A
:1016D00081E08093800490908F04992009F442C2A5
:1016E0000E9484016B017C0189E00E94B700892B74
:1016F00009F08EC18AE00E94B700892B09F088C1E9
:1017000080913F0390914003A0914103B091420327
:1017100097018601081B190B2A0B3B0BD901C80145
:10172000813D9740A105B10508F07DC189E00E9487
:10173000B700892B71F58AE00E94B700892B49F127
:1017400080913A0390913B03A0913C03B0913D03FB
:10175000A7019601281B390B4A0B5B0BDA01C90163
:10176000893C9105A105B105A0F080918D0490916F
:101770008E04843091052CF4019690938E0480930E
:101780008D04C0923A03D0923B03E0923C03F09266
:101790003D038AE00E94B700892B31F489E00E9462
:1017A000B700892B09F055C1109236031092370308
:1017B0001092380310923903FEE1AF2EF3E0BF2EF2
:1017C000ADED2A2EA1E03A2E10E000E0B0E36B2E42
:1017D000712CF10141901F0160E0842D0E94E00016
:1017E0006501EAED8E2EE1E09E2EF12CE12CD40174
:1017F0008D914D010E94B70055245394009709F034
:10180000512C892B09F047C0F60180819181892BE9
:1018100009F041C020918D0430918E04C701880FDA
:10182000991F880F991F800F911FFCE0F29FA00164
:10183000F39F500D1124840F951F90931D038093E7
:101840001C032430310551F4E114F10439F401157D
:10185000110521F470921D0360921C0380911C03FA
:1018600090911D0381339105B0F4880F991F880F63
:10187000991FFC01ED56FC4F2FE338EA4FE454E486
:1018800060817181828193810E94B2160E946315EA
:10189000CB010E94B804852D90E0D6018D939C93D6
:1018A000BFEFEB1AFB0AE8E0CE0ED11CF3E0EF1617
:1018B000F10409F09CCF61E0842D0E94E0000F5FED
:1018C0001F4F22E0A20EB11C0430110509F081CF98
:1018D0008CE00E94B700892B09F076C0E0901C03D1
:1018E000F0901D033FEFE316F30609F46DC0870186
:1018F000000F111F000F111FF801E050FF4F8080F3
:101900009180A280B3808EE00E944A01BC01990FB1
:10191000880B990B0E949B1520E030EC4FE754E4B4
:101920000E94F11420E030E040E85EE30E94B2162D
:1019300020E030E040E05EE30E947F14A5019401C6
:101940000E9480144B015C01E114F10409F0F6C01F
:1019500020E030E0A9010E94AD1618161CF0812C81
:10196000912C5401F801ED56FC4F80829182A282A5
:10197000B3822FE338EA4FE454E4C501B4010E9476
:10198000B2160E946315CB010E94B80420E030E03B
:101990004AE754E4C501B4010E94B2160E946315DF
:1019A0007A83698380911C0390911D030296BE0186
:1019B0006F5F7F4F880F991F0E9463068FEF9FEF25
:1019C00090931D0380931C0380E090E0892B09F421
:1019D000C4CD0E94FA01882309F4BFCD0E94000003
:1019E000BCCD8E3F31E093071CF485E090E064C6E7
:1019F000883A42E094071CF486E090E05DC68235A8
:101A000093401CF488E090E057C680E190E054C613
:101A1000C0923F03D0924003E0924103F092420310
:101A200010923E0383CE80913E0381117FCE1092AF
:101A30008F0481E080933E0360E08BE00E94E00031
:101A4000C0923F03D0924003E0924103F0924203E0
:101A50006DCE80913A0390913B03A0913C03B091ED
:101A60003D0397018601081B190B2A0B3B0BD9017B
:101A7000C801893C9105A105B105A0F080918D04B4
:101A800090918E04181619062CF4019790938E04E9
:101A900080938D04C0923A03D0923B03E0923C03C2
:101AA000F0923D038091360390913703A091380363
:101AB000B09139030097A105B10549F4C0923603EE
:101AC000D0923703E0923803F092390375CEC81AEA
:101AD000D90AEA0AFB0A11E4C1161FE1D106E104A2
:101AE000F10408F469CE84ECE0E0F1E0A3E9B3E0AE
:101AF00001900D928A95E1F710E0E12E11E0F12EB0
:101B000004E010E0D7016D917D918D919D917D0153
:101B100020E030E04AE754E40E94B2160E946315C8
:101B20007A836983BE016F5F7F4FC8010E9463069D
:101B30000E5F1F4F0636110529F736CE40E3E41637
:101B4000F10409F00FCF20E030E040E850E40E94BB
:101B5000EC1487FD07CF812C912C40E8A42E40E4A3
:101B6000B42E00CF89E00E94B700892B09F049C04C
:101B70008091900490919104A0919204B09193046B
:101B80000097A105B10541F5C0929004D09291044F
:101B9000E0929204F09293048AE00E94B7002091B0
:101BA0007D04892B09F02FC18091880490918904CC
:101BB000A0918A04B0918B040097A105B10509F0AA
:101BC00051C0C0928804D0928904E0928A04F092B5
:101BD0008B0410927E0458C020917F042111DCCF29
:101BE00097018601081B190B2A0B3B0BD901C80171
:101BF00086399105A105B10578F281E080937F04D3
:101C0000CBCF80917F04882359F010927F041092EB
:101C10009004109291041092920410929304BCCFFD
:101C20008091900490919104A0919204B0919304BA
:101C3000A7019601281B390B4A0B5B0BDA01C9017E
:101C400086399105A105B10510F780918D04909119
:101C50008E0483309105DCF6019690938E04809378
:101C60008D04D5CF211110C097018601081B190BD7
:101C70002A0B3B0BD901C80186399105A105B10595
:101C800018F081E080937D048CE00E94B7002C0165
:101C900010917D04112309F4E9C0892B09F0E6C0F5
:101CA0008091790490917A04A0917B04B0917C0496
:101CB000A7019601281B390B4A0B5B0BDA01C901FE
:101CC000893C9105A105B10508F4D0C080917E043E
:101CD0008111CCC01092780410927704809157043F
:101CE000909158048133910508F0BCC0880F991F6A
:101CF000880F991FFC01ED56FC4F60817181828134
:101D000093812FE338EA4FE454E40E94B2160E9414
:101D10006315CB010E94B804C0927904D0927A0472
:101D2000E0927B04F0927C0481E080937E04912E0B
:101D300006E513E01A8B098B06E813E01E870D8772
:101D40000DED11E0188B0F87192DAF85B8897D90A7
:101D5000B88BAF8760E0872D0E94E000E989FA899F
:101D6000FC87EB872D843E842AED31E03C8B2B8B66
:101D700001E0AB89BC898D91BC8BAB8B0E94B70015
:101D80005C0121E0892B09F020E0F1019081291705
:101D900009F43FC2AB85BC854D915D916D917C91FD
:101DA000D701C601841B950BA60BB70BAC01BD0177
:101DB0004F3151056105710508F49AC160907F04A7
:101DC0002083A114B10409F022C261E08DE00E94D9
:101DD000E000F101E658F340662009F4A2C0EC30BF
:101DE000F10508F076C0E950F14F0C943317630FFA
:101DF0006B0F690F720F690F690F790F690F800FF1
:101E0000690F870F8E0F222359F010927D041092D4
:101E100088041092890410928A0410928B04D9CEFF
:101E20008091880490918904A0918A04B0918B04D8
:101E3000A7019601281B390B4A0B5B0BDA01C9017C
:101E400086399105A105B10510F780918D04909117
:101E50008E0418161906DCF6019790938E04809371
:101E60008D04D5CF60E070E0CB014BCF80917F0433
:101E7000882339F14114510409F05ACF4091790473
:101E800050917A0460917B0470917C0497018601E3
:101E9000041B150B260B370BB901A801493C510552
:101EA0006105710508F444CF91E090939203C092CC
:101EB0007904D0927A04E0927B04F0927C04982E0C
:101EC00037CF912C35CF10925503109254030093C5
:101ED0005303162D05C1A1E0B0E0B0935503A093C4
:101EE0005403F5CFE2E0F0E0F0935503E0935403A0
:101EF000EECF23E030E03093550320935403E7CF37
:101F000044E050E05093550340935403E0CF85E004
:101F100090E09093550380935403D9CF00935203DC
:101F2000D8CF60907D04662009F4A3C0EC30F105A1
:101F3000A0F4E356F04F0C943317A90FD80FAD0F50
:101F4000DF0FAD0FAD0FE60FED0FF20FF90F2F10F2
:101F50003210109251031092500310927804109294
:101F6000770480914E0390914F03181619060CF0D8
:101F7000B0CF80915704909158048133910508F0B7
:101F800074C0880F991F880F991FFC01ED56FC4FF4
:101F900060817181828193812FE338EA4FE454E4B8
:101FA0000E94B2160E946315CB010E94B80491CF23
:101FB000A1E0B0E0B0935103A0935003CECFE2E094
:101FC000F0E0F0935103E0935003C7CF23E030E0FB
:101FD0003093510320935003C0CF10924F031092BF
:101FE0004E0377CF44E050E05093510340935003A9
:101FF000B4CF60914E0388E690E09A838983CE0146
:1020000001960E944A06A9E6B0E0BA83A98365EA70
:10201000CE0101960E944A0687E5882E84E0982E1C
:1020200080914E0390914F03A816B9060CF051CF42
:10203000B0E1AB16B10409F44CCFF4016081F2E0D9
:102040008F0E911CC50186599F4F9A838983CE01BB
:1020500001960E944A061FEFA11AB10AE1CF25E0BE
:1020600030E0B6CF00934D0334CF60E070E0CB0199
:1020700093CF20918D0430918E044CE0429FC0019B
:10208000439F900D1124E80FF91F20914E033091CA
:102090004F038091C5019091C601281739078CF034
:1020A000A7E5B4E021E030E0281739070CF0A9C01B
:1020B00012964D915C9113974D935D932F5F3F4F17
:1020C000F3CFC901019690934F0380934E03220FE3
:1020D000331FD901A95ABB4FED93FC936624639437
:1020E000AB85BC85CD92DD92ED92FC921397962C38
:1020F000B4E02B0E311CEB85FC857096FC87EB87DA
:102100002B893C894F8158852417350709F031CE3A
:1021100061E0872D0E94E0008D859E8501969E8757
:102120008D87A989BA891496BA8BA98BE985FA8516
:102130002F853889E217F30709F007CE80917F04D5
:102140008111C7C080917D048111C3C021E0411479
:10215000510409F020E090914C03291709F4B9C00B
:10216000409148035091490360914A0370914B0399
:10217000D701C601841B950BA60BB70BAC01BD01A3
:102180004E3151056105710508F4A3C020934C033D
:10219000C0924803D0924903E0924A03F0924B0365
:1021A000452809F08EC061E08DE00E94E00080913A
:1021B0008D0490918E0420E330E08330910538F453
:1021C00089529E4FDC012C91022E000C330B409162
:1021D0004E0350914F038091C5019091C60148175D
:1021E0005907ECF0E7E5F4E041E050E04817590703
:1021F0000CF061C062817381619371934F5F5F4F97
:10220000F5CF880F991FDC01AB5ABB4F65CF692C06
:1022100067CFAB2809F06CCF9924939469CFCA019A
:10222000019690934F0380934E03440F551FFA017C
:10223000E95AFB4F3183208361E08DE00E94E0008A
:102240008BE00E94B70001E0009709F400E0892BC1
:1022500009F468C180914703811164C10E9484011F
:1022600080914D03882321F00E949D0510924D031B
:1022700080919203882331F01092780410927704B1
:1022800010929203E0904E03F0904F031E141F042F
:102290000CF048C180915003909151038230910518
:1022A00009F4A7C0E0F4009759F1019709F491C02F
:1022B000F0E0E0E039C0880F991FFC01EB5AFB4FBA
:1022C000B9CF9110B9CF60E08DE00E94E00060E0EE
:1022D000B4CF9110B1CF452809F4AECFF8CF8430F8
:1022E000910509F4D7C008F4B0C0059709F70E941A
:1022F000AE139701FF0C440B550B0E941C14F0C049
:102300008091770490917804FC01EE0FFF1FE95A49
:10231000FB4F0190F081E02D0196B7010E941F173D
:10232000909378048093770460E070E0CB01E13310
:10233000F10550F4EE0FFF1FEE0FFF1FED56FC4F9F
:1023400060817181828193812FE338EA4FE454E404
:102350000E94B2160E946315CB010E94B80420911E
:102360007704309178042115310509F0DBC08091A4
:102370008004882309F4C0C08091C7019091C801EE
:102380009093C6018093C5011092800440914E0342
:1023900050914F03841795070CF0AEC0E7E5F4E0C9
:1023A000440F551FBC01660F771F71956195710928
:1023B000281739070CF09CC0DA01AE0FBF1FA60F1B
:1023C000B71F0D90BC91A02DA193B1932F5F3F4FEC
:1023D000EFCF8091770490917804FC01EE0FFF1FFE
:1023E000E95AFB4F0190F081E02D01978E0D9F1D62
:1023F00094CF8091770490917804FC01EE0FFF1F39
:10240000E95AFB4F0190F081E02D2091C401222375
:1024100079F001969093780480937704B1E0EB1AF9
:10242000F1088E159F050CF47FCF1092C4017CCF6C
:1024300001979093780480937704181619060CF48A
:1024400073CF81E08093C4016FCF80917704909126
:102450007804FC01EE0FFF1FE95AFB4F0190F08159
:10246000E02D2091C401222369F001968E159F056D
:102470000CF456CF21E0E21AF108F0927804E092D1
:102480007704D3CF019797FF4BCF10927804109227
:102490007704D7CFB701FF0C880B990B0E949B15CF
:1024A0006B017C012AE737E34EE15FE30E94B2163D
:1024B00020914303309144034091450350914603DA
:1024C0000E948014A70196010E94E11560934303C6
:1024D0007093440380934503909346030E946315D1
:1024E000660F771F695A7B4FDB01ED91FC911CCF82
:1024F00090934F0380934E0380915303882351F0B0
:10250000809154039091550390935103809350030D
:102510001092530380915203882321F00E949D055D
:102520001092520300934703112309F44DCA1092ED
:1025300090041092910410929204109293041092BD
:1025400088041092890410928A0410928B043CCA69
:10255000222309F430C8009709F44BC04090950439
:10256000509096046090970470909804A70196018B
:10257000241935094609570929013A013BE5431653
:10258000510461047104A8F120919404211131C017
:1025900044EF841641E09406A104B10450F1409048
:1025A0009004509091046090920470909304A7015D
:1025B0009601241935094609570929013A0134EFD2
:1025C000431631E053066104710498F443E050E08F
:1025D000662311F044E050E020918D0430918E0488
:1025E0002417350734F42F5F3F4F30938E04209328
:1025F0008D04109299040C94DB0A222309F44EC036
:10260000012B09F441C08091950490919604A0910A
:102610009704B091980497018601081B190B2A0BA7
:102620003B0BD901C8018B359105A105B10560F1BE
:1026300080919404811128C014EF811611E0910655
:10264000A104B10408F18091880490918904A091BB
:102650008A04B0918B04A7019601281B390B4A0B01
:102660005B0BDA01C901843F9140A105B10560F41B
:1026700080918D0490918E04181619062CF4019700
:1026800090938E0480938D0410928C041092880491
:102690001092890410928A0410928B04109287047D
:1026A000109294048EE00E944A018A3A910514F037
:1026B0000C94520B83E090E09093C8018093C70183
:1026C0000C945D0B8F929F92AF92BF92CF92DF924C
:1026D000EF92FF92CF93DF93EC01688179818A8139
:1026E0009B81611571058105910521F464E279ED05
:1026F0008BE597E02DE133EF41E050E00E941C14A0
:1027000049015A019B01AC01A7EAB1E40E943B14C4
:102710006B017C01ACEEB4EFA50194010E94491459
:10272000C60ED71EE81EF91EF7FE06C081E0C81AC5
:10273000D108E10880E8F80AC882D982EA82FB82DF
:10274000C701B6019F77DF91CF91FF90EF90DF90A7
:10275000CF90BF90AF909F908F9008958F929F924F
:10276000AF92BF92CF92DF92EF92FF926091C90138
:102770007091CA018091CB019091CC0161157105D6
:102780008105910521F464E279ED8BE597E02DE177
:1027900033EF41E050E00E941C1449015A019B01B3
:1027A000AC01A7EAB1E40E943B146B017C01ACEEE2
:1027B000B4EFA50194010E944914C60ED71EE81E6D
:1027C000F91EF7FE06C081E0C81AD108E10880E8CA
:1027D000F80AC092C901D092CA01E092CB01F092EE
:1027E000CC01C701B6019F77FF90EF90DF90CF90AB
:1027F000BF90AF909F908F9008956093C9017093A0
:10280000CA018093CB019093CC010895F999FECF32
:1028100092BD81BDF89A992780B50895262FF99920
:10282000FECF1FBA92BD81BD20BD0FB6F894FA9AB3
:10283000F99A0FBE01960895052E97FB1EF4009499
:102840000E94331457FD07D00E944E1407FC03D09A
:102850004EF40C94331450954095309521953F4F8C
:102860004F4F5F4F089590958095709561957F4F7C
:102870008F4F9F4F08950E947014A59F900DB49F95
:10288000900DA49F800D911D11240895B7FF0C9405
:102890003B140E943B14821B930B0895A1E21A2E55
:1028A000AA1BBB1BFD010DC0AA1FBB1FEE1FFF1FF4
:1028B000A217B307E407F50720F0A21BB30BE40B44
:1028C000F50B661F771F881F991F1A9469F760958B
:1028D0007095809590959B01AC01BD01CF01089545
:1028E000A29FB001B39FC001A39F700D811D112451
:1028F000911DB29F700D811D1124911D0895505896
:10290000BB27AA270E9497140C9473160E94651681
:1029100038F00E946C1620F039F49F3F19F426F429
:102920000C9462160EF4E095E7FB0C944E16E92F1A
:102930000E94841658F3BA17620773078407950735
:1029400020F079F4A6F50C94A6160EF4E0950B2E63
:10295000BA2FA02D0B01B90190010C01CA01A001F1
:102960001124FF27591B99F0593F50F4503E68F14C
:102970001A16F040A22F232F342F4427585FF3CF8D
:10298000469537952795A795F0405395C9F77EF45E
:102990001F16BA0B620B730B840BBAF09150A1F0A7
:1029A000FF0FBB1F661F771F881FC2F70EC0BA0F2D
:1029B000621F731F841F48F4879577956795B795B5
:1029C000F7959E3F08F0B0CF9395880F08F09927B0
:1029D000EE0F9795879508950E942A1608F481E0D6
:1029E00008950E9405150C9473160E946C1658F0F9
:1029F0000E94651640F029F45F3F29F00C944E16B2
:102A000051110C94A7160C9462160E94841668F358
:102A10009923B1F3552391F3951B550BBB27AA2797
:102A200062177307840738F09F5F5F4F220F331FD1
:102A3000441FAA1FA9F335D00E2E3AF0E0E832D099
:102A400091505040E695001CCAF72BD0FE2F29D09C
:102A5000660F771F881FBB1F261737074807AB076E
:102A6000B0E809F0BB0B802DBF01FF2793585F4FE3
:102A70003AF09E3F510578F00C944E160C94A71630
:102A80005F3FE4F3983ED4F3869577956795B795C5
:102A9000F7959F5FC9F7880F911D9695879597F9D0
:102AA0000895E1E0660F771F881FBB1F6217730749
:102AB0008407BA0720F0621B730B840BBA0BEE1F5E
:102AC00088F7E09508950E946A156894B1110C94F6
:102AD000A71608950E948C1688F09F5798F0B92F7A
:102AE0009927B751B0F0E1F0660F771F881F991F43
:102AF0001AF0BA95C9F714C0B13091F00E94A61629
:102B0000B1E008950C94A616672F782F8827B85F38
:102B100039F0B93FCCF3869577956795B395D9F79A
:102B20003EF490958095709561957F4F8F4F9F4FA4
:102B30000895E89409C097FB3EF4909580957095B0
:102B400061957F4F8F4F9F4F9923A9F0F92F96E9F9
:102B5000BB279395F695879577956795B795F1116E
:102B6000F8CFFAF4BB0F11F460FF1BC06F5F7F4F0B
:102B70008F4F9F4F16C0882311F096E911C077231D
:102B800021F09EE8872F762F05C0662371F096E826
:102B9000862F70E060E02AF09A95660F771F881FF5
:102BA000DAF7880F9695879597F908950E9465162C
:102BB00020F019F00E946C1650F40C9462160C94DC
:102BC000A716E92F0E94841688F35523B1F3E7FB7B
:102BD0006217730784079507A8F189F3E92FFF2788
:102BE00088232AF03197660F771F881FDAF7952F11
:102BF0005527442332F091505040220F331F441F79
:102C0000D2F7BB27E91BF50B621B730B840BB109D1
:102C1000B1F222F4620F731F841FB11D31972AF0A5
:102C2000660F771F881FBB1FEFCF9150504062F097
:102C300041F0882332F0660F771F881F9150504073
:102C4000C1F793950C9454168695779567959F5F79
:102C5000D9F7F7CF990F0008550FAA0BE0E8FEEF60
:102C600016161706E807F907C0F012161306E40750
:102C7000F50798F0621B730B840B950B39F40A2649
:102C800061F0232B242B252B21F408950A2609F427
:102C9000A140A6958FEF811D811D089597F99F672B
:102CA00080E870E060E008959F3F31F0915020F49B
:102CB000879577956795B795880F911D9695879518
:102CC00097F908959FEF80EC089500240A94161652
:102CD000170618060906089500240A94121613060A
:102CE000140605060895092E0394000C11F4882398
:102CF00052F0BB0F40F4BF2B11F460FF04C06F5FB4
:102D00007F4F8F4F9F4F089557FD9058440F551F89
:102D100059F05F3F71F04795880F97FB991F61F05D
:102D20009F3F79F087950895121613061406551FD4
:102D3000F2CF4695F1DF08C0161617061806991F40
:102D4000F1CF86957105610508940895E894BB2735
:102D500066277727CB0197F908950E942A1608F471
:102D60008FEF08950E94C5160C9473160E94651685
:102D700038F00E946C1620F0952311F00C944E163A
:102D80000C94621611240C94A7160E94841670F3FA
:102D9000959FC1F3950F50E0551F629FF001729F00
:102DA000BB27F00DB11D639FAA27F00DB11DAA1F0F
:102DB000649F6627B00DA11D661F829F2227B00D5C
:102DC000A11D621F739FB00DA11D621F839FA00DE7
:102DD000611D221F749F3327A00D611D231F849F37
:102DE000600D211D822F762F6A2F11249F5750408E
:102DF0009AF0F1F088234AF0EE0FFF1FBB1F661F09
:102E0000771F881F91505040A9F79E3F510580F0D1
:102E10000C944E160C94A7165F3FE4F3983ED4F33F
:102E2000869577956795B795F795E7959F5FC1F775
:102E3000FE2B880F911D9695879597F9089597FB1E
:102E4000072E16F4009407D077FD09D00E94391799
:102E500007FC05D03EF4909581959F4F089570959D
:102E600061957F4F0895EE0FFF1F0590F491E02DBF
:102E70000994AA1BBB1B51E107C0AA1FBB1FA617C1
:102E8000B70710F0A61BB70B881F991F5A95A9F713
:102E900080959095BC01CD0108950F931F93CF931A
:102EA000DF938230910510F482E090E0E091AA0572
:102EB000F091AB0530E020E0B0E0A0E0309799F46D
:102EC0002115310509F44AC0281B390B243031057E
:102ED000D8F58A819B816115710589F1FB01938386
:102EE0008283FE0111C04081518102811381481704
:102EF0005907E0F04817590799F4109761F01296B6
:102F00000C93129713961C933296CF01DF91CF91B9
:102F10001F910F9108950093AA051093AB05F4CF6C
:102F20002115310551F04217530738F0A901DB0193
:102F30009A01BD01DF01F801C1CFEF01F9CF9093F4
:102F4000AB058093AA05CDCFFE01E20FF31F81935D
:102F500091932250310939832883D7CF2091A80536
:102F60003091A905232B41F42091CF013091D0015C
:102F70003093A9052093A8052091CD013091CE0171
:102F80002115310541F42DB73EB74091D101509143
:102F9000D201241B350BE091A805F091A905E21799
:102FA000F307A0F42E1B3F0B2817390778F0AC016C
:102FB0004E5F5F4F2417350748F04E0F5F1F509349
:102FC000A9054093A805819391939FCFF0E0E0E09D
:102FD0009CCFCF93DF930097E9F0FC0132971382E7
:102FE0001282A091AA05B091AB05ED0130E020E07E
:102FF0001097A1F420813181820F931F2091A805A1
:103000003091A9052817390709F061C0F093A90587
:10301000E093A805DF91CF910895EA01CE17DF076D
:10302000E8F54A815B819E0141155105B1F7E9013F
:10303000FB83EA8349915991C40FD51FEC17FD0713
:1030400061F4808191810296840F951FE901998333
:103050008883828193819B838A83F0E0E0E01296EB
:103060008D919C9113970097B9F52D913C911197F3
:10307000CD010296820F931F2091A8053091A905DA
:103080002817390739F6309751F51092AB05109291
:10309000AA05B093A905A093A805BCCFD383C2838A
:1030A00040815181840F951FC817D90761F44E5F85
:1030B0005F4F88819981480F591F518340838A81CE
:1030C0009B81938382832115310509F0B0CFF09362
:1030D000AB05E093AA059ECFFD01DC01C0CF1382B2
:0830E0001282D7CFF894FFCF54
:1030E80000000000E7FBA93D0C022B3E0000803EDB
:1030F800FA7EAA3E0681D53E0000003F7D3F153F7F
:1031080083C02A3F0000403F7D3F553F83C06A3F50
:103118000000803FBE9F8A3F4260953F0000A03F6D
:10312800BE9FAA3F4260B53F0000C03FBE9FCA3F56
:103138004260D53F0000E03FBE9FEA3F4260F53F56
:1031480000000040DF4F054021B00A400000104059
:10315800DF4F154021B01A4000002040DF4F2540C6
:1031680021B02A4000003040DF4F354021B03A40BE
:1031780000004040DF4F454021B04A400000504029
:10318800DF4F554021B05A4000006040DF4F654096
:1031980021B06A4000007040DF4F754021B07A408E
:1031A800000080400108000800010000000000AC99
:1031B800058000320939300C18240203040506077B
:1031C800080000000030029001BD017D02EE01CC34
:1031D80001E0010000000086045904B5042F0452E0
:1031E800043F0430040D0A00466C6F617420666F5A
:1031F800726D61742064657465637465642E204320
:103208006F6E76657274696E6720746F20696E746C
:103218006567657220666F726D61742E0045455052
:10322800524F4D20557361676520496E666F726D08
:103238006174696F6E3A000A546F74616C20627928
:1032480074657320757365643A2000446174612065
:1032580073746F726564206265747765656E20614A
:1032680064647265737365733A200020616E64202C
:10327800004669726D776172653A20417270204F1D
:1032880066204461726B6E65737320762E312E331F
:083298002E3220426574610032
:00000001FF
