:100000000C9462000C948A000C948A000C948A0070
:100010000C948A000C948A000C948A000C948A0038
:100020000C948A000C948A000C948A000C948A0028
:100030000C948A000C948A000C948A000C948A0018
:100040000C9404050C948A000C948A000C948A0089
:100050000C948A000C948A000C948A000C948A00F8
:100060000C944E050C948A00000000002400270028
:100070002A0000000000250028002B0000000000DE
:1000800023002600290004040404040404040202DA
:100090000202020203030303030301020408102007
:1000A0004080010204081020010204081020000012
:1000B0000008000201000003040700000000000027
:1000C00000006D0611241FBECFEFD8E0DEBFCDBF0C
:1000D00011E0A0E0B1E0EEE1F4E202C005900D9283
:1000E000A23FB107D9F724E0A2EFB1E001C01D9211
:1000F000A633B207E1F710E0C2E6D0E004C02197D2
:10010000FE010E94E210C136D107C9F70E948206A3
:100110000C940D120C9400000895089580E48093CF
:100120007C0080917A00806480937A0080917A00CC
:1001300086FDFCCF809178009091790008958330FE
:1001400081F028F4813099F08230A9F00895873049
:10015000A9F08830C9F08430B1F4809180008F7D9F
:1001600003C0809180008F7780938000089584B5CC
:100170008F7784BD089584B58F7DFBCF8091B000CB
:100180008F778093B00008958091B0008F7DF9CF74
:10019000CF93DF93282F30E0F901E255FF4F849190
:1001A000F901E656FF4FD491F901EA57FF4FC49188
:1001B000CC23A1F081110E949F00EC2FF0E0EE0F04
:1001C000FF1FE458FF4FA591B491EC91ED2381E01E
:1001D00090E009F480E0DF91CF91089580E090E015
:1001E000FACF1F93CF93DF93282F30E0F901E25528
:1001F000FF4F8491F901E656FF4FD491F901EA5778
:10020000FF4FC491CC23A9F0162F81110E949F00AB
:10021000EC2FF0E0EE0FFF1FEE58FF4FA591B491C9
:100220008FB7F894EC91111108C0D095DE23DC93C0
:100230008FBFDF91CF911F910895DE2BF8CFCF9321
:10024000DF9390E0FC01E656FF4F24918A579F4FC1
:10025000FC0184918823C9F090E0880F991FFC016C
:10026000E859FF4FA591B491FC01EE58FF4FC5919D
:10027000D49161110DC09FB7F8948C912095822381
:100280008C938881282328839FBFDF91CF91089585
:10029000623051F49FB7F8943C91822F809583236C
:1002A0008C93E8812E2BEFCF8FB7F894EC912E2B07
:1002B0002C938FBFEACF3FB7F8948091CA039091F7
:1002C000CB03A091CC03B091CD0326B5A89B05C06C
:1002D0002F3F19F00196A11DB11D3FBFBA2FA92FC5
:1002E000982F8827BC01CD01620F711D811D911DC2
:1002F00042E0660F771F881F991F4A95D1F708952E
:100300008F929F92AF92BF92CF92DF92EF92FF9225
:100310006B017C010E945B014B015C01C114D104A3
:10032000E104F104B9F00E945B01681979098A09B6
:100330009B09683E73408105910580F321E0C21A54
:10034000D108E108F10888EE880E83E0981EA11C10
:10035000B11CE4CFFF90EF90DF90CF90BF90AF90B3
:100360009F908F9008950F931F93CF93DF938C01ED
:10037000D0E0C0E061E08DE00E94F10064E670E052
:1003800080E090E00E94800160E08DE00E94F1003A
:1003900064E670E080E090E00E94800121960C17F6
:1003A0001D0741F7DF91CF911F910F9108952FB74E
:1003B000F8946091C6037091C7038091C80390912F
:1003C000C9032FBF089520913302260F3327331F0F
:1003D00021323105ECF42091FA03FC0190E080E039
:1003E000243069F082E00895A09133022191AC019C
:1003F0004D5E5D4FA40FB52FB11D2C93019686174E
:1004000098F380913302680F6093330280E008957F
:1004100081E008951092FA0381E08093F90310922D
:10042000D40361E082E10E94F10061E083E10E9477
:10043000F100E9EBF0E080818E7F808380818D7F09
:10044000808388E48093B80085E48093BC0008959D
:100450001092D3031092D20310920104109223043D
:100460000E940A028CE890E09093D1038093D0031D
:100470008DE890E09093CF038093CE030895CF93BF
:10048000DF9391E0909312028823B9F0C091B800F5
:10049000D091BA008091BC008A7B8093BC0060E060
:1004A00082E10E94F10060E083E10E94F1000E947D
:1004B0000A02D093BA00C093B800DF91CF9108959B
:1004C0008F929F92AF92BF92CF92DF92EF92FF9264
:1004D0000F931F93CF93DF93D0912304D13208F071
:1004E000D7C0182FC09122040E945B016B017C01D0
:1004F0008091FA0381116BC082E08093FA0310931C
:10050000F9038FEF8093F8031092F703D093F6036B
:10051000A2E0B4E0E6EDF3E080E0D81391C01092E1
:10052000D5038091D503CC0FC82BC093D503809100
:10053000D403813009F088C01092D4030E945B017B
:100540006B017C018091D5038093BB008091FC03FB
:100550009091FD03A091FE03B091FF03892B8A2B9C
:100560008B2BA1F00E945B010091FC031091FD0315
:100570002091FE033091FF036C197D098E099F09BC
:10058000061717072807390708F442C08091BC00F6
:1005900083FDD8CF85EC8093BC000E945B016B018A
:1005A0007C018091FA03823009F450C08091F803F5
:1005B0008F3F09F46FC08091F803803209F46CC05A
:1005C0008091F803803309F469C084E026C08091EB
:1005D000FC039091FD03A091FE03B091FF03892BD2
:1005E0008A2B8B2B09F484CF0E945B018090FC0343
:1005F0009090FD03A090FE03B090FF036C197D095D
:100600008E099F0986169706A806B90608F070CFCE
:100610008091FB030E943F0285E01092010410923A
:10062000230410920004DF91CF911F910F91FF904E
:10063000EF90DF90CF90BF90AF909F908F900895F4
:100640009D9191938F5F69CF85EEA5CF8091FC033B
:100650009091FD03A091FE03B091FF03892B8A2B9B
:100660008B2B09F49ECF0E945B010091FC0310913B
:10067000FD032091FE033091FF036C197D098E0963
:100680009F09061717072807390708F08ACFC0CF38
:1006900081E0C3CF80E0C1CF82E0BFCF83E0BDCF98
:1006A000CF93DF93EC018B818823A1F0888191E0C7
:1006B000909300048093220410920104109223046A
:1006C00081E00E94600291E0811190E0892FDF912A
:1006D000CF9108950E94280281E08B83CE010E9471
:1006E0005003982F8111E2CFF1CF0895E091D30309
:1006F0008091D203E81730F4F0E0EE50FE4F808195
:1007000090E008958FEF9FEF08959091D30380912B
:10071000D2032FEF3FEF981748F4E92FF0E0EE50A7
:10072000FE4F208130E09F5F9093D303C90108956D
:100730008091D2039091D303891B990B0895CF9296
:10074000DF92EF92FF920F931F93CF93DF937C0181
:10075000CB018A0120910004222389F0EB016B0177
:10076000C40ED51ECC15DD0569F06991D701ED9158
:10077000FC910190F081E02DC7010995F3CF642F22
:100780000E94E301C801DF91CF911F910F91FF906B
:10079000EF90DF90CF900895CF93DF931F92CDB766
:1007A000DEB76983209100042223F9F0209123040D
:1007B000203258F021E030E0FC013383228390E0C6
:1007C00080E00F90DF91CF91089580910104E82F90
:1007D000F0E0EE5FFB4F998190838F5F809301047F
:1007E0008093230481E090E0ECCF61E0CE0101969C
:1007F0000E94E301F7CF90E080E00895CF93DF936C
:1008000000D01F92CDB7DEB71092B9002CE0209334
:10081000B80020E429839C0194E0369527959A95A9
:10082000E1F72A838295807F8B83E0913004F091F9
:10083000310484819581039738F480E00F900F9004
:100840000F90DF91CF91089581819281208131E0D5
:100850003093000420932204109201041092230488
:10086000DC01ED91FC910280F381E02D43E050E04A
:10087000BE016F5F7F4F09950397F9F681E00E94F3
:1008800060028111DACF1092B90088E48093B80039
:1008900081E0D4CFCF92DF92EF92FF9280915E02FF
:1008A000882309F444C00E945B016B017C018091A4
:1008B0005A0290915B02A0915C02B0915D02B70177
:1008C000A601481B590B6A0B7B0B80915802909133
:1008D0005902092E000CAA0BBB0B481759076A07CF
:1008E0007B0728F180915F0290916002209156026F
:1008F00030915702820F931F9093600280935F02A2
:100900000E94FE03C0925A02D0925B02E0925C0207
:10091000F0925D0220915F0230916002809161024D
:10092000909162022817390711F410925E02FF902D
:10093000EF90DF90CF9008959F92AF92BF92CF92A9
:10094000DF92EF92FF920F931F93CF93DF935C019F
:100950007B018B01D0E0C0E0F80191908F0165012F
:10096000CC0EDD1EC6010E94030E981621F0692DE3
:10097000C6010E940B0E2196C430D10569F7C7014C
:10098000DF91CF911F910F91FF90EF90DF90CF906B
:10099000BF90AF909F90089585ED8093BC008091AB
:1009A000FC039091FD03A091FE03B091FF03079615
:1009B000A11DB11D23E0B695A795979587952A951A
:1009C000D1F72091BC0024FD03C01092FA030895D2
:1009D0004091FC035091FD036091FE037091FF0371
:1009E000452B462B472B69F30097A105B10541F034
:1009F0002AE22A95F1F700C00197A109B109E1CFD8
:100A00008091FB030C943F021F920F920FB60F923E
:100A100011242F933F938F939F93AF93BF93809114
:100A2000C6039091C703A091C803B091C903309148
:100A3000C50323E0230F2D3758F50196A11DB11DE5
:100A40002093C5038093C6039093C703A093C80364
:100A5000B093C9038091CA039091CB03A091CC03BA
:100A6000B091CD030196A11DB11D8093CA0390934F
:100A7000CB03A093CC03B093CD03BF91AF919F91D3
:100A80008F913F912F910F900FBE0F901F9018954F
:100A900026E8230F0296A11DB11DD2CF1F920F92FF
:100AA0000FB60F9211242F933F934F935F936F9341
:100AB0007F938F939F93AF93BF93EF93FF93809117
:100AC000B900887F803609F44AC0F0F5883209F40D
:100AD000A7C018F5803109F49BC0B8F4882309F445
:100AE000F9C0883009F494C0FF91EF91BF91AF91A4
:100AF0009F918F917F916F915F914F913F912F9136
:100B00000F900FBE0F901F901895883109F488C080
:100B1000803251F78093F80314C0803409F49DC0EB
:100B200040F48033B9F38833F9F68093F80385EC09
:100B3000B0C0803509F485C0883509F496C0883482
:100B400099F60E94CC04D0CF883909F48CC038F5CE
:100B5000883729F050F4883611F0803729F683E081
:100B60008093FA031092550257C0883809F47BC06D
:100B7000803919F0803809F0B7CF80915502803262
:100B800008F071C0E091550281E08E0F809355020C
:100B90008091BB00F0E0EB5CFD4F80833DC0803B6B
:100BA00039F0E0F4803A09F479C0883A09F09CCF32
:100BB00084E08093FA031092340210923302E091A1
:100BC000D003F091D10309958091330281110FC0B8
:100BD00081E0809333021092130209C0803C09F433
:100BE000A6CF883C09F4A3CF883B09F07DCFE091E4
:100BF000340281E08E0F80933402F0E0ED5EFD4F11
:100C000080818093BB00909134028091330229C08F
:100C10008091D5038093BB0085EC8093BC0064CFAA
:100C20009091F7038091F603981758F5E091F70338
:100C300081E08E0F8093F703F0E0EA52FC4F808151
:100C4000E9CFE091F70381E08E0F8093F703809165
:100C5000BB00F0E0EA52FC4F80839091F703809153
:100C6000F6039817C8F285E8D8CFE091F70381E042
:100C70008E0F8093F7038091BB00F0E0EA52FC4FA7
:100C800080838091F90381115CCF81E08093D4034C
:100C900084EA8093BC001092FA0326CF85EC8093FF
:100CA000BC001092FA0380915502803230F4E0913A
:100CB0005502F0E0EB5CFD4F10826091550270E050
:100CC000E091CE03F091CF0385E392E00995109275
:100CD00055020ACF1092F80334CFE4E2F4E0138215
:100CE000128288EE93E0A0E0B0E084839583A6832F
:100CF000B78383EE91E09183808310923104109248
:100D000030040895CF93DF93CDB7DEB729970FB6A0
:100D1000F894DEBF0FBECDBF789484B5826084BDE9
:100D200084B5816084BD85B5826085BD85B58160EF
:100D300085BD80916E00816080936E00109281006D
:100D40008091810082608093810080918100816028
:100D500080938100809180008160809380008091E9
:100D6000B10084608093B1008091B0008160809375
:100D7000B00080917A00846080937A0080917A003C
:100D8000826080937A0080917A00816080937A00FB
:100D900080917A00806880937A001092C1000E944E
:100DA00028028091300490913104009711F00E9444
:100DB000841186E090E00E94E8108C0180E6F80142
:100DC000808384E294E092838183138280E290E0C6
:100DD0009583848310933104009330040E94280289
:100DE00081E0F8018383C8010E945003A5E9EA2E3F
:100DF000A2E0FA2E08ED11E062E0F80181918F0186
:100E00000E941F015701FBEDCF2EF1E0DF2E61E0C4
:100E1000F60181916F010E941F01F501119211925B
:100E2000119211925F01FFEDCF16F1E0DF0679F725
:100E300020E1E20EF11C31E00B3D1307E9F61092C0
:100E4000C5021092C6021092C7021092C8021092F8
:100E5000C9021092CA021092CB021092CC021092D8
:100E6000CD021092CE021092CF021092D00262E018
:100E700089E00E941F0162E08AE00E941F0160E099
:100E80008BE00E941F0162E08CE00E941F0160E085
:100E90008EE00E941F0161E08DE00E941F0160E072
:100EA0008BE00E94F1000E94D7016B017C010E943F
:100EB000D7016C197D098E099F09603D7740810536
:100EC000910588F489E00E94C800892B81F78AE0A7
:100ED0000E94C800892B59F781E08093C00361E02C
:100EE0008BE00E94F10090E080E00E94030E898375
:100EF00081E090E00E94030E8A8389819A81893380
:100F0000904319F190E080E00E94030E893329F0AC
:100F100069E390E080E00E940B0E81E090E00E9487
:100F2000030E803329F060E381E090E00E940B0E15
:100F300004E010E0B80163507F4FC8010E949C0498
:100F40000C5F1F4F083C1105A9F7E5EDEE2EE2E01E
:100F5000FE2E04E010E0C8018B529D4F5C0167013A
:100F600048018E189F08C4018C0D9D1D0E94030E20
:100F7000F60181936F01EA15FB05A9F7F4E0EF0E86
:100F8000F11C0C5F1F4F083C110529F70E944A0411
:100F90000E94D7010091C1031091C2032091C303A5
:100FA0003091C403601B710B820B930B6B3F710577
:100FB0008105910518F189E00E94C8008C018AE042
:100FC0000E94C8000115110509F0C4C1009709F07D
:100FD000C1C12091C0032111BDC18091BF03811106
:100FE0006AC10E94D7016093BB037093BC038093D6
:100FF000BD039093BE0381E08093BF030E948E00E7
:1010000023E030E08A3A91050CF422C2843531E0C5
:1010100093070CF00AC284E090E09093CA01809399
:10102000C9012091C9013091CA018091C7019091F5
:10103000C8012817390719F081E08093B6030E9490
:101040004A04E090C003EE2009F49CC289E00E94AB
:10105000C800892B09F008C28AE00E94C800892BC9
:1010600009F002C20E94D7010091B2031091B303AC
:101070002091B4033091B503601B710B820B930B6D
:10108000613D77408105910508F0FBC169E9A62E15
:1010900063E0B62E7BED672E71E0772E10E000E066
:1010A000F30121903F0160E0822D0E94F100650173
:1010B00058ED852E51E0952EF12CE12CF401819113
:1010C0004F010E94C80033243394009709F0312C5B
:1010D000892B09F045C0F60180819181892B09F0A7
:1010E0003FC02091B9033091BA03C701880F991FFF
:1010F000880F991F800F911FFCE0F29FA001F39FC2
:10110000500D1124840F951F9093C6018093C50143
:101110002430310561F4E114F10449F4011511059D
:1011200031F420E330E03093C6012093C501E09113
:10113000C501F091C601EE0FFF1FEE0FFF1FEB522E
:10114000FD4F2FE338EA4FE454E4608171818281DE
:1011500093810E944D100E94600FCB010E94FE03FC
:10116000832D90E0F60191838083FFEFEF1AFF0A51
:1011700028E0C20ED11C33E0E316F10409F09ECF43
:1011800061E0822D0E94F1000F5F1F4F42E0A40E2C
:10119000B11C0430110509F083CF8CE00E94C80017
:1011A000892B09F06BC0E090C501F090C6015FEF9C
:1011B000E516F50609F462C08701000F111F000F44
:1011C000111FF801EF5FFE4F80809180A280B380F5
:1011D0000E948E00BC01990F880B990B0E94980FFA
:1011E00020E030EC4FE754E40E94EE0E20E030E0C7
:1011F00040E85EE30E944D1020E030E040E05EE316
:101200000E947C0EA50194010E947D0E4B015C01A1
:10121000E114F10409F04DC120E030E0A9010E9481
:10122000481018161CF0812C912C5401F801EB5237
:10123000FD4F80829182A282B3822FE338EA4FE48D
:1012400054E4C501B4010E944D100E94600FCB010F
:101250000E94FE038091C5019091C601880F991FDD
:10126000880F991FBC016B527D4F04960E949C040D
:101270008FEF9FEF9093C6018093C5018AE00E9493
:10128000C800892B31F489E00E94C800892B09F03D
:1012900025C11092D1021092D2021092D302109264
:1012A000D4020E944A0480E090E0892B09F46ECEBB
:1012B0000E9400006BCE0E94D7010091BB031091E9
:1012C000BC032091BD033091BE03601B710B820BE8
:1012D000930B633371058105910508F48FCE8091DE
:1012E000B9039091BA039093B8038093B7038091A8
:1012F000680290916902019665E070E00E94BA1060
:10130000909364028093630221E02093650282300F
:101310009105D1F04CF4009779F0019791F00E947B
:10132000D7011092BF036ACE8330910581F00497F4
:10133000B1F785E090E002C081E090E00E94B30147
:10134000EECF82E090E0FACF83E090E0F7CF84E048
:1013500090E0F4CF1092BF03012BD9F50E94D70182
:101360000091BB031091BC032091BD033091BE03DB
:10137000601B710B820B930B633371058105910523
:1013800008F43CCE3091B9032091BA038091C00398
:101390008823B9F0832F922F8430910514F083E0D5
:1013A00090E001969093BA038093B9030E94D7010D
:1013B0006093C1037093C2038093C3039093C403EB
:1013C0001DCE832F922F833091055CF382E090E055
:1013D000E8CF892BF9F40E94D7010091BB0310914B
:1013E000BC032091BD033091BE03601B710B820BC7
:1013F000930B633371058105910508F4FFCD80914E
:10140000B9039091BA031816190614F081E090E020
:101410000197C8CF0E94D7016093BB037093BC03B0
:101420008093BD039093BE03E9CD8E3F41E09407C6
:101430001CF485E090E0F1CD883AE2E09E071CF4D0
:1014400086E090E0EACD823593403CF428E030E03D
:101450003093CA012093C901E4CD40E150E050939C
:10146000CA014093C901DDCD0E94D7016093B20348
:101470007093B3038093B4039093B5031092B103B8
:1014800005CE8091B103811101CE1092C00381E09D
:101490008093B10360E08BE00E94F1000E94D701CD
:1014A0006093B2037093B3038093B4039093B50336
:1014B000EDCD60E3E616F10409F0B8CE20E030E0AF
:1014C00040E850E4B4010E94E90E87FDAFCE812CC4
:1014D000912CB0E8AB2EB0E4BB2EA8CEC090D102C8
:1014E000D090D202E090D302F090D402C114D10483
:1014F000E104F10459F40E94D7016093D102709382
:10150000D2028093D3029093D402CBCE0E94D70113
:101510006C197D098E099F0961347F418105910510
:1015200008F4BFCE84ECE1E0F1E0A5EDB2E001907B
:101530000D928A95E1F704E010E0B8016F527D4FFB
:10154000C8010E949C040C5F1F4F083C1105A9F7BD
:1015500006E010E061E08BE00E94F1006AEF70E0CD
:1015600080E090E00E94800160E08BE00E94F1004A
:101570006AEF70E080E090E00E9480010150110964
:1015800049F787CE0E944A04F5E92F2EF2E03F2E5C
:1015900025EC32E03C832B834BED51E059874887A3
:1015A000E885F985F190F987E88760E08F2D0E9442
:1015B000F1003101CB80DC8028ED31E03E832D83CA
:1015C000ED81FE818191FE83ED830E94C8008C0134
:1015D000F1E0FF83892B09F01F820E94D7014B01A4
:1015E0005C01F6018081FF81F81709F4E3C0F30183
:1015F00080819181A281B381A5019401281B390BBF
:101600004A0B5B0BDA01C901CD97A105B10508F4BE
:1016100046C02F81F6012083012BE1F561E08DE0CA
:101620000E94F1008091B9039091BA034CE0489F69
:101630009001499F300D1124C601855C9240280F0E
:10164000391F40919302509194028091C70190916B
:10165000C801481759077CF0E3E7F2E041E050E0A9
:10166000481759070CF0A0C0628173816193719390
:101670004F5F5F4FF5CFCA0101969093940280931C
:101680009302440F551FFA01ED58FD4F318320831B
:10169000EE24E394F30180829182A282B382F4E08B
:1016A000CF0ED11C20E1620E711C4D815E814B5D1D
:1016B000514009F085CF61E08F2D0E94F1008B81B0
:1016C0009C8101969C838B8394E0290E311CE885D4
:1016D000F985EF5DF14009F063CF0E944A048CE088
:1016E0000E94C8008C01FF24F394892B09F0F12C8F
:1016F0000E94D7010E94D70120917202F21609F4CC
:101700006CC080906E0290906F02A0907002B090BA
:1017100071029B01AC01281939094A095B09490189
:101720005A013CE383169104A104B10408F455C0A6
:10173000F092720260936E0270936F028093700257
:10174000909371020115110509F0F5C061E08DE07B
:101750000E94F1008091B9039091BA0320E330E038
:101760008330910538F48B529E4FFC012081022E6C
:10177000000C330B40919302509194028091C70169
:101780009091C80148175907DCF0E3E7F2E041E027
:1017900050E0481759070CF0C8C06281738161930B
:1017A00071934F5F5F4FF5CF880F991FFC01EF5882
:1017B000FD4F6CCF012B09F072CFEE24E3946FCF75
:1017C000CA0101969093940280939302440F551F8F
:1017D000FA01ED58FD4F318320830E944A04E11045
:1017E00003C060E0012B09F461E08DE00E94F1008C
:1017F0008BE00E94C800019709F053CD0E94D701E9
:1018000000916A0210916B0220916C0230916D027E
:10181000601B710B820B930B653671058105910579
:1018200008F43FCD0E94D70160936A0270936B0267
:1018300080936C0290936D02809193029091940238
:10184000181619060CF02DCD80916802909169024E
:101850008230910509F4C3C008F074C0009709F400
:1018600094C0019709F4A8C060E070E0CB01F1E3F7
:101870004F16510458F4F201EE0FFF1FEE0FFF1F39
:10188000EB52FD4F60817181828193812FE338EAB1
:101890004FE454E40E944D100E94600F7093620266
:1018A000609361027093600260935F02CB010E94BB
:1018B000FE0310925E0220916602309167022115AC
:1018C000310509F0EECC8091B603882309F4E4C019
:1018D0008091C9019091CA019093C8018093C7017A
:1018E0001092B60340919302509194028417950789
:1018F0000CF0D2C0E3E7F2E0440F551FBC01660FC5
:10190000771F719561957109281739070CF0C0C0D0
:10191000DF01A40FB51FA60FB71F0D90BC91A02D1E
:10192000A193B1932F5F3F4FEFCF880F991FFC0119
:10193000EF58FD4F50CFE110BFC060E08DE00E9436
:10194000F1004BCF8330910509F477C0049709F07B
:101950008BCFC090C701D090C8010D2C000CEE08B1
:10196000FF08C114D104E104F10439F00E94AB0D69
:10197000A70196010E94190E6B01F601EE0FFF1FE1
:10198000ED58FD4F408051806FCF8091660290915D
:101990006702FC01EE0FFF1FED58FD4F40805180A4
:1019A00001966091C7017091C8010E94BA1090938E
:1019B00067028093660258CF809166029091670219
:1019C000FC01EE0FFF1FED58FD4F408051806091EC
:1019D000C7017091C8010197860F971FE6CF8091CC
:1019E000660290916702FC01EE0FFF1FED58FD4F5C
:1019F0004080518020910001222391F00196909324
:101A00006702809366022091C7013091C80121507E
:101A10003109821793070CF427CF1092000124CFCD
:101A200001979093670280936602181619060CF4CA
:101A30001BCF81E08093000117CF809166029091C7
:101A40006702FC01EE0FFF1FED58FD4F40805180F3
:101A5000209100012223A1F00196909367028093C8
:101A600066022091C7013091C801821793070CF4D8
:101A7000FBCE215031093093670220936602CDCF0F
:101A8000019797FF94CF1092670210926602D1CF10
:101A9000909394028093930280916502882309F4C5
:101AA00000CC8091630290916402909369028093CC
:101AB000680210926502F5CB0E944A0495CE8F927F
:101AC0009F92AF92BF92CF92DF92EF92FF92CF930D
:101AD000DF93EC01688179818A819B8161157105B1
:101AE0008105910521F464E279ED8BE597E02DE124
:101AF00033EF41E050E00E94190E49015A019B0169
:101B0000AC01A7EAB1E40E94380E6B017C01ACEE97
:101B1000B4EFA50194010E94460EC60ED71EE81E22
:101B2000F91EF7FE06C081E0C81AD108E10880E876
:101B3000F80AC882D982EA82FB82C701B6019F7780
:101B4000DF91CF91FF90EF90DF90CF90BF90AF905B
:101B50009F908F9008958F929F92AF92BF92CF9255
:101B6000DF92EF92FF926091CB017091CC01809156
:101B7000CD019091CE01611571058105910521F48A
:101B800064E279ED8BE597E02DE133EF41E050E041
:101B90000E94190E49015A019B01AC01A7EAB1E468
:101BA0000E94380E6B017C01ACEEB4EFA5019401EC
:101BB0000E94460EC60ED71EE81EF91EF7FE06C08E
:101BC00081E0C81AD108E10880E8F80AC092CB0188
:101BD000D092CC01E092CD01F092CE01C701B601C6
:101BE0009F77FF90EF90DF90CF90BF90AF909F9046
:101BF0008F9008956093CB017093CC018093CD01B9
:101C00009093CE010895F999FECF92BD81BDF89AC7
:101C1000992780B50895262FF999FECF1FBA92BD56
:101C200081BD20BD0FB6F894FA9AF99A0FBE0196BD
:101C30000895052E97FB1EF400940E94300E57FD68
:101C400007D00E944B0E07FC03D04EF40C94300ECC
:101C500050954095309521953F4F4F4F5F4F0895D8
:101C600090958095709561957F4F8F4F9F4F089508
:101C70000E946D0EA59F900DB49F900DA49F800DA6
:101C8000911D11240895B7FF0C94380E0E94380E50
:101C9000821B930B0895A1E21A2EAA1BBB1BFD0108
:101CA0000DC0AA1FBB1FEE1FFF1FA217B307E4073B
:101CB000F50720F0A21BB30BE40BF50B661F771F93
:101CC000881F991F1A9469F7609570958095909573
:101CD0009B01AC01BD01CF010895A29FB001B39F4C
:101CE000C001A39F700D811D1124911DB29F700D25
:101CF000811D1124911D08955058BB27AA270E94C9
:101D0000940E0C940E100E94001038F00E940710E0
:101D100020F039F49F3F19F426F40C94FD0F0EF4D3
:101D2000E095E7FB0C94F70FE92F0E941F1058F382
:101D3000BA17620773078407950720F079F4A6F5B0
:101D40000C9441100EF4E0950B2EBA2FA02D0B0130
:101D5000B90190010C01CA01A0011124FF27591BF0
:101D600099F0593F50F4503E68F11A16F040A22FF6
:101D7000232F342F4427585FF3CF46953795279567
:101D8000A795F0405395C9F77EF41F16BA0B620B66
:101D9000730B840BBAF09150A1F0FF0FBB1F661FAD
:101DA000771F881FC2F70EC0BA0F621F731F841FF0
:101DB00048F4879577956795B795F7959E3F08F016
:101DC000B0CF9395880F08F09927EE0F97958795D8
:101DD00008950E94D30F08F481E008950E94020F35
:101DE0000C940E100E94071058F00E94001040F052
:101DF00029F45F3F29F00C94F70F51110C94421015
:101E00000C94FD0F0E941F1068F39923B1F3552322
:101E100091F3951B550BBB27AA27621773078407FD
:101E200038F09F5F5F4F220F331F441FAA1FA9F393
:101E300035D00E2E3AF0E0E832D091505040E69581
:101E4000001CCAF72BD0FE2F29D0660F771F881FE2
:101E5000BB1F261737074807AB07B0E809F0BB0BD5
:101E6000802DBF01FF2793585F4F3AF09E3F5105E9
:101E700078F00C94F70F0C9442105F3FE4F3983E17
:101E8000D4F3869577956795B795F7959F5FC9F7D2
:101E9000880F911D9695879597F90895E1E0660F53
:101EA000771F881FBB1F621773078407BA0720F0CC
:101EB000621B730B840BBA0BEE1F88F7E095089535
:101EC0000E94670F6894B1110C94421008950E940B
:101ED000271088F09F5798F0B92F9927B751B0F085
:101EE000E1F0660F771F881F991F1AF0BA95C9F79E
:101EF00014C0B13091F00E944110B1E008950C94EB
:101F00004110672F782F8827B85F39F0B93FCCF39D
:101F1000869577956795B395D9F73EF4909580951A
:101F2000709561957F4F8F4F9F4F0895E89409C03A
:101F300097FB3EF490958095709561957F4F8F4FFC
:101F40009F4F9923A9F0F92F96E9BB279395F69512
:101F5000879577956795B795F111F8CFFAF4BB0F90
:101F600011F460FF1BC06F5F7F4F8F4F9F4F16C0F4
:101F7000882311F096E911C0772321F09EE8872F7E
:101F8000762F05C0662371F096E8862F70E060E03A
:101F90002AF09A95660F771F881FDAF7880F9695B3
:101FA000879597F90895990F0008550FAA0BE0E857
:101FB000FEEF16161706E807F907C0F0121613060B
:101FC000E407F50798F0621B730B840B950B39F44B
:101FD0000A2661F0232B242B252B21F408950A26B1
:101FE00009F4A140A6958FEF811D811D089597F9F1
:101FF0009F6780E870E060E008959FEF80EC0895AF
:1020000000240A94161617061806090608950024D7
:102010000A9412161306140605060895092E039451
:10202000000C11F4882352F0BB0F40F4BF2B11F4C5
:1020300060FF04C06F5F7F4F8F4F9F4F089557FD24
:102040009058440F551F59F05F3F71F04795880F26
:1020500097FB991F61F09F3F79F0879508951216BD
:1020600013061406551FF2CF4695F1DF08C0161669
:1020700017061806991FF1CF86957105610508941A
:102080000895E894BB2766277727CB0197F9089531
:102090000E94D30F08F48FEF08950E9460100C94F3
:1020A0000E100E94001038F00E94071020F09523B7
:1020B00011F00C94F70F0C94FD0F11240C944210A6
:1020C0000E941F1070F3959FC1F3950F50E0551FAC
:1020D000629FF001729FBB27F00DB11D639FAA277D
:1020E000F00DB11DAA1F649F6627B00DA11D661FCC
:1020F000829F2227B00DA11D621F739FB00DA11DED
:10210000621F839FA00D611D221F749F3327A00DA6
:10211000611D231F849F600D211D822F762F6A2F42
:1021200011249F5750409AF0F1F088234AF0EE0FA7
:10213000FF1FBB1F661F771F881F91505040A9F7D4
:102140009E3F510580F00C94F70F0C9442105F3FB6
:10215000E4F3983ED4F3869577956795B795F79510
:10216000E7959F5FC1F7FE2B880F911D9695879588
:1021700097F9089597FB072E16F4009407D077FD82
:1021800009D00E94CE1007FC05D03EF490958195B1
:102190009F4F0895709561957F4F0895AA1BBB1BB3
:1021A00051E107C0AA1FBB1FA617B70710F0A61B57
:1021B000B70B881F991F5A95A9F780959095BC0178
:1021C000CD010895EE0FFF1F0590F491E02D0994C5
:1021D0000F931F93CF93DF938230910510F482E029
:1021E00090E0E0913404F091350430E020E0B0E07C
:1021F000A0E0309799F42115310509F44AC0281B55
:10220000390B24303105D8F58A819B816115710520
:1022100089F1FB0193838283FE0111C040815181CA
:102220000281138148175907E0F04817590799F4BC
:10223000109761F012960C93129713961C93329696
:10224000CF01DF91CF911F910F9108950093340436
:1022500010933504F4CF2115310551F0421753077F
:1022600038F0A901DB019A01BD01DF01F801C1CFFE
:10227000EF01F9CF9093350480933404CDCFFE0164
:10228000E20FF31F81939193225031093983288300
:10229000D7CF2091320430913304232B41F4209185
:1022A000D1013091D2013093330420933204209134
:1022B000CF013091D0012115310541F42DB73EB742
:1022C0004091D3015091D401241B350BE09132048D
:1022D000F0913304E217F307A0F42E1B3F0B2817ED
:1022E000390778F0AC014E5F5F4F2417350748F08F
:1022F0004E0F5F1F509333044093320481939193A8
:102300009FCFF0E0E0E09CCFCF93DF930097E9F020
:10231000FC01329713821282A0913404B0913504EB
:10232000ED0130E020E01097A1F420813181820F8F
:10233000931F20913204309133042817390709F094
:1023400061C0F0933304E0933204DF91CF9108959C
:10235000EA01CE17DF07E8F54A815B819E0141154E
:102360005105B1F7E901FB83EA8349915991C40F03
:10237000D51FEC17FD0761F4808191810296840FCF
:10238000951FE90199838883828193819B838A8346
:10239000F0E0E0E012968D919C9113970097B9F5CB
:1023A0002D913C911197CD010296820F931F2091A0
:1023B0003204309133042817390739F6309751F534
:1023C0001092350410923404B0933304A093320475
:1023D000BCCFD383C28340815181840F951FC8171E
:1023E000D90761F44E5F5F4F88819981480F591F6B
:1023F000518340838A819B81938382832115310598
:1024000009F0B0CFF0933504E09334049ECFFD0182
:0E241000DC01C0CF13821282D7CFF894FFCF29
:10241E000100000000E7FBA93D0C022B3E000080EE
:10242E003EFA7EAA3E0681D53E0000003F7D3F1556
:10243E003F83C02A3F0000403F7D3F553F83C06A27
:10244E003F0000803FBE9F8A3F4260953F0000A044
:10245E003FBE9FAA3F4260B53F0000C03FBE9FCA2D
:10246E003F4260D53F0000E03FBE9FEA3F4260F52D
:10247E003F00000040DF4F054021B00A4000001031
:10248E0040DF4F154021B01A4000002040DF4F259D
:10249E004021B02A4000003040DF4F354021B03A95
:1024AE004000004040DF4F454021B04A4000005000
:1024BE0040DF4F554021B05A4000006040DF4F656D
:1024CE004021B06A4000007040DF4F754021B07A65
:1024DE004000008040FFFF080008000100000000DF
:1024EE0000360480000C18240203040506070800B9
:1024FE00000000CC039F03FB03750398038503764E
:02250E000300C8
:00000001FF
