:100000000C9462000C948A000C948A000C948A0070
:100010000C948A000C948A000C948A000C948A0038
:100020000C948A000C948A000C948A000C948A0028
:100030000C948A000C948A000C948A000C948A0018
:100040000C94F9050C948A000C9469060C944306F0
:100050000C948A000C948A000C948A000C948A00F8
:100060000C949B060C948A000000000024002700DA
:100070002A0000000000250028002B0000000000DE
:1000800023002600290004040404040404040202DA
:100090000202020203030303030301020408102007
:1000A0004080010204081020010204081020000012
:1000B0000008000201000003040700000000000027
:1000C0000000BA0711241FBECFEFD8E0DEBFCDBFBE
:1000D00012E0A0E0B1E0EAEAFEE202C005900D9273
:1000E000A83BB107D9F725E0A8EBB2E001C01D920B
:1000F000AA3AB207E1F710E0C2E6D0E004C02197C7
:10010000FE010E942816C136D107C9F70E94F707E1
:100110000C9453170C94000008950895833081F0D7
:1001200028F4813099F08230A9F008958730A9F041
:100130008830C9F08430B1F4809180008F7D03C095
:10014000809180008F7780938000089584B58F77A9
:1001500084BD089584B58F7DFBCF8091B0008F77EB
:100160008093B00008958091B0008F7DF9CFCF9338
:10017000DF93282F30E0F901E255FF4F8491F90118
:10018000E656FF4FD491F901EA57FF4FC491CC23B3
:10019000A1F081110E948E00EC2FF0E0EE0FFF1F06
:1001A000E458FF4FA591B491EC91ED2381E090E0EC
:1001B00009F480E0DF91CF91089580E090E0FACFDC
:1001C0001F93CF93DF93282F30E0F901E255FF4FC3
:1001D0008491F901E656FF4FD491F901EA57FF4F98
:1001E000C491CC23A9F0162F81110E948E00EC2F10
:1001F000F0E0EE0FFF1FEE58FF4FA591B4918FB7BF
:10020000F894EC91111108C0D095DE23DC938FBFD8
:10021000DF91CF911F910895DE2BF8CFCF93DF931D
:1002200090E0FC01E656FF4F24918A579F4FFC0156
:1002300084918823C9F090E0880F991FFC01E85948
:10024000FF4FA591B491FC01EE58FF4FC591D49199
:1002500061110DC09FB7F8948C91209582238C93E7
:100260008881282328839FBFDF91CF910895623032
:1002700051F49FB7F8943C91822F809583238C93FF
:10028000E8812E2BEFCF8FB7F894EC912E2B2C9387
:100290008FBFEACF8E3008F08E50877080648093D5
:1002A0007C0080917A00806480937A0080917A004B
:1002B00086FDFCCF809178009091790008953FB73A
:1002C000F8948091A1049091A204A091A304B0910C
:1002D000A40426B5A89B05C02F3F19F00196A11DC7
:1002E000B11D3FBFBA2FA92F982F8827BC01CD0180
:1002F000620F711D811D911D42E0660F771F881FDF
:10030000991F4A95D1F708952FB7F89460919D04ED
:1003100070919E0480919F049091A0042FBF089536
:10032000AF92BF92CF92DF92EF92FF920F931F9303
:10033000CF93DF936C017B018B01040F151FEB0141
:100340005E01AE18BF08C017D10759F06991D601F8
:10035000ED91FC910190F081E02DC6010995892B6A
:1003600079F7C501DF91CF911F910F91FF90EF9029
:10037000DF90CF90BF90AF900895FC01538D448DD6
:10038000252F30E0842F90E0821B930B541710F040
:10039000CF96089501970895FC01918D828D98174D
:1003A00061F0A28DAE0FBF2FB11D5D968C91928D25
:1003B0009F5F9F73928F90E008958FEF9FEF089556
:1003C000FC01918D828D981731F0828DE80FF11D1F
:1003D000858D90E008958FEF9FEF0895FC01918D3A
:1003E000228D892F90E0805C9F4F821B91098F7333
:1003F000992708958BEF94E00E94EE0121E0892B6C
:1004000009F420E0822F089580E090E0892B29F004
:100410000E94FA0181110C9400000895FC01A48D42
:10042000A80FB92FB11DA35ABF4F2C91848D90E016
:1004300001968F739927848FA689B7892C93A089F9
:10044000B1898C91837080648C93938D848D981383
:1004500006C00288F389E02D80818F7D8083089516
:10046000EF92FF920F931F93CF93DF93EC0181E004
:10047000888F9B8D8C8D98131AC0E889F9898081AB
:1004800085FF15C09FB7F894EE89FF896083E889DE
:10049000F98980818370806480839FBF81E090E0D0
:1004A000DF91CF911F910F91FF90EF900895F62E5D
:1004B0000B8D10E00F5F1F4F0F731127E02E8C8DF7
:1004C0008E110CC00FB607FCFACFE889F98980813C
:1004D00085FFF5CFCE010E940E02F1CFEB8DEC0F20
:1004E000FD2FF11DE35AFF4FF0829FB7F8940B8F59
:1004F000EA89FB8980818062CFCFCF93DF93EC01C3
:10050000888D8823B9F0AA89BB89E889F9898C91FB
:1005100085FD03C0808186FD0DC00FB607FCF7CFB7
:100520008C9185FFF2CF808185FFEDCFCE010E94B7
:100530000E02E9CFDF91CF9108952091F902260FA5
:100540003327331F21323105ECF42091D104FC0113
:1005500090E080E0243069F082E00895A091F902F3
:100560002191AC0147525D4FA40FB52FB11D2C93C3
:100570000196861798F38091F902680F6093F9024B
:1005800080E0089581E008951092D10481E0809385
:10059000D0041092AB0461E082E10E94E00061E0CF
:1005A00083E10E94E000E9EBF0E080818E7F8083B0
:1005B00080818D7F808388E48093B80085E4809378
:1005C000BC0008951092AA041092A9041092D804B5
:1005D0001092FA040E94C4028CE890E09093A80460
:1005E0008093A7048DE890E09093A6048093A504DF
:1005F0000895CF93DF9391E09093D8028823B9F0C8
:10060000C091B800D091BA008091BC008A7B8093E1
:10061000BC0060E082E10E94E00060E083E10E94B3
:10062000E0000E94C402D093BA00C093B800DF91EA
:10063000CF9108958F929F92AF92BF92CF92DF9207
:10064000EF92FF920F931F93CF93DF93D091FA0411
:10065000D13208F0D7C0182FC091F9040E945F0171
:100660006B017C018091D10481116BC082E0809389
:10067000D1041093D0048FEF8093CF041092CE0456
:10068000D093CD04A9EDB4E0EDEAF4E080E0D81316
:1006900091C01092AC048091AC04CC0FC82BC093D5
:1006A000AC048091AB04813009F088C01092AB0497
:1006B0000E945F016B017C018091AC048093BB00C0
:1006C0008091D3049091D404A091D504B091D60424
:1006D000892B8A2B8B2BA1F00E945F010091D30400
:1006E0001091D4042091D5043091D6046C197D0961
:1006F0008E099F09061717072807390708F442C013
:100700008091BC0083FDD8CF85EC8093BC000E9413
:100710005F016B017C018091D104823009F450C0EB
:100720008091CF048F3F09F46FC08091CF04803255
:1007300009F46CC08091CF04803309F469C084E06F
:1007400026C08091D3049091D404A091D504B09197
:10075000D604892B8A2B8B2B09F484CF0E945F014E
:100760008090D3049090D404A090D504B090D60487
:100770006C197D098E099F0986169706A806B90689
:1007800008F070CF8091D2040E94F90285E01092A7
:10079000D8041092FA041092D704DF91CF911F91E0
:1007A0000F91FF90EF90DF90CF90BF90AF909F9010
:1007B0008F9008959D9191938F5F69CF85EEA5CF1E
:1007C0008091D3049091D404A091D504B091D60423
:1007D000892B8A2B8B2B09F49ECF0E945F010091FD
:1007E000D3041091D4042091D5043091D6046C190F
:1007F0007D098E099F09061717072807390708F092
:100800008ACFC0CF81E0C3CF80E0C1CF82E0BFCF2D
:1008100083E0BDCFCF93DF93EC018B818823A1F0E0
:10082000888191E09093D7048093F9041092D804C2
:100830001092FA0481E00E941A0391E0811190E085
:10084000892FDF91CF9108950E94E20281E08B838E
:10085000CE010E940A04982F8111E2CFF1CF0895B2
:10086000E091AA048091A904E81730F4F0E0E8547C
:10087000FD4F808190E008958FEF9FEF0895909154
:10088000AA048091A9042FEF3FEF981748F4E92FAD
:10089000F0E0E854FD4F208130E09F5F9093AA0480
:1008A000C90108958091A9049091AA04891B990B0C
:1008B0000895CF92DF92EF92FF920F931F93CF9301
:1008C000DF937C01CB018A012091D704222389F098
:1008D000EB016B01C40ED51ECC15DD0569F06991E5
:1008E000D701ED91FC910190F081E02DC7010995B0
:1008F000F3CF642F0E949D02C801DF91CF911F9119
:100900000F91FF90EF90DF90CF900895CF93DF93FA
:100910001F92CDB7DEB769832091D7042223F9F067
:100920002091FA04203258F021E030E0FC013383BA
:10093000228390E080E00F90DF91CF910895809125
:10094000D804E82FF0E0E752FB4F998190838F5F46
:100950008093D8048093FA0481E090E0ECCF61E0CA
:10096000CE0101960E949D02F7CF90E080E00895AD
:10097000CF93DF9300D01F92CDB7DEB71092B900AE
:100980002CE02093B80020E429839C0194E0369564
:1009900027959A95E1F72A838295807F8B83E09152
:1009A000A405F091A50584819581039738F480E032
:1009B0000F900F900F90DF91CF91089581819281D8
:1009C000208131E03093D7042093F9041092D804A9
:1009D0001092FA04DC01ED91FC910280F381E02D8C
:1009E00043E050E0BE016F5F7F4F09950397F9F632
:1009F00081E00E941A038111DACF1092B90088E4D5
:100A00008093B80081E0D4CFFC0101900020E9F789
:100A10003197AF01481B590BBC018BEF94E00C944C
:100A200090018F929F92AF92BF920F931F93CF939B
:100A3000DF93CDB7DEB7A1970FB6F894DEBF0FBE38
:100A4000CDBF19A2423008F44AE08E010F5D1F4F5E
:100A5000842E912CB12CA12CA50194010E942F135E
:100A6000E62FB901CA01EA30F4F4E05DD801EE9353
:100A70008D01232B242B252B79F790E080E0109714
:100A800019F0CD010E940405A1960FB6F894DEBFBF
:100A90000FBECDBFDF91CF911F910F91BF90AF904F
:100AA0009F908F900895E95CE1CFCF92DF92EF9213
:100AB000FF92CF93DF936B017C016DE28BEF94E0AB
:100AC0000E943002EC0166277727CB016C197D0963
:100AD0008E099F094AE00E9411058C0F9D1FDF912E
:100AE000CF91FF90EF90DF90CF900895CF93DF9359
:100AF000BC01990F880B990B4AE00E941105EC018B
:100B000085E092E00E9404058C0F9D1FDF91CF913C
:100B100008950F931F93CF93DF938C01EB010E94F5
:100B2000E7128883C80101960E94E7128983CE01EB
:100B3000DF91CF911F910F910895FF920F931F9313
:100B4000CF93DF93EC018B01FB01F0800E94E71251
:100B5000F81621F06F2DCE010E94EF12F801F180FE
:100B60002196CE010E94E712F81621F06F2DCE01DA
:100B70000E94EF12C801DF91CF911F910F91FF905A
:100B8000089585ED8093BC008091D3049091D404A6
:100B9000A091D504B091D6040796A11DB11D23E004
:100BA000B695A795979587952A95D1F72091BC0082
:100BB00024FD03C01092D10408954091D3045091B4
:100BC000D4046091D5047091D604452B462B472B55
:100BD00069F30097A105B10541F02AE22A95F1F7E2
:100BE00000C00197A109B109E1CF8091D2040C9412
:100BF000F9021F920F920FB60F9211242F933F9379
:100C00008F939F93AF93BF9380919D0490919E0487
:100C1000A0919F04B091A00430919C0423E0230F85
:100C20002D3758F50196A11DB11D20939C0480938A
:100C30009D0490939E04A0939F04B093A004809180
:100C4000A1049091A204A091A304B091A4040196E0
:100C5000A11DB11D8093A1049093A204A093A304AD
:100C6000B093A404BF91AF919F918F913F912F9129
:100C70000F900FBE0F901F90189526E8230F029635
:100C8000A11DB11DD2CF1F920F920FB60F9211244A
:100C90002F933F934F935F936F937F938F939F9384
:100CA000AF93BF93EF93FF938BEF94E00E940E02FC
:100CB000FF91EF91BF91AF919F918F917F916F9134
:100CC0005F914F913F912F910F900FBE0F901F900A
:100CD00018951F920F920FB60F9211242F938F9396
:100CE0009F93EF93FF93E0910B05F0910C058081AA
:100CF000E0911105F091120582FD1BC09081809159
:100D000014058F5F8F7320911505821741F0E091D4
:100D10001405F0E0E550FB4F958F80931405FF918B
:100D2000EF919F918F912F910F900FBE0F901F9079
:100D300018958081F4CF1F920F920FB60F92112455
:100D40002F933F934F935F936F937F938F939F93D3
:100D5000AF93BF93EF93FF938091B900887F803664
:100D600009F44AC0F0F5883209F4A7C018F58031BB
:100D700009F49BC0B8F4882309F4F9C0883009F459
:100D800094C0FF91EF91BF91AF919F918F917F910F
:100D90006F915F914F913F912F910F900FBE0F90E8
:100DA0001F901895883109F488C0803251F78093DC
:100DB000CF0414C0803409F49DC040F48033B9F3EB
:100DC0008833F9F68093CF0485ECB0C0803509F400
:100DD00085C0883509F496C0883499F60E94C1050B
:100DE000D0CF883909F48CC038F5883729F050F411
:100DF000883611F0803729F683E08093D104109271
:100E00001B0357C0883809F47BC0803919F080383B
:100E100009F0B7CF80911B03803208F071C0E091D8
:100E20001B0381E08E0F80931B038091BB00F0E0D9
:100E3000E550FD4F80833DC0803B39F0E0F4803ABF
:100E400009F479C0883A09F09CCF84E08093D104FA
:100E50001092FA021092F902E091A704F091A8040E
:100E600009958091F90281110FC081E08093F90208
:100E70001092D90209C0803C09F4A6CF883C09F43D
:100E8000A3CF883B09F07DCFE091FA0281E08E0F7D
:100E90008093FA02F0E0E752FD4F80818093BB001F
:100EA0009091FA028091F90229C08091AC0480935C
:100EB000BB0085EC8093BC0064CF9091CE04809100
:100EC000CD04981758F5E091CE0481E08E0F809301
:100ED000CE04F0E0E355FB4F8081E9CFE091CE04F2
:100EE00081E08E0F8093CE048091BB00F0E0E3554B
:100EF000FB4F80839091CE048091CD049817C8F267
:100F000085E8D8CFE091CE0481E08E0F8093CE04A7
:100F10008091BB00F0E0E355FB4F80838091D004CB
:100F200081115CCF81E08093AB0484EA8093BC00A4
:100F30001092D10426CF85EC8093BC001092D1048E
:100F400080911B03803230F4E0911B03F0E0E55008
:100F5000FD4F108260911B0370E0E091A504F091B9
:100F6000A6048BEF92E0099510921B030ACF109212
:100F7000CF0434CFEBEFF4E01382128288EE93E0DB
:100F8000A0E0B0E084839583A683B78325EE31E0AB
:100F90003183208325EC30E03587248724EC30E052
:100FA0003787268720EC30E0318B208B21EC30E036
:100FB000338B228B22EC30E0358B248B26EC30E017
:100FC000378B268B118E128E138E148EE8E9F5E086
:100FD0001382128284839583A683B78387EF91E07F
:100FE000918380831092A5051092A4050895CF9354
:100FF000DF93CDB7DEB766970FB6F894DEBF0FBEAE
:10100000CDBF789484B5826084BD84B5816084BD91
:1010100085B5826085BD85B5816085BD80916E0096
:10102000816080936E0010928100809181008260C7
:101030008093810080918100816080938100809104
:1010400080008160809380008091B10084608093F3
:10105000B1008091B00081608093B00080917A00EF
:10106000846080937A0080917A00826080937A0015
:1010700080917A00816080937A0080917A00806804
:1010800080937A001092C1000E94E2028091A40530
:101090009091A505009711F00E94CA1686E090E095
:1010A0000E942E168C0180E6D8018C9388E995E089
:1010B00012969C938E93119713961C92139780E22D
:1010C00090E015969C938E9314971093A50500932A
:1010D000A4050E94E20281E0F8018383C8010E9416
:1010E0000A04E0910B05F0910C0582E08083E09109
:1010F0000705F09108051082E0910905F0910A05B5
:101100008FEC808310921305E0910F05F09110058C
:1011100086E08083E0910D05F0910E05808180616D
:101120008083E0910D05F0910E05808188608083B9
:10113000E0910D05F0910E05808180688083E0913B
:101140000D05F0910E0580818F7D80832DEDC22EDF
:1011500021E0D22E04E513E02AED31E03A87298719
:1011600062E0A985BA858D91BA87A9870E940E0190
:101170007801EDEDF1E0F887EF8361E0AF81B885AC
:101180008D91B887AF830E940E01F70111921192E1
:10119000119211927F012F813885215E314069F7CC
:1011A000005F1F4F49845A84C414D504C9F61092B5
:1011B0008403109285031092860310928703109285
:1011C00088031092890310928A0310928B03109265
:1011D0008C0310928D0310928E0310928F0362E0A5
:1011E00089E00E940E0162E08AE00E940E0160E048
:1011F0008BE00E940E0162E08CE00E940E0160E034
:101200008EE00E940E0161E08DE00E940E0160E020
:101210008BE00E94E0000E9484016B017C010E942F
:1012200084016C197D098E099F09603D7740810515
:10123000910588F489E00E94B700892B81F78AE044
:101240000E94B700892B59F781E080938D0461E0FB
:101250008BE00E94E000BE016B5F7F4F90E080E07A
:101260000E9489058D819E818933904391F165EDBE
:1012700071E090E080E00E949D0598E0E92EF12C5D
:10128000870104501109970128503F4F6901D60189
:10129000BD906D01C8010E94E712B81621F06B2DB8
:1012A000C8010E94EF120F5F1F4F0E151F0579F73F
:1012B0007801B4E0EB0EF11CECECEE16F10401F752
:1012C0001A821982BE016F5F7F4F88EC90E00E9406
:1012D0009D05BE016D5F7F4F88EC90E00E948905FF
:1012E0008B819C818233994009F448C088E092E068
:1012F0000E94040585E092E00E940405B1E9EB2E0E
:10130000B3E0FB2E04E010E084E0682E712C98011D
:101310002F563C4F5901670148018E189F08C401A0
:101320008C0D9D1D0E94E712D6018D936D01AA16AA
:10133000BB06A9F7F70161917191819191917F01AC
:1013400020E030E04AE754E40E9493150E944414E0
:101350007A836983BE016F5F7F4FC3010E949D0541
:10136000F2E06F0E711C0C5F1F4F083C110579F6FF
:1013700063ED71E088EC90E00E949D05A1E9EA2E02
:10138000A3E0FA2E04E010E0BE016F5F7F4FC801BA
:101390000E94890569817A81072E000C880B990BC0
:1013A0000E947C1420E030E04AE754E40E94D2130B
:1013B000D7016D937D938D939D937D010E5F1F4F9C
:1013C0000636110509F78DE392E00E94040587E5D2
:1013D00092E00E94040583E690E00E9476058BE689
:1013E00092E00E9404054AE064E070E080E090E052
:1013F0000E9411058BE892E00E94040585E690E0CA
:101400000E94760581E992E00E9404052091C501C1
:101410003091C601E5E5F4E090E080E082179307A3
:1014200024F4119211920196F9CF30934E03209338
:101430004D030E9484016B017C0189E00E94B7008A
:101440008C018AE00E94B700409198045091990461
:1014500060919A0470919B0446015701841A950A81
:10146000A60AB70A209197040115110509F075C75E
:1014700021110BC0C0929304D0929404E092950481
:10148000F092960421E02093970420918A04892BFE
:1014900009F0B6C721110BC0C0929304D0929404F6
:1014A000E0929504F092960481E080938A04012BE7
:1014B00009F0D7C780918D048111D3C78091890429
:1014C00081110CC0C0928504D0928604E0928704FA
:1014D000F092880481E080938904C5C780918504D7
:1014E00090918604A0918704B09188042601370169
:1014F000481A590A6A0A7B0AD301C2018536910546
:10150000A105B10508F4B1C7809192048111ADC75E
:1015100080918B0490918C04909384048093830435
:1015200080914F0390915003019666E070E00E9415
:101530000016909353038093520381E080935103EC
:10154000C0929804D0929904E0929A04F0929B047D
:10155000809392041092970410928A0486C784356F
:1015600001E090070CF09AC124E030E03093C8010C
:101570002093C7012091C7013091C8018091C50116
:101580009091C6012817390719F081E080938204F1
:1015900030908D04332009F442C20E9484016B0113
:1015A0007C0189E00E94B700892B09F08EC18AE096
:1015B0000E94B700892B09F088C180913F03909168
:1015C0004003A0914103B091420326013701481A1C
:1015D000590A6A0A7B0AD301C201813D9740A105DD
:1015E000B10508F07DC189E00E94B700892B71F533
:1015F0008AE00E94B700892B49F180913A039091CB
:101600003B03A0913C03B0913D03A7019601281B29
:10161000390B4A0B5B0BDA01C901893C9105A10525
:10162000B105A0F080918B0490918C0484309105D9
:101630002CF4019690938C0480938B04C0923A030F
:10164000D0923B03E0923C03F0923D038AE00E947B
:10165000B700892B31F489E00E94B700892B09F08B
:1016600055C110923603109237031092380310922E
:1016700039036EE1A62E63E0B62E7DED672E71E094
:10168000772E10E000E0ECE03E2EF30141903F01A8
:1016900060E0842D0E94E00065015AED852E51E046
:1016A000952EF12CE12CD4018D914D010E94B700B3
:1016B00055245394009709F0512C892B09F048C008
:1016C000F60180819181892B09F042C020918B0421
:1016D00030918C04C701880F991F880F991F800FC4
:1016E000911F329EA001339E500D1124840F951F2F
:1016F00090931D0380931C032430310561F4E114A1
:10170000F10449F40115110531F420E330E0309380
:101710001D0320931C0380911C0390911D038133B2
:101720009105B0F4880F991F880F991FFC01EF569F
:10173000FC4F2FE338EA4FE454E4608171818281E9
:1017400093810E9493150E944414CB010E94B80417
:10175000852D90E0D6018D939C93BFEFEB1AFB0A89
:10176000E8E0CE0ED11CF3E0EF16F10409F09BCFB8
:1017700061E0842D0E94E0000F5F1F4F22E0A20E67
:10178000B11C0430110509F080CF8CE00E94B70035
:10179000892B09F076C0E0901C03F0901D033FEF09
:1017A000E316F30609F46DC08701000F111F000F47
:1017B000111FF801E050FF4F80809180A280B3801C
:1017C0008EE00E944A01BC01990F880B990B0E9480
:1017D0007C1420E030EC4FE754E40E94D21320E068
:1017E00030E040E85EE30E94931520E030E040E006
:1017F0005EE30E946013A50194010E9461134B01F6
:101800005C01E114F10409F0F6C020E030E0A90128
:101810000E948E1518161CF0812C912C5401F80191
:10182000EF56FC4F80829182A282B3822FE338EA86
:101830004FE454E4C501B4010E9493150E9444147E
:10184000CB010E94B80420E030E04AE754E4C5012F
:10185000B4010E9493150E9444147A836983809195
:101860001C0390911D030296BE016F5F7F4F880F8E
:10187000991F0E949D058FEF9FEF90931D0380930A
:101880001C0380E090E0892B09F4D3CD0E94FA017B
:10189000882309F4CECD0E940000CBCD8E3F31E0ED
:1018A00093071CF485E090E0E9C5883A42E094078C
:1018B0001CF486E090E0E2C5823593401CF488E099
:1018C00090E0DCC580E190E0D9C5C0923F03D092A2
:1018D0004003E0924103F092420310923E0383CE14
:1018E00080913E0381117FCE10928D0481E0809320
:1018F0003E0360E08BE00E94E000C0923F03D09284
:101900004003E0924103F09242036DCE80913A038E
:1019100090913B03A0913C03B0913D03B701A60118
:10192000481B590B6A0B7B0BDB01CA01893C9105F3
:10193000A105B105A0F080918B0490918C0418163C
:1019400019062CF4019790938C0480938B04C09219
:101950003A03D0923B03E0923C03F0923D03809126
:10196000360390913703A0913803B0913903009763
:10197000A105B10549F4C0923603D0923703E09235
:101980003803F092390375CEC81AD90AEA0AFB0A5D
:1019900051E4C5165FE1D506E104F10408F469CE0F
:1019A00084ECE0E0F1E0A1E9B3E001900D928A95CA
:1019B000E1F7F0E0EF2EF1E0FF2E04E010E0D701B8
:1019C0006D917D918D919D917D0120E030E04AE700
:1019D00054E40E9493150E9444147A836983BE01E3
:1019E0006F5F7F4FC8010E949D050E5F1F4F063637
:1019F000110529F736CE40E3E416F10409F00FCFC4
:101A000020E030E040E850E40E94CD1387FD07CF8E
:101A1000812C912C80E8A82E80E4B82E00CF89E09C
:101A20000E94B700892B09F049C080918E049091E3
:101A30008F04A0919004B09191040097A105B10585
:101A400041F5C0928E04D0928F04E0929004F092FF
:101A500091048AE00E94B70020917B04892B09F051
:101A6000ECC180917D0490917E04A0917F04B0919F
:101A700080040097A105B10509F051C0C0927D0412
:101A8000D0927E04E0927F04F092800410927C0455
:101A900058C0209181042111DCCF26013701481A5A
:101AA000590A6A0A7B0AD301C2018A359105A10548
:101AB000B10578F281E080938104CBCF80918104DD
:101AC000882359F01092810410928E0410928F0492
:101AD0001092900410929104BCCF80918E0490914A
:101AE0008F04A0919004B091910436014701681AC7
:101AF000790A8A0A9B0AD401C3018A359105A10596
:101B0000B10510F780918B0490918C04833091057E
:101B1000DCF6019690938C0480938B04D5CF211131
:101B200010C097018601081B190B2A0B3B0BD9012A
:101B3000C8018A359105A105B10518F081E08093AF
:101B40007B048CE00E94B7005C0110917B041123A0
:101B500009F4A6C1892B09F0A3C180917704909163
:101B60007804A0917904B0917A04B701A601481BCA
:101B7000590B6A0B7B0BDB01CA01893C9105A1055E
:101B8000B10508F48DC180917C04811189C1109246
:101B90007604109275048091550490915604813317
:101BA000910508F079C1880F991F880F991FFC01D2
:101BB000EF56FC4F60817181828193812FE338EA77
:101BC0004FE454E40E9493150E944414CB010E94F8
:101BD000B804C0927704D0927804E0927904F0922D
:101BE0007A0481E080937C04312E04E513E0188BA5
:101BF0000F87A4E84A2EA3E05A2E0DED11E01C87B2
:101C00000B87132DAB85BC850D91BC87AB8760E03E
:101C1000802F0E94E0006F8478884201EAEDF1E0B5
:101C2000FE87ED87AD85BE858D91BE87AD870E940D
:101C3000B7009E8B8D8B21E0892B09F020E0F40109
:101C40003081231709F422C2D3014D915D916D912A
:101C50007C91D701C601841B950BA60BB70B4F9740
:101C6000A105B10548F1209081042083AD89BE898A
:101C7000AB2BE1F461E08DE00E94E000C4018458E8
:101C80009340222009F468C18330910509F44FC1C3
:101C900008F033C1009709F440C18130910509F47F
:101CA00041C171E070935103122D322CD301CD92BA
:101CB000DD92ED92FC921397F4E08F0E911C20E1DF
:101CC000620E711C4D855E8569857A8546175707BA
:101CD00009F0A8CF61E0802F0E94E0007FEF471A53
:101CE000570A8F8598890496988B8F876F807884A0
:101CF0008B849C846814790409F084CF80918104DA
:101D00008111E8C180917B048111E4C181E0A114BB
:101D1000B10409F080E090914C03891709F4DAC10D
:101D2000409148035091490360914A0370914B03DD
:101D300026013701441A550A660A770AB301A2013F
:101D40004E3151056105710508F4C4C180934C03FF
:101D5000C0924803D0924903E0924A03F0924B03A9
:101D6000AB2809F0AFC161E08DE00E94E0008091F6
:101D70008B0490918C0420E330E08330910538F49B
:101D800089529E4FDC012C91022E000C330B4091A6
:101D90004D0350914E038091C5019091C6014817A3
:101DA00059070CF07BC1CA01019690934E038093B2
:101DB0004D03440F551FFA01EB5AFB4F318320832B
:101DC00061E08DE00E94E0008BE00E94B70001E03E
:101DD000009709F400E0892B09F4A9C28091470318
:101DE0008111A5C20E94840180919003882331F063
:101DF00010927604109275041092900380914D0316
:101E000090914E03181619060CF091C26091C5010D
:101E10007091C60180914F039091500382309105DB
:101E200009F4F6C108F05CC1009709F478C1019784
:101E300009F4DFC130E020E084C1222359F0109280
:101E40007B0410927D0410927E0410927F04109205
:101E500080041CCE80917D0490917E04A0917F042B
:101E6000B0918004A7019601281B390B4A0B5B0B2C
:101E7000DA01C9018A359105A105B10510F78091F4
:101E80008B0490918C0418161906DCF60197909338
:101E90008C0480938B04D5CF60E070E0CB018ECEB4
:101EA00080918104882339F1A114B10409F09DCEF9
:101EB00040917704509178046091790470917A048C
:101EC00026013701441A550A660A770AB301A201AE
:101ED000493C51056105710508F487CE91E0909366
:101EE0009003C0927704D0927804E0927904F09243
:101EF0007A04382E7ACE312C78CE88309105F1F0E4
:101F00008A30910511F1069709F0CBCE23E030E03D
:101F10003093530320935203C4CE10925303109274
:101F20005203BFCE9093530380935203BACEE2E0A4
:101F3000F0E0F0935303E0935203B3CE44E050E05B
:101F40005093530340935203ACCE65E070E070931E
:101F5000530360935203A5CE30907B04332009F4E1
:101F60005AC083309105F1F148F50097B1F1813005
:101F70009105D1F110927604109275048091550468
:101F8000909156048133910508F041C0880F991F44
:101F9000880F991FFC01EF56FC4F6081718182818F
:101FA00093812FE338EA4FE454E40E9493150E9492
:101FB0004414CB010E94B804132D78CE88309105CB
:101FC000C1F08A309105E1F00697A1F6A3E0B0E0F8
:101FD000B0935003A0934F03CDCF109250031092B3
:101FE0004F03C8CF82E090E09093500380934F035B
:101FF000C1CFE4E0F0E0F0935003E0934F03BACF99
:1020000025E030E03093500320934F03B3CF60E0DE
:1020100070E0CB01C6CF40918B0450918C046CE0F2
:10202000649F9001659F300D1124280F391F409146
:102030004D0350914E038091C5019091C601481700
:10204000590784F4CA01019690934E0380934D037F
:10205000440F551FFA01EB5AFB4F31832083332481
:10206000339424CEE5E5F4E041E050E04817590709
:102070003CF462817381619371934F5F5F4FF6CF40
:10208000880F991FFC01ED5AFB4FE7CFED89FE89C0
:10209000EF2B09F011CE332433940ECEE5E5F4E0B6
:1020A00041E050E0481759073CF462817381619325
:1020B00071934F5F5F4FF6CF880F991FFC01ED5A68
:1020C000FB4F7CCE31107CCE60E08DE00E94E000C2
:1020D00060E077CE311074CEAB2809F471CEF8CF22
:1020E0008430910509F4E1C008F4BCC0059709F0FB
:1020F000A1CE6B01770FEE08FF08C114D104E104F3
:10210000F10439F00E948F12A70196010E94FD127E
:102110006B01F601EE0FFF1FEB5AFB4FF1C08091F0
:10212000750490917604FC01EE0FFF1FEB5AFB4FF4
:102130002081318101960E9400169093760480934D
:10214000750460E070E0CB012133310558F4220FB3
:10215000331F220F331FF901EF56FC4F608171814D
:10216000828193812FE338EA4FE454E40E9493156F
:102170000E944414CB010E94B804E0907504F090D2
:102180007604E114F10409F0C2C08091820488232E
:1021900009F4BDC08091C7019091C8019093C60118
:1021A0008093C5011092820420914D0330914E031B
:1021B000821793070CF0ABC0220F331FBC01660FD0
:1021C000771F719561957109E5E5F4E050E040E015
:1021D000481759070CF097C0D901AE0FBF1FA60FC3
:1021E000B71F0D90BC91A02DA193B1934F5F5F4F8E
:1021F000EFCF8091750490917604FC01EE0FFF1FE4
:10220000EB5AFB4F208131810197860F971F93CFA7
:102210008091750490917604FC01EE0FFF1FEB5A3C
:10222000FB4F208131814091C401442371F001961C
:10223000909376048093750461507109861797070F
:102240000CF47FCF1092C4017CCF01979093760459
:1022500080937504181619060CF473CF81E08093EF
:10226000C4016FCF8091750490917604FC01EE0F4C
:10227000FF1FEB5AFB4F208131814091C401442361
:1022800061F00196861797070CF457CF61507109DA
:102290007093760460937504D5CF019797FF4DCF67
:1022A0001092760410927504D9CF072E000C880B7B
:1022B000990B0E947C146B017C012AE737E34EE105
:1022C0005FE30E94931520914303309144034091B2
:1022D0004503509146030E946113A70196010E9495
:1022E000C214609343037093440380934503909317
:1022F00046030E944414660F771F6B5A7B4FFB0105
:10230000208131811ECF90934E0380934D038091A5
:102310005103882361F0EF2851F48091520390918A
:1023200053039093500380934F03109251030093F3
:102330004703112309F4A5CA10928E0410928F044A
:10234000109290041092910410927D0410927E04D9
:1023500010927F041092800494CA222309F495C835
:10236000009709F44AC040919304509194046091FD
:1023700095047091960426013701441A550A660A9D
:10238000770AB301A2014D33510561057105A8F12A
:1023900020919204211131C024EF821621E092068F
:1023A000A104B10450F140918E0450918F046091CA
:1023B00090047091910426013701441A550A660A67
:1023C000770AB301A201443F514061057105A8F4A9
:1023D00020918D0444E050E0211102C043E050E020
:1023E00020918B0430918C042417350734F42F5F2F
:1023F0003F4F30938C0420938B041092970445C870
:10240000222379F1012B59F1809193049091940446
:10241000A0919504B0919604B701A601481B590BF1
:102420006A0B7B0BDB01CA01CD97A105B105B8F0A2
:1024300080919204811113C054EF851651E09506E6
:10244000A104B10460F080918B0490918C04181663
:1024500019062CF4019790938C0480938B041092AE
:102460008A0410928904109292048EE00E944A011C
:102470008A3A91050CF073C883E090E09093C8010C
:102480008093C70177C88F929F92AF92BF92CF92ED
:10249000DF92EF92FF92CF93DF93EC016881798115
:1024A0008A819B81611571058105910521F464E2A2
:1024B00079ED8BE597E02DE133EF41E050E00E94AC
:1024C000FD1249015A019B01AC01A7EAB1E40E9447
:1024D0001C136B017C01ACEEB4EFA50194010E94CA
:1024E0002A13C60ED71EE81EF91EF7FE06C081E0AD
:1024F000C81AD108E10880E8F80AC882D982EA82BD
:10250000FB82C701B6019F77DF91CF91FF90EF90DB
:10251000DF90CF90BF90AF909F908F9008958F9253
:102520009F92AF92BF92CF92DF92EF92FF92609113
:10253000C9017091CA018091CB019091CC016115C4
:1025400071058105910521F464E279ED8BE597E051
:102550002DE133EF41E050E00E94FD1249015A01A4
:102560009B01AC01A7EAB1E40E941C136B017C0142
:10257000ACEEB4EFA50194010E942A13C60ED71E3B
:10258000E81EF91EF7FE06C081E0C81AD108E1086E
:1025900080E8F80AC092C901D092CA01E092CB014A
:1025A000F092CC01C701B6019F77FF90EF90DF90CA
:1025B000CF90BF90AF909F908F9008956093C90186
:1025C0007093CA018093CB019093CC010895F9993F
:1025D000FECF92BD81BDF89A992780B50895262F28
:1025E000F999FECF1FBA92BD81BD20BD0FB6F894F8
:1025F000FA9AF99A0FBE01960895052E97FB1EF4DC
:1026000000940E94141357FD07D00E942F1307FC5B
:1026100003D04EF40C9414135095409530952195A9
:102620003F4F4F4F5F4F08959095809570956195FE
:102630007F4F8F4F9F4F08950E945113A59F900D7C
:10264000B49F900DA49F800D911D11240895B7FF94
:102650000C941C130E941C13821B930B0895A1E27F
:102660001A2EAA1BBB1BFD010DC0AA1FBB1FEE1F0C
:10267000FF1FA217B307E407F50720F0A21BB30B57
:10268000E40BF50B661F771F881F991F1A9469F7D3
:1026900060957095809590959B01AC01BD01CF012F
:1026A0000895A29FB001B39FC001A39F700D811D2B
:1026B0001124911DB29F700D811D1124911D08954B
:1026C0005058BB27AA270E9478130C9454150E94D7
:1026D000461538F00E944D1520F039F49F3F19F44B
:1026E00026F40C9443150EF4E095E7FB0C942F159B
:1026F000E92F0E94651558F3BA176207730784071C
:10270000950720F079F4A6F50C9487150EF4E09562
:102710000B2EBA2FA02D0B01B90190010C01CA019B
:10272000A0011124FF27591B99F0593F50F4503E46
:1027300068F11A16F040A22F232F342F4427585F38
:10274000F3CF469537952795A795F0405395C9F750
:102750007EF41F16BA0B620B730B840BBAF0915008
:10276000A1F0FF0FBB1F661F771F881FC2F70EC0A7
:10277000BA0F621F731F841F48F48795779567957A
:10278000B795F7959E3F08F0B0CF9395880F08F066
:102790009927EE0F9795879508950E940B1508F4D9
:1027A00081E008950E94E6130C9454150E944D1583
:1027B00058F00E94461540F029F45F3F29F00C9430
:1027C0002F1551110C9488150C9443150E94651512
:1027D00068F39923B1F3552391F3951B550BBB2750
:1027E000AA2762177307840738F09F5F5F4F220F95
:1027F000331F441FAA1FA9F335D00E2E3AF0E0E88C
:1028000032D091505040E695001CCAF72BD0FE2FD5
:1028100029D0660F771F881FBB1F26173707480769
:10282000AB07B0E809F0BB0B802DBF01FF27935821
:102830005F4F3AF09E3F510578F00C942F150C94A1
:1028400088155F3FE4F3983ED4F3869577956795B6
:10285000B795F7959F5FC9F7880F911D9695879556
:1028600097F90895E1E0660F771F881FBB1F621775
:1028700073078407BA0720F0621B730B840BBA0B33
:10288000EE1F88F7E09508950E944B146894B111EB
:102890000C94881508950E946D1588F09F5798F044
:1028A000B92F9927B751B0F0E1F0660F771F881F55
:1028B000991F1AF0BA95C9F714C0B13091F00E946F
:1028C0008715B1E008950C948715672F782F882716
:1028D000B85F39F0B93FCCF3869577956795B39596
:1028E000D9F73EF490958095709561957F4F8F4F05
:1028F0009F4F0895E89409C097FB3EF4909580950A
:10290000709561957F4F8F4F9F4F9923A9F0F92FB5
:1029100096E9BB279395F695879577956795B79533
:10292000F111F8CFFAF4BB0F11F460FF1BC06F5F19
:102930007F4F8F4F9F4F16C0882311F096E911C02B
:10294000772321F09EE8872F762F05C0662371F04C
:1029500096E8862F70E060E02AF09A95660F771F60
:10296000881FDAF7880F9695879597F908950E9442
:10297000461520F019F00E944D1550F40C944315A3
:102980000C948815E92F0E94651588F35523B1F33F
:10299000E7FB6217730784079507A8F189F3E92F0E
:1029A000FF2788232AF03197660F771F881FDAF7F1
:1029B000952F5527442332F091505040220F331F5A
:1029C000441FD2F7BB27E91BF50B621B730B840B6B
:1029D000B109B1F222F4620F731F841FB11D319748
:1029E0002AF0660F771F881FBB1FEFCF9150504012
:1029F00062F041F0882332F0660F771F881F9150F4
:102A00005040C1F793950C94351586957795679549
:102A10009F5FD9F7F7CF990F0008550FAA0BE0E891
:102A2000FEEF16161706E807F907C0F01216130690
:102A3000E407F50798F0621B730B840B950B39F4D0
:102A40000A2661F0232B242B252B21F408950A2636
:102A500009F4A140A6958FEF811D811D089597F976
:102A60009F6780E870E060E008959F3F31F09150EB
:102A700020F4879577956795B795880F911D969562
:102A8000879597F908959FEF80EC089500240A94A4
:102A90001616170618060906089500240A94121639
:102AA0001306140605060895092E0394000C11F46C
:102AB000882352F0BB0F40F4BF2B11F460FF04C019
:102AC0006F5F7F4F8F4F9F4F089557FD9058440F72
:102AD000551F59F05F3F71F04795880F97FB991F7D
:102AE00061F09F3F79F0879508951216130614063A
:102AF000551FF2CF4695F1DF08C0161617061806C7
:102B0000991FF1CF86957105610508940895E894A1
:102B1000BB2766277727CB0197F908950E940B15ED
:102B200008F48FEF08950E94A6150C9454150E9486
:102B3000461538F00E944D1520F0952311F00C94A5
:102B40002F150C94431511240C9488150E946515BB
:102B500070F3959FC1F3950F50E0551F629FF001F0
:102B6000729FBB27F00DB11D639FAA27F00DB11D09
:102B7000AA1F649F6627B00DA11D661F829F222792
:102B8000B00DA11D621F739FB00DA11D621F839F19
:102B9000A00D611D221F749F3327A00D611D231FEF
:102BA000849F600D211D822F762F6A2F11249F573D
:102BB00050409AF0F1F088234AF0EE0FFF1FBB1F40
:102BC000661F771F881F91505040A9F79E3F5105FF
:102BD00080F00C942F150C9488155F3FE4F3983E19
:102BE000D4F3869577956795B795F795E7959F5FA9
:102BF000C1F7FE2B880F911D9695879597F908953B
:102C000097FB072E16F4009407D077FD09D00E9499
:102C1000141607FC05D03EF4909581959F4F0895BA
:102C2000709561957F4F0895AA1BBB1B51E107C0AA
:102C3000AA1FBB1FA617B70710F0A61BB70B881F4C
:102C4000991F5A95A9F780959095BC01CD010895DB
:102C5000EE0FFF1F0590F491E02D09940F931F9341
:102C6000CF93DF938230910510F482E090E0E09101
:102C7000A805F091A90530E020E0B0E0A0E0309791
:102C800099F42115310509F44AC0281B390B243069
:102C90003105D8F58A819B816115710589F1FB01A8
:102CA00093838283FE0111C040815181028113818F
:102CB00048175907E0F04817590799F4109761F041
:102CC00012960C93129713961C933296CF01DF91B4
:102CD000CF911F910F9108950093A8051093A90516
:102CE000F4CF2115310551F04217530738F0A901EF
:102CF000DB019A01BD01DF01F801C1CFEF01F9CF7E
:102D00009093A9058093A805CDCFFE01E20FF31F94
:102D1000819391932250310939832883D7CF209111
:102D2000A6053091A705232B41F42091CF013091C6
:102D3000D0013093A7052093A6052091CD013091B5
:102D4000CE012115310541F42DB73EB74091D10197
:102D50005091D201241B350BE091A605F091A705F7
:102D6000E217F307A0F42E1B3F0B2817390778F062
:102D7000AC014E5F5F4F2417350748F04E0F5F1FC1
:102D80005093A7054093A605819391939FCFF0E0C0
:102D9000E0E09CCFCF93DF930097E9F0FC013297FE
:102DA00013821282A091A805B091A905ED0130E02F
:102DB00020E01097A1F420813181820F931F209190
:102DC000A6053091A7052817390709F061C0F093CF
:102DD000A705E093A605DF91CF910895EA01CE17EC
:102DE000DF07E8F54A815B819E0141155105B1F786
:102DF000E901FB83EA8349915991C40FD51FEC1770
:102E0000FD0761F4808191810296840F951FE9018D
:102E100099838883828193819B838A83F0E0E0E0B9
:102E200012968D919C9113970097B9F52D913C9135
:102E30001197CD010296820F931F2091A605309124
:102E4000A7052817390739F6309751F51092A905CB
:102E50001092A805B093A705A093A605BCCFD38375
:102E6000C28340815181840F951FC817D90761F42F
:102E70004E5F5F4F88819981480F591F518340836E
:102E80008A819B81938382832115310509F0B0CF1C
:102E9000F093A905E093A8059ECFFD01DC01C0CF0A
:0A2EA00013821282D7CFF894FFCFFF
:102EAA0000000000E7FBA93D0C022B3E0000803E1B
:102EBA00FA7EAA3E0681D53E0000003F7D3F153FBF
:102ECA0083C02A3F0000403F7D3F553F83C06A3F91
:102EDA000000803FBE9F8A3F4260953F0000A03FAE
:102EEA00BE9FAA3F4260B53F0000C03FBE9FCA3F97
:102EFA004260D53F0000E03FBE9FEA3F4260F53F97
:102F0A0000000040DF4F054021B00A400000104099
:102F1A00DF4F154021B01A4000002040DF4F254006
:102F2A0021B02A4000003040DF4F354021B03A40FE
:102F3A0000004040DF4F454021B04A400000504069
:102F4A00DF4F554021B05A4000006040DF4F6540D6
:102F5A0021B06A4000007040DF4F754021B07A40CE
:102F6A00000080400108000800010000000000AADB
:102F7A00058000320939300C1824020304050607BB
:102F8A00080000000030029001BD017D02EE01CC74
:102F9A0001E0010000000086045904B5042F045220
:102FAA00043F0430040D0A00466C6F617420666F9A
:102FBA00726D61742064657465637465642E204360
:102FCA006F6E76657274696E6720746F20696E74AD
:102FDA006567657220666F726D61742E0045455093
:102FEA00524F4D20557361676520496E666F726D49
:102FFA006174696F6E3A000A546F74616C20627969
:10300A0074657320757365643A20004461746120A5
:10301A0073746F726564206265747765656E20618A
:10302A0064647265737365733A200020616E64206C
:10303A00004669726D776172653A20417270204F5D
:10304A0066204461726B6E65737320762E312E335F
:08305A002E3120426574610073
:00000001FF
