:100000000C9462000C948A000C948A000C948A0070
:100010000C948A000C948A000C948A000C948A0038
:100020000C948A000C948A000C948A000C948A0028
:100030000C948A000C948A000C948A000C948A0018
:100040000C9412060C948A000C9482060C945C06A4
:100050000C948A000C948A000C948A000C948A00F8
:100060000C94B4060C948A000000000024002700C1
:100070002A0000000000250028002B0000000000DE
:1000800023002600290004040404040404040202DA
:100090000202020203030303030301020408102007
:1000A0004080010204081020010204081020000012
:1000B0000008000201000003040700000000000027
:1000C0000000D30711241FBECFEFD8E0DEBFCDBFA5
:1000D00012E0A0E0B1E0E2ECF7E302C005900D927F
:1000E000A236B107D9F725E0A2E6B2E001C01D9221
:1000F000A43BB207E1F710E0C2E6D0E004C02197CC
:10010000FE010E94A01AC136D107C9F70E9410084B
:100110000C94DF1B0C94000008950895833081F047
:1001200028F4813099F08230A9F008958730A9F041
:100130008830C9F08430B1F4809180008F7D03C095
:10014000809180008F7780938000089584B58F77A9
:1001500084BD089584B58F7DFBCF8091B0008F77EB
:100160008093B00008958091B0008F7DF9CFCF9338
:10017000DF93282F30E0F901E255FF4F8491F90118
:10018000E656FF4FD491F901EA57FF4FC491CC23B3
:10019000A1F081110E948E00EC2FF0E0EE0FFF1F06
:1001A000E458FF4FA591B491EC91ED2381E090E0EC
:1001B00009F480E0DF91CF91089580E090E0FACFDC
:1001C0001F93CF93DF93282F30E0F901E255FF4FC3
:1001D0008491F901E656FF4FD491F901EA57FF4F98
:1001E000C491CC23A9F0162F81110E948E00EC2F10
:1001F000F0E0EE0FFF1FEE58FF4FA591B4918FB7BF
:10020000F894EC91111108C0D095DE23DC938FBFD8
:10021000DF91CF911F910895DE2BF8CFCF93DF931D
:1002200090E0FC01E656FF4F24918A579F4FFC0156
:1002300084918823C9F090E0880F991FFC01E85948
:10024000FF4FA591B491FC01EE58FF4FC591D49199
:1002500061110DC09FB7F8948C91209582238C93E7
:100260008881282328839FBFDF91CF910895623032
:1002700051F49FB7F8943C91822F809583238C93FF
:10028000E8812E2BEFCF8FB7F894EC912E2B2C9387
:100290008FBFEACF8E3008F08E50877080648093D5
:1002A0007C0080917A00806480937A0080917A004B
:1002B00086FDFCCF809178009091790008953FB73A
:1002C000F8948091AB049091AC04A091AD04B091EE
:1002D000AE0426B5A89B05C02F3F19F00196A11DBD
:1002E000B11D3FBFBA2FA92F982F8827BC01CD0180
:1002F000620F711D811D911D42E0660F771F881FDF
:10030000991F4A95D1F708952FB7F8946091A704E3
:100310007091A8048091A9049091AA042FBF089518
:10032000AF92BF92CF92DF92EF92FF920F931F9303
:10033000CF93DF936C017B018B01040F151FEB0141
:100340005E01AE18BF08C017D10759F06991D601F8
:10035000ED91FC910190F081E02DC6010995892B6A
:1003600079F7C501DF91CF911F910F91FF90EF9029
:10037000DF90CF90BF90AF900895FC01538D448DD6
:10038000252F30E0842F90E0821B930B541710F040
:10039000CF96089501970895FC01918D828D98174D
:1003A00061F0A28DAE0FBF2FB11D5D968C91928D25
:1003B0009F5F9F73928F90E008958FEF9FEF089556
:1003C000FC01918D828D981731F0828DE80FF11D1F
:1003D000858D90E008958FEF9FEF0895FC01918D3A
:1003E000228D892F90E0805C9F4F821B91098F7333
:1003F0009927089585E095E00E94EE0121E0892B80
:1004000009F420E0822F089580E090E0892B29F004
:100410000E94FA0181110C9400000895FC01A48D42
:10042000A80FB92FB11DA35ABF4F2C91848D90E016
:1004300001968F739927848FA689B7892C93A089F9
:10044000B1898C91837080648C93938D848D981383
:1004500006C00288F389E02D80818F7D8083089516
:10046000EF92FF920F931F93CF93DF93EC0181E004
:10047000888F9B8D8C8D98131AC0E889F9898081AB
:1004800085FF15C09FB7F894EE89FF896083E889DE
:10049000F98980818370806480839FBF81E090E0D0
:1004A000DF91CF911F910F91FF90EF900895F62E5D
:1004B0000B8D10E00F5F1F4F0F731127E02E8C8DF7
:1004C0008E110CC00FB607FCFACFE889F98980813C
:1004D00085FFF5CFCE010E940E02F1CFEB8DEC0F20
:1004E000FD2FF11DE35AFF4FF0829FB7F8940B8F59
:1004F000EA89FB8980818062CFCFCF93DF93EC01C3
:10050000888D8823B9F0AA89BB89E889F9898C91FB
:1005100085FD03C0808186FD0DC00FB607FCF7CFB7
:100520008C9185FFF2CF808185FFEDCFCE010E94B7
:100530000E02E9CFDF91CF9108952091A302260FFB
:100540003327331F21323105ECF42091DB04FC0109
:1005500090E080E0243069F082E00895A091A30249
:100560002191AC014D575D4FA40FB52FB11D2C93B8
:100570000196861798F38091A302680F6093A302F7
:1005800080E0089581E008951092DB0481E080937B
:10059000DA041092B50461E082E10E94E00061E0BB
:1005A00083E10E94E000E9EBF0E080818E7F8083B0
:1005B00080818D7F808388E48093B80085E4809378
:1005C000BC0008951092B4041092B3041092E20497
:1005D000109204050E94C4028CE890E09093B2044B
:1005E0008093B1048DE890E09093B0048093AF04C1
:1005F0000895CF93DF9391E0909382028823B9F01E
:10060000C091B800D091BA008091BC008A7B8093E1
:10061000BC0060E082E10E94E00060E083E10E94B3
:10062000E0000E94C402D093BA00C093B800DF91EA
:10063000CF9108958F929F92AF92BF92CF92DF9207
:10064000EF92FF920F931F93CF93DF93D091040506
:10065000D13208F0D7C0182FC09103050E945F0166
:100660006B017C018091DB0481116BC082E080937F
:10067000DB041093DA048FEF8093D9041092D8042E
:10068000D093D704A3EEB4E0E7EBF4E080E0D81316
:1006900091C01092B6048091B604CC0FC82BC093C1
:1006A000B6048091B504813009F088C01092B50479
:1006B0000E945F016B017C018091B6048093BB00B6
:1006C0008091DD049091DE04A091DF04B091E004FC
:1006D000892B8A2B8B2BA1F00E945F010091DD04F6
:1006E0001091DE042091DF043091E0046C197D0943
:1006F0008E099F09061717072807390708F442C013
:100700008091BC0083FDD8CF85EC8093BC000E9413
:100710005F016B017C018091DB04823009F450C0E1
:100720008091D9048F3F09F46FC08091D904803241
:1007300009F46CC08091D904803309F469C084E065
:1007400026C08091DD049091DE04A091DF04B09179
:10075000E004892B8A2B8B2B09F484CF0E945F0144
:100760008090DD049090DE04A090DF04B090E0045F
:100770006C197D098E099F0986169706A806B90689
:1007800008F070CF8091DC040E94F90285E010929D
:10079000E204109204051092E104DF91CF911F91C1
:1007A0000F91FF90EF90DF90CF90BF90AF909F9010
:1007B0008F9008959D9191938F5F69CF85EEA5CF1E
:1007C0008091DD049091DE04A091DF04B091E004FB
:1007D000892B8A2B8B2B09F49ECF0E945F010091FD
:1007E000DD041091DE042091DF043091E0046C19E7
:1007F0007D098E099F09061717072807390708F092
:100800008ACFC0CF81E0C3CF80E0C1CF82E0BFCF2D
:1008100083E0BDCFCF93DF93EC018B818823A1F0E0
:10082000888191E09093E104809303051092E204A3
:100830001092040581E00E941A0391E0811190E07A
:10084000892FDF91CF9108950E94E20281E08B838E
:10085000CE010E940A04982F8111E2CFF1CF0895B2
:10086000E091B4048091B304E81730F4F0E0EE595D
:10087000FD4F808190E008958FEF9FEF0895909154
:10088000B4048091B3042FEF3FEF981748F4E92F99
:10089000F0E0EE59FD4F208130E09F5F9093B4046B
:1008A000C90108958091B3049091B404891B990BF8
:1008B0000895CF92DF92EF92FF920F931F93CF9301
:1008C000DF937C01CB018A012091E104222389F08E
:1008D000EB016B01C40ED51ECC15DD0569F06991E5
:1008E000D701ED91FC910190F081E02DC7010995B0
:1008F000F3CF642F0E949D02C801DF91CF911F9119
:100900000F91FF90EF90DF90CF900895CF93DF93FA
:100910001F92CDB7DEB769832091E1042223F9F05D
:1009200020910405203258F021E030E0FC013383AF
:10093000228390E080E00F90DF91CF910895809125
:10094000E204E82FF0E0ED51FB4F998190838F5F37
:100950008093E2048093040581E090E0ECCF61E0B5
:10096000CE0101960E949D02F7CF90E080E00895AD
:10097000CF93DF9300D01F92CDB7DEB71092B900AE
:100980002CE02093B80020E429839C0194E0369564
:1009900027959A95E1F72A838295807F8B83E09152
:1009A000AE05F091AF0584819581039738F480E01E
:1009B0000F900F900F90DF91CF91089581819281D8
:1009C000208131E03093E104209303051092E2048A
:1009D00010920405DC01ED91FC910280F381E02D81
:1009E00043E050E0BE016F5F7F4F09950397F9F632
:1009F00081E00E941A038111DACF1092B90088E4D5
:100A00008093B80081E0D4CFFC0101900020E9F789
:100A10003197AF01481B590BBC0185E095E00C9460
:100A200090010F931F93CF93DF938C01EB010E94F2
:100A300073178883C80101960E9473178983CE01BA
:100A4000DF91CF911F910F910895EF92FF920F9335
:100A50001F93CF93DF9389E690E00E947317853A46
:100A600059F01092840410928304DF91CF911F916A
:100A70000F91FF90EF90089588E690E00E94731721
:100A8000813108F080E1C82FD0E0D0938404C09376
:100A9000830438E5E32E34E0F32E10E000E00C1779
:100AA0001D0784F4C80186599F4F0E947317813334
:100AB00008F080E390E0F701819391937F010F5F4D
:100AC0001F4FEDCF209789F28091C7019091C80107
:100AD0008C179D070CF4CE019093C8018093C70139
:100AE0009093CA018093C901809158049091590450
:100AF00081339105D8F4880F991F880F991FFC0145
:100B0000EC56FC4F60817181828193812FE338EA3A
:100B10004FE454E40E941F1A0E94D018CB010E9497
:100B2000B80410927904109278049FCF60E070E0CE
:100B3000CB01ECCF85ED8093BC008091DD049091DA
:100B4000DE04A091DF04B091E0040796A11DB11D61
:100B500023E0B695A795979587952A95D1F720918B
:100B6000BC0024FD03C01092DB0408954091DD0415
:100B70005091DE046091DF047091E004452B462B18
:100B8000472B69F30097A105B10541F02AE22A95A8
:100B9000F1F700C00197A109B109E1CF8091DC0410
:100BA0000C94F902FF920F931F93CF93DF93EC0104
:100BB000F62E08811981C8010E947317F81621F0DA
:100BC0006F2DC8010E947B17CE01DF91CF911F913D
:100BD0000F91FF900895EF92FF920F931F93CF9381
:100BE000DF9300D0CDB7DEB78C017B019A83898378
:100BF000FB016081CE0101960E94D2050F5F1F4F5D
:100C00001A830983F7016181CE0101960E94D20502
:100C1000C7010F900F90DF91CF911F910F91FF901F
:100C2000EF9008951F920F920FB60F9211242F93F9
:100C30003F938F939F93AF93BF938091A70490911D
:100C4000A804A091A904B091AA043091A60423E0BD
:100C5000230F2D3758F50196A11DB11D2093A60431
:100C60008093A7049093A804A093A904B093AA0426
:100C70008091AB049091AC04A091AD04B091AE040E
:100C80000196A11DB11D8093AB049093AC04A09379
:100C9000AD04B093AE04BF91AF919F918F913F91FE
:100CA0002F910F900FBE0F901F90189526E8230FDD
:100CB0000296A11DB11DD2CF1F920F920FB60F92B7
:100CC00011242F933F934F935F936F937F938F9351
:100CD0009F93AF93BF93EF93FF9385E095E00E94BE
:100CE0000E02FF91EF91BF91AF919F918F917F91F4
:100CF0006F915F914F913F912F910F900FBE0F9089
:100D00001F9018951F920F920FB60F9211242F93D8
:100D10008F939F93EF93FF93E0911505F091160544
:100D20008081E0911B05F0911C0582FD1BC0908124
:100D300080911E058F5F8F7320911F05821741F0F0
:100D4000E0911E05F0E0EB5FFA4F958F80931E0552
:100D5000FF91EF919F918F912F910F900FBE0F9068
:100D60001F9018958081F4CF1F920F920FB60F92AB
:100D700011242F933F934F935F936F937F938F93A0
:100D80009F93AF93BF93EF93FF938091B900887FB8
:100D9000803609F44AC0F0F5883209F4A7C018F586
:100DA000803109F49BC0B8F4882309F4F9C0883075
:100DB00009F494C0FF91EF91BF91AF919F918F91F2
:100DC0007F916F915F914F913F912F910F900FBE47
:100DD0000F901F901895883109F488C0803251F720
:100DE0008093D90414C0803409F49DC040F480334A
:100DF000B9F38833F9F68093D90485ECB0C0803517
:100E000009F485C0883509F496C0883499F60E94A3
:100E10009A05D0CF883909F48CC038F5883729F085
:100E200050F4883611F0803729F683E08093DB0494
:100E30001092C50257C0883809F47BC0803919F078
:100E4000803809F0B7CF8091C502803208F071C0B8
:100E5000E091C50281E08E0F8093C5028091BB00B6
:100E6000F0E0EB55FD4F80833DC0803B39F0E0F46E
:100E7000803A09F479C0883A09F09CCF84E08093E5
:100E8000DB041092A4021092A302E091B104F0914D
:100E9000B20409958091A30281110FC081E0809373
:100EA000A3021092830209C0803C09F4A6CF883CBB
:100EB00009F4A3CF883B09F07DCFE091A40281E043
:100EC0008E0F8093A402F0E0ED57FD4F8081809358
:100ED000BB009091A4028091A30229C08091B60426
:100EE0008093BB0085EC8093BC0064CF9091D804C4
:100EF0008091D704981758F5E091D80481E08E0FBF
:100F00008093D804F0E0E954FB4F8081E9CFE09171
:100F1000D80481E08E0F8093D8048091BB00F0E06C
:100F2000E954FB4F80839091D8048091D70498179F
:100F3000C8F285E8D8CFE091D80481E08E0F809385
:100F4000D8048091BB00F0E0E954FB4F808380918E
:100F5000DA0481115CCF81E08093B50484EA809348
:100F6000BC001092DB0426CF85EC8093BC0010926D
:100F7000DB048091C502803230F4E091C502F0E0DC
:100F8000EB55FD4F10826091C50270E0E091AF0417
:100F9000F091B00485EA92E009951092C5020ACF5B
:100FA0001092D90434CFE5E0F5E01382128288EE86
:100FB00093E0A0E0B0E084839583A683B78327EE17
:100FC00031E03183208325EC30E03587248724EC21
:100FD00030E03787268720EC30E0318B208B21EC06
:100FE00030E0338B228B22EC30E0358B248B26ECE7
:100FF00030E0378B268B118E128E138E148EE2EA20
:10100000F5E01382128284839583A683B78389EFE8
:1010100091E0918380831092AF051092AE05089500
:10102000CF93DF93CDB7DEB768970FB6F894DEBFE6
:101030000FBECDBF789484B5826084BD84B58160D5
:1010400084BD85B5826085BD85B5816085BD809193
:101050006E00816080936E0010928100809181000B
:101060008260809381008091810081608093810003
:10107000809180008160809380008091B1008460C5
:101080008093B1008091B00081608093B000809126
:101090007A00846080937A0080917A0082608093E5
:1010A0007A0080917A00816080937A0080917A0042
:1010B000806880937A001092C1000E94E2028091C1
:1010C000AE059091AF05009711F00E94561B86E087
:1010D00090E00E94BA1A8C0180E6D8018C9382EAD3
:1010E00095E012969C938E93119713961C921397EA
:1010F00080E290E015969C938E9314971093AF0521
:101100000093AE050E94E20281E0F8018383C801EA
:101110000E940A04E0911505F091160582E0808393
:10112000E0911105F09112051082E0911305F09104
:1011300014058FEC808310921D05E0911905F09144
:101140001A0586E08083E0911705F09118058081EB
:1011500080618083E0911705F09118058081886097
:101160008083E0911705F091180580818068808365
:10117000E0911705F091180580818F7D808397E5B8
:10118000E92E93E0F92E0CED11E062E0D8018D918B
:101190008D010E940E0157018FEDC82E81E0D82EDF
:1011A00061E0F60181916F010E940E01D5011D924F
:1011B0001D921D921D925D01B3EECB16B1E0DB06D0
:1011C00079F7E0E1EE0EF11CF1E00F3D1F07E9F6C3
:1011D00010928703109288031092890310928A0359
:1011E00010928B0310928C0310928D0310928E0339
:1011F00010928F0310929003109291031092920319
:1012000062E089E00E940E0162E08AE00E940E0125
:1012100060E08BE00E940E0162E08CE00E940E0113
:1012200060E08EE00E940E0161E08DE00E940E0100
:1012300060E08BE00E94E0000E9484012B013C01F1
:101240000E9484016419750986099709603D7740F9
:1012500081059105D0F489E00E94B7007C018AE005
:101260000E94B7008C018CE00E94B700EF2811F0BB
:101270000C94EA15012B11F00C94EE1581E080938B
:10128000960461E08BE00E94E000BE016B5F7F4F3F
:1012900090E080E00E9411058D819E81893390430A
:1012A000A1F167ED71E090E080E00E94EB05A2E023
:1012B000EA2EA1E0FA2E04E010E0C8018E5F9E4FF6
:1012C0005C01670148018E189F08C4018C0D9D1DAB
:1012D0009A838983D6016D916D01CE0101960E949A
:1012E000D205CA14DB0489F7B4E0EB0EF11C0C5FE5
:1012F0001F4F083C110509F71A821982BE016F5F62
:101300007F4F88EC90E00E94EB05BE016D5F7F4F40
:1013100088EC90E00E9411058B819C81823399407A
:1013200009F448C087E092E00E9404058CE392E053
:101330000E940405E4E9EE2EE3E0FE2E04E010E056
:10134000F4E06F2E712C98012C563C4F5901670127
:1013500048018E189F08C4018C0D9D1D0E947317B3
:10136000D6018D936D01AA16BB06A9F7F70161910D
:101370007191819191917F0120E030E04AE754E43E
:101380000E941F1A0E94D0187A836983BE016F5F82
:101390007F4FC3010E94EB05F2E06F0E711C0C5FE2
:1013A0001F4F083C110579F665ED71E088EC90E07F
:1013B0000E94EB0574E9E72E73E0F72E04E010E0DD
:1013C000BE016F5F7F4FC8010E94110569817A815C
:1013D000072E000C880B990B0E94081920E030E0C2
:1013E0004AE754E40E945E18D7016D937D938D9374
:1013F0009D937D010E5F1F4F0636110509F78FE3A0
:1014000092E00E94040588E090E09093C8018093E8
:10141000C7019093CA018093C9011092840410926D
:1014200083048091A504811102C00E9425050E94B9
:1014300084016B017C018091A504882309F40DC30C
:1014400010921E0389E00E94B7008C01BB24B39464
:10145000892B09F0B12C8AE00E94B70041E0009787
:1014600009F040E0012B71F520911D0321112AC0E4
:101470000091190310911A0320911B0330911C0352
:1014800016012701201A310A420A530A92018101EA
:101490000B35110521053105A8F02091000130918F
:1014A00001012430310534F42F5F3F4F30930101A7
:1014B00020930001C0921903D0921A03E0921B03FB
:1014C000F0921C03892B69F580911803811129C0C2
:1014D0008091190390911A03A0911B03B0911C03F2
:1014E00026013701481A590A6A0A7B0AD301C20148
:1014F0008B359105A105B105A0F080910001909177
:101500000101823091052CF00197909301018093A5
:101510000001C0921903D0921A03E0921B03F092CB
:101520001C03B0921D03409318035CED652E52E03E
:10153000752E6CE0862E63E0962E0FED11E0188B71
:101540000F87AF85B8892D90B88BAF87298A60E067
:10155000822D0E94E000530184012CED31E0388798
:101560002F83AF81B8858D91B887AF830E94B70074
:10157000B1E0BB87009709F01B86F80120812B841E
:10158000221609F46DC0D5014D915D916D917C914C
:1015900016012701241A350A460A570AB201A10189
:1015A0004A3151056105710508F45AC0892B09F0CB
:1015B0004EC02091000130910101215031094CE0D1
:1015C000342E329EC001339E900D112498012C5070
:1015D0003340820F931F8133910514F080E390E034
:1015E000880F991F880F991FFC01EC56FC4F208033
:1015F0003180428053802092D8023092D9024092AA
:10160000DA025092DB0220E030E0A9016091D402BE
:101610007091D5028091D6029091D7020E945918FC
:10162000811115C02092D0023092D1024092D20294
:101630005092D3022FE338EA4FE454E4C201B101DF
:101640000E941F1A0E94D018CB010E94B8042B845C
:10165000D8012C92D501CD92DD92ED92FC92139798
:10166000F8018081882319F0F1E0F0931E030C5FEC
:101670001F4F20E1A20EB11C4F8158854F5D514094
:1016800009F06FCF61E089890E94E0008FEF881A2E
:10169000980A94E0690E711C0F851889035E114049
:1016A00009F04FCF8CE00E94B70011E0009709F0DD
:1016B00010E02091CF02121709F46AC04091CB02CA
:1016C0005091CC026091CD027091CE02160127019B
:1016D000241A350A460A570AB201A1014A315105B6
:1016E0006105710508F454C0892B09F047C0809149
:1016F00000019091010101978330910508F01AC112
:1017000087529E4FDC018C91082E000C990B880F9C
:10171000991F880F991FFC01EC56FC4F8080918027
:10172000A280B3808092D8029092D902A092DA026D
:10173000B092DB0220E030E0A9016091D402709108
:10174000D5028091D6029091D7020E94591881113A
:1017500015C08092D0029092D102A092D202B09293
:10176000D3022FE338EA4FE454E4C501B4010E94E8
:101770001F1A0E94D018CB010E94B8041093CF0208
:10178000C092CB02D092CC02E092CD02F092CE0277
:101790008091CF02882319F081E080931E0310917D
:1017A0001E038091CA02181731F0612F8BE00E944E
:1017B000E0001093CA028EE00E944A018031910538
:1017C0000CF0BBC01092D4021092D5021092D60237
:1017D0001092D7022090D4023090D5024090D602C9
:1017E0005090D7022F82388649865A8620E030E012
:1017F000A901C201B1010E941A1A18160CF01BC1EE
:101800004090D0025090D1026090D2027090D302EA
:10181000C090D802D090D902E090DA02F090DB02BA
:10182000A7019601C301B2010E945918882309F447
:1018300002C10E945F016B877C878D879E878091A4
:10184000C6029091C702A091C802B091C9028B84D0
:101850009C84AD84BE84881A990AAA0ABB0AD50161
:10186000C401843F9140A105B10508F4E4C0A3017F
:101870009201C701B6010E94EC174B015C0120E008
:1018800030E0A9010E941A1A18160CF09FC02FE62A
:1018900032E143E85AE3C501B4010E941A1A18164E
:1018A0000CF49EC0C092D002D092D102E092D2023B
:1018B000F092D3022FE338EA4FE454E4C701B601B3
:1018C000A7C0012B11F40C94EE1581E08093A504C0
:1018D00061E08BE00E940E0160E08BE00E94E0007E
:1018E0008CED92E04CE053E0FC0130E020E01192FE
:1018F000119211921192DA01A20FB31F1C922F5F65
:101900003F4F2430310599F740964C5F5F4F13E00D
:101910008C30910749F71092CB021092CC021092B2
:10192000CD021092CE021092CF0210921E0310929E
:10193000CA02ABCC80E390E0EACE9C0181329340B6
:1019400014F020E233E0032E000C440B550B2C5F07
:10195000334041095109A4E6B0E00E94A81724E1F0
:101960003CEF4FEF5FEF0E948917CA01B9010E9457
:10197000081920E030EC4FE754E40E945E186B0138
:101980007C0120E030E0A9010E94591887FD1AC0AF
:101990002DEC3CEC4CEC5DE3C701B6010E941A1A39
:1019A00018163CF40DECC02E0CECD02EED2C0DE3F3
:1019B000F02EC092D402D092D502E092D602F092DC
:1019C000D70208CFC12CD12C7601F3CF2FE632E11C
:1019D00043E85AEBC501B4010E94591887FF62CF52
:1019E000A50194016F81788589859A850E941F1AC7
:1019F000A30192010E94ED176093D0027093D1026F
:101A00008093D2029093D3022FE338EA4FE454E458
:101A10000E941F1A0E94D018CB010E94B8042B8488
:101A20003C844D845E842092C6023092C70240926C
:101A3000C8025092C90260911E038DE00E94E0002E
:101A400080E090E0892B09F4F2CC0E94FA0188230F
:101A500009F4EDCC0E940000EACC89E00E94B700B6
:101A60008C018AE00E94B7004091A1045091A20429
:101A70006091A3047091A40446015701841A950A49
:101A8000A60AB70A2091A0046091960401151105D9
:101A900011F00C94141621110BC0C0929C04D0922A
:101AA0009D04E0929E04F0929F0421E02093A00404
:101AB00020919304892B11F00C946A16211113C004
:101AC000C0929C04D0929D04E0929E04F0929F04E8
:101AD00081E080939304C0928F04D0929004E092AE
:101AE0009104F0929204012B11F00C94BB16611139
:101AF0000C94BB1680918E0481110DC0C0928A0493
:101B0000D0928B04E0928C04F0928D0481E080935B
:101B10008E040C94BD1680918A0490918B04A09140
:101B20008C04B0918D0416012701281A390A4A0A3B
:101B30005B0AD201C10185369105A105B10510F4FA
:101B40000C94BF1680919B0481110C94BF16809158
:101B500089048823D9F01092890410928804109285
:101B600087041092860410928504C092A104D0923A
:101B7000A204E092A304F092A40481E080939B0469
:101B80001092A004109293040C94BF1680918304C9
:101B90009091840402974CF381E080938204E5CF16
:101BA000843501E0900724F484E090E00C94C91699
:101BB0008E3F11E091070CF08EC125E030E03093AC
:101BC000CA012093C9012091C9013091CA018091B5
:101BD000C7019091C8012817390719F081E0809357
:101BE000810490909604992009F42FC20E948401E8
:101BF0006B017C0189E00E94B700892B09F07BC151
:101C00008AE00E94B700892B09F075C180914203D8
:101C100090914303A0914403B0914503160127011D
:101C2000281A390A4A0A5B0AD201C101813D97404C
:101C3000A105B10508F06AC189E00E94B700892BAF
:101C400071F58AE00E94B700892B49F180913D032C
:101C500090913E03A0913F03B0914003A7019601EC
:101C6000281B390B4A0B5B0BDA01C901893C910532
:101C7000A105B105A0F08091940490919504843061
:101C800091052CF401969093950480939404C0924E
:101C90003D03D0923E03E0923F03F09240038AE07E
:101CA0000E94B700892B31F489E00E94B700892B8C
:101CB00009F042C11092390310923A0310923B038B
:101CC00010923C03F1E2AF2EF3E0BF2EAFED2A2ECF
:101CD000A1E03A2E10E000E0B0E36B2E712CF10190
:101CE00041901F0160E0842D0E94E0006501ECED51
:101CF0008E2EE1E09E2EF12CE12CD4018D914D0130
:101D00000E94B70055245394009709F0512C892B59
:101D100009F047C0F60180819181892B09F041C00B
:101D20002091940430919504C701880F991F880F62
:101D3000991F800F911FFCE0F29FA001F39F500DAF
:101D40001124840F951F9093200380931F03243048
:101D5000310551F4E114F10439F40115110521F4B0
:101D60007092200360921F0380911F0390912003C3
:101D700081339105B0F4880F991F880F991FFC01DA
:101D8000EC56FC4F2FE338EA4FE454E46081718154
:101D9000828193810E941F1A0E94D018CB010E9459
:101DA000B804852D90E0D6018D939C93BFEFEB1A7C
:101DB000FB0AE8E0CE0ED11CF3E0EF16F10409F0C7
:101DC0009CCF61E0842D0E94E0000F5F1F4F22E056
:101DD000A20EB11C0430110509F081CF8CE00E94E5
:101DE000B700892B09F02CCEE0901F03F090200360
:101DF0003FEFE316F30609F423CE8701000F111F0E
:101E0000000F111FF801EE5FFE4F80809180A280CD
:101E1000B3808EE00E944A01BC01990F880B990B98
:101E20000E94081920E030EC4FE754E40E945E184D
:101E300020E030E040E85EE30E941F1A20E030E03E
:101E400040E05EE30E94EC17A50194010E94ED17AB
:101E50004B015C01E114F10409F0E3C020E030E043
:101E6000A9010E941A1A18161CF0812C912C5401F9
:101E7000F801EC56FC4F80829182A282B3822FE35C
:101E800038EA4FE454E4C501B4010E941F1A0E94CD
:101E9000D018CB010E94B80420E030E04AE754E4B7
:101EA000C501B4010E941F1A0E94D0187A83698369
:101EB00080911F03909120030296BE016F5F7F4FB8
:101EC000880F991F0E94EB058FEF9FEF90932003DF
:101ED00080931F03B5CD883A32E093071CF486E067
:101EE00090E057C7823593401CF488E090E051C7DA
:101EF00080E190E04EC7C0924203D0924303E0924B
:101F00004403F09245031092410396CE8091410321
:101F1000811192CE1092960481E08093410360E09B
:101F20008BE00E94E000C0924203D0924303E09213
:101F30004403F092450380CE80913D0390913E038F
:101F4000A0913F03B091400316012701281A390AD6
:101F50004A0A5B0AD201C101893C9105A105B1057C
:101F6000A0F08091940490919504181619062CF411
:101F700001979093950480939404C0923D03D0926E
:101F80003E03E0923F03F092400380913903909129
:101F90003A03A0913B03B0913C030097A105B10522
:101FA00049F4C0923903D0923A03E0923B03F09295
:101FB0003C0388CEC81AD90AEA0AFB0A01E4C01613
:101FC0000FE1D006E104F10408F47CCE84ECE2E0F9
:101FD000F1E0A4E9B3E001900D928A95E1F712E0F7
:101FE000E12E11E0F12E04E010E0D7016D917D911A
:101FF0008D919D917D0120E030E04AE754E40E94FC
:102000001F1A0E94D0187A836983BE016F5F7F4FC9
:10201000C8010E94EB050E5F1F4F0636110529F718
:1020200049CE40E3E416F10409F022CF20E030E08D
:1020300040E850E40E94591887FD1ACF812C912C5A
:1020400040E8A42E40E4B42E13CF89E00E94B700EC
:10205000892B09F049C08091970490919804A09130
:102060009904B0919A040097A105B10541F5C09279
:102070009704D0929804E0929904F0929A048AE02E
:102080000E94B70020917E04892B09F039C180910C
:102090008F0490919004A0919104B09192040097C4
:1020A000A105B10509F051C0C0928F04D0929004EF
:1020B000E0929104F092920410927F0458C0209113
:1020C00080042111DCCF16012701281A390A4A0A97
:1020D0005B0AD201C10186399105A105B10578F2EB
:1020E00081E080938004CBCF80918004882359F0D5
:1020F0001092800410929704109298041092990400
:1021000010929A04BCCF8091970490919804A0916A
:102110009904B0919A0426013701481A590A6A0AAB
:102120007B0AD301C20186399105A105B10510F7DB
:10213000809194049091950483309105DCF601968A
:102140009093950480939404D5CF211110C09701EA
:102150008601081B190B2A0B3B0BD901C8018639D4
:102160009105A105B10518F081E080937E048CE013
:102170000E94B7001C0110917E04112309F4F3C0E2
:10218000892B09F0F0C080917A0490917B04A09192
:102190007C04B0917D0426013701481A590A6A0A65
:1021A0007B0AD301C201893C9105A105B10508F460
:1021B000DAC080917F048111D6C010927904109208
:1021C000780480915804909159048133910508F066
:1021D000C6C0880F991F880F991FFC01EC56FC4F51
:1021E00060817181828193812FE338EA4FE454E466
:1021F0000E941F1A0E94D018CB010E94B804C092FE
:102200007A04D0927B04E0927C04F0927D0481E019
:1022100080937F04912E07E513E01A8B098B0FED55
:1022200011E01E8B0D8B092D512C412CAD89BE89DF
:102230007D90BE8BAD8B60E0872D0E94E000F201A7
:10224000E957FC4FFC87EB87A988BA88B88AAF8624
:102250002CED31E03C8B2B8B18861F8211E0A20104
:1022600044505109588F4F8BAB89BC898D91BC8BE1
:10227000AB8B0E94B7005C0121E0892B09F020E0C4
:10228000EB85FC859081291709F49EC2AF85B8893A
:102290004D915D916D917C91D701C601841B950B89
:1022A000A60BB70BAC01BD014F315105610571059E
:1022B00008F4F9C1609080042083A114B10409F0EE
:1022C00081C261E08DE00E94E000EF81F885E40DBD
:1022D000F51D662009F4CBC0EC30F10508F08DC087
:1022E000EC58FE4E0C94A01AE011E711EE11FF110C
:1022F000071214122112FD112812FD11301234128E
:10230000222359F010927E0410928F0410929004B0
:102310001092910410929204CFCE80918F049091EC
:102320009004A0919104B0919204A7019601281BFA
:10233000390B4A0B5B0BDA01C90186399105A105FE
:10234000B10510F780919404909195041816190620
:10235000DCF601979093950480939404D5CF60E0C8
:1023600070E0CB0141CF80918004882339F12114A2
:10237000310409F050CF40917A0450917B04609170
:102380007C0470917D0497018601041B150B260BBC
:10239000370BB901A801493C51056105710508F4E5
:1023A0003ACF91E090939303C0927A04D0927B0449
:1023B000E0927C04F0927D04982E2DCF912C2BCFAF
:1023C00010925603109255031093540316C0A1E0C7
:1023D000B0E0B0935603A0935503F6CFE2E0F0E0EF
:1023E000F0938604E093850488248394912C909242
:1023F00088048092870410938904062D4CC102E062
:10240000A02EB12CB0925603A0925503DDCF24E04C
:1024100030E0309386042093850443E050E05093ED
:10242000880440938704E7CF88E090E09093860487
:1024300080938504A7E0B0E0B0938804A09387045C
:10244000DACFE3E0F0E0F0935603E0935503BCCF1E
:10245000B4E08B2E912C9092560380925503B4CF0A
:10246000A5E0AA2EB12CCECF10935303C6CF609017
:102470007E04662009F4D8C03197EB30F10578F47A
:10248000EC5BFD4E0C94A01A5D12641273127A126A
:102490008912901298129D12CF1205130D131092EB
:1024A0005203109251038F89988D8F809884880DE4
:1024B000991D029708F048C0A0CF21E030E030938A
:1024C000520320935103EFCF42E050E05093860433
:1024D0004093850410928804109287041093890415
:1024E000109382048ACF82E090E09093520380930D
:1024F0005103D9CFA4E0B0E0B0938604A093850443
:102500001092880410928704109389041093820417
:10251000CACFE8E0F0E0F0938604E0938504F0CFC2
:10252000F3E08F2E912C9092520380925103BBCFF7
:10253000109284041092830460CFE4E0AE2EB12C9C
:10254000B0925203A0925103109279041092780431
:102550008091830490918404181619060CF04DCFD5
:1025600080915804909159048133910508F058C026
:10257000880F991F880F991FFC01EC56FC4F608152
:102580007181828193812FE338EA4FE454E40E9401
:102590001F1A0E94D018CB010E94B8042ECF609160
:1025A000830428E630E03A832983CE0101960E9415
:1025B000D20549E650E05A83498365EACE01019687
:1025C0000E94D20578E5872E74E0972E80918304CF
:1025D00090918404A816B9060CF00FCF50E1A5160F
:1025E000B10409F40ACFD4016C91B2E08B0E911CB6
:1025F000C50186599F4F9A838983CE0101960E9417
:10260000D205EFEFAE1ABE0AE1CF65E0862E912C1F
:10261000909252038092510397CF10935003EDCEC6
:1026200060E070E0CB01AFCF20919404309195042D
:102630004CE0429FC001439F900D1124E80FF91F09
:1026400020918304309184048091C7019091C80146
:10265000281739078CF0A8E5B4E021E030E028170E
:1026600039070CF0A9C012964D915C9113974D93C8
:102670005D932F5F3F4FF3CFC90101969093840480
:1026800080938304220F331FD901A85ABB4FED93C7
:10269000FC9366246394AF85B889CD92DD92ED9268
:1026A000FC921397962CEB85FC853496FC87EB8780
:1026B0002F853889205F3F4F388B2F874F81588572
:1026C0004C5F5F4F58874F834C30510509F0CCCD9C
:1026D00061E0872D0E94E0005FEF451A550A898965
:1026E0009A8904969A8B898B94E04916510409F0D3
:1026F0009DCD80918004811111C180917E04811152
:102700000DC181E02114310409F080E090914F0364
:10271000891709F403C140914B0350914C03609118
:102720004D0370914E0326013701441A550A660A7B
:10273000770AB301A2014E3151056105710508F414
:10274000EDC080934F03C0924B03D0924C03E092B4
:102750004D03F0924E03232809F0D8C061E08DE0CC
:102760000E94E000809194049091950420E330E071
:102770008330910538F487529E4FDC012C91022E54
:10278000000C330B40918304509184048091C70165
:102790009091C80148175907ECF0E8E5F4E041E0F2
:1027A00050E0481759070CF0ABC062817381619308
:1027B00071934F5F5F4FF5CF880F991FDC01AA5AC5
:1027C000BB4F65CF692C67CFAB2809F06CCF99243C
:1027D000939469CFCA0101969093840480938304F3
:1027E000440F551FFA01E85AFB4F3183208361E003
:1027F0008DE00E94E0008BE00E94B70011E000979E
:1028000009F410E0892B09F4CDC180914A038111AC
:10281000C9C10E94840180918204882309F445C0C3
:10282000E0908304F0908404B2E0EB16F104DCF154
:102830004701E1E08E1A9108092C000CAA08BB0898
:10284000FFEF8F1A9F0AAF0ABF0AEE0CFF1C970119
:102850002A5A3B4F7901A8E5CA2EA4E0DA2E0E943D
:102860001B17A50194010E948917D7012D913C9156
:102870001197660F771FFB01E85AFB4F808191810A
:102880008D939C9331832083B1E08B1A9108A1082A
:10289000B108E2E0EE1AF108CE14DF0401F710925D
:1028A0007904109278041092820480915003882356
:1028B00021F00E94250510925003809193038823F4
:1028C00031F0109279041092780410929303E09002
:1028D0008304F09084041E141F040CF063C18091E3
:1028E0005103909152038230910509F4A7C0E0F49E
:1028F000009759F1019709F491C0F0E0E0E039C088
:10290000880F991FFC01EA5AFB4F6FCF91106FCFD0
:1029100060E08DE00E94E00060E06ACF911067CF38
:10292000232809F464CFF8CF8430910509F4D7C087
:1029300008F4B0C0059709F70E941B179701FF0C18
:10294000440B550B0E948917F0C080917804909138
:102950007904FC01EE0FFF1FE85AFB4F0190F08154
:10296000E02D0196B7010E948C1A90937904809310
:10297000780460E070E0CB01E133F10550F4EE0F34
:10298000FF1FEE0FFF1FEC56FC4F608171818281AB
:1029900093812FE338EA4FE454E40E941F1A0E9407
:1029A000D018CB010E94B8042091780430917904AA
:1029B0002115310509F0F6C080918104882309F4BE
:1029C000C0C08091C9019091CA019093C8018093C1
:1029D000C7011092810440918304509184048417AC
:1029E00095070CF0AEC0E8E5F4E0440F551FBC01BC
:1029F000660F771F719561957109281739070CF0DB
:102A00009CC0DF01A40FB51FA60FB71F0D90BC918E
:102A1000A02DA193B1932F5F3F4FEFCF809178040A
:102A200090917904FC01EE0FFF1FE85AFB4F0190D3
:102A3000F081E02D01978E0D9F1D94CF8091780439
:102A400090917904FC01EE0FFF1FE85AFB4F0190B3
:102A5000F081E02D2091C601222379F00196909318
:102A600079048093780421E0E21AF1088E159F051D
:102A70000CF47FCF1092C6017CCF0197909379041C
:102A800080937804181619060CF473CF81E08093B4
:102A9000C6016FCF8091780490917904FC01EE0F0C
:102AA000FF1FE85AFB4F0190F081E02D2091C601F5
:102AB000222369F001968E159F050CF456CF31E064
:102AC000E31AF108F0927904E0927804D3CF0197E9
:102AD00097FF4BCF1092790410927804D7CFB701AB
:102AE000FF0C880B990B0E9408196B017C012AE7E7
:102AF00037E34EE15FE30E941F1A209146033091B5
:102B0000470340914803509149030E94ED17A701E4
:102B100096010E944E196093460370934703809379
:102B20004803909349030E94D018660F771F685A94
:102B30007B4FDB01ED91FC911CCF9093840480933B
:102B4000830480915403882351F080915503909120
:102B50005603909352038093510310925403809133
:102B60005303882321F00E9425051092530380917E
:102B700089048823B9F08091870490918804019694
:102B80009093880480938704209185043091860473
:102B9000821793073CF081E08093820410928804AE
:102BA0001092870410934A03002311F40C94200D13
:102BB00010929704109298041092990410929A041B
:102BC00010928F041092900410929104109292042B
:102BD0000C94200D892B11F40C94610C0E945F0160
:102BE0004B015C01B2E3CB2ED12CE12CF12C0E94E5
:102BF0005F01681979098A099B09683E734081055C
:102C00009105A8F321E0C21AD108E108F10838EED5
:102C1000830E33E0931EA11CB11CC114D104E10446
:102C2000F10429F70C942009222311F40C94580D77
:102C3000009709F44BC040909C0450909D04609014
:102C40009E0470909F04A701960124193509460936
:102C5000570929013A013BE5431651046104710407
:102C6000A8F120919B04211131C044EF841641E06A
:102C70009406A104B10450F1409097045090980438
:102C80006090990470909A04A7019601241935095F
:102C90004609570929013A0134EF431631E053063A
:102CA0006104710498F443E050E0662311F044E0BD
:102CB00050E020919404309195042417350734F4A2
:102CC0002F5F3F4F30939504209394041092A004FB
:102CD0000C94580D222309F44EC0012B09F441C075
:102CE00080919C0490919D04A0919E04B0919F04BA
:102CF00016012701281A390A4A0A5B0AD201C101C2
:102D00008B359105A105B10560F180919B0481117E
:102D100028C004EF801601E09006A104B10408F178
:102D200080918F0490919004A0919104B0919204AD
:102D3000A7019601281B390B4A0B5B0BDA01C9016D
:102D4000843F9140A105B10560F480919404909175
:102D50009504181619062CF4019790939504809306
:102D600094041092930410928F0410929004109285
:102D700091041092920410928E0410929B048EE0A3
:102D80000E944A018A3A910514F00C94D00D83E018
:102D900090E09093CA018093C9010C94E30D8F9247
:102DA0009F92AF92BF92CF92DF92EF92FF92CF931A
:102DB000DF93EC01688179818A819B8161157105BE
:102DC0008105910521F464E279ED8BE597E02DE131
:102DD00033EF41E050E00E94891749015A019B01FD
:102DE000AC01A7EAB1E40E94A8176B017C01ACEE2C
:102DF000B4EFA50194010E94B617C60ED71EE81EB7
:102E0000F91EF7FE06C081E0C81AD108E10880E883
:102E1000F80AC882D982EA82FB82C701B6019F778D
:102E2000DF91CF91FF90EF90DF90CF90BF90AF9068
:102E30009F908F9008958F929F92AF92BF92CF9262
:102E4000DF92EF92FF926091CB017091CC01809163
:102E5000CD019091CE01611571058105910521F497
:102E600064E279ED8BE597E02DE133EF41E050E04E
:102E70000E94891749015A019B01AC01A7EAB1E4FC
:102E80000E94A8176B017C01ACEEB4EFA501940180
:102E90000E94B617C60ED71EE81EF91EF7FE06C022
:102EA00081E0C81AD108E10880E8F80AC092CB0195
:102EB000D092CC01E092CD01F092CE01C701B601D3
:102EC0009F77FF90EF90DF90CF90BF90AF909F9053
:102ED0008F9008956093CB017093CC018093CD01C6
:102EE0009093CE010895F999FECF92BD81BDF89AD5
:102EF000992780B50895262FF999FECF1FBA92BD64
:102F000081BD20BD0FB6F894FA9AF99A0FBE0196CA
:102F10000895052E97FB1EF400940E94A01757FDFC
:102F200007D00E94BB1707FC03D04EF40C94A017E7
:102F300050954095309521953F4F4F4F5F4F0895E5
:102F400090958095709561957F4F8F4F9F4F089515
:102F50000E94DD17A59F900DB49F900DA49F800D3A
:102F6000911D11240895B7FF0C94A8170E94A8176B
:102F7000821B930B0895A1E21A2EAA1BBB1BFD0115
:102F80000DC0AA1FBB1FEE1FFF1FA217B307E40748
:102F9000F50720F0A21BB30BE40BF50B661F771FA0
:102FA000881F991F1A9469F7609570958095909580
:102FB0009B01AC01BD01CF010895A29FB001B39F59
:102FC000C001A39F700D811D1124911DB29F700D32
:102FD000811D1124911D08955058BB27AA270E94D6
:102FE00004180C94E0190E94D21938F00E94D919E3
:102FF00020F039F49F3F19F426F40C94CF190EF405
:10300000E095E7FB0C94BB19E92F0E94F11958F3E6
:10301000BA17620773078407950720F079F4A6F5BD
:103020000C94131A0EF4E0950B2EBA2FA02D0B0161
:10303000B90190010C01CA01A0011124FF27591BFD
:1030400099F0593F50F4503E68F11A16F040A22F03
:10305000232F342F4427585FF3CF46953795279574
:10306000A795F0405395C9F77EF41F16BA0B620B73
:10307000730B840BBAF09150A1F0FF0FBB1F661FBA
:10308000771F881FC2F70EC0BA0F621F731F841FFD
:1030900048F4879577956795B795F7959E3F08F023
:1030A000B0CF9395880F08F09927EE0F97958795E5
:1030B00008950E94971908F481E008950E947218FB
:1030C0000C94E0190E94D91958F00E94D21940F0CE
:1030D00029F45F3F29F00C94BB1951110C94141A78
:1030E0000C94CF190E94F11968F39923B1F3552379
:1030F00091F3951B550BBB27AA276217730784070B
:1031000038F09F5F5F4F220F331F441FAA1FA9F3A0
:1031100035D00E2E3AF0E0E832D091505040E6958E
:10312000001CCAF72BD0FE2F29D0660F771F881FEF
:10313000BB1F261737074807AB07B0E809F0BB0BE2
:10314000802DBF01FF2793585F4F3AF09E3F5105F6
:1031500078F00C94BB190C94141A5F3FE4F3983E7A
:10316000D4F3869577956795B795F7959F5FC9F7DF
:10317000880F911D9695879597F90895E1E0660F60
:10318000771F881FBB1F621773078407BA0720F0D9
:10319000621B730B840BBA0BEE1F88F7E095089542
:1031A0000E94D7186894B1110C94141A08950E94C3
:1031B000F91988F09F5798F0B92F9927B751B0F0B7
:1031C000E1F0660F771F881F991F1AF0BA95C9F7AB
:1031D00014C0B13091F00E94131AB1E008950C941C
:1031E000131A672F782F8827B85F39F0B93FCCF3CF
:1031F000869577956795B395D9F73EF49095809528
:10320000709561957F4F8F4F9F4F0895E89409C047
:1032100097FB3EF490958095709561957F4F8F4F09
:103220009F4F9923A9F0F92F96E9BB279395F6951F
:10323000879577956795B795F111F8CFFAF4BB0F9D
:1032400011F460FF1BC06F5F7F4F8F4F9F4F16C001
:10325000882311F096E911C0772321F09EE8872F8B
:10326000762F05C0662371F096E8862F70E060E047
:103270002AF09A95660F771F881FDAF7880F9695C0
:10328000879597F908950E94D21920F019F00E94AD
:10329000D91950F40C94CF190C94141AE92F0E94E8
:1032A000F11988F35523B1F3E7FB6217730784071D
:1032B0009507A8F189F3E92FFF2788232AF0319792
:1032C000660F771F881FDAF7952F5527442332F0B2
:1032D00091505040220F331F441FD2F7BB27E91BE8
:1032E000F50B621B730B840BB109B1F222F4620F70
:1032F000731F841FB11D31972AF0660F771F881F37
:10330000BB1FEFCF9150504062F041F0882332F064
:10331000660F771F881F91505040C1F793950C940A
:10332000C1198695779567959F5FD9F7F7CF990F64
:103330000008550FAA0BE0E8FEEF16161706E8077F
:10334000F907C0F012161306E407F50798F0621BA0
:10335000730B840B950B39F40A2661F0232B242B75
:10336000252B21F408950A2609F4A140A6958FEF94
:10337000811D811D089597F99F6780E870E060E0E6
:1033800008959F3F31F0915020F487957795679588
:10339000B795880F911D9695879597F908959FEF9A
:1033A00080EC089500240A941616170618060906DC
:1033B000089500240A9412161306140605060895AB
:1033C000092E0394000C11F4882352F0BB0F40F433
:1033D000BF2B11F460FF04C06F5F7F4F8F4F9F4F73
:1033E000089557FD9058440F551F59F05F3F71F0F5
:1033F0004795880F97FB991F61F09F3F79F087955C
:103400000895121613061406551FF2CF4695F1DFE4
:1034100008C0161617061806991FF1CF8695710574
:10342000610508940895E894BB2766277727CB01A8
:1034300097F908950E94971908F48FEF08950E9454
:10344000321A0C94E0190E94D21938F00E94D9194E
:1034500020F0952311F00C94BB190C94CF19112472
:103460000C94141A0E94F11970F3959FC1F3950FF3
:1034700050E0551F629FF001729FBB27F00DB11DF8
:10348000639FAA27F00DB11DAA1F649F6627B00D88
:10349000A11D661F829F2227B00DA11D621F739F71
:1034A000B00DA11D621F839FA00D611D221F749F7F
:1034B0003327A00D611D231F849F600D211D822FC6
:1034C000762F6A2F11249F5750409AF0F1F08823ED
:1034D0004AF0EE0FFF1FBB1F661F771F881F91501A
:1034E0005040A9F79E3F510580F00C94BB190C94F5
:1034F000141A5F3FE4F3983ED4F386957795679569
:10350000B795F795E7959F5FC1F7FE2B880F911D43
:103510009695879597F9089597FB072E16F40094D2
:1035200007D077FD09D00E94A61A07FC05D03EF40B
:10353000909581959F4F0895709561957F4F08955F
:10354000EE0FFF1F0590F491E02D0994AA1BBB1B01
:1035500051E107C0AA1FBB1FA617B70710F0A61B93
:10356000B70B881F991F5A95A9F780959095BC01B4
:10357000CD0108950F931F93CF93DF938230910570
:1035800010F482E090E0E091B205F091B30530E0F4
:1035900020E0B0E0A0E0309799F42115310509F45E
:1035A0004AC0281B390B24303105D8F58A819B810C
:1035B0006115710589F1FB0193838283FE0111C0BE
:1035C000408151810281138148175907E0F0481763
:1035D000590799F4109761F012960C93129713966D
:1035E0001C933296CF01DF91CF911F910F910895D7
:1035F0000093B2051093B305F4CF2115310551F0B6
:103600004217530738F0A901DB019A01BD01DF0120
:10361000F801C1CFEF01F9CF9093B3058093B205C4
:10362000CDCFFE01E20FF31F819391932250310918
:1036300039832883D7CF2091B0053091B105232B52
:1036400041F42091D1013091D2013093B105209302
:10365000B0052091CF013091D0012115310541F401
:103660002DB73EB74091D3015091D401241B350BA7
:10367000E091B005F091B105E217F307A0F42E1B1D
:103680003F0B2817390778F0AC014E5F5F4F2417C6
:10369000350748F04E0F5F1F5093B1054093B005BA
:1036A000819391939FCFF0E0E0E09CCFCF93DF93A5
:1036B0000097E9F0FC01329713821282A091B205C3
:1036C000B091B305ED0130E020E01097A1F4208126
:1036D0003181820F931F2091B0053091B1052817D9
:1036E000390709F061C0F093B105E093B005DF91AF
:1036F000CF910895EA01CE17DF07E8F54A815B8193
:103700009E0141155105B1F7E901FB83EA83499117
:103710005991C40FD51FEC17FD0761F48081918189
:103720000296840F951FE901998388838281938192
:103730009B838A83F0E0E0E012968D919C91139731
:103740000097B9F52D913C911197CD010296820F0A
:10375000931F2091B0053091B1052817390739F62C
:10376000309751F51092B3051092B205B093B105A0
:10377000A093B005BCCFD383C28340815181840F15
:10378000951FC817D90761F44E5F5F4F88819981F3
:10379000480F591F518340838A819B819383828381
:1037A0002115310509F0B0CFF093B305E093B205D0
:1037B0009ECFFD01DC01C0CF13821282D7CFF894D7
:0237C000FFCF39
:1037C200010000000000E7FBA93D0C022B3E0000B7
:1037D200803EFA7EAA3E0681D53E0000003F7D3F34
:1037E200153F83C02A3F0000403F7D3F553F83C0C5
:1037F2006A3F0000803FBE9F8A3F4260953F0000C3
:10380200A03FBE9FAA3F4260B53F0000C03FBE9F9F
:10381200CA3F4260D53F0000E03FBE9FEA3F4260A0
:10382200F53F00000040DF4F054021B00A40000094
:103832001040DF4F154021B01A4000002040DF4FFA
:10384200254021B02A4000003040DF4F354021B0F2
:103852003A4000004040DF4F454021B04A4000005E
:103862005040DF4F554021B05A4000006040DF4FCA
:10387200654021B06A4000007040DF4F754021B0C2
:103882007A400000804001080008000100000000AA
:1038920000B4058000320939300C182402030405F3
:1038A2000607080000000030029001BD017D02EE13
:1038B20001CC01E0010000000086045904B5042F88
:1038C2000452043F043004466C6F617420666F72C8
:1038D2006D61742064657465637465642E20436F42
:1038E2006E76657274696E6720746F20696E746596
:1038F20067657220666F726D61742E000D0A004654
:1039020069726D776172653A20417270204F66204C
:103912004461726B6E65737320762E312E342E30B5
:023922000000A3
:00000001FF
