:100000000C9462000C948A000C948A000C948A0070
:100010000C948A000C948A000C948A000C948A0038
:100020000C948A000C948A000C948A000C948A0028
:100030000C948A000C948A000C948A000C948A0018
:100040000C943D070C948A000C94AD070C94870720
:100050000C948A000C948A000C948A000C948A00F8
:100060000C94DF070C948A00000000002400270095
:100070002A0000000000250028002B0000000000DE
:1000800023002600290004040404040404040202DA
:100090000202020203030303030301020408102007
:1000A0004080010204081020010204081020000012
:1000B0000008000201000003040700000000000027
:1000C0000000FE0811241FBECFEFD8E0DEBFCDBF79
:1000D00013E0A0E0B1E0EEE0FBE202C005900D927B
:1000E000A030B107D9F725E0A0E0B3E001C01D9230
:1000F000A03EB207E1F710E0C2E6D0E004C02197CD
:10010000FE010E945A14C136D107C9F70E943B096B
:100110000C9485150C9400000895089580E4809354
:100120007C0080917A00806480937A0080917A00CC
:1001300086FDFCCF809178009091790008958330FE
:1001400081F028F4813099F08230A9F00895873049
:10015000A9F08830C9F08430B1F4809180008F7D9F
:1001600003C0809180008F7780938000089584B5CC
:100170008F7784BD089584B58F7DFBCF8091B000CB
:100180008F778093B00008958091B0008F7DF9CF74
:10019000CF93DF93282F30E0F901E255FF4F849190
:1001A000F901E656FF4FD491F901EA57FF4FC49188
:1001B000CC23A1F081110E949F00EC2FF0E0EE0F04
:1001C000FF1FE458FF4FA591B491EC91ED2381E01E
:1001D00090E009F480E0DF91CF91089580E090E015
:1001E000FACF1F93CF93DF93282F30E0F901E25528
:1001F000FF4F8491F901E656FF4FD491F901EA5778
:10020000FF4FC491CC23A9F0162F81110E949F00AB
:10021000EC2FF0E0EE0FFF1FEE58FF4FA591B491C9
:100220008FB7F894EC91111108C0D095DE23DC93C0
:100230008FBFDF91CF911F910895DE2BF8CFCF9321
:10024000DF9390E0FC01E656FF4F24918A579F4FC1
:10025000FC0184918823C9F090E0880F991FFC016C
:10026000E859FF4FA591B491FC01EE58FF4FC5919D
:10027000D49161110DC09FB7F8948C912095822381
:100280008C938881282328839FBFDF91CF91089585
:10029000623051F49FB7F8943C91822F809583236C
:1002A0008C93E8812E2BEFCF8FB7F894EC912E2B07
:1002B0002C938FBFEACF3FB7F8948091D7049091E9
:1002C000D804A091D904B091DA0426B5A89B05C042
:1002D0002F3F19F00196A11DB11D3FBFBA2FA92FC5
:1002E000982F8827BC01CD01620F711D811D911DC2
:1002F00042E0660F771F881F991F4A95D1F708952E
:100300002FB7F8946091D3047091D4048091D504F0
:100310009091D6042FBF0895AF92BF92CF92DF92F3
:10032000EF92FF920F931F93CF93DF936C017B01AA
:100330008B01040F151FEB015E01AE18BF08C0173B
:10034000D10759F06991D601ED91FC910190F081AE
:10035000E02DC6010995892B79F7C501DF91CF9171
:100360001F910F91FF90EF90DF90CF90BF90AF90D3
:100370000895FC01538D448D252F30E0842F90E0AB
:10038000821B930B541710F0CF9608950197089590
:10039000FC01918D828D981761F0A28DAE0FBF2F59
:1003A000B11D5D968C91928D9F5F9F73928F90E0AF
:1003B00008958FEF9FEF0895FC01918D828D98171E
:1003C00031F0828DE80FF11D858D90E008958FEF5B
:1003D0009FEF0895FC01918D228D892F90E0805C24
:1003E0009F4F821B91098F739927089581E395E0B0
:1003F0000E94EA0121E0892B09F420E0822F089570
:1004000080E090E0892B29F00E94F60181110C9484
:1004100000000895FC01A48DA80FB92FB11DA35AA7
:10042000BF4F2C91848D90E001968F739927848F14
:10043000A689B7892C93A089B1898C918370806437
:100440008C93938D848D981306C00288F389E02DD8
:1004500080818F7D80830895EF92FF920F931F9389
:10046000CF93DF93EC0181E0888F9B8D8C8D981367
:100470001AC0E889F989808185FF15C09FB7F89473
:10048000EE89FF896083E889F989808183708064BF
:1004900080839FBF81E090E0DF91CF911F910F910A
:1004A000FF90EF900895F62E0B8D10E00F5F1F4F19
:1004B0000F731127E02E8C8D8E110CC00FB607FC28
:1004C000FACFE889F989808185FFF5CFCE010E94B6
:1004D0000A02F1CFEB8DEC0FFD2FF11DE35AFF4F18
:1004E000F0829FB7F8940B8FEA89FB898081806244
:1004F000CFCFCF93DF93EC01888D8823B9F0AA8901
:10050000BB89E889F9898C9185FD03C0808186FDCE
:100510000DC00FB607FCF7CF8C9185FFF2CF80811D
:1005200085FFEDCFCE010E940A02E9CFDF91CF9186
:10053000089520914103260F3327331F21323105BF
:10054000ECF420910705FC0190E080E0243069F094
:1005500082E00895A09141032191AC014F5D5C4F71
:10056000A40FB52FB11D2C930196861798F3809197
:100570004103680F6093410380E0089581E008958E
:100580001092070581E0809306051092E10461E076
:1005900082E10E94F10061E083E10E94F100E9EB59
:1005A000F0E080818E7F808380818D7F808388E4EE
:1005B0008093B80085E48093BC0008951092E00415
:1005C0001092DF0410920E05109230050E94C002B6
:1005D0008CE890E09093DE048093DD048DE890E059
:1005E0009093DC048093DB040895CF93DF9391E034
:1005F000909320038823B9F0C091B800D091BA003D
:100600008091BC008A7B8093BC0060E082E10E9404
:10061000F10060E083E10E94F1000E94C002D093EB
:10062000BA00C093B800DF91CF9108958F929F9246
:10063000AF92BF92CF92DF92EF92FF920F931F93F0
:10064000CF93DF93D0913005D13208F0D7C0182F67
:10065000C0912F050E945B016B017C018091070511
:1006600081116BC082E080930705109306058FEF20
:100670008093050510920405D0930305AFE0B5E023
:10068000E3EEF4E080E0D81391C01092E204809190
:10069000E204CC0FC82BC093E2048091E1048130C6
:1006A00009F088C01092E1040E945B016B017C019B
:1006B0008091E2048093BB008091090590910A0526
:1006C000A0910B05B0910C05892B8A2B8B2BA1F0E7
:1006D0000E945B010091090510910A0520910B050C
:1006E00030910C056C197D098E099F0906171707B3
:1006F0002807390708F442C08091BC0083FDD8CF99
:1007000085EC8093BC000E945B016B017C018091B1
:100710000705823009F450C0809105058F3F09F428
:100720006FC080910505803209F46CC08091050589
:10073000803309F469C084E026C080910905909156
:100740000A05A0910B05B0910C05892B8A2B8B2BE8
:1007500009F484CF0E945B018090090590900A05FE
:10076000A0900B05B0900C056C197D098E099F09AE
:1007700086169706A806B90608F070CF809108057E
:100780000E94F50285E010920E051092300510923D
:100790000D05DF91CF911F910F91FF90EF90DF90AA
:1007A000CF90BF90AF909F908F9008959D9191931F
:1007B0008F5F69CF85EEA5CF8091090590910A05DD
:1007C000A0910B05B0910C05892B8A2B8B2B09F47A
:1007D0009ECF0E945B010091090510910A052091AE
:1007E0000B0530910C056C197D098E099F090617C0
:1007F00017072807390708F08ACFC0CF81E0C3CF99
:1008000080E0C1CF82E0BFCF83E0BDCFCF93DF9345
:10081000EC018B818823A1F0888191E090930D05F4
:1008200080932F0510920E051092300581E00E94F2
:10083000160391E0811190E0892FDF91CF91089507
:100840000E94DE0281E08B83CE010E940604982F75
:100850008111E2CFF1CF0895E091E0048091DF04AF
:10086000E81730F4F0E0E050FD4F808190E008950B
:100870008FEF9FEF08959091E0048091DF042FEFB8
:100880003FEF981748F4E92FF0E0E050FD4F20814A
:1008900030E09F5F9093E004C90108958091DF04E8
:1008A0009091E004891B990B0895CF92DF92EF920B
:1008B000FF920F931F93CF93DF937C01CB018A01AB
:1008C00020910D05222389F0EB016B01C40ED51E8A
:1008D000CC15DD0569F06991D701ED91FC9101908E
:1008E000F081E02DC7010995F3CF642F0E94990292
:1008F000C801DF91CF911F910F91FF90EF90DF9092
:10090000CF900895CF93DF931F92CDB7DEB7698361
:1009100020910D052223F9F020913005203258F066
:1009200021E030E0FC013383228390E080E00F90EF
:10093000DF91CF91089580910E05E82FF0E0E15FFF
:10094000FA4F998190838F5F80930E0580933005D5
:1009500081E090E0ECCF61E0CE0101960E94990227
:10096000F7CF90E080E00895CF93DF9300D01F92FF
:10097000CDB7DEB71092B9002CE02093B80020E488
:1009800029839C0194E0369527959A95E1F72A836F
:100990008295807F8B83E091DA05F091DB0584817D
:1009A0009581039738F480E00F900F900F90DF91BE
:1009B000CF91089581819281208131E030930D059E
:1009C00020932F0510920E0510923005DC01ED9159
:1009D000FC910280F381E02D43E050E0BE016F5FA7
:1009E0007F4F09950397F9F681E00E941603811164
:1009F000DACF1092B90088E48093B80081E0D4CFB8
:100A0000CF92DF92EF92FF920E945B016B017C011B
:100A10008091890390918A03A0918B03B0918C03FC
:100A2000B701A601481B590B6A0B7B0B809187030A
:100A300090918803092E000CAA0BBB0B481759078D
:100A40006A077B0728F180918D0390918E03209196
:100A5000850330918603820F931F90938E038093BA
:100A60008D030E94B404C0928903D0928A03E0925D
:100A70008B03F0928C0320918D0330918E03809133
:100A80008F03909190032817390711F41092C10435
:100A9000FF90EF90DF90CF900895FC01019000202F
:100AA000E9F73197AF01481B590BBC0181E395E091
:100AB0000C948C018F929F92AF92BF920F931F93D1
:100AC000CF93DF93CDB7DEB7A1970FB6F894DEBF13
:100AD0000FBECDBF19A2423008F44AE08E010F5D6F
:100AE0001F4F842E912CB12CA12CA50194010E94A2
:100AF000BE11E62FB901CA01EA30F4F4E05DD80175
:100B0000EE938D01232B242B252B79F790E080E0A9
:100B1000109719F0CD010E944D05A1960FB6F894DB
:100B2000DEBF0FBECDBFDF91CF911F910F91BF9060
:100B3000AF909F908F900895E95CE1CFCF92DF92C4
:100B4000EF92FF92CF93DF936B017C016DE281E323
:100B500095E00E942C02EC0166277727CB016C19E7
:100B60007D098E099F094AE00E945A058C0F9D1F3E
:100B7000DF91CF91FF90EF90DF90CF900895BC016F
:100B8000990F880B990B97FD0C949E054AE00C94E5
:100B90005A05CF93DF93BC01990F880B990B97FFF0
:100BA0000CC00E949E05EC0187E092E00E944D057A
:100BB0008C0F9D1FDF91CF9108954AE00E945A0546
:100BC000F2CF0C944D05CF93DF930E944D05EC01BD
:100BD00087E092E00E944D058C0F9D1FDF91CF9121
:100BE00008954F925F926F927F928F929F92AF92F1
:100BF000BF92CF92DF92EF92FF920F931F93CF930A
:100C00006B017C01742EAC019B010E942D14882382
:100C100099F08AE092E0CF911F910F91FF90EF90B1
:100C2000DF90CF90BF90AF909F908F907F906F900C
:100C30005F904F900C944D0546015701E894B7F82A
:100C40002FEF3FEF4FE75FE7C501B4010E942D147E
:100C500081110DC02FEF3FEF4FE75FE7C501B401F2
:100C60000E945C1218161CF48EE092E0D4CF2FEF95
:100C70003FEF4FE75FE4C701B6010E94BB131816B0
:100C80001CF482E192E0C7CF2FEF3FEF4FE75FEC1C
:100C9000C701B6010E945C1287FDF3CF20E030E06F
:100CA000A901C701B6010E945C1210E000E087FFB5
:100CB0000AC06DE281E395E00E942C028C01F7FAF4
:100CC000F094F7F8F094C0E060E070E080E09FE31B
:100CD0007C1641F020E030E040E251E40E946112D5
:100CE000CF5FF6CFA70196010E94F0112B013C01C6
:100CF0000E94DA124B015C014AE00E945A057C0115
:100D0000E00EF11ECC23C1F1C501B4010E9409130C
:100D10009B01AC01C301B2010E94EF114B015C01C8
:100D20006EE281E395E00E942C02E80EF91EC150AC
:100D300018F120E030E040E251E4C501B4010E9426
:100D4000C0132B013C010E94DA124B01B12CA12CE3
:100D50004AE0C501B4010E945A05E80EF91EC5011A
:100D6000B4010E9409139B01AC01C301B2010E94AE
:100D7000EF114B015C01DBCFC701CF911F910F91A8
:100D8000FF90EF90DF90CF90BF90AF909F908F90AB
:100D90007F906F905F904F9008950F931F93CF9324
:100DA000DF938C01EB010E9476118883C8010196C4
:100DB0000E9476118983CE01DF91CF911F910F910F
:100DC0000895FF920F931F93CF93DF93EC018B0154
:100DD000FB01F0800E947611F81621F06F2DCE01F4
:100DE0000E947E11F801F1802196CE010E947611B9
:100DF000F81621F06F2DCE010E947E11C801DF91FF
:100E0000CF911F910F91FF90089585ED8093BC00C5
:100E10008091090590910A05A0910B05B0910C05F0
:100E20000796A11DB11D23E0B695A79597958795C7
:100E30002A95D1F72091BC0024FD03C0109207052C
:100E400008954091090550910A0560910B05709134
:100E50000C05452B462B472B69F30097A105B105DF
:100E600041F02AE22A95F1F700C00197A109B109E2
:100E7000E1CF809108050C94F5021F920F920FB6F6
:100E80000F9211242F933F938F939F93AF93BF9310
:100E90008091D3049091D404A091D504B091D6044C
:100EA0003091D20423E0230F2D3758F50196A11D70
:100EB000B11D2093D2048093D3049093D404A093C3
:100EC000D504B093D6048091D7049091D804A09112
:100ED000D904B091DA040196A11DB11D8093D70405
:100EE0009093D804A093D904B093DA04BF91AF9142
:100EF0009F918F913F912F910F900FBE0F901F9058
:100F0000189526E8230F0296A11DB11DD2CF1F927E
:100F10000F920FB60F9211242F933F934F935F932D
:100F20006F937F938F939F93AF93BF93EF93FF93B1
:100F300081E395E00E940A02FF91EF91BF91AF918A
:100F40009F918F917F916F915F914F913F912F91E1
:100F50000F900FBE0F901F9018951F920F920FB613
:100F60000F9211242F938F939F93EF93FF93E09110
:100F70004105F09142058081E0914705F0914805D7
:100F800082FD1BC0908180914A058F5F8F732091F5
:100F90004B05821741F0E0914A05F0E0EF5CFA4F13
:100FA000958F80934A05FF91EF919F918F912F919B
:100FB0000F900FBE0F901F9018958081F4CF1F9255
:100FC0000F920FB60F9211242F933F934F935F937D
:100FD0006F937F938F939F93AF93BF93EF93FF9301
:100FE0008091B900887F803609F44AC0F0F58832D4
:100FF00009F4A7C018F5803109F49BC0B8F4882320
:1010000009F4F9C0883009F494C0FF91EF91BF91C1
:10101000AF919F918F917F916F915F914F913F9190
:101020002F910F900FBE0F901F901895883109F4E3
:1010300088C0803251F78093050514C0803409F4CC
:101040009DC040F48033B9F38833F9F680930505E9
:1010500085ECB0C0803509F485C0883509F496C0A8
:10106000883499F60E940507D0CF883909F48CC0DE
:1010700038F5883729F050F4883611F0803729F692
:1010800083E0809307051092630357C0883809F402
:101090007BC0803919F0803809F0B7CF80916303A5
:1010A000803208F071C0E091630381E08E0F80937D
:1010B00063038091BB00F0E0ED5BFC4F80833DC09B
:1010C000803B39F0E0F4803A09F479C0883A09F0BD
:1010D0009CCF84E080930705109242031092410355
:1010E000E091DD04F091DE040995809141038111C6
:1010F0000FC081E0809341031092210309C0803C1E
:1011000009F4A6CF883C09F4A3CF883B09F07DCF32
:10111000E091420381E08E0F80934203F0E0EF5DA7
:10112000FC4F80818093BB009091420380914103EA
:1011300029C08091E2048093BB0085EC8093BC00C1
:1011400064CF9091040580910305981758F5E091BC
:10115000040581E08E0F80930405F0E0ED51FB4F14
:101160008081E9CFE091040581E08E0F8093040532
:101170008091BB00F0E0ED51FB4F8083909104051E
:10118000809103059817C8F285E8D8CFE09104054F
:1011900081E08E0F809304058091BB00F0E0ED515B
:1011A000FB4F80838091060581115CCF81E08093A5
:1011B000E10484EA8093BC001092070526CF85ECF9
:1011C0008093BC001092070580916303803230F455
:1011D000E0916303F0E0ED5BFC4F108260916303EC
:1011E00070E0E091DB04F091DC0483E493E0099586
:1011F000109263030ACF1092050534CFE1E3F5E0C6
:101200001382128288EE93E0A0E0B0E0848395839D
:10121000A683B78327EE31E03183208325EC30E0CD
:101220003587248724EC30E03787268720EC30E0B0
:10123000318B208B21EC30E0338B228B22EC30E0A1
:10124000358B248B26EC30E0378B268B118E128E5B
:10125000138E148EEEECF5E0138212828483958354
:10126000A683B78389EF91E0918380831092DB0599
:101270001092DA050895CF93DF93CDB7DEB760976C
:101280000FB6F894DEBF0FBECDBF789484B58260F0
:1012900084BD84B5816084BD85B5826085BD85B51A
:1012A000816085BD80916E00816080936E00109298
:1012B0008100809181008260809381008091810013
:1012C00081608093810080918000816080938000A4
:1012D0008091B10084608093B1008091B000816002
:1012E0008093B00080917A00846080937A0080912E
:1012F0007A00826080937A0080917A008160809386
:101300007A0080917A00806880937A001092C10000
:101310000E94DE028091DA059091DB05009711F0C2
:101320000E94FC1486E090E00E9460148C0180E62C
:10133000D8018C938EEC95E012969C938E93119726
:1013400013961C92139780E290E015969C938E93CF
:1013500014971093DB050093DA050E94DE0281E00A
:10136000F8018383C8010E940604E0914105F091D1
:10137000420582E08083E0913D05F0913E051082B8
:10138000E0913F05F09140058FEC80831092490574
:10139000E0914505F091460586E08083E0914305A4
:1013A000F0914405808180618083E0914305F09154
:1013B0004405808188608083E0914305F091440575
:1013C000808180688083E0914305F09144058081AD
:1013D0008F7D808395E8E92E94E0F92E0CED11E0E5
:1013E00062E0D8018D918D010E941F0157018FEDA0
:1013F000C82E81E0D82E61E0F60181916F010E9434
:101400001F01D5011D921D921D921D925D01B3EE2B
:10141000CB16B1E0DB0679F7E0E1EE0EF11CF1E06E
:101420000F3D1F07E9F61092B5041092B604109212
:10143000B7041092B8041092B9041092BA04109232
:10144000BB041092BC041092BD041092BE04109212
:10145000BF041092C00462E089E00E941F0162E0B4
:101460008AE00E941F0160E08BE00E941F0162E0A1
:101470008CE00E941F0160E08EE00E941F0161E08D
:101480008DE00E941F0160E08BE00E94F1000E944D
:1014900080016B017C010E9480016C197D098E091D
:1014A0009F09603D77408105910588F489E00E949D
:1014B000C800892B81F78AE00E94C800892B59F760
:1014C00081E08093CD0461E08BE00E94F100BE01D9
:1014D0006B5F7F4F90E080E00E94CD068D819E8102
:1014E00089339043B1F186E192E00E94E30567ED14
:1014F00071E090E080E00E94E10604E010E0A801C5
:1015000044505F4F6A01F12CE12CD6019D906D0192
:101510005701A00EB11EC5010E947611981621F048
:10152000692DC5010E947E11BFEFEB1AFB0AE4E0B2
:10153000EE16F10451F70C5F1F4F083C1105F9F648
:101540001A821982BE016F5F7F4F88EC90E00E9483
:10155000E106BE016D5F7F4F88EC90E00E94CD06F2
:101560008B819C818233994009F444C084E592E0E8
:101570000E94E305A5E9EA2EA3E0FA2E04E010E0BC
:10158000B4E06B2E712C98012B563C4F590167012A
:1015900048018E189F08C4018C0D9D1D0E94761174
:1015A000D6018D936D01AA15BB05A9F7F7016191CD
:1015B0007191819191917F0120E030E04AE754E4FC
:1015C0000E94C0130E94D3127A836983BE016F5FA9
:1015D0007F4FC3010E94E106F2E06F0E711C0C5FA9
:1015E0001F4F083C110579F665ED71E088EC90E03D
:1015F0000E94E106F5E9EF2EF3E0FF2E04E010E093
:10160000BE016F5F7F4FC8010E94CD0669817A815C
:10161000072E000C880B990B0E940B1320E030E082
:101620004AE754E40E946112D7016D937D938D9334
:101630009D937D010E5F1F4F0636110509F787E068
:1016400092E00E944D0589E892E00E94E10583EA5C
:1016500092E00E94E10583E690E00E94C90587EBD5
:1016600092E00E94E10584E090E00E94BF0587EDD2
:1016700092E00E94E10585E690E00E94C9050E9483
:1016800080016B017C0189E00E94C8008C018AE026
:101690000E94C8004091CE045091CF046091D004C4
:1016A0007091D10446015701841A950AA60AB70A17
:1016B000B501A4014B3F510561057105E0F001152D
:1016C000110509F0CCC1009709F0C9C12091CD04E2
:1016D0002111C5C18091CC04811179C1C092C80487
:1016E000D092C904E092CA04F092CB0481E08093C6
:1016F000CC041092C7040E948E008A3A91050CF027
:1017000019C2E3E0AE2EB12CB092CA01A092C90179
:101710002091C9013091CA018091C7019091C801FF
:101720002817390719F081E08093C2048091C10421
:1017300081110E9400050091CD04002309F4ACC280
:1017400089E00E94C800892B09F01EC28AE00E942D
:10175000C800892B09F018C20E9480010091810302
:10176000109182032091830330918403601B710BDD
:10177000820B930B613D77408105910508F011C202
:1017800068E6A62E63E0B62E7FED672E71E0772E19
:1017900010E000E0F30121903F0160E0822D0E9403
:1017A000F10065015CED852E51E0952EF12CE12CC8
:1017B000D4018D914D010E94C800332433940097C9
:1017C00009F0312C892B09F045C0F6018081918107
:1017D000892B09F03FC02091C5043091C604C70190
:1017E000880F991F880F991F800F911FFCE0F29FAF
:1017F000A001F39F500D1124840F951F9093C501F4
:101800008093C4012430310561F4E114F10449F4FA
:101810000115110531F420E330E03093C501209328
:10182000C401E091C401F091C501EE0FFF1FEE0F5E
:10183000FF1FEB56FC4F2FE338EA4FE454E460817E
:101840007181828193810E94C0130E94D312CB01C7
:101850000E94B404832D90E0D6018D939C93BFEF3A
:10186000EB1AFB0AE8E0CE0ED11CF3E0EF16F10410
:1018700009F09ECF61E0822D0E94F1000F5F1F4FA3
:1018800022E0A20EB11C0430110509F083CF8CE0D8
:101890000E94C800892B09F075C0E090C401F09047
:1018A000C5013FEFE316F30609F46CC08701000F92
:1018B000111F000F111FF801E050FF4F8080918031
:1018C000A280B3800E948E00BC01990F880B990BF7
:1018D0000E940B1320E030EC4FE754E40E946112A9
:1018E00020E030E040E85EE30E94C01320E030E0FA
:1018F00040E05EE30E94EF11A50194010E94F01107
:101900004B015C01E114F10409F063C120E030E017
:10191000A9010E94BB1318161CF0812C912C5401B4
:10192000F801EB56FC4F80829182A282B3822FE3B2
:1019300038EA4FE454E4C501B4010E94C0130E9488
:10194000D312CB010E94B40420E030E04AE754E413
:10195000C501B4010E94C0130E94D3127A83698327
:101960008091C4019091C5010296BE016F5F7F4FC7
:10197000880F991F0E94E1068FEF9FEF9093C5019A
:101980008093C4018AE00E94C800892B31F489E069
:101990000E94C800892B09F030C110926403109294
:1019A000650310926603109267038091C104811150
:1019B0000E94000580E090E0892B09F460CE0E942F
:1019C000F601882309F45BCE0E94000058CE809176
:1019D000C8049091C904A091CA04B091CB04A70196
:1019E0009601281B390B4A0B5B0BDA01C901C3971F
:1019F000A105B10508F47FCE8091C70481117BCE8B
:101A00008091C5049091C6049093C4048093C3044C
:101A100080915B0490915C04019665E070E00E9407
:101A20003214909392038093910311E010939403E6
:101A3000109293038DED92E00E94E1058091910355
:101A4000909192030E94C9058091C3049091C404AF
:101A50009093C6048093C5041093C7044CCE109293
:101A6000CC041092C704012BD1F58091C804909149
:101A7000C904A091CA04B091CB04B701A601481BC8
:101A8000590B6A0B7B0BDB01CA01C397A105B1059A
:101A900008F431CE3091C5042091C6048091CD0464
:101AA0008823A9F0832F922F8430910514F083E0CE
:101AB00090E001969093C6048093C504C092CE0432
:101AC000D092CF04E092D004F092D10414CE832FB0
:101AD000922F833091056CF382E090E0EACF892B5E
:101AE00001F58091C8049091C904A091CA04B091F5
:101AF000CB0446015701881A990AAA0ABB0AD501E4
:101B0000C401C397A105B10508F4F5CD8091C504C2
:101B10009091C6041816190614F081E090E0019720
:101B2000C9CFC092C804D092C904E092CA04F0920E
:101B3000CB04E1CD843521E092073CF484E090E0D1
:101B40009093CA018093C901E3CD8E3F31E09307A2
:101B50003CF445E050E05093CA014093C901D8CD10
:101B6000883A52E095071CF486E090E0E9CF823590
:101B700093401CF488E090E0E3CFA0E1B0E0B093A4
:101B8000CA01A093C901C4CD0E9480016093810362
:101B90007093820380938303909384031092800355
:101BA000EFCD809180038111EBCD1092CD0481E0C7
:101BB0008093800360E08BE00E94F1000E9480012E
:101BC00060938103709382038093830390938403D3
:101BD000D7CD40E3E416F10409F0A2CE20E030E0D6
:101BE00040E850E40E945C1287FD9ACE812C912C33
:101BF00080E8A82E80E4B82E93CEC0906403D090E5
:101C00006503E0906603F0906703C114D104E1041A
:101C1000F10459F40E94800160936403709365039A
:101C20008093660390936703C0CE0E9480016C1975
:101C30007D098E099F0961347F418105910508F472
:101C4000B4CE84ECE0E0F1E0A5E9B3E001900D92C0
:101C50008A95E1F7B0E0EB2EB1E0FB2E04E010E056
:101C6000D7016D917D918D919D917D0120E030E0B6
:101C70004AE754E40E94C0130E94D3127A83698316
:101C8000BE016F5F7F4FC8010E94E1060E5F1F4FCC
:101C90000636110529F781CEF5E86F2EF4E07F2E88
:101CA000A5EB8A2EA4E09A2EEFEDF1E0FA87E98702
:101CB000A985BA851D91BA87A98760E0812F0E9406
:101CC000F10013015401ECEDF1E0F887EF83AF81EF
:101CD000B8858D91B887AF830E94C800988B8F8795
:101CE00021E0892B09F020E0F5013081231709F468
:101CF000D4C0D1014D915D916D917C91D701C60108
:101D0000841B950BA60BB70BCD97A105B10508F465
:101D100045C02083AF85B889AB2BD9F561E08DE054
:101D20000E94F1008091C5049091C604BCE0B89F68
:101D30009001B99F300D1124C501855B9440280F97
:101D4000391F40918304509184048091C701909180
:101D5000C801481759077CF0E3E6F4E041E050E0A1
:101D6000481759070CF093C0628173816193719396
:101D70004F5F5F4FF5CFCA01019690938404809323
:101D80008304440F551FFA01ED59FB4F3183208323
:101D900001E0F101C082D182E282F38234E0A30E3D
:101DA000B11C40E1240E311C6F8178856F5D71405C
:101DB00009F08DCF61E0812F0E94F1009FEF891A19
:101DC000990AA4E06A0E711CE985FA85E35EF14088
:101DD00009F06ECF8CE00E94C80021E0009709F066
:101DE00020E030916204231709F408C140915E0499
:101DF00050915F0460916004709161044601570145
:101E0000841A950AA60AB70AB501A4014C335105F4
:101E10006105710508F4F2C020936204C0925E046B
:101E2000D0925F04E0926004F0926104892B09F083
:101E3000DDC061E08DE00E94F1008091C5049091C9
:101E4000C60420E330E08330910538F487529E4F7A
:101E5000DC012C91022E000C330B40918304509135
:101E600084048091C7019091C80148175907E4F094
:101E7000E3E6F4E041E050E0481759070CF0B0C049
:101E800062817381619371934F5F5F4FF5CF880FCC
:101E9000991FFC01EF59FB4F79CF2F853889232BF0
:101EA00009F07CCF01E07ACFCA01019690938404B7
:101EB00080938304440F551FFA01ED59FB4F318382
:101EC000208361E08DE00E94F1008BE00E94C80059
:101ED00011E0009709F410E0892B09F460C18091AA
:101EE0005D0481115CC10E94800180918304909106
:101EF0008404181619060CF052C180915B0490916D
:101F00005C048230910509F4CCC008F07DC00097D4
:101F100009F49DC0019709F4B1C060E070E0CB0105
:101F2000B1E34B16510458F4F201EE0FFF1FEE0F10
:101F3000FF1FEB56FC4F60817181828193812FE3FB
:101F400038EA4FE454E40E94C0130E94D312709305
:101F5000900360938F0370938E0360938D03CB0186
:101F60000E94B4041092C104E0905904F0905A0405
:101F7000E114F10409F0F2C08091C204882309F44D
:101F8000EDC08091C9019091CA019093C8018093DE
:101F9000C7011092C20420918304309184048217F7
:101FA00093070CF0DBC0E3E6F4E0220F331FBC0123
:101FB000660F771F71956195710950E040E04817F1
:101FC00059070CF0C7C0D901AE0FBF1FA60FB71F2E
:101FD0000D90BC91A02DA193B1934F5F5F4FEFCFB8
:101FE000880F991FFC01EF59FB4F69CF011169CF91
:101FF00060E08DE00E94F10060E064CF011161CFEC
:10200000892B09F45ECFF8CF8330910509F477C0AE
:10201000049709F082CFC090C701D090C8010D2C61
:10202000000CEE08FF08C114D104E104F10439F0FA
:102030000E941E11A70196010E948C116B01F601EE
:10204000EE0FFF1FED59FB4F4080518066CF80910E
:10205000590490915A04FC01EE0FFF1FED59FB4FFC
:102060004080518001966091C7017091C8010E9423
:10207000321490935A04809359044FCF809159049D
:1020800090915A04FC01EE0FFF1FED59FB4F408069
:1020900051806091C7017091C8010197860F971F09
:1020A000E6CF8091590490915A04FC01EE0FFF1F76
:1020B000ED59FB4F408051802091C601222391F0C1
:1020C000019690935A04809359042091C70130914E
:1020D000C80121503109821793070CF41ECF1092CA
:1020E000C6011BCF019790935A0480935904181688
:1020F00019060CF412CF81E08093C6010ECF8091B7
:10210000590490915A04FC01EE0FFF1FED59FB4F4B
:10211000408051802091C6012223A1F00196909326
:102120005A04809359042091C7013091C801821745
:1021300093070CF4F2CE2150310930935A042093C6
:102140005904CDCF019797FF94CF10925A04109263
:102150005904D1CF90938404809383048091940395
:102160008823E9F0EF28D9F480919303811117C0F7
:10217000809191039091920390935C0480935B040F
:102180001092940381E0809393038EEE92E00E947C
:10219000E10580915B0490915C040E94C905109355
:1021A0005D0403CC8F929F92AF92BF92CF92DF9249
:1021B000EF92FF92CF93DF93EC01688179818A815E
:1021C0009B81611571058105910521F464E279ED2A
:1021D0008BE597E02DE133EF41E050E00E948C1158
:1021E00049015A019B01AC01A7EAB1E40E94AB117D
:1021F0006B017C01ACEEB4EFA50194010E94B91112
:10220000C60ED71EE81EF91EF7FE06C081E0C81AEA
:10221000D108E10880E8F80AC882D982EA82FB8204
:10222000C701B6019F77DF91CF91FF90EF90DF90CC
:10223000CF90BF90AF909F908F9008958F929F9274
:10224000AF92BF92CF92DF92EF92FF926091CB015B
:102250007091CC018091CD019091CE0161157105F5
:102260008105910521F464E279ED8BE597E02DE19C
:1022700033EF41E050E00E948C1149015A019B016B
:10228000AC01A7EAB1E40E94AB116B017C01ACEE9A
:10229000B4EFA50194010E94B911C60ED71EE81E25
:1022A000F91EF7FE06C081E0C81AD108E10880E8EF
:1022B000F80AC092CB01D092CC01E092CD01F0920D
:1022C000CE01C701B6019F77FF90EF90DF90CF90CE
:1022D000BF90AF909F908F9008956093CB017093C3
:1022E000CC018093CD019093CE010895F999FECF52
:1022F00092BD81BDF89A992780B50895262FF99946
:10230000FECF1FBA92BD81BD20BD0FB6F894FA9AD8
:10231000F99A0FBE01960895052E97FB1EF40094BE
:102320000E94A31157FD07D00E94BE1107FC03D0E5
:102330004EF40C94A31150954095309521953F4F44
:102340004F4F5F4F089590958095709561957F4FA1
:102350008F4F9F4F08950E94E011A59F900DB49F4D
:10236000900DA49F800D911D11240895B7FF0C942A
:10237000AB110E94AB11821B930B0895A1E21A2EA0
:10238000AA1BBB1BFD010DC0AA1FBB1FEE1FFF1F19
:10239000A217B307E407F50720F0A21BB30BE40B69
:1023A000F50B661F771F881F991F1A9469F76095B0
:1023B0007095809590959B01AC01BD01CF0108956A
:1023C000A29FB001B39FC001A39F700D811D112476
:1023D000911DB29F700D811D1124911D08955058BB
:1023E000BB27AA270E9407120C9481130E94731323
:1023F00038F00E947A1320F039F49F3F19F426F444
:102400000C9470130EF4E095E7FB0C946A13E92F1B
:102410000E94921358F3BA1762077307840795074F
:1024200020F079F4A6F50C94B4130EF4E0950B2E7D
:10243000BA2FA02D0B01B90190010C01CA01A00116
:102440001124FF27591B99F0593F50F4503E68F171
:102450001A16F040A22F232F342F4427585FF3CFB2
:10246000469537952795A795F0405395C9F77EF483
:102470001F16BA0B620B730B840BBAF09150A1F0CC
:10248000FF0FBB1F661F771F881FC2F70EC0BA0F52
:10249000621F731F841F48F4879577956795B795DA
:1024A000F7959E3F08F0B0CF9395880F08F09927D5
:1024B000EE0F9795879508950E94461308F481E0E2
:1024C00008950E9475120C9481130E947A1358F09B
:1024D0000E94731340F029F45F3F29F00C946A13B3
:1024E00051110C94B5130C9470130E94921368F35D
:1024F0009923B1F3552391F3951B550BBB27AA27BD
:1025000062177307840738F09F5F5F4F220F331FF6
:10251000441FAA1FA9F335D00E2E3AF0E0E832D0BE
:1025200091505040E695001CCAF72BD0FE2F29D0C1
:10253000660F771F881FBB1F261737074807AB0793
:10254000B0E809F0BB0B802DBF01FF2793585F4F08
:102550003AF09E3F510578F00C946A130C94B51331
:102560005F3FE4F3983ED4F3869577956795B795EA
:10257000F7959F5FC9F7880F911D9695879597F9F5
:102580000895E1E0660F771F881FBB1F621773076E
:102590008407BA0720F0621B730B840BBA0BEE1F83
:1025A00088F7E09508950E94DA126894B1110C94AE
:1025B000B51308950E949A1388F09F5798F0B92F89
:1025C0009927B751B0F0E1F0660F771F881F991F68
:1025D0001AF0BA95C9F714C0B13091F00E94B41343
:1025E000B1E008950C94B413672F782F8827B85F53
:1025F00039F0B93FCCF3869577956795B395D9F7C0
:102600003EF490958095709561957F4F8F4F9F4FC9
:102610000895E89409C097FB3EF4909580957095D5
:1026200061957F4F8F4F9F4F9923A9F0F92F96E91E
:10263000BB279395F695879577956795B795F11193
:10264000F8CFFAF4BB0F11F460FF1BC06F5F7F4F30
:102650008F4F9F4F16C0882311F096E911C0772342
:1026600021F09EE8872F762F05C0662371F096E84B
:10267000862F70E060E02AF09A95660F771F881F1A
:10268000DAF7880F9695879597F90895990F0008BE
:10269000550FAA0BE0E8FEEF16161706E807F90734
:1026A000C0F012161306E407F50798F0621B730BCF
:1026B000840B950B39F40A2661F0232B242B252B50
:1026C00021F408950A2609F4A140A6958FEF811DF3
:1026D000811D089597F99F6780E870E060E0089594
:1026E0009FEF80EC089500240A941616170618062A
:1026F0000906089500240A94121613061406050606
:102700000895092E0394000C11F4882352F0BB0F96
:1027100040F4BF2B11F460FF04C06F5F7F4F8F4FF9
:102720009F4F089557FD9058440F551F59F05F3F34
:1027300071F04795880F97FB991F61F09F3F79F0E3
:1027400087950895121613061406551FF2CF469565
:10275000F1DF08C0161617061806991FF1CF8695E7
:102760007105610508940895E894BB2766277727CB
:10277000CB0197F908950E94461308F48FEF08954E
:102780000E94D3130C9481130E94731338F00E949B
:102790007A1320F0952311F00C946A130C947013A3
:1027A00011240C94B5130E94921370F3959FC1F3FA
:1027B000950F50E0551F629FF001729FBB27F00DEF
:1027C000B11D639FAA27F00DB11DAA1F649F662744
:1027D000B00DA11D661F829F2227B00DA11D621F93
:1027E000739FB00DA11D621F839FA00D611D221F4D
:1027F000749F3327A00D611D231F849F600D211D31
:10280000822F762F6A2F11249F5750409AF0F1F0B3
:1028100088234AF0EE0FFF1FBB1F661F771F881F1C
:1028200091505040A9F79E3F510580F00C946A13D7
:102830000C94B5135F3FE4F3983ED4F386957795F7
:102840006795B795F795E7959F5FC1F7FE2B880FC2
:10285000911D9695879597F908950E944613880BC8
:10286000990B089597FB072E16F4009407D077FD77
:1028700009D00E94461407FC05D03EF4909581953E
:102880009F4F0895709561957F4F0895AA1BBB1BBC
:1028900051E107C0AA1FBB1FA617B70710F0A61B60
:1028A000B70B881F991F5A95A9F780959095BC0181
:1028B000CD010895EE0FFF1F0590F491E02D0994CE
:1028C0000F931F93CF93DF938230910510F482E032
:1028D00090E0E091DE05F091DF0530E020E0B0E02F
:1028E000A0E0309799F42115310509F44AC0281B5E
:1028F000390B24303105D8F58A819B81611571052A
:1029000089F1FB0193838283FE0111C040815181D3
:102910000281138148175907E0F04817590799F4C5
:10292000109761F012960C93129713961C9332969F
:10293000CF01DF91CF911F910F9108950093DE0594
:102940001093DF05F4CF2115310551F042175307DD
:1029500038F0A901DB019A01BD01DF01F801C1CF07
:10296000EF01F9CF9093DF058093DE05CDCFFE0117
:10297000E20FF31F81939193225031093983288309
:10298000D7CF2091DC053091DD05232B41F4209138
:10299000D1013091D2013093DD052093DC052091E7
:1029A000CF013091D0012115310541F42DB73EB74B
:1029B0004091D3015091D401241B350BE091DC05EB
:1029C000F091DD05E217F307A0F42E1B3F0B28174B
:1029D000390778F0AC014E5F5F4F2417350748F098
:1029E0004E0F5F1F5093DD054093DC05819391935B
:1029F0009FCFF0E0E0E09CCFCF93DF930097E9F02A
:102A0000FC01329713821282A091DE05B091DF059E
:102A1000ED0130E020E01097A1F420813181820F98
:102A2000931F2091DC053091DD052817390709F047
:102A300061C0F093DD05E093DC05DF91CF9108954F
:102A4000EA01CE17DF07E8F54A815B819E01411557
:102A50005105B1F7E901FB83EA8349915991C40F0C
:102A6000D51FEC17FD0761F4808191810296840FD8
:102A7000951FE90199838883828193819B838A834F
:102A8000F0E0E0E012968D919C9113970097B9F5D4
:102A90002D913C911197CD010296820F931F2091A9
:102AA000DC053091DD052817390739F6309751F5E7
:102AB0001092DF051092DE05B093DD05A093DC05D2
:102AC000BCCFD383C28340815181840F951FC81727
:102AD000D90761F44E5F5F4F88819981480F591F74
:102AE000518340838A819B819383828321153105A1
:102AF00009F0B0CFF093DF05E093DE059ECFFD0136
:0E2B0000DC01C0CF13821282D7CFF894FFCF32
:102B0E0000000000E7FBA93D0C022B3E0000803EBA
:102B1E00FA7EAA3E0681D53E0000003F7D3F153F5E
:102B2E0083C02A3F0000403F7D3F553F83C06A3F30
:102B3E000000803FBE9F8A3F4260953F0000A03F4D
:102B4E00BE9FAA3F4260B53F0000C03FBE9FCA3F36
:102B5E004260D53F0000E03FBE9FEA3F4260F53F36
:102B6E0000000040DF4F054021B00A400000104039
:102B7E00DF4F154021B01A4000002040DF4F2540A6
:102B8E0021B02A4000003040DF4F354021B03A409E
:102B9E0000004040DF4F454021B04A400000504009
:102BAE00DF4F554021B05A4000006040DF4F654076
:102BBE0021B06A4000007040DF4F754021B07A406E
:102BCE0000008040FFFF0108000800010000000027
:102BDE0000E0058000320939300C18240203040588
:102BEE00060708000000002C028C01B9017902EAE8
:102BFE0001C801DC010000000082045504B1042B61
:102C0E00044E043B042C040D0A006E616E00696EC6
:102C1E0066006F766600454550524F4D20736967CA
:102C2E006E6174757265206E6F7420666F756E645A
:102C3E002E20496E697469616C697A696E672077B6
:102C4E006974682064656661756C742076616C7554
:102C5E0065732E00466C6F617420666F726D6174C1
:102C6E002064657465637465642E20436F6E7665AB
:102C7E007274696E6720746F20696E746567657211
:102C8E0020666F726D61742E00454550524F4D2077
:102C9E00557361676520496E666F726D6174696FF9
:102CAE006E3A000A546F74616C20627974657320F9
:102CBE00757365643A2000446174612073746F7299
:102CCE006564206265747765656E20616464726503
:102CDE00737365733A200020616E6420004D6F643B
:102CEE0065207265717565737465643A20004D6F69
:102CFE006465206368616E67656420746F3A2000B6
:00000001FF
