:100000000C9462000C948A000C948A000C948A0070
:100010000C948A000C948A000C948A000C948A0038
:100020000C948A000C948A000C948A000C948A0028
:100030000C948A000C948A000C948A000C948A0018
:100040000C940F080C948A000C948A000C948A007B
:100050000C948A000C948A000C948A000C948A00F8
:100060000C9459080C948A0000000000240027001A
:100070002A0000000000250028002B0000000000DE
:1000800023002600290004040404040404040202DA
:100090000202020203030303030301020408102007
:1000A0004080010204081020010204081020000012
:1000B0000008000201000003040700000000000027
:1000C0000000780911241FBECFEFD8E0DEBFCDBFFE
:1000D00011E0A0E0B1E0E8E2F3E302C005900D9288
:1000E000A23FB107D9F726E0A2EFB1E001C01D920F
:1000F000A337B207E1F710E0C2E6D0E004C02197D1
:10010000FE010E945318C136D107C9F70E948D091C
:100110000C9492190C94000008950895833081F096
:1001200028F4813099F08230A9F008958730A9F041
:100130008830C9F08430B1F4809180008F7D03C095
:10014000809180008F7780938000089584B58F77A9
:1001500084BD089584B58F7DFBCF8091B0008F77EB
:100160008093B00008958091B0008F7DF9CFCF9338
:10017000DF93282F30E0F901E255FF4F8491F90118
:10018000E656FF4FD491F901EA57FF4FC491CC23B3
:10019000A1F081110E948E00EC2FF0E0EE0FFF1F06
:1001A000E458FF4FA591B491EC91ED2381E090E0EC
:1001B00009F480E0DF91CF91089580E090E0FACFDC
:1001C0001F93CF93DF93282F30E0F901E255FF4FC3
:1001D0008491F901E656FF4FD491F901EA57FF4F98
:1001E000C491CC23A9F0162F81110E948E00EC2F10
:1001F000F0E0EE0FFF1FEE58FF4FA591B4918FB7BF
:10020000F894EC91111108C0D095DE23DC938FBFD8
:10021000DF91CF911F910895DE2BF8CFCF93DF931D
:1002200090E0FC01E656FF4F24918A579F4FFC0156
:1002300084918823C9F090E0880F991FFC01E85948
:10024000FF4FA591B491FC01EE58FF4FC591D49199
:1002500061110DC09FB7F8948C91209582238C93E7
:100260008881282328839FBFDF91CF910895623032
:1002700051F49FB7F8943C91822F809583238C93FF
:10028000E8812E2BEFCF8FB7F894EC912E2B2C9387
:100290008FBFEACF8E3008F08E50877080648093D5
:1002A0007C0080917A00806480937A0080917A004B
:1002B00086FDFCCF809178009091790008953FB73A
:1002C000F8948091070690910806A0910906B091D4
:1002D0000A0626B5A89B05C02F3F19F00196A11D5F
:1002E000B11D3FBFBA2FA92F982F8827BC01CD0180
:1002F000620F711D811D911D42E0660F771F881FDF
:10030000991F4A95D1F7089520913A02260F332775
:10031000331F21323105ECF420913706FC0190E0C7
:1003200080E0243069F082E00895A0913A022191A2
:10033000AC01465E5D4FA40FB52FB11D2C93019605
:10034000861798F380913A02680F60933A0280E032
:10035000089581E008951092370681E08093360673
:100360001092110661E082E10E94E00061E083E109
:100370000E94E000E9EBF0E080818E7F8083808145
:100380008D7F808388E48093B80085E48093BC00EF
:1003900008951092100610920F0610923E061092C9
:1003A00060060E94AB018CE890E090930E0680936B
:1003B0000D068DE890E090930C0680930B0608954F
:1003C000CF93DF9391E0909319028823B9F0C09105
:1003D000B800D091BA008091BC008A7B8093BC00A9
:1003E00060E082E10E94E00060E083E10E94E000C2
:1003F0000E94AB01D093BA00C093B800DF91CF91B7
:1004000008958F929F92AF92BF92CF92DF92EF9218
:10041000FF920F931F93CF93DF93D0916006D13259
:1004200008F0D7C0182FC0915F060E945F016B01D2
:100430007C018091370681116BC082E08093370682
:10044000109336068FEF8093350610923406D093C2
:100450003306AFE3B6E0E3E1F6E080E0D81391C005
:100460001092120680911206CC0FC82BC093120670
:1004700080911106813009F088C0109211060E9407
:100480005F016B017C01809112068093BB0080911B
:10049000390690913A06A0913B06B0913C06892B13
:1004A0008A2B8B2BA1F00E945F01009139061091DD
:1004B0003A0620913B0630913C066C197D098E0965
:1004C0009F09061717072807390708F442C08091CB
:1004D000BC0083FDD8CF85EC8093BC000E945F01F7
:1004E0006B017C0180913706823009F450C0809105
:1004F00035068F3F09F46FC080913506803209F4CC
:100500006CC080913506803309F469C084E026C050
:100510008091390690913A06A0913B06B0913C0635
:10052000892B8A2B8B2B09F484CF0E945F0180904A
:10053000390690903A06A0903B06B0903C066C19A4
:100540007D098E099F0986169706A806B90608F048
:1005500070CF809138060E94E00185E010923E063F
:100560001092600610923D06DF91CF911F910F917E
:10057000FF90EF90DF90CF90BF90AF909F908F90C3
:1005800008959D9191938F5F69CF85EEA5CF80915E
:10059000390690913A06A0913B06B0913C06892B12
:1005A0008A2B8B2B09F49ECF0E945F0100913906A4
:1005B00010913A0620913B0630913C066C197D095A
:1005C0008E099F09061717072807390708F08ACFF1
:1005D000C0CF81E0C3CF80E0C1CF82E0BFCF83E056
:1005E000BDCFCF93DF93EC018B818823A1F088816D
:1005F00091E090933D0680935F0610923E06109224
:10060000600681E00E94010291E0811190E0892F53
:10061000DF91CF9108950E94C90181E08B83CE01C3
:100620000E94F102982F8111E2CFF1CF0895E0915D
:10063000100680910F06E81730F4F0E0E750FE4F07
:10064000808190E008958FEF9FEF089590911006BC
:1006500080910F062FEF3FEF981748F4E92FF0E055
:10066000E750FE4F208130E09F5F90931006C90154
:10067000089580910F0690911006891B990B08959B
:10068000CF92DF92EF92FF920F931F93CF93DF935E
:100690007C01CB018A0120913D06222389F0EB01E8
:1006A0006B01C40ED51ECC15DD0569F06991D7012B
:1006B000ED91FC910190F081E02DC7010995F3CFF8
:1006C000642F0E948401C801DF91CF911F910F9187
:1006D000FF90EF90DF90CF900895CF93DF931F921C
:1006E000CDB7DEB7698320913D062223F9F0209132
:1006F0006006203258F021E030E0FC013383228391
:1007000090E080E00F90DF91CF91089580913E06B8
:10071000E82FF0E0E15CF94F998190838F5F80933F
:100720003E068093600681E090E0ECCF61E0CE0170
:1007300001960E948401F7CF90E080E008954091F7
:100740008103509182036CE0649F9001659F300D9E
:1007500011244091830350918403240F351F820F8D
:10076000931F8133910514F00C97FBCF97FF02C0C4
:100770000C96FCCF089586309105D1F034F4813089
:100780009105F9F0039739F008958830910599F0B3
:100790000A97A1F0089581E090E06623A9F0909374
:1007A000980580939705109264031092630308954F
:1007B00082E090E0F2CF83E090E0EFCF84E090E041
:1007C000ECCF90E080E0E9CF9093F3018093F201C9
:1007D00081E08093F4010895CF93DF9300D01F92BE
:1007E000CDB7DEB71092B9002CE02093B80020E41A
:1007F00029839C0194E0369527959A95E1F72A8301
:100800008295807F8B83E0916D06F0916E068481E6
:100810009581039738F480E00F900F900F90DF914F
:10082000CF91089581819281208131E030933D06FE
:1008300020935F0610923E0610926006DC01ED9157
:10084000FC910280F381E02D43E050E0BE016F5F38
:100850007F4F09950397F9F681E00E94010281110B
:10086000DACF1092B90088E48093B80081E0D4CF49
:10087000CF92DF92EF92FF92C12CD12C760181337F
:10088000910558F4880F991F880F991FFC01E958AA
:10089000FD4FC080D180E280F380C092F505D092F8
:1008A000F605E092F705F092F80520E030E0A901A6
:1008B0006091FD057091FE058091FF059091000605
:1008C0000E940C16811119C0C092F905D092FA0548
:1008D000E092FB05F092FC052FE338EA4FE454E484
:1008E000C701B6010E94D2170E948316CB01FF9068
:1008F000EF90DF90CF900C94EC03FF90EF90DF909F
:10090000CF900895CF92DF92EF92FF928091F40101
:10091000882381F08091630390916403892B51F4C3
:100920008091F2019091F30190939805809397053F
:100930001092F401E091EA05F091EB05EE0FFF1F34
:10094000E252FA4F608171816115710571F08091F9
:100950009705909198058230910509F453C040F4B1
:10096000009711F1019709F444C030E020E028C05D
:100970008330910509F46AC00497B9F76B01770FCA
:10098000EE08FF08C114D104E104F10439F00E941B
:10099000CE14A70196010E943C156B019601D092DE
:1009A0006403C09263030CC020916303309164031D
:1009B000C90101960E943F189093640380936303DA
:1009C000E091EA05F091EB0585E0EE0FFF1F8A95B7
:1009D000E1F7E20FF31FEE0FFF1FEB53FC4F808197
:1009E00091810E949F03FF90EF90DF90CF900C9435
:1009F00038042091630330916403C9010197860F85
:100A0000971FD8CF20916303309164038091000138
:100A1000882371F0C9010196909364038093630366
:100A200061507109861797075CF210920001C8CFD8
:100A3000C901019790936403809363031816190604
:100A40000CF4BECF81E080930001BACF072E000CDA
:100A5000880B990B0E94BB166B017C012AE737E3D8
:100A60004EE15FE30E94D2172091F5013091F6012B
:100A70004091F7015091F8010E94A015A70196013D
:100A80000E9401176093F5017093F6018093F701BE
:100A90009093F8010E9483169B0170936403609306
:100AA00063038ECF0F931F93CF93DF938C01EB01E2
:100AB0000E9426158883C80101960E942615898305
:100AC000CE01DF91CF911F910F9108956F927F9288
:100AD0008F929F92AF92BF92CF92DF92EF92FF924E
:100AE0000F931F93CF93DF9300D000D000D0CDB7EA
:100AF000DEB7BE016B5F7F4F86E990E00E94520532
:100B00008D819E8189339043E9F01092DF05109228
:100B1000DE051092E1051092E0051092E3051092B7
:100B2000E2051092E5051092E4051092E705109297
:100B3000E6051092E9051092E8051092DC05109286
:100B4000DB050AC1FEEDEF2EF5E0FF2EB12CA12C46
:100B500088E990E010E000E06C01E2E0CE0ED11CEC
:100B6000F1E0CF16F4E0DF0608F046C0B7010E94BE
:100B70005205C601F701208131812032310514F080
:100B800020E230E0F70131832083D12CC12CF70122
:100B900020813181C216D30614F54C01F2E08F0E8C
:100BA000911C9C01285C31092230310510F4C401EC
:100BB000F4CF21E0821624E0920670F4B6016A0DAB
:100BC0007B1D660F771F6B537C4F0E945205C4013B
:100BD000EFEFCE1ADE0ADBCFF701D182C0820F5FC2
:100BE0001F4FF2E0EF0EF11C20E2A20EB11C063006
:100BF000110509F0B1CF07C0000F111FF801E25233
:100C0000FA4F118210828C010E5F1F4F0130E4E019
:100C10001E0708F092CFBE016D5F7F4F0E94520504
:100C2000C801EB80FC80F0E1EF16F1041CF060E1FC
:100C3000E62EF12CF092DC05E092DB059701220F05
:100C4000331F20323105C9F435E8832E33E0932E6B
:100C500049E9642E45E0742ED12CC12CCE14DF045A
:100C60000CF07AC08C010E5F1F4F9C01285C31098B
:100C700022303105C8F4C801F5CFF901E754FA4F25
:100C800011821082F901EB55FC4F11821082F9019B
:100C9000E756FA4F11821082F901EB57FC4F11828F
:100CA00010822E5F3F4FCDCF013024E0120708F0B5
:100CB0004FC05601AA0CBB1CB50167547A4F0E9465
:100CC0005205C8010E5F1F4F9C01285C310922307C
:100CD0003105B8F30130E4E01E07D0F5B5016B55DE
:100CE0007C4F0E945205C8010E5F1F4F9C01285C7B
:100CF000310922303105B8F3013024E0120740F504
:100D0000BE016F5F7F4F0E94520589819A81F30176
:100D1000819391933F01C8015C01F2E0AF0EB11CD9
:100D20009C01285C31092230310510F4C501F4CF53
:100D300021E0A21624E0B20658F4B4010E94520544
:100D4000C501EFEFCE1ADE0AF2E08F0E911C86CFBE
:100D5000D092DC05C092DB0526960FB6F894DEBF74
:100D60000FBECDBFDF91CF911F910F91FF90EF90FC
:100D7000DF90CF90BF90AF909F908F907F906F90BB
:100D80000895FF920F931F93CF93DF93EC018B0194
:100D9000FB01F0800E942615F81621F06F2DCE0180
:100DA0000E942E15F801F1802196CE010E94261591
:100DB000F81621F06F2DCE010E942E15C801DF918B
:100DC000CF911F910F91FF9008952F923F924F92D4
:100DD0005F926F927F928F929F92AF92BF92CF92CB
:100DE000DF92EF92FF920F931F93CF93DF9300D088
:100DF00000D0CDB7DEB762ED71E086E990E00E94E9
:100E0000C1065EEDE52E55E0F52ED12CC12C08E98A
:100E100010E0F701808191810196880F991F800F62
:100E2000911F811594400CF0ABC0B701C8010E941E
:100E3000C1060E5F1F4FB12CA12CF701808191815B
:100E4000A816B906FCF44801F2E08F0E911CC80107
:100E5000885C9109029710F48401F5CF811424E095
:100E6000920608F08DC0B5016C0D7D1D660F771FD1
:100E70006B537C4FC8010E94C10684013FEFA31A47
:100E8000B30ADBCF82E0E80EF11CE0E2CE0ED11C0B
:100E9000F0ECCF16D10409F0BCCF8091DB05909126
:100EA000DC058031910514F080E190E09C838B8318
:100EB00023E0880F991F2A95E1F70296800F911F72
:100EC000811594400CF05CC0BE016D5F7F4FC8017E
:100ED0000E94C106C801029610E000E0D12CC12C8E
:100EE0002B813C81C216D3060CF04AC0F801EB55A9
:100EF000FC4F4F01980127543A4F3901F801EB5745
:100F0000FC4F2F01F12CE12C980127563A4F190183
:100F10005C0132E0A30EB11C9C01285C3109223037
:100F2000310510F4C501F4CFA114E4E0BE0640F58C
:100F3000F2E0EF16F104D9F0B20123E0E216F10479
:100F400031F0B30131E0E316F10409F4B4010E9479
:100F5000C106C501FFEFEF1AFF0A24E0E216F10413
:100F6000B9F63FEFC31AD30A0E5F1F4FB9CFF10195
:100F7000208131813A832983BE016F5F7F4FE7CFA4
:100F80000F900F900F900F90DF91CF911F910F91C5
:100F9000FF90EF90DF90CF90BF90AF909F908F9099
:100FA0007F906F905F904F903F902F90089585EDC8
:100FB0008093BC008091390690913A06A0913B063F
:100FC000B0913C060796A11DB11D23E0B695A795EB
:100FD000979587952A95D1F72091BC0024FD03C0F1
:100FE0001092370608954091390650913A06609163
:100FF0003B0670913C06452B462B472B69F3009727
:10100000A105B10541F02AE22A95F1F700C0019748
:10101000A109B109E1CF809138060C94E0011F923B
:101020000F920FB60F9211242F933F938F939F939C
:10103000AF93BF938091030690910406A09105069B
:10104000B09106063091020623E0230F2D3758F5A4
:101050000196A11DB11D2093020680930306909373
:101060000406A0930506B0930606809107069091AA
:101070000806A0910906B0910A060196A11DB11DAE
:101080008093070690930806A0930906B0930A067A
:10109000BF91AF919F918F913F912F910F900FBE74
:1010A0000F901F90189526E8230F0296A11DB11DE1
:1010B000D2CF1F920F920FB60F9211242F933F930E
:1010C0004F935F936F937F938F939F93AF93BF9350
:1010D000EF93FF938091B900887F803609F44AC06E
:1010E000F0F5883209F4A7C018F5803109F49BC0E7
:1010F000B8F4882309F4F9C0883009F494C0FF914A
:10110000EF91BF91AF919F918F917F916F915F917F
:101110004F913F912F910F900FBE0F901F901895F8
:10112000883109F488C0803251F78093350614C0A5
:10113000803409F49DC040F48033B9F38833F9F664
:101140008093350685ECB0C0803509F485C08835BC
:1011500009F496C0883499F60E94D707D0CF883911
:1011600009F48CC038F5883729F050F4883611F02E
:10117000803729F683E08093370610925C0257C0CF
:10118000883809F47BC0803919F0803809F0B7CF6E
:1011900080915C02803208F071C0E0915C0281E0D5
:1011A0008E0F80935C028091BB00F0E0E45CFD4F09
:1011B00080833DC0803B39F0E0F4803A09F479C087
:1011C000883A09F09CCF84E08093370610923B0266
:1011D00010923A02E0910D06F0910E060995809169
:1011E0003A0281110FC081E080933A0210921A02F4
:1011F00009C0803C09F4A6CF883C09F4A3CF883B02
:1012000009F07DCFE0913B0281E08E0F80933B029D
:10121000F0E0E65EFD4F80818093BB0090913B0241
:1012200080913A0229C0809112068093BB0085EC20
:101230008093BC0064CF9091340680913306981758
:1012400058F5E091340681E08E0F80933406F0E08B
:10125000ED5EF94F8081E9CFE091340681E08E0F99
:10126000809334068091BB00F0E0ED5EF94F8083FF
:1012700090913406809133069817C8F285E8D8CF4C
:10128000E091340681E08E0F809334068091BB009C
:10129000F0E0ED5EF94F80838091360681115CCFDE
:1012A00081E08093110684EA8093BC001092370697
:1012B00026CF85EC8093BC001092370680915C02AB
:1012C000803230F4E0915C02F0E0E45CFD4F10828B
:1012D00060915C0270E0E0910B06F0910C068CE3EB
:1012E00092E0099510925C020ACF1092350634CF35
:1012F000E1E6F6E01382128288EE93E0A0E0B0E02F
:1013000084839583A683B78383EE91E09183808362
:1013100010926E0610926D060895CF93DF93CDB7AD
:10132000DEB7CE54D1090FB6F894DEBF0FBECDBFE5
:10133000789484B5826084BD84B5816084BD85B5B0
:10134000826085BD85B5816085BD80916E008160BC
:1013500080936E0010928100809181008260809362
:101360008100809181008160809381008091800064
:101370008160809380008091B10084608093B1008F
:101380008091B00081608093B00080917A00846089
:1013900080937A0080917A00826080937A008091B5
:1013A0007A00816080937A0080917A0080688093CF
:1013B0007A001092C1000E94C90180916D0690913F
:1013C0006E06009711F00E94091986E090E00E94D5
:1013D0006D188C0180E6D8018C9381E696E0129618
:1013E0009C938E93119713961C92139780E290E032
:1013F00015969C938E93149710936E0600936D062A
:101400000E94C90181E0F8018383C8010E94F102B2
:101410007BEDA72E71E0B72E08ED11E0EFED8E2EDB
:10142000E1E09E2E62E0D8018D918D010E940E01B7
:101430006BEDE62E61E0F62EF701D1907F0161E0C1
:101440008D2D0E940E0161E08D2D0E94E0008E1412
:101450009F0491F7A016B10629F760E08BE00E9487
:101460000E0162E08CE00E940E0162E089E00E94C1
:101470000E0162E08AE00E940E0161E08DE00E94B0
:101480000E01E5EAF3E0A9E9B5E0119211921D928F
:101490001D9203E0E53CF007C1F767E875E085E4DD
:1014A00095E027E935E0FB0141E04193DC011D9225
:1014B0001D921D921D92CD012E173F07B1F781E0BD
:1014C000DB018D93BD01AE17BF07D1F7E5E8F3E06F
:1014D00085EA93E0119211928E179F07D9F789E060
:1014E0000E94B700892B71F48AE00E94B700892B13
:1014F00049F481E0809301068093450361E08BE02D
:101500000E94E000BE016D5B7F4F90E080E00E9492
:10151000520525968EAD9FAD25978933904391F165
:1015200066ED71E090E080E00E94C10658E0E52E93
:10153000F12C870104501109F701E750FF4F6F01AB
:10154000D601BD906D01C8010E942615B81621F084
:101550006B2DC8010E942E150F5F1F4F0E151F0522
:1015600079F77801B4E0EB0EF11CECECEE16F10427
:1015700001F71A821982BE016F5F7F4F88EC90E0FD
:101580000E94C106BE016F5B7F4F88EC90E00E9415
:10159000520523968EAD9FAD23978233994009F46F
:1015A00040C037E7E32E32E0F32E04E010E044E0E1
:1015B000642E712C980129583D4F5901670148014B
:1015C0008E189F08C4018C0D9D1D0E942615D60102
:1015D0008D936D01AA16BB06A9F7F7016191719170
:1015E000819191917F0120E030E04AE754E40E942C
:1015F000D2170E9483167A836983BE016F5F7F4F83
:10160000C3010E94C106F2E06F0E711C0C5F1F4FF8
:10161000083C110579F664ED71E088EC90E00E94D9
:10162000C10627E7E22E22E0F22E04E010E0BE0120
:101630006F5F7F4FC8010E94520569817A81072E32
:10164000000C880B990B0E94BB1620E030E04AE7A3
:1016500054E40E941116D7016D937D938D939D9351
:101660007D010E5F1F4F0636110509F70E946605C2
:101670008FB7F894409003065090040660900506DA
:10168000709006068FBF80910106882309F42FC24F
:101690008FB7F894C0900306D0900406E09005063A
:1016A000F09006068FBF89E00E94B700892B09F0F1
:1016B00072C18AE00E94B700892B09F06CC1809149
:1016C000470390914803A0914903B0914A039701C1
:1016D0008601081B190B2A0B3B0BD901C801813D60
:1016E0009740A105B10508F061C189E00E94B700EB
:1016F000892B71F58AE00E94B700892B49F180910E
:10170000410390914203A0914303B0914403A70188
:101710009601281B390B4A0B5B0BDA01C901893C86
:101720009105A105B105A0F080913F039091400380
:10173000843091052CF401969093400380933F03ED
:10174000C0924103D0924203E0924303F0924403DB
:101750008AE00E94B700892B31F489E00E94B7002B
:10176000892B09F03BC110923B0310923C0310926D
:101770003D0310923E03BFE5AB2EB2E0BB2E1BED46
:10178000212E11E0312E10E000E080E3682E712C54
:10179000F10141901F0160E0842D0E94E00065018D
:1017A000A8ED8A2EA1E09A2EF12CE12CD4018D9186
:1017B0004D010E94B70055245394009709F0512C15
:1017C000892B09F047C0F60180819181892B09F0AE
:1017D00041C020913F0330914003C701880F991FFA
:1017E000880F991F800F911FFCE0F29FA001F39FCB
:1017F000500D1124840F951F90935E0280935D021B
:101800002430310551F4E114F10439F401151105C6
:1018100021F470925E0260925D0280915D0290916F
:101820005E0281339105B0F4880F991F880F991FCC
:10183000FC01E958FD4F2FE338EA4FE454E460819E
:101840007181828193810E94D2170E948316CB01FD
:101850000E94EC03852D90E0D6018D939C93BFEF01
:10186000EB1AFB0AE8E0CE0ED11CF3E0EF16F10410
:1018700009F09CCF61E0842D0E94E0000F5F1F4FB4
:1018800022E0A20EB11C0430110509F081CF8CE0DA
:101890000E94B700892B09F076C0E0905D02F090BD
:1018A0005E023FEFE316F30609F46DC08701000FF7
:1018B000111F000F111FF801EF5FFE4F8080918014
:1018C000A280B3808EE00E944A01BC01990F880B70
:1018D000990B0E94BB1620E030EC4FE754E40E94C5
:1018E000111620E030E040E85EE30E94D21720E0CD
:1018F00030E040E05EE30E949F15A50194010E9444
:10190000A0154B015C01E114F10409F0DCC020E0FA
:1019100030E0A9010E94CD1718161CF0812C912CE3
:101920005401F801E958FD4F80829182A282B3826E
:101930002FE338EA4FE454E4C501B4010E94D21702
:101940000E948316CB010E94EC0320E030E04AE7BE
:1019500054E4C501B4010E94D2170E9483167A8311
:10196000698380915D0290915E020296BE016F5F75
:101970007F4F880F991F0E94C1068FEF9FEF9093B2
:101980005E0280935D0280E090E0892B09F470CEC6
:101990000E9400006DCEC0924703D0924803E092AF
:1019A0004903F0924A03109246039FCE809146036A
:1019B00081119BCE6091450381E0682760934503C8
:1019C000809346038BE00E94E000C0924703D092D0
:1019D0004803E0924903F0924A0387CE8091410385
:1019E00090914203A0914303B0914403B701A60133
:1019F000481B590B6A0B7B0BDB01CA01893C910523
:101A0000A105B105A0F080913F0390914003181605
:101A100019062CF401979093400380933F03C092E2
:101A20004103D0924203E0924303F0924403809139
:101A30003B0390913C03A0913D03B0913E0300977E
:101A4000A105B10549F4C0923B03D0923C03E0925A
:101A50003D03F0923E038FCEC81AD90AEA0AFB0A68
:101A600051E4C5165FE1D506E104F10408F483CE24
:101A700084ECE1E0F1E0A7E7B2E001900D928A95F5
:101A8000E1F791E0E92E91E0F92E04E010E0D701B2
:101A90006D917D918D919D917D0120E030E04AE72F
:101AA00054E40E94D2170E9483167A836983BE0190
:101AB0006F5F7F4FC8010E94C1060E5F1F4F063641
:101AC000110529F750CE40E3E416F10409F029CFBF
:101AD00020E030E040E850E40E940C1687FD21CF62
:101AE000812C912C60E8A62E60E4B62E1ACF8CE0F3
:101AF0000E94B7009C0161E0892B09F060E09091A1
:101B0000C501232B09F0FDC591115CC080914F03E5
:101B1000882309F440C180914B0390914C03A0911C
:101B20004D03B0914E0393018201081B190B2A0B40
:101B30003B0BD901C8018C329140A105B10508F0D9
:101B40002AC18091DD05882309F41CC180916103BD
:101B500090916203803191059CF59C01220F331F07
:101B6000F901E754FA4F4091EA055091EB05518392
:101B70004083F901EB55FC4F40918303509184035E
:101B800051834083F901E756FA4F409197055091F0
:101B90009805518340832B573C4F409181035091CE
:101BA0008203D9014D935C930196909362038093D5
:101BB00061039093DC058093DB0581E08093500303
:101BC00010924F036093C50189E00E94B7007C0129
:101BD00001E026960FAF2697892B19F026961FAEA7
:101BE00026978AE00E94B7008C0121E02A962FAF49
:101BF0002A97892B19F02A961FAE2A978CE00E940B
:101C0000B700E0915A03E114F10409F094C5E11121
:101C100008C0409256035092570360925803709246
:101C200059038090560390905703A0905803B090AA
:101C30005903A3019201281939094A095B0949018D
:101C40005A013CE2831631E09306A104B10418F076
:101C500021E020936003209155030115110509F03F
:101C60007DC5211108C040925103509252036092E9
:101C70005303709254038090510390905203A090AC
:101C80005303B0905403B301A201481959096A09DA
:101C90007B094A015B015CE2851651E09506A104CF
:101CA000B10418F031E030935F03892B09F068C567
:101CB0008091710390917203A0917303B0917403AA
:101CC000B301A201481B590B6A0B7B0BDB01CA0154
:101CD000C397A105B10508F453C5EF2809F0DCC08E
:101CE000E111DAC080915E03811104C08091DD05AD
:101CF000882371F080915B03811104C080915003AF
:101D0000882331F00E94E50610925B031092500385
:101D100080915E03811104C08091DD05882371F0FC
:101D200080915B03811104C080915003882331F0BE
:101D30000E94E50610925B031092500381E08093AD
:101D4000EF0510925E03109264031092630380917A
:101D5000EA059091EB05069721F08091DD05882337
:101D600071F066E070E07093EB056093EA05109205
:101D7000DA051092D9051092860510928505109209
:101D8000DD05FEC48091EF05882309F41BCF81E0B7
:101D90008093F00517CF40924B0350924C03609212
:101DA0004D0370924E0381E080934F030BCF8090E0
:101DB000710390907203A0907303B0907403B30109
:101DC000A201481959096A097B094A015B0153E3D9
:101DD00085169104A104B10408F4B7C4009709F46E
:101DE000B4C42091EF05222379F020918103309132
:101DF0008203233031050CF0A8C42F5F3F4F30938E
:101E0000820320938103A1C420915C0330915D0380
:101E1000233031050CF099C42F5F3F4F30935D03A1
:101E200020935C0392C440917103509172036091BE
:101E300073037091740393018201041B150B260B2D
:101E4000370BB901A801433351056105710508F449
:101E50008FC4892B09F48CC48091EF05882371F01D
:101E60008091810390918203181619060CF080C4AA
:101E7000019790938203809381037AC480915C03DD
:101E800090915D03181619060CF072C40197909397
:101E90005D0380935C036CC40115110509F070C4E7
:101EA00021116EC48091DD0590915E039111E5C40E
:101EB000882341F10E94660586E090E09093EB054F
:101EC0008093EA0510925B031092500381E08093A7
:101ED000EF0510925E0353CFC4014C01B2E08B0EAC
:101EE000911C9C01285C310922303105A8F3B60110
:101EF0000E945205EFEFAE1ABE0AF2E0CF0ED11CDF
:101F0000C401D8C421E020935E031092EF058091B4
:101F1000EA059091EB0586309105A9F42093DD0543
:101F200010926203109261031092EB051092EA0581
:101F3000109264031092630310928403109283033F
:101F40002093EF051DC4880F991FFC01E252FA4F40
:101F500011821082109264031092630311C4ECE0AA
:101F6000CE16D104E8F4F601E854F04F0C9453185F
:101F7000C40FD00F7410D00F7B108210D00F8910B7
:101F8000D00F9010D00F97101092EB051092EA0529
:101F90008091EF05811106C18091DD05811102C19B
:101FA00021E02796EEADFFAD279720834092710385
:101FB000509272036092730370927403F7019082DF
:101FC000F4E0EF0EF11C24E0C20ED11C2C143D04F1
:101FD00009F008C461E0882D0E94E0000F5F1F4FE8
:101FE0000430110509F0E2C38BE00E94B7007724AA
:101FF0007394009709F4712C892B09F4CDC1809159
:10200000EE058111C9C18091EC059091ED05019615
:102010009093ED058093EC052091C6013091C701A6
:10202000821793070CF4B8C11092ED051092EC05DD
:102030008091EF05882309F4B5C28091EA0590915B
:10204000EB058630910509F09FC24091DB05509168
:10205000DC05CA010197409708F09EC1E090D905C0
:10206000F090DA0530E1E316F1041CF0AFE0EA2E5F
:10207000F12CF092DA05E092D905C701880F991F7B
:10208000FC01E754FA4FC080D18066E0C616D10447
:1020900008F06CC24601880C991CF401E252FA4F18
:1020A00000811181101611060CF060C287569A4FFC
:1020B000DC01AD90BC90B0929805A0929705B2E07B
:1020C000AB16B10409F4FDC008F0E8C0F1E0AF16AA
:1020D000B10409F416C28091850590918605B80176
:1020E0000E943F18BC0103C121E030E03093EB05B2
:1020F0002093EA054DCF42E050E05093EB0540932A
:10210000EA0546CF63E070E07093EB056093EA0563
:102110003FCF84E090E09093EB058093EA0538CFC1
:10212000A5E0B0E0B093EB05A093EA0531CF809134
:10213000DD058823E1F18091610390916203181617
:1021400019060CF02DCF01979093620380936103E1
:102150009093DC058093DB05880F991FFC01E75401
:10216000FA4F208131813093EB052093EA05FC0181
:10217000EB55FC4F208131813093840320938303FE
:10218000FC01E756FA4F2081318130939805209366
:1021900097058B579C4FFC0180819181909382031E
:1021A000809381031092640310926303F9CE26E0BA
:1021B00030E03093EB052093EA058091EF0588230A
:1021C00009F4EECE1092DA051092D9051092860528
:1021D00010928505E5CE2091600360E0211149C38E
:1021E00020915F03211144C32091DD05222339F0A2
:1021F00037E0C316D1040CF446C00C9744C02091BC
:102200005C0330915D034CE0429FC001439F900D01
:1022100011248C0D9D1D20915E03222341F1E0913C
:10222000EA05F091EB05AF01440F551FDA01A25208
:10223000BA4F2D913C911197203231050CF0B0CE60
:1022400045E0EE0FFF1F4A95E1F7E20FF31FEE0F97
:10225000FF1FEB53FC4F918380832F5F3F4F2D93E4
:102260003C93B1E0B0935B030E94380499CE209177
:10227000EF052223C9F36CE070E00E943F1887301D
:1022800091050CF0BACF909384038093830388CE9A
:102290002796AEADBFAD27971C9288CE23E0A2163D
:1022A000B10409F438C134E0A316B10409F013CF26
:1022B0000E94CE149801110F440B550B0E943C153F
:1022C00016C06091850570918605D701A957BA4F50
:1022D0008C91882309F4F5C06017710744F01C92B3
:1022E000B801615071091092860510928505F601BA
:1022F00055E0EE0FFF1F5A95E1F7E60FF71FEE0FBF
:10230000FF1FEB53FC4F808191812091D9053091C3
:10231000DA0520313105A4F4220F331FF901EB5700
:10232000FC4F408151812B553C4FF9012081318177
:10233000309384032093830350938203409381035B
:102340000E949F030E943804809185059091860524
:1023500001969093860580938505F2E0AF16B1044F
:10236000D9F0F401E252FA4F2081318182179307AC
:102370009CF010928605109285058091D905909168
:10238000DA0501966091DB057091DC050E943F182B
:102390009093DA058093D9057092EE058EE00E9445
:1023A0004A012091F005222309F41CC12091EF0578
:1023B000222309F417C1843001E090070CF0FEC01D
:1023C00081E090E09093C7018093C6016091FD0584
:1023D0007091FE058091FF059091000629966CAFE3
:1023E0007DAF8EAF9FAF299720E030E0A9010E941A
:1023F000CD1718160CF0C7CA4090F9055090FA0591
:102400006090FB057090FC05C090F505D090F60536
:10241000E090F705F090F805A7019601C301B2011D
:102420000E940C16882309F4AECA0E945F012D9603
:102430006CAF7DAF8EAF9FAF2D978091F1059091DE
:10244000F205A091F305B091F4052D960CAD1DADEC
:102450002EAD3FAD2D97081B190B2A0B3B0BD90155
:10246000C801843F9140A105B10508F48CCAA301BD
:102470009201C701B6010E949F154B015C0120E04B
:1024800030E0A9010E94CD1718160CF000C12FE60C
:1024900032E143E85AE3C501B4010E94CD17181692
:1024A0000CF4FFC0C092F905D092FA05E092FB054A
:1024B000F092FC052FE338EA4FE454E4C701B6017B
:1024C0000AC1601771073CF401501109A801461BAD
:1024D000570BBA010CCF21E02C9310928605109275
:1024E0008505C7010196BA010E943F189093DA054D
:1024F0008093D90589579A4FDC012C9370E060E0F6
:10250000F6CEB8016150710940918505509186055C
:10251000641B750BECCEB801110F880B990B0E9450
:10252000BB161B012C018701000F111F000F111F8B
:102530000B5B1A4F2AE737E34EE15FE3C201B101BB
:102540000E94D217F80120813181428153810E947B
:10255000A015A20191010E940117D8016D937D93EE
:102560008D939C9313970E948316C1CEC701019649
:10257000BA010E943F189093DA058093D905109212
:1025800086051092850508CF880F991FFC01E2523D
:10259000FA4F80819181181619060CF0FDCE0E9429
:1025A0008204FACE8091DD05882309F4F5CEE0910E
:1025B000EA05F091EB05EE0FFF1FE9CF823112E043
:1025C00091071CF482E090E0FDCE803293403CF411
:1025D00044E050E05093C7014093C601F7CE88E035
:1025E00090E0F0CE803191054CF41092FD051092F0
:1025F000FE051092FF0510920006E8CE9C01813284
:10260000934014F020E233E0032E000C440B550BF2
:102610002C5F334041095109A4E6B0E00E945B15EC
:1026200024E13CEF4FEF5FEF0E943C15CA01B90176
:102630000E94BB1620E030EC4FE754E40E941116D4
:102640006B017C0120E030E0A9010E940C1687FD9F
:102650001AC02DEC3CEC4CEC5DE3C701B6010E94C6
:10266000CD1718163CF48DECC82E8CECD82EED2C22
:102670008DE3F82EC092FD05D092FE05E092FF0595
:10268000F0920006A3CEC12CD12C7601F3CF2FE619
:1026900032E143E85AEBC501B4010E940C1687FFF2
:1026A00001CFA501940129966CAD7DAD8EAD9FAD96
:1026B00029970E94D217A30192010E94A01560934E
:1026C000F9057093FA058093FB059093FC052FE3C1
:1026D00038EA4FE454E40E94D2170E948316CB01DB
:1026E0000E94EC032D962CAD3DAD4EAD5FAD2D9708
:1026F0002093F1053093F2054093F3055093F405D0
:1027000042C991111092F00580914B0390914C03B6
:10271000A0914D03B0914E0393018201081B190B48
:102720002A0B3B0BD901C8018D329140A105B1059F
:1027300008F046CA47CAEE2309F48DCA2091600307
:10274000222309F434CB109260034092710350921B
:10275000720360927303709274037DCA222309F49A
:10276000A4CA20915F03222309F45DCB10925F037A
:1027700040927103509272036092730370927403DB
:1027800026960FAD269700935A032A961FAD2A97D7
:10279000109355038CE00E94B7005C010BED11E033
:1027A0002F961FAF0EAF2F9710E000E02F96AEAD23
:1027B000BFAD2F978D902F96BFAFAEAF2F9760E034
:1027C000882D0E94E0006801F801EB58FC4F7F0162
:1027D0001801FCE02F0E311C28ED31E02B963FAFA5
:1027E0002EAF2B972B96AEADBFAD2B978D912B9621
:1027F000BFAFAEAF2B970E94B700BC019924939452
:10280000892B09F0912CF7012081921609F4D6CB7F
:1028100020917103309172034091730350917403BE
:10282000D301C201821B930BA40BB50BC397A10567
:10283000B10508F4C3CBD601AB59BC4F2796BFAF47
:10284000AEAF2797672B09F023CD8C918111AECBCA
:10285000C601A114B10409F0BECC8D7F8130910571
:1028600039F0B6E0CB16D10419F0089709F077CB10
:1028700061E0C6010E94BB0393CB81111BCBE090AA
:10288000EA05F090EB0582E48E9D60018F9DD00CEF
:102890001124BE016F5B7F4FC60188569F4F0E9477
:1028A0005205C60186569F4FDE0111961D016D012E
:1028B000B12CA12C23962EAD3FAD2397A216B306C3
:1028C0000CF40BCBF701EE0FFF1FE252FA4F3183EE
:1028D000208386E0EE0CFF1C8A95E1F702171307B0
:1028E0000CF0F0CAD1018D919D911D01F801EE0F00
:1028F000FF1FEE0DFF1DEB53FC4F918380830F5F95
:102900001F4FECCF8F929F92AF92BF92CF92DF92E8
:10291000EF92FF92CF93DF93EC01688179818A81F6
:102920009B81611571058105910521F464E279EDC2
:102930008BE597E02DE133EF41E050E00E943C153C
:1029400049015A019B01AC01A7EAB1E40E945B1561
:102950006B017C01ACEEB4EFA50194010E946915F6
:10296000C60ED71EE81EF91EF7FE06C081E0C81A83
:10297000D108E10880E8F80AC882D982EA82FB829D
:10298000C701B6019F77DF91CF91FF90EF90DF9065
:10299000CF90BF90AF909F908F9008958F929F920D
:1029A000AF92BF92CF92DF92EF92FF926091C801F7
:1029B0007091C9018091CA019091CB016115710597
:1029C0008105910521F464E279ED8BE597E02DE135
:1029D00033EF41E050E00E943C1549015A019B0150
:1029E000AC01A7EAB1E40E945B156B017C01ACEE7F
:1029F000B4EFA50194010E946915C60ED71EE81E0A
:102A0000F91EF7FE06C081E0C81AD108E10880E887
:102A1000F80AC092C801D092C901E092CA01F092AE
:102A2000CB01C701B6019F77FF90EF90DF90CF9069
:102A3000BF90AF909F908F9008956093C80170935E
:102A4000C9018093CA019093CB010895F999FECFF3
:102A500092BD81BDF89A992780B50895262FF999DE
:102A6000FECF1FBA92BD81BD20BD0FB6F894FA9A71
:102A7000F99A0FBE01960895052E97FB1EF4009457
:102A80000E94531557FD07D00E946E1507FC03D016
:102A90004EF40C94531550954095309521953F4F29
:102AA0004F4F5F4F089590958095709561957F4F3A
:102AB0008F4F9F4F08950E949015A59F900DB49F32
:102AC000900DA49F800D911D11240895B7FF0C94C3
:102AD0005B150E945B15821B930B0895A1E21A2ED1
:102AE000AA1BBB1BFD010DC0AA1FBB1FEE1FFF1FB2
:102AF000A217B307E407F50720F0A21BB30BE40B02
:102B0000F50B661F771F881F991F1A9469F7609548
:102B10007095809590959B01AC01BD01CF01089502
:102B2000A29FB001B39FC001A39F700D811D11240E
:102B3000911DB29F700D811D1124911D0895505853
:102B4000BB27AA270E94B7150C9493170E948517DC
:102B500038F00E948C1720F039F49F3F19F426F4C6
:102B60000C9482170EF4E095E7FB0C946E17E92F96
:102B70000E94A41758F3BA176207730784079507D2
:102B800020F079F4A6F50C94C6170EF4E0950B2E00
:102B9000BA2FA02D0B01B90190010C01CA01A001AF
:102BA0001124FF27591B99F0593F50F4503E68F10A
:102BB0001A16F040A22F232F342F4427585FF3CF4B
:102BC000469537952795A795F0405395C9F77EF41C
:102BD0001F16BA0B620B730B840BBAF09150A1F065
:102BE000FF0FBB1F661F771F881FC2F70EC0BA0FEB
:102BF000621F731F841F48F4879577956795B79573
:102C0000F7959E3F08F0B0CF9395880F08F099276D
:102C1000EE0F9795879508950E944A1708F481E072
:102C200008950E9425160C9493170E948C1758F053
:102C30000E94851740F029F45F3F29F00C946E172D
:102C400051110C94C7170C9482170E94A41768F3B3
:102C50009923B1F3552391F3951B550BBB27AA2755
:102C600062177307840738F09F5F5F4F220F331F8F
:102C7000441FAA1FA9F335D00E2E3AF0E0E832D057
:102C800091505040E695001CCAF72BD0FE2F29D05A
:102C9000660F771F881FBB1F261737074807AB072C
:102CA000B0E809F0BB0B802DBF01FF2793585F4FA1
:102CB0003AF09E3F510578F00C946E170C94C717AC
:102CC0005F3FE4F3983ED4F3869577956795B79583
:102CD000F7959F5FC9F7880F911D9695879597F98E
:102CE0000895E1E0660F771F881FBB1F6217730707
:102CF0008407BA0720F0621B730B840BBA0BEE1F1C
:102D000088F7E09508950E948A166894B1110C9492
:102D1000C71708950E94AC1788F09F5798F0B92FF5
:102D20009927B751B0F0E1F0660F771F881F991F00
:102D30001AF0BA95C9F714C0B13091F00E94C617C5
:102D4000B1E008950C94C617672F782F8827B85FD5
:102D500039F0B93FCCF3869577956795B395D9F758
:102D60003EF490958095709561957F4F8F4F9F4F62
:102D70000895E89409C097FB3EF49095809570956E
:102D800061957F4F8F4F9F4F9923A9F0F92F96E9B7
:102D9000BB279395F695879577956795B795F1112C
:102DA000F8CFFAF4BB0F11F460FF1BC06F5F7F4FC9
:102DB0008F4F9F4F16C0882311F096E911C07723DB
:102DC00021F09EE8872F762F05C0662371F096E8E4
:102DD000862F70E060E02AF09A95660F771F881FB3
:102DE000DAF7880F9695879597F908950E948517C9
:102DF00020F019F00E948C1750F40C9482170C9458
:102E0000C717E92F0E94A41788F35523B1F3E7FBF6
:102E10006217730784079507A8F189F3E92FFF2745
:102E200088232AF03197660F771F881FDAF7952FCE
:102E30005527442332F091505040220F331F441F36
:102E4000D2F7BB27E91BF50B621B730B840BB1098F
:102E5000B1F222F4620F731F841FB11D31972AF063
:102E6000660F771F881FBB1FEFCF9150504062F055
:102E700041F0882332F0660F771F881F9150504031
:102E8000C1F793950C9474178695779567959F5F16
:102E9000D9F7F7CF990F0008550FAA0BE0E8FEEF1E
:102EA00016161706E807F907C0F012161306E4070E
:102EB000F50798F0621B730B840B950B39F40A2607
:102EC00061F0232B242B252B21F408950A2609F4E5
:102ED000A140A6958FEF811D811D089597F99F67E9
:102EE00080E870E060E008959F3F31F0915020F459
:102EF000879577956795B795880F911D96958795D6
:102F000097F908959FEF80EC089500240A9416160F
:102F1000170618060906089500240A9412161306C7
:102F2000140605060895092E0394000C11F4882355
:102F300052F0BB0F40F4BF2B11F460FF04C06F5F71
:102F40007F4F8F4F9F4F089557FD9058440F551F47
:102F500059F05F3F71F04795880F97FB991F61F01B
:102F60009F3F79F087950895121613061406551F92
:102F7000F2CF4695F1DF08C0161617061806991FFE
:102F8000F1CF86957105610508940895E894BB27F3
:102F900066277727CB0197F908950E944A1708F40E
:102FA0008FEF08950E94E5170C9493170E948517E0
:102FB00038F00E948C1720F0952311F00C946E17B6
:102FC0000C94821711240C94C7170E94A41770F355
:102FD000959FC1F3950F50E0551F629FF001729FBE
:102FE000BB27F00DB11D639FAA27F00DB11DAA1FCD
:102FF000649F6627B00DA11D661F829F2227B00D1A
:10300000A11D621F739FB00DA11D621F839FA00DA4
:10301000611D221F749F3327A00D611D231F849FF4
:10302000600D211D822F762F6A2F11249F5750404B
:103030009AF0F1F088234AF0EE0FFF1FBB1F661FC6
:10304000771F881F91505040A9F79E3F510580F08F
:103050000C946E170C94C7175F3FE4F3983ED4F3BB
:10306000869577956795B795F795E7959F5FC1F733
:10307000FE2B880F911D9695879597F9089597FBDC
:10308000072E16F4009407D077FD09D00E94591836
:1030900007FC05D03EF4909581959F4F089570955B
:1030A00061957F4F0895EE0FFF1F0590F491E02D7D
:1030B0000994AA1BBB1B51E107C0AA1FBB1FA6177F
:1030C000B70710F0A61BB70B881F991F5A95A9F7D1
:1030D00080959095BC01CD0108950F931F93CF93D8
:1030E000DF938230910510F482E090E0E091710668
:1030F000F091720630E020E0B0E0A0E0309799F463
:103100002115310509F44AC0281B390B243031053B
:10311000D8F58A819B816115710589F1FB01938343
:103120008283FE0111C040815181028113814817C1
:103130005907E0F04817590799F4109761F0129673
:103140000C93129713961C933296CF01DF91CF9177
:103150001F910F9108950093710610937206F4CF9A
:103160002115310551F04217530738F0A901DB0151
:103170009A01BD01DF01F801C1CFEF01F9CF9093B2
:10318000720680937106CDCFFE01E20FF31F81938B
:1031900091932250310939832883D7CF20916F062C
:1031A00030917006232B41F42091CE013091CF0154
:1031B0003093700620936F062091CC013091CD01A1
:1031C0002115310541F42DB73EB74091D001509102
:1031D000D101241B350BE0916F06F0917006E217C8
:1031E000F307A0F42E1B3F0B2817390778F0AC012A
:1031F0004E5F5F4F2417350748F04E0F5F1F509307
:10320000700640936F06819391939FCFF0E0E0E0CA
:103210009CCFCF93DF930097E9F0FC0132971382A4
:103220001282A0917106B0917206ED0130E020E0AB
:103230001097A1F420813181820F931F20916F0696
:10324000309170062817390709F061C0F0937006B5
:10325000E0936F06DF91CF910895EA01CE17DF0763
:10326000E8F54A815B819E0141155105B1F7E901FD
:10327000FB83EA8349915991C40FD51FEC17FD07D1
:1032800061F4808191810296840F951FE9019983F1
:103290008883828193819B838A83F0E0E0E01296A9
:1032A0008D919C9113970097B9F52D913C911197B1
:1032B000CD010296820F931F20916F063091700608
:1032C0002817390739F6309751F510927206109287
:1032D0007106B0937006A0936F06BCCFD383C283F0
:1032E00040815181840F951FC817D90761F44E5F43
:1032F0005F4F88819981480F591F518340838A818C
:103300009B81938382832115310509F0B0CFF0931F
:103310007206E09371069ECFFD01DC01C0CF1382DF
:083320001282D7CFF894FFCF11
:103328000100000000E7FBA93D0C022B3E000080D5
:103338003EFA7EAA3E0681D53E0000003F7D3F153D
:103348003F83C02A3F0000403F7D3F553F83C06A0E
:103358003F0000803FBE9F8A3F4260953F0000A02B
:103368003FBE9FAA3F4260B53F0000C03FBE9FCA14
:103378003F4260D53F0000E03FBE9FEA3F4260F514
:103388003F00000040DF4F054021B00A4000001018
:1033980040DF4F154021B01A4000002040DF4F2584
:1033A8004021B02A4000003040DF4F354021B03A7C
:1033B8004000004040DF4F454021B04A40000050E7
:1033C80040DF4F554021B05A4000006040DF4F6554
:1033D8004021B06A4000007040DF4F754021B07A4C
:1033E8004000008040010100010000000000730659
:1033F8008000393032093930020304050607080015
:103408000000006D0340039C0316033903260317CD
:023418000300AF
:00000001FF
