:100000000C9462000C948A000C948A000C948A0070
:100010000C948A000C948A000C948A000C948A0038
:100020000C948A000C948A000C948A000C948A0028
:100030000C948A000C948A000C948A000C948A0018
:100040000C94DA050C948A000C948A000C948A00B3
:100050000C948A000C948A000C948A000C948A00F8
:100060000C9424060C948A00000000002400270051
:100070002A0000000000250028002B0000000000DE
:1000800023002600290004040404040404040202DA
:100090000202020203030303030301020408102007
:1000A0004080010204081020010204081020000012
:1000B0000008000201000003040700000000000027
:1000C0000000430711241FBECFEFD8E0DEBFCDBF35
:1000D00012E0A0E0B1E0E4E7F4E302C005900D9285
:1000E000A430B107D9F724E0A4E0B2E001C01D922A
:1000F000AD38B207E1F710E0C2E6D0E004C02197C6
:10010000FE010E94F918C136D107C9F70E945807AD
:100110000C94381A0C94000008950895833081F0EF
:1001200028F4813099F08230A9F008958730A9F041
:100130008830C9F08430B1F4809180008F7D03C095
:10014000809180008F7780938000089584B58F77A9
:1001500084BD089584B58F7DFBCF8091B0008F77EB
:100160008093B00008958091B0008F7DF9CFCF9338
:10017000DF93282F30E0F901E255FF4F8491F90118
:10018000E656FF4FD491F901EA57FF4FC491CC23B3
:10019000A1F081110E948E00EC2FF0E0EE0FFF1F06
:1001A000E458FF4FA591B491EC91ED2381E090E0EC
:1001B00009F480E0DF91CF91089580E090E0FACFDC
:1001C0001F93CF93DF93282F30E0F901E255FF4FC3
:1001D0008491F901E656FF4FD491F901EA57FF4F98
:1001E000C491CC23A9F0162F81110E948E00EC2F10
:1001F000F0E0EE0FFF1FEE58FF4FA591B4918FB7BF
:10020000F894EC91111108C0D095DE23DC938FBFD8
:10021000DF91CF911F910895DE2BF8CFCF93DF931D
:1002200090E0FC01E656FF4F24918A579F4FFC0156
:1002300084918823C9F090E0880F991FFC01E85948
:10024000FF4FA591B491FC01EE58FF4FC591D49199
:1002500061110DC09FB7F8948C91209582238C93E7
:100260008881282328839FBFDF91CF910895623032
:1002700051F49FB7F8943C91822F809583238C93FF
:10028000E8812E2BEFCF8FB7F894EC912E2B2C9387
:100290008FBFEACF8E3008F08E50877080648093D5
:1002A0007C0080917A00806480937A0080917A004B
:1002B00086FDFCCF809178009091790008953FB73A
:1002C000F8948091210490912204A0912304B0918C
:1002D000240426B5A89B05C02F3F19F00196A11D47
:1002E000B11D3FBFBA2FA92F982F8827BC01CD0180
:1002F000620F711D811D911D42E0660F771F881FDF
:10030000991F4A95D1F708958F929F92AF92BF920D
:10031000CF92DF92EF92FF924B015C010E945F014E
:100320006B017C010E945F016C197D098E099F0998
:10033000683E734081059105A8F321E0821A910877
:10034000A108B10888EEC80E83E0D81EE11CF11C9C
:1003500081149104A104B10429F7FF90EF90DF907C
:10036000CF90BF90AF909F908F9008952FB7F89443
:1003700060911D0470911E0480911F0490912004CF
:100380002FBF089520914502260F3327331F2132B6
:100390003105ECF420915104FC0190E080E0243020
:1003A00069F082E00895A09145022191AC014B5D76
:1003B0005D4FA40FB52FB11D2C930196861798F3AE
:1003C00080914502680F6093450280E0089581E0C6
:1003D00008951092510481E08093500410922B04F0
:1003E00061E082E10E94E00061E083E10E94E000C0
:1003F000E9EBF0E080818E7F808380818D7F808338
:1004000088E48093B80085E48093BC00089510923E
:100410002A04109229041092580410927A040E941F
:10042000E9018CE890E090932804809327048DE8FC
:1004300090E090932604809325040895CF93DF9352
:1004400091E0909324028823B9F0C091B800D09134
:10045000BA008091BC008A7B8093BC0060E082E19E
:100460000E94E00060E083E10E94E0000E94E90158
:10047000D093BA00C093B800DF91CF9108958F92C6
:100480009F92AF92BF92CF92DF92EF92FF920F9323
:100490001F93CF93DF93D0917A04D13208F0D7C065
:1004A000182FC09179040E945F016B017C0180913B
:1004B000510481116BC082E0809351041093500469
:1004C0008FEF80934F0410924E04D0934D04A9E512
:1004D000B4E0EDE2F4E080E0D81391C010922C0477
:1004E00080912C04CC0FC82BC0932C0480912B043A
:1004F000813009F088C010922B040E945F016B01CB
:100500007C0180912C048093BB00809153049091D6
:100510005404A0915504B0915604892B8A2B8B2B3F
:10052000A1F00E945F0100915304109154042091A6
:100530005504309156046C197D098E099F090617E0
:1005400017072807390708F442C08091BC0083FDD3
:10055000D8CF85EC8093BC000E945F016B017C01C9
:1005600080915104823009F450C080914F048F3F34
:1005700009F46FC080914F04803209F46CC08091FF
:100580004F04803309F469C084E026C0809153048D
:1005900090915404A0915504B0915604892B8A2B54
:1005A0008B2B09F484CF0E945F01809053049090BC
:1005B0005404A0905504B09056046C197D098E091E
:1005C0009F0986169706A806B90608F070CF809195
:1005D00052040E941E0285E01092580410927A0480
:1005E00010925704DF91CF911F910F91FF90EF90E0
:1005F000DF90CF90BF90AF909F908F9008959D9186
:1006000091938F5F69CF85EEA5CF80915304909130
:100610005404A0915504B0915604892B8A2B8B2B3E
:1006200009F49ECF0E945F0100915304109154047D
:1006300020915504309156046C197D098E099F094B
:10064000061717072807390708F08ACFC0CF81E0BF
:10065000C3CF80E0C1CF82E0BFCF83E0BDCF08959C
:10066000E0912A0480912904E81730F4F0E0EC5F6F
:10067000FD4F808190E008958FEF9FEF0895909156
:100680002A04809129042FEF3FEF981748F4E92FAF
:10069000F0E0EC5FFD4F208130E09F5F90932A04F3
:1006A000C90108958091290490912A04891B990B0E
:1006B0000895CF92DF92EF92FF920F931F93CF9303
:1006C000DF937C01CB018A0120915704222389F01A
:1006D000EB016B01C40ED51ECC15DD0569F06991E7
:1006E000D701ED91FC910190F081E02DC7010995B2
:1006F000F3CF642F0E94C201C801DF91CF911F91F7
:100700000F91FF90EF90DF90CF900895CF93DF93FC
:100710001F92CDB7DEB76983209157042223F9F0E9
:1007200020917A04203258F021E030E0FC0133833C
:10073000228390E080E00F90DF91CF910895809127
:100740005804E82FF0E0E75AFB4F998190838F5FC0
:100750008093580480937A0481E090E0ECCF61E0CC
:10076000CE0101960E94C201F7CF90E080E008958B
:10077000CF93DF93EC018B818823A1F0888191E0F6
:1007800090935704809379041092580410927A043D
:1007900081E00E943F0291E0811190E0892FDF917A
:1007A000CF9108950E94070281E08B83CE010E94C1
:1007B000B803982F8111E2CFF1CF8F929F92AF9221
:1007C000BF92CF92DF92EF92FF92CF93DF93E090B0
:1007D000C401F090C501682F70E08091B903909139
:1007E000BA031816190694F1072E000C880B990B02
:1007F0000E94C31720E030E04FE753E40E9419172E
:100800004B015C01B701FF0C880B990B0E94C317C9
:100810009B01AC01C501B4010E9478186B017C01F9
:1008200020E030E040E850E40E94731818160CF401
:100830006BC0C701B601DF91CF91FF90EF90DF90C1
:10084000CF90BF90AF909F908F9008952CE02E9DF9
:10085000C0012F9D900D1124869F9001879F300D20
:10086000969F300D1124C90164EF7BE00E94E518CA
:100870006B01C9016FEF70E00E94E518CB016CE0DD
:1008800070E00E94E518FC019C01245F3F4F7C0151
:10089000CCE0D0E0C701BE010E94E518DC01A55400
:1008A000BC4F4C91411113C0C901BE010E94E51813
:1008B000DC01A554BC4F4C91411109C08FEFE81ADF
:1008C000F80A215031092E173F0721F7C9014CE0E2
:1008D0004C9D90014D9D300D1124820F931F97FF69
:1008E00002C090E080E08133910514F080E390E055
:1008F000880F991F880F991FFC01E955FD4FC08093
:10090000D180E280F38095CFC12CD12C80E8E82EF5
:1009100080E4F82E8ECF9C012856310981E02E30DC
:10092000310508F080E00895CF93DF9300D01F9247
:10093000CDB7DEB71092B9002CE02093B80020E4C8
:1009400029839C0194E0369527959A95E1F72A83AF
:100950008295807F8B83E0918704F0918804848165
:100960009581039738F480E00F900F900F90DF91FE
:10097000CF91089581819281208131E03093570495
:10098000209379041092580410927A04DC01ED91BE
:10099000FC910280F381E02D43E050E0BE016F5FE7
:1009A0007F4F09950397F9F681E00E943F0281117C
:1009B000DACF1092B90088E48093B80081E0D4CFF8
:1009C000CF92DF92EF92FF920F931F93CF93DF931B
:1009D0008C017B010E948B04882351F068018FEF0A
:1009E000C81AD80AC6010E948B04C82F811110C0F2
:1009F0008FEF9FEFF70191838083C0E08C2FDF9111
:100A0000CF911F910F91FF90EF90DF90CF900895BD
:100A1000C8010E942E16D82FC6010E942E16982FAC
:100A20008D2FF70191838083E9CF0F931F93CF938D
:100A3000DF938C01EB010E942E168883C80101967A
:100A40000E942E168983CE01DF91CF911F910F91C5
:100A5000089585ED8093BC008091530490915404D7
:100A6000A0915504B09156040796A11DB11D23E035
:100A7000B695A795979587952A95D1F72091BC00B3
:100A800024FD03C0109251040895409153045091E5
:100A900054046091550470915604452B462B472B06
:100AA00069F30097A105B10541F02AE22A95F1F713
:100AB00000C00197A109B109E1CF809152040C94C3
:100AC0001E02FF920F931F93CF93DF93EC01F62E3C
:100AD00008811981C8010E942E16F81621F06F2D89
:100AE000C8010E943616CE01DF91CF911F910F9160
:100AF000FF900895BF92CF92DF92EF92FF920F93F3
:100B00001F93CF93DF9300D0CDB7DEB77C01B62E15
:100B1000072F0E948B04182F8823C1F067018FEFE5
:100B2000C81AD80AC6010E948B04182F882371F0B6
:100B3000FA82E9826B2DCE0101960E946105DA826C
:100B4000C982602FCE0101960E946105812F0F900E
:100B50000F90DF91CF911F910F91FF90EF90DF9059
:100B6000CF90BF900895EF92FF920F931F93CF9372
:100B7000DF9300D0CDB7DEB78C017B019A838983E8
:100B8000FB016081CE0101960E9461050F5F1F4F3E
:100B90001A830983F7016181CE0101960E946105E4
:100BA000C7010F900F90DF91CF911F910F91FF9090
:100BB000EF9008951F920F920FB60F9211242F936A
:100BC0003F938F939F93AF93BF9380911D04909118
:100BD0001E04A0911F04B091200430911C0423E056
:100BE000230F2D3758F50196A11DB11D20931C042C
:100BF00080931D0490931E04A0931F04B0932004BF
:100C00008091210490912204A0912304B0912404A6
:100C10000196A11DB11D8093210490932204A093FD
:100C20002304B0932404BF91AF919F918F913F9182
:100C30002F910F900FBE0F901F90189526E8230F4D
:100C40000296A11DB11DD2CF1F920F920FB60F9227
:100C500011242F933F934F935F936F937F938F93C1
:100C60009F93AF93BF93EF93FF938091B900887FD9
:100C7000803609F44AC0F0F5883209F4A7C018F5A7
:100C8000803109F49BC0B8F4882309F4F9C0883096
:100C900009F494C0FF91EF91BF91AF919F918F9113
:100CA0007F916F915F914F913F912F910F900FBE68
:100CB0000F901F901895883109F488C0803251F741
:100CC00080934F0414C0803409F49DC040F48033F5
:100CD000B9F38833F9F680934F0485ECB0C08035C2
:100CE00009F485C0883509F496C0883499F60E94C5
:100CF0002905D0CF883909F48CC038F5883729F018
:100D000050F4883611F0803729F683E0809351043F
:100D10001092670257C0883809F47BC0803919F0F7
:100D2000803809F0B7CF80916702803208F071C037
:100D3000E091670281E08E0F809367028091BB0093
:100D4000F0E0E95BFD4F80833DC0803B39F0E0F48B
:100D5000803A09F479C0883A09F09CCF84E0809306
:100D600051041092460210924502E0912704F0913E
:100D7000280409958091450281110FC081E080937C
:100D800045021092250209C0803C09F4A6CF883C98
:100D900009F4A3CF883B09F07DCFE091460281E0C2
:100DA0008E0F80934602F0E0EB5DFD4F80818093D3
:100DB000BB00909146028091450229C080912C048D
:100DC0008093BB0085EC8093BC0064CF90914E046F
:100DD00080914D04981758F5E0914E0481E08E0FF4
:100DE00080934E04F0E0E35DFB4F8081E9CFE0911A
:100DF0004E0481E08E0F80934E048091BB00F0E0A2
:100E0000E35DFB4F808390914E0480914D049817D1
:100E1000C8F285E8D8CFE0914E0481E08E0F809330
:100E20004E048091BB00F0E0E35DFB4F8083809136
:100E3000500481115CCF81E080932B0484EA80937D
:100E4000BC001092510426CF85EC8093BC00109218
:100E5000510480916702803230F4E0916702F0E043
:100E6000E95BFD4F10826091670270E0E09125041C
:100E7000F091260487E492E00995109267020ACF68
:100E800010924F0434CFEBE7F4E01382128288EE25
:100E900093E0A0E0B0E084839583A683B78386EFD8
:100EA00091E09183808310928804109287040895C2
:100EB000CF93DF93CDB7DEB769970FB6F894DEBF57
:100EC0000FBECDBF789484B5826084BD84B5816047
:100ED00084BD85B5826085BD85B5816085BD809105
:100EE0006E00816080936E0010928100809181007D
:100EF0008260809381008091810081608093810075
:100F0000809180008160809380008091B100846036
:100F10008093B1008091B00081608093B000809197
:100F20007A00846080937A0080917A008260809356
:100F30007A0080917A00816080937A0080917A00B3
:100F4000806880937A001092C1000E94070280910D
:100F5000870490918804009711F00E94AF1986E0F1
:100F600090E00E9413198C0180E6D8018C938BE7E6
:100F700094E012969C938E93119713961C9213975C
:100F800080E290E015969C938E93149710938804BA
:100F9000009387040E94070281E0F8018383C8015F
:100FA0000E94B8030FEC13E02FEFE22E23E0F22EA5
:100FB0002BEE31E03F8B2E8B62E0AE89BF898D91A5
:100FC000BF8BAE8B0E940E0168015701EEEEF1E07F
:100FD000FD8BEC8BAC89BD899D90BD8BAC8B61E0AA
:100FE000892D0E940E0161E0892D0E94E000F5012B
:100FF00011925F01D6011D921D921D921D926D01ED
:10100000EC89FD89E25FF14029F734E0E30EF11C41
:10101000005F1F4F4E895F894E5E514069F662E066
:1010200089E00E940E0162E08AE00E940E0160E009
:101030008BE00E940E0162E08CE00E940E0160E0F5
:101040008EE00E940E0161E08DE00E940E0160E0E2
:101050008BE00E94E0000E94B6014B015C010E94FF
:10106000B601681979098A099B09603D77408105B5
:101070009105D0F489E00E94B7007C018AE00E94CB
:10108000B7008C018CE00E94B700EF2811F00C949F
:101090007515012B11F00C94791581E080931B04D8
:1010A00061E08BE00E94E000BE016B5F7F4F90E04B
:1010B00080E00E9415058D819E8189339043A1F1C6
:1010C0006CED71E090E080E00E94B30590E0E92EC5
:1010D00091E0F92E04E010E0F801E050FF4F5F01CD
:1010E000670148018E189F08C4018C0D9D1D9A83CD
:1010F0008983D6016D916D01CE0101960E94610533
:10110000CA14DB0489F7B4E0EB0EF11C0C5F1F4F2F
:10111000083C110509F71A821982BE016F5F7F4FE3
:1011200088EC90E00E94B305BE016D5F7F4F88ECB4
:1011300090E00E9415058B819C818233994009F4CF
:1011400040C017EAE12E12E0F12E04E010E084E046
:10115000682E712C980129553D4F590167014801AE
:101160008E189F08C4018C0D9D1D0E942E16D6015D
:101170008D936D01AA15BB05A9F7F70161917191D6
:10118000819191917F0120E030E04AE754E40E9490
:1011900078180E948B177A836983BE016F5F7F4F37
:1011A000C3010E94B305F2E06F0E711C0C5F1F4F6C
:1011B000083C110579F66AED71E088EC90E00E9438
:1011C000B305B7EAEB2EB2E0FB2E04E010E0BE015F
:1011D0006F5F7F4FC8010E94150569817A81072ED4
:1011E000000C880B990B0E94C31720E030E04AE7FF
:1011F00054E40E941917D7016D937D938D939D93AD
:101200007D010E5F1F4F0636110509F7812C912CC9
:101210005401D12CC12C8FE00E944A017C0180E155
:101220000E944A018C010E945F019601285F3F4F96
:1012300002C0000F111F2A95E2F7012E000C220BAD
:10124000330B0C2C02C0EE0CFF1C0A94E2F72701B2
:10125000FF0C66087708DC01CB0184259525A625BF
:10126000B725082719272A273B2780269126A2265B
:10127000B32661E070E080E090E00E948401BFEF5F
:10128000CB1ADB0AE8E0CE16D10429F610E000E024
:10129000C8010E942E1690E09801220F331F02C051
:1012A000880F991F2A95E2F76C01990FEE08FF0845
:1012B000C701B601682579258A259B250F5F1F4F39
:1012C0000830110509F00CC2C814D904EA04FB0463
:1012D00011F00E9425160E94D61520E030E041E072
:1012E00050E00E9444167093170460931604672B15
:1012F00031F48AE59AE590931704809316040BEB7A
:1013000013E01B8B0A8BAA89BB891D92BB8BAA8B0E
:10131000A75CB340C1F71092BA031092B903BE01A3
:101320006F5F7F4F88E690E00E94E0048823C9F059
:1013300089819A81853A954AA1F065EA75EA88E63D
:1013400090E00E947A05882361F00AE610E070E0E0
:1013500060E0C8010E947A050E5F1F4F0637110535
:10136000B1F70E94B6016B017C0180911B048823B8
:1013700009F463C20E94B6016B017C0189E00E94FE
:10138000B700892B09F0AFC18AE00E94B700892B12
:1013900009F0A9C180918D0290918E02A0918F02D7
:1013A000B091900216012701281A390A4A0A5B0AED
:1013B000D201C101813D9740A105B10508F09EC150
:1013C00089E00E94B700892B71F58AE00E94B7007E
:1013D000892B49F18091880290918902A0918A021B
:1013E000B0918B02A7019601281B390B4A0B5B0BAE
:1013F000DA01C901893C9105A105B105A0F08091F0
:10140000860290918702843091052CF40196909386
:10141000870280938602C0928802D0928902E0926D
:101420008A02F0928B028AE00E94B700892B31F485
:1014300089E00E94B700892B09F076C110928202E0
:101440001092830210928402109285026AE6A62E00
:1014500062E0B62E7EEE272E71E0372E10E000E01F
:10146000E0E36E2E712CF10141901F0160E0842DAC
:101470000E94E00065015BEE852E51E0952EF12C77
:10148000E12CD4018D914D010E94B7005524539455
:10149000009709F0512C892B09F047C0F601808193
:1014A0009181892B09F041C02091860230918702F9
:1014B000C701880F991F880F991F800F911FFCE0AB
:1014C000F29FA001F39F500D1124840F951F90935C
:1014D0006902809368022430310551F4E114F1046B
:1014E00039F40115110521F47092690260926802C5
:1014F000809168029091690281339105B0F4880F60
:10150000991F880F991FFC01E955FD4F2FE338EA19
:101510004FE454E460817181828193810E94781844
:101520000E948B17CB010E949404852D90E0D60178
:101530008D939C93BFEFEB1AFB0AE8E0CE0ED11C13
:10154000F3E0EF16F10409F09CCF61E0842D0E94D6
:10155000E0000F5F1F4F22E0A20EB11C0430110506
:1015600009F081CF8CE00E94B700892B09F076C08A
:10157000E0906802F09069023FEFE316F30609F489
:101580006DC08701000F111F000F111FF801E050FF
:10159000FF4F80809180A280B3808EE00E944A013C
:1015A000BC01990F880B990B0E94C31720E030EC07
:1015B0004FE754E40E94191720E030E040E85EE372
:1015C0000E94781820E030E040E05EE30E94A71619
:1015D000A50194010E94A8164B015C01E114F104DD
:1015E00009F017C120E030E0A9010E947318181615
:1015F0001CF0812C912C5401F801E955FD4F80829B
:101600009182A282B3822FE338EA4FE454E4C50109
:10161000B4010E9478180E948B17CB010E94940499
:1016200020E030E04AE754E4C501B4010E94781894
:101630000E948B177A836983809168029091690276
:101640000296BE016F5F7F4F880F991F0E94B305FE
:101650008FEF9FEF909369028093680280E090E0A3
:10166000892B09F47ECE0E9400007BCE012B11F461
:101670000C94791581E080931A0461E08BE00E945C
:101680000E0160E08BE00E94E0008BE693E04BE906
:1016900053E06BE973E0FC0130E020E0119211921D
:1016A00011921192DA01A20FB31F1C922F5F3F4FCC
:1016B0002430310599F740964C5F5F4F68177907E2
:1016C00051F710929602109297021092980210927F
:1016D000990210929A021092A70310929502E4CCFC
:1016E0004B015C01D5CDC0928D02D0928E02E0926A
:1016F0008F02F092900210928C0262CE80918C0246
:1017000081115ECE10921B0481E080938C0260E018
:101710008BE00E94E000C0928D02D0928E02E09297
:101720008F02F09290024CCE8091880290918902B3
:10173000A0918A02B0918B0216012701281A390A5A
:101740004A0A5B0AD201C101893C9105A105B10594
:10175000A0F08091860290918702181619062CF449
:1017600001979093870280938602C0928802D0925C
:101770008902E0928A02F0928B028091820290911B
:101780008302A0918402B09185020097A105B10562
:1017900049F4C0928202D0928302E0928402F092D5
:1017A000850254CEC81AD90AEA0AFB0A01E4C01617
:1017B0000FE1D006E104F10408F448CE84ECE0E047
:1017C000F1E0A7EAB2E001900D928A95E1F7F0E02E
:1017D000EF2EF1E0FF2E04E010E0D7016D917D9136
:1017E0008D919D917D0120E030E04AE754E40E9414
:1017F00078180E948B177A836983BE016F5F7F4FD1
:10180000C8010E94B3050E5F1F4F0636110529F768
:1018100015CE40E3E416F10409F0EECE20E030E00E
:1018200040E850E40E94141787FDE6CE812C912CED
:10183000F0E8AF2EF0E4BF2EDFCE70901A047720D0
:1018400009F4C6C21092A70389E00E94B7008C0178
:10185000BB24B394892B09F0B12C8AE00E94B70015
:1018600041E0009709F040E0012B71F52091B003B1
:1018700021112AC00091AB031091AC032091AD035C
:101880003091AE0316012701201A310A420A530A89
:10189000920181010333110521053105A8F0209142
:1018A000C4013091C5012430310534F42F5F3F4F1E
:1018B0003093C5012093C401C092AB03D092AC0316
:1018C000E092AD03F092AE03892B61F58091AF03F6
:1018D000811128C08091AB039091AC03A091AD031E
:1018E000B091AE0326013701481A590A6A0A7B0AE9
:1018F000D301C201C397A105B105A0F08091C40135
:101900009091C501823091052CF001979093C5010B
:101910008093C401C092AB03D092AC03E092AD03BC
:10192000F092AE03B092B0034093AF035BE6A52EF6
:1019300053E0B52E6BE9862E63E0962E0EEE11E095
:10194000188B0F87AF85B8892D90B88BAF87298A00
:1019500060E0822D0E94E000350184012BEE31E031
:1019600038872F83AF81B8858D91B887AF830E9468
:10197000B700B1E0BB87009709F01B86F801208112
:101980002B84221609F46DC0D3014D915D916D91A8
:101990007C9116012701241A350A460A570AB2011A
:1019A000A1014A3151056105710508F45AC0892B1E
:1019B00009F04EC02091C4013091C5012150310978
:1019C0004CE0342E329EC001339E900D11249801BC
:1019D0002B593340820F931F8133910514F080E31C
:1019E00090E0880F991F880F991FFC01E955FD4F62
:1019F00020803180428053802092A3023092A40242
:101A00004092A5025092A60220E030E0A901609128
:101A10009F027091A0028091A1029091A2020E9467
:101A20001417811115C020929B0230929C024092A3
:101A30009D0250929E022FE338EA4FE454E4C20123
:101A4000B1010E9478180E948B17CB010E94940468
:101A50002B84D8012C92D301CD92DD92ED92FC9291
:101A60001397F8018081882319F0F1E0F093A70320
:101A70000C5F1F4F20E1620E711C2E883F884F8043
:101A800058842414350409F06DCF61E089890E94DF
:101A9000E0000FEF801A900A14E0A10EB11C2C8810
:101AA0003D884F8458882414350409F04BCF8CE0CE
:101AB0000E94B70011E0009709F010E020919A020F
:101AC000121709F46AC040919602509197026091F2
:101AD00098027091990236014701641A750A860AC4
:101AE000970AB401A3014A3151056105710508F453
:101AF00054C0892B09F047C08091C4019091C50161
:101B000001978330910508F0E1C082529E4FDC01BD
:101B10008C91082E000C990B880F991F880F991F24
:101B2000FC01E955FD4F80809180A280B3808092B6
:101B3000A3029092A402A092A502B092A60220E075
:101B400030E0A90160919F027091A0028091A102F2
:101B50009091A2020E941417811115C080929B02DD
:101B600090929C02A0929D02B0929E022FE338EACE
:101B70004FE454E4C501B4010E9478180E948B1709
:101B8000CB010E94940410939A02C0929602D092C4
:101B90009702E0929802F092990280919A0288232B
:101BA00019F081E08093A7031091A703809195021B
:101BB000181731F0612F8BE00E94E000109395021E
:101BC0008EE00E944A01803191050CF082C0109293
:101BD0009F021092A0021092A1021092A2022090E5
:101BE0009F023090A0024090A1025090A2022F824A
:101BF000388649865A8620E030E0A901C201B10149
:101C00000E94731818160CF029CD40909B0250903A
:101C10009C0260909D0270909E02C090A302D090A2
:101C2000A402E090A502F090A602A7019601C301CC
:101C3000B2010E941417882309F410CD0E945F019D
:101C40006B877C878D879E8780919102909192020D
:101C5000A0919302B09194028B849C84AD84BE8445
:101C6000881A990AAA0ABB0AD501C401843F914087
:101C7000A105B10508F4F2CCA3019201C701B60198
:101C80000E94A7164B015C0120E030E0A9010E94F0
:101C9000731818160CF066C02FE632E143E85AE3D9
:101CA000C501B4010E94731818160CF465C0C092E7
:101CB0009B02D0929C02E0929D02F0929E022FE342
:101CC00038EA4FE454E4C701B6016EC080E390E007
:101CD00023CF9C018132934014F020E233E0032EA5
:101CE000000C440B550B2C5F334041095109A4E60D
:101CF000B0E00E94631624E13CEF4FEF5FEF0E94DB
:101D00004416CA01B9010E94C31720E030EC4FE726
:101D100054E40E9419176B017C0120E030E0A90116
:101D20000E94141787FD1AC02DEC3CEC4CEC5DE3CF
:101D3000C701B6010E94731818163CF40DECC02EB2
:101D40000CECD02EED2C0DE3F02EC0929F02D09221
:101D5000A002E092A102F092A20241CFC12CD12CAC
:101D60007601F3CF2FE632E143E85AEBC501B40127
:101D70000E94141787FF9BCFA50194016F8178857E
:101D800089859A850E947818A30192010E94A8165D
:101D900060939B0270939C0280939D0290939E029D
:101DA0002FE338EA4FE454E40E9478180E948B171E
:101DB000CB010E9494042B843C844D845E84209249
:101DC000910230929202409293025092940246CC39
:101DD0008EE00E944A014091CE015091CF019A01BC
:101DE000220F331F240F351F820F931F97FD039679
:101DF000AC0155954795559547955093CF01409324
:101E0000CE01E090CC01F090CD01403151050CF0B5
:101E1000B1C01092CD011092CC010091CC01109173
:101E2000CD010230110509F461C108F0BFC00115F0
:101E3000110509F4E4C00130110509F407C1B4E04B
:101E4000EB16F10409F0F9C0109213048CE00E9423
:101E5000B7009C0111E0892B09F010E0909110046B
:101E6000232B09F04EC6911184C10E94B6016093E4
:101E70000C0470930D0480930E0490930F04109340
:101E80001004AFEC8A2EA3E09A2E0EEE11E01C8710
:101E90000B87198A412C512CD12CC12C60E0AB85C9
:101EA000BC858C910E94E0008601F601E150FC4F58
:101EB0001F019601245F3F4F398F288F54014BEE4D
:101EC00051E0588B4F8766246394AF85B8898D9114
:101ED000B88BAF870E94B7007C01B1E0BF83892B2C
:101EE00009F01F820115110509F05FC1E114F10429
:101EF00009F40DC6F1018081FF81F81709F43AC495
:101F00000E94B601D5012D913D914D915C91621BCE
:101F1000730B840B950B633371058105910508F4F0
:101F20006AC12F81F10120830E94B601D5016D9312
:101F30007D938D939C931397E114F10409F05BC199
:101F400070900B04772009F46BC30C30110508F076
:101F500052C1F801E255F04F0C94F918F210F91043
:101F6000E312FB10EB12F212FB10F9120013031331
:101F70000A130D1324E030E04D3E03E0500744F413
:101F80009A01245F31402B30310538F422E030E0F3
:101F90003093CD012093CC0140CF21E030E0443F8D
:101FA00011E05107ACF323E030E0F2CF033011052C
:101FB00009F4A9C00430110509F041CF1092C801FD
:101FC0001092C9011092CA011092CB01109219040B
:101FD0008091130481110BC0809116049091170415
:101FE000909312048093110481E08093130414E011
:101FF000E116F10409F42ACFEF2829F127CF109236
:10200000C8011092C9011092CA011092CB0181E05F
:10201000809319049091180491110AC0209116041C
:1020200030911704309315042093140480931804FE
:1020300024E0E216F10409F407CFEF2809F006CFF7
:10204000012B09F403CF1092180400CFBA01052E1A
:10205000000C880B990B443A5140FCF49B01AC01F5
:102060002C53310941095109ACE8B0E00E946316D4
:1020700028E631E040E050E00E944416CA01B90170
:10208000665F7F4F8F4F9F4F0E94C31720E030E065
:102090004AE754E40E9419171EC00E94C31720E0AB
:1020A00030E042ED53E40E94A71620E030E040EA21
:1020B00052E40E9419179B01AC010E9478182AE98A
:1020C00039E949E55FE30E9478182AE939E949E1ED
:1020D0005EE30E94A8166093C8017093C9018093C3
:1020E000CA019093CB0110921904A2CF80E090E036
:1020F000A0E8BFE38093C8019093C901A093CA01EF
:10210000B093CB01F0CFBA01052E000C880B990BD0
:1021100049355240BCF09B01AC0128553240410981
:102120005109A4E7BFEF0E9471162EE531E040E0AF
:1021300050E00E944416CA01B9016A567F4F8F4F82
:102140009F4FA2CF0E94C31720E030E04FEF53E42F
:102150000E94A71620E030E044EB52E40E941917D9
:102160009B01AC0160E070E080E89FE30E94A7164D
:10217000A2CF80910B04811182CE0E94B601C09043
:102180000C04D0900D04E0900E04F0900F046C1934
:102190007D098E099F09663971058105910508F44D
:1021A0006ECE81E080930B046ACE0330110559F4A2
:1021B000E114F10409F09ECE80910B04882309F408
:1021C00099CE582E97CE0630110509F093CEE11422
:1021D000F10409F08FCE80910B04882309F48ACE94
:1021E000482E88CEE3E0F0E0F093C701E093C6010B
:1021F00002C06092CE030C5F1F4F50E1A50EB11CD0
:1022000064E0260E311CE88CF98C0E151F0509F0D0
:102210005CCE61E0AB85BC858D91BC87AB870E94AD
:10222000E000BFEFCB1ADB0AE4E08E0E911CF4E075
:10223000CF16D10409F032CE9090C903992091F0C5
:102240002988222079F0EBEBF3E01192AA88BB8871
:10225000AE16BF06D1F71092BA031092B90381E00F
:102260008093CA035092C8034092C703711002C002
:1022700070900B04672D8DE00E94E0000E94B60173
:102280006B017C0189E00E94B7008C01AA24A39411
:10229000892B09F0A12C8AE00E94B700BB24B394DB
:1022A000009709F0B12C012B09F07CC24091B503D5
:1022B0005091B6036091B7037091B8034115510571
:1022C0006105710509F05AC2C092B503D092B603F8
:1022D000E092B703F092B8031092CA03892B09F079
:1022E000A8C28091B1039091B203A091B303B091C1
:1022F000B4030097A105B10509F088C2C092B103EB
:10230000D092B203E092B303F092B4031092CA03E6
:102310008091B003A81204C08091AF03B81609F1F0
:102320000E94B6010091AB031091AC032091AD0364
:102330003091AE03601B710B820B930B63337105FD
:102340008105910570F0A092B003B092AF030E9496
:10235000B6016093AB037093AC038093AD0390938D
:10236000AE038BE00E94B70011E0009709F410E083
:10237000892B09F4CBC28091AA038111C7C2809135
:10238000CE034091C6015091C701882341F080914E
:102390001304811184C2809118048111BBC261E0D1
:1023A00070E0042E02C0660F771F0A94E2F7CB019B
:1023B00001972091CD03222361F1E0911604F09161
:1023C00017049F0128233923AA27BB27A61BB70B75
:1023D000EA23FB23D901B695A795EA2BFB2B2170A5
:1023E0003327DA01119702C0220F331FAA95E2F7B3
:1023F0002E2B3F2B3093170420931604E0911304E7
:10240000EE2309F4D2C230931204209311041092E7
:10241000CD032091CC03222371F1E0911604F091B9
:1024200017049C012E233F23DA011197190102C0E2
:1024300036942794AA95E2F7D101A170BB27220F09
:10244000331F2A2B3B2B2823392371956195710962
:102450006E237F23262B372B3093170420931604EB
:1024600060911304662309F4AAC2309312042093E6
:1024700011041092CC0360911604709117049B0113
:1024800028233923483051050CF4A3C2CA01089708
:10249000390102C0769467948A95E2F7C30155200A
:1024A00001F1E090A803F090A903DA011197AE19A9
:1024B000BF0921E030E002C0220F331FAA95E2F7E6
:1024C000209530956223732370931704609316044C
:1024D00090911304992309F4C1C27093120460937C
:1024E0001104442011F1415051092091A803309169
:1024F000A903421B530B21E030E002C0220F331F1F
:102500004A95E2F74091160450911704242B352B7D
:10251000309317042093160490911304992309F41F
:10252000A7C230931204209311040E94DD032FE30D
:1025300038EA4FE454E40E9478180E948B17CB01CC
:102540000E9494048091C6019091C7010197E09088
:102550001604F090170402C0F694E7948A95E2F707
:102560000E2D017080911904882309F48BC2E09428
:10257000F0940E2D01708091160490911704880F2D
:10258000991F802B90931704809316048091A803C1
:102590009091A90301969093A9038093A803209199
:1025A000C6013091C70140911904442309F498C22F
:1025B000220F331F821793070CF4A8C11092A903AE
:1025C0001092A803A3C1F4E0EF2EF12CF092C70102
:1025D000E092C60110CE25E030E03093C701209391
:1025E000C60109CE46E050E05093C7014093C601B2
:1025F00002CE88E090E09093C7018093C601FBCDA6
:102600006092CD03F8CDACE0B0E0B093C701A093E9
:10261000C601F1CD6092CC03EECDE0E1F0E0E4CD77
:102620008091CB038823D9F10230110559F0C801FC
:102630000497029738F00730110521F0C8018D7F0B
:10264000099751F5C80102978A30910518F58F5105
:102650009E4FDC018C91082E000C990B97FD1AC03F
:10266000EBEBF3E070E060E02191222351F021E0F8
:1026700030E00E2C02C0220F331F0A94E2F7622BC7
:10268000732BBFEFEB1AFB0A2CE0E216F10461F7A3
:102690000E947A056092CA0377247394ACCD80912E
:1026A000C903882309F455C00230110559F0C80147
:1026B0000497029738F00730110521F0C8018D7F8B
:1026C000099751F7C80102978A30910518F78F5181
:1026D0009E4FDC018C91082E000C990B97FDDACFF0
:1026E000BE016D5F7F4F0E94E004882399F2BE0116
:1026F0006F5F7F4F88E690E00E94E004882351F2EC
:1027000089819A81853A954A29F62B813C81C901B4
:1027100001978E3F9F4F08F0BDCFEBEBF3E090E0C9
:1027200080E0A901082E02C0569547950A94E2F769
:10273000542F5170519340FF03C04FEFE41AF40A35
:1027400001968C30910569F7F092BA03E092B903D3
:10275000A1CFF801E554FC4F808181119DCF6082AB
:102760008091B9039091BA0301969093BA03809334
:10277000B90392CFEF2809F03ECD8ECF9110AECDA8
:1027800097018601041B150B260B370BB901A80115
:10279000463951056105710508F4A0CD21E020936B
:1027A000C9039CCD992059F01092C9031092B5032A
:1027B0001092B6031092B7031092B8038FCD4091D8
:1027C000B5035091B6036091B7037091B803360119
:1027D0004701641A750A860A970AB401A3014639AB
:1027E00051056105710510F72091CA032111DECF53
:1027F0002091C4013091C50124303105BCF62F5F12
:102800003F4F3093C5012093C401D0CF2091CB031B
:1028100021117ECDC81AD90AEA0AFB0A06E9C016B8
:10282000D104E104F10408F473CD81E08093CB037B
:102830006FCD8091CB03882359F01092CB03109277
:10284000B1031092B2031092B3031092B40360CD9F
:102850008091B1039091B203A091B303B091B403FE
:10286000C81AD90AEA0AFB0A16E9C116D104E1041A
:10287000F10428F78091CA038111E1CF8091C90347
:102880008111DDCF8091C4019091C5018230910505
:10289000B4F201979093C5018093C401D0CF809189
:1028A00011049091120490931704809316041092CF
:1028B000A9031092A8031092CE0321E030E0042E69
:1028C00002C0220F331F0A94E2F721503109809190
:1028D0001604909117042823392348305105FCF041
:1028E0004850510902C0369527954A95E2F7E22FE4
:1028F0008E2F0E94DD032FE338EA4FE454E40E9458
:1029000078180E948B17CB010E9494041093AA039D
:102910000C942E0B8091140490911504C4CFE22FD7
:102920004430510569F1BCF44330510509F7277073
:10293000422F50E09A0165E0220F331F6A95E1F7BC
:10294000FA01EE0FFF1FEE0FFF1F2E2B5595479537
:10295000E22FE42BCDCF45305105C9F0463051056B
:1029600039F62F73622F70E0FB01EE0FFF1FEE0FA1
:10297000FF1F94E0759567959A95E1F7E62BB8CF20
:102980002F7030E1239FF0011124E22BB1CF2F7182
:10299000E22FF0E09F0143E0220F331F4A95E1F759
:1029A000F595E795F595E795F0CFE0911804EE23BE
:1029B00009F42DCD309315042093140428CD609193
:1029C0001804662309F455CD30931504209314049C
:1029D00050CD822F4430510561F1B4F4433051059C
:1029E00009F05DCD277030E0C901E5E0880F991F3F
:1029F000EA95E1F7F901EE0FFF1FEE0FFF1F8E2B97
:102A000035952795822B4BCD45305105C1F0463089
:102A1000510509F044CD2F73A22FB0E0CD01880FEE
:102A2000991F880F991FF4E0B595A795FA95E1F7DE
:102A300013C08F7000E1809F90011124E3CF2F71AC
:102A4000A22FB0E0CD0103E0880F991F0A95E1F7AE
:102A5000B595A795B595A7958A2B21CD909118048A
:102A6000992309F43ECD709315046093140439CD75
:102A700090911804992309F458CD309315042093AC
:102A8000140453CD20E030E0A9016091C801709199
:102A9000C9018091CA019091CB010E947318181648
:102AA0000CF069CD0E94D61528EE33E040E050E0EE
:102AB0000E9444164B0120E030E04AE754E4609164
:102AC000C8017091C9018091CA019091CB010E9407
:102AD00078180E948B17861697060CF448CD4BCDBC
:102AE000821793070CF06ACD11CF892B11F40C9447
:102AF000360B62E370E080E090E00E9484010C9469
:102B00002F08992309F4BBC910920B04B8C931E00E
:102B1000398BF0C98F929F92AF92BF92CF92DF9282
:102B2000EF92FF92CF93DF93EC01688179818A81E4
:102B30009B81611571058105910521F464E279EDB0
:102B40008BE597E02DE133EF41E050E00E94441621
:102B500049015A019B01AC01A7EAB1E40E94631646
:102B60006B017C01ACEEB4EFA50194010E947116DB
:102B7000C60ED71EE81EF91EF7FE06C081E0C81A71
:102B8000D108E10880E8F80AC882D982EA82FB828B
:102B9000C701B6019F77DF91CF91FF90EF90DF9053
:102BA000CF90BF90AF909F908F9008958F929F92FB
:102BB000AF92BF92CF92DF92EF92FF926091D001DD
:102BC0007091D1018091D2019091D301611571056D
:102BD0008105910521F464E279ED8BE597E02DE123
:102BE00033EF41E050E00E94441649015A019B0135
:102BF000AC01A7EAB1E40E9463166B017C01ACEE64
:102C0000B4EFA50194010E947116C60ED71EE81EEE
:102C1000F91EF7FE06C081E0C81AD108E10880E875
:102C2000F80AC092D001D092D101E092D201F09284
:102C3000D301C701B6019F77FF90EF90DF90CF904F
:102C4000BF90AF909F908F9008956093D001709344
:102C5000D1018093D2019093D3010895F999FECFC9
:102C600092BD81BDF89A992780B50895262FF999CC
:102C7000FECF1FBA92BD81BD20BD0FB6F894FA9A5F
:102C8000F99A0FBE01960895052E97FB1EF4009445
:102C90000E945B1657FD07D00E94761607FC03D0F2
:102CA0004EF40C945B1650954095309521953F4F0E
:102CB0004F4F5F4F089590958095709561957F4F28
:102CC0008F4F9F4F08950E949816A59F900DB49F17
:102CD000900DA49F800D911D11240895B7FF0C94B1
:102CE00063160E946316821B930B0895A1E21A2EAD
:102CF000AA1BBB1BFD010DC0AA1FBB1FEE1FFF1FA0
:102D0000A217B307E407F50720F0A21BB30BE40BEF
:102D1000F50B661F771F881F991F1A9469F7609536
:102D20007095809590959B01AC01BD01CF010895F0
:102D3000A29FB001B39FC001A39F700D811D1124FC
:102D4000911DB29F700D811D1124911D0895505841
:102D5000BB27AA270E94BF160C9439180E942B1873
:102D600038F00E94321820F039F49F3F19F426F40D
:102D70000C9428180EF4E095E7FB0C942218E92F28
:102D80000E944A1858F3BA17620773078407950719
:102D900020F079F4A6F50C946C180EF4E0950B2E47
:102DA000BA2FA02D0B01B90190010C01CA01A0019D
:102DB0001124FF27591B99F0593F50F4503E68F1F8
:102DC0001A16F040A22F232F342F4427585FF3CF39
:102DD000469537952795A795F0405395C9F77EF40A
:102DE0001F16BA0B620B730B840BBAF09150A1F053
:102DF000FF0FBB1F661F771F881FC2F70EC0BA0FD9
:102E0000621F731F841F48F4879577956795B79560
:102E1000F7959E3F08F0B0CF9395880F08F099275B
:102E2000EE0F9795879508950E94FE1708F481E0AC
:102E300008950E942D170C9439180E94321858F0EA
:102E40000E942B1840F029F45F3F29F00C942218BF
:102E500051110C946D180C9428180E944A1868F3AC
:102E60009923B1F3552391F3951B550BBB27AA2743
:102E700062177307840738F09F5F5F4F220F331F7D
:102E8000441FAA1FA9F335D00E2E3AF0E0E832D045
:102E900091505040E695001CCAF72BD0FE2F29D048
:102EA000660F771F881FBB1F261737074807AB071A
:102EB000B0E809F0BB0B802DBF01FF2793585F4F8F
:102EC0003AF09E3F510578F00C9422180C946D183E
:102ED0005F3FE4F3983ED4F3869577956795B79571
:102EE000F7959F5FC9F7880F911D9695879597F97C
:102EF0000895E1E0660F771F881FBB1F62177307F5
:102F00008407BA0720F0621B730B840BBA0BEE1F09
:102F100088F7E09508950E9492176894B1110C9477
:102F20006D1808950E94521888F09F5798F0B92F95
:102F30009927B751B0F0E1F0660F771F881F991FEE
:102F40001AF0BA95C9F714C0B13091F00E946C180C
:102F5000B1E008950C946C18672F782F8827B85F1C
:102F600039F0B93FCCF3869577956795B395D9F746
:102F70003EF490958095709561957F4F8F4F9F4F50
:102F80000895E89409C097FB3EF49095809570955C
:102F900061957F4F8F4F9F4F9923A9F0F92F96E9A5
:102FA000BB279395F695879577956795B795F1111A
:102FB000F8CFFAF4BB0F11F460FF1BC06F5F7F4FB7
:102FC0008F4F9F4F16C0882311F096E911C07723C9
:102FD00021F09EE8872F762F05C0662371F096E8D2
:102FE000862F70E060E02AF09A95660F771F881FA1
:102FF000DAF7880F9695879597F90895990F000845
:10300000550FAA0BE0E8FEEF16161706E807F907BA
:10301000C0F012161306E407F50798F0621B730B55
:10302000840B950B39F40A2661F0232B242B252BD6
:1030300021F408950A2609F4A140A6958FEF811D79
:10304000811D089597F99F6780E870E060E008951A
:103050009FEF80EC089500240A94161617061806B0
:103060000906089500240A9412161306140605068C
:103070000895092E0394000C11F4882352F0BB0F1D
:1030800040F4BF2B11F460FF04C06F5F7F4F8F4F80
:103090009F4F089557FD9058440F551F59F05F3FBB
:1030A00071F04795880F97FB991F61F09F3F79F06A
:1030B00087950895121613061406551FF2CF4695EC
:1030C000F1DF08C0161617061806991FF1CF86956E
:1030D0007105610508940895E894BB276627772752
:1030E000CB0197F908950E94FE1708F48FEF089519
:1030F0000E948B180C9439180E942B1838F00E94EB
:10310000321820F0952311F00C9422180C942818F2
:1031100011240C946D180E944A1870F3959FC1F306
:10312000950F50E0551F629FF001729FBB27F00D75
:10313000B11D639FAA27F00DB11DAA1F649F6627CA
:10314000B00DA11D661F829F2227B00DA11D621F19
:10315000739FB00DA11D621F839FA00D611D221FD3
:10316000749F3327A00D611D231F849F600D211DB7
:10317000822F762F6A2F11249F5750409AF0F1F03A
:1031800088234AF0EE0FFF1FBB1F661F771F881FA3
:1031900091505040A9F79E3F510580F00C942218A1
:1031A0000C946D185F3FE4F3983ED4F386957795C1
:1031B0006795B795F795E7959F5FC1F7FE2B880F49
:1031C000911D9695879597F9089597FB072E16F40C
:1031D000009407D077FD09D00E94FF1807FC05D0A6
:1031E0003EF4909581959F4F0895709561957F4F1E
:1031F0000895EE0FFF1F0590F491E02D0994AA1B8E
:10320000BB1B51E107C0AA1FBB1FA617B70710F0D1
:10321000A61BB70B881F991F5A95A9F78095909503
:10322000BC01CD0108950F931F93CF93DF9382309C
:10323000910510F482E090E0E0918B04F0918C0411
:1032400030E020E0B0E0A0E0309799F4211531059E
:1032500009F44AC0281B390B24303105D8F58A817E
:103260009B816115710589F1FB0193838283FE01C6
:1032700011C0408151810281138148175907E0F044
:103280004817590799F4109761F012960C9312970A
:1032900013961C933296CF01DF91CF911F910F911E
:1032A000089500938B0410938C04F4CF21153105FD
:1032B00051F04217530738F0A901DB019A01BD0113
:1032C000DF01F801C1CFEF01F9CF90938C04809317
:1032D0008B04CDCFFE01E20FF31F81939193225017
:1032E000310939832883D7CF2091890430918A040A
:1032F000232B41F42091D6013091D70130938A04D9
:10330000209389042091D4013091D50121153105F4
:1033100041F42DB73EB74091D8015091D901241BFB
:10332000350BE0918904F0918A04E217F307A0F4C9
:103330002E1B3F0B2817390778F0AC014E5F5F4F0B
:103340002417350748F04E0F5F1F50938A044093AF
:103350008904819391939FCFF0E0E0E09CCFCF93DD
:10336000DF930097E9F0FC01329713821282A0915B
:103370008B04B0918C04ED0130E020E01097A1F4B3
:1033800020813181820F931F2091890430918A041A
:103390002817390709F061C0F0938A04E093890483
:1033A000DF91CF910895EA01CE17DF07E8F54A8152
:1033B0005B819E0141155105B1F7E901FB83EA8369
:1033C00049915991C40FD51FEC17FD0761F4808115
:1033D00091810296840F951FE901998388838281E8
:1033E00093819B838A83F0E0E0E012968D919C911B
:1033F00013970097B9F52D913C911197CD01029645
:10340000820F931F2091890430918A04281739076D
:1034100039F6309751F510928C0410928B04B093CA
:103420008A04A0938904BCCFD383C2834081518195
:10343000840F951FC817D90761F44E5F5F4F8881CD
:103440009981480F591F518340838A819B819383BF
:1034500082832115310509F0B0CFF0938C04E093FD
:103460008B049ECFFD01DC01C0CF13821282D7CF27
:04347000F894FFCFFE
:1034740000000000E7FBA93D0C022B3E0000803E4B
:10348400FA7EAA3E0681D53E0000003F7D3F153FEF
:1034940083C02A3F0000403F7D3F553F83C06A3FC1
:1034A4000000803FBE9F8A3F4260953F0000A03FDE
:1034B400BE9FAA3F4260B53F0000C03FBE9FCA3FC7
:1034C4004260D53F0000E03FBE9FEA3F4260F53FC7
:1034D40000000040DF4F054021B00A4000001040CA
:1034E400DF4F154021B01A4000002040DF4F254037
:1034F40021B02A4000003040DF4F354021B03A402F
:1035040000004040DF4F454021B04A400000504099
:10351400DF4F554021B05A4000006040DF4F654006
:1035240021B06A4000007040DF4F754021B07A40FE
:1035340000008040010008000000003F020000027B
:103544000100000000008D048000320939300C189D
:10355400246AFF6C6EFF70FF72FF74020304050699
:1035640007080000000086035903B5032F03520324
:043574003F033003DE
:00000001FF
