:100000000C9462000C948A000C948A000C948A0070
:100010000C948A000C948A000C948A000C948A0038
:100020000C948A000C948A000C948A000C948A0028
:100030000C948A000C948A000C948A000C948A0018
:100040000C9458080C948A000C948A000C948A0032
:100050000C948A000C948A000C948A000C948A00F8
:100060000C94A2080C948A000000000024002700D1
:100070002A0000000000250028002B0000000000DE
:1000800023002600290004040404040404040202DA
:100090000202020203030303030301020408102007
:1000A0004080010204081020010204081020000012
:1000B0000008000201000003040700000000000027
:1000C0000000C10911241FBECFEFD8E0DEBFCDBFB5
:1000D00012E0A0E0B1E0E6E3FAE302C005900D9281
:1000E000A630B107D9F724E0A6E0B2E001C01D9226
:1000F000A33BB207E1F710E0C2E6D0E004C02197CD
:10010000FE010E94DA1BC136D107C9F70E94D60949
:100110000C94191D0C94000008950895833081F00B
:1001200028F4813099F08230A9F008958730A9F041
:100130008830C9F08430B1F4809180008F7D03C095
:10014000809180008F7780938000089584B58F77A9
:1001500084BD089584B58F7DFBCF8091B0008F77EB
:100160008093B00008958091B0008F7DF9CFCF9338
:10017000DF93282F30E0F901E255FF4F8491F90118
:10018000E656FF4FD491F901EA57FF4FC491CC23B3
:10019000A1F081110E948E00EC2FF0E0EE0FFF1F06
:1001A000E458FF4FA591B491EC91ED2381E090E0EC
:1001B00009F480E0DF91CF91089580E090E0FACFDC
:1001C0001F93CF93DF93282F30E0F901E255FF4FC3
:1001D0008491F901E656FF4FD491F901EA57FF4F98
:1001E000C491CC23A9F0162F81110E948E00EC2F10
:1001F000F0E0EE0FFF1FEE58FF4FA591B4918FB7BF
:10020000F894EC91111108C0D095DE23DC938FBFD8
:10021000DF91CF911F910895DE2BF8CFCF93DF931D
:1002200090E0FC01E656FF4F24918A579F4FFC0156
:1002300084918823C9F090E0880F991FFC01E85948
:10024000FF4FA591B491FC01EE58FF4FC591D49199
:1002500061110DC09FB7F8948C91209582238C93E7
:100260008881282328839FBFDF91CF910895623032
:1002700051F49FB7F8943C91822F809583238C93FF
:10028000E8812E2BEFCF8FB7F894EC912E2B2C9387
:100290008FBFEACF8E3008F08E50877080648093D5
:1002A0007C0080917A00806480937A0080917A004B
:1002B00086FDFCCF809178009091790008953FB73A
:1002C000F8948091470490914804A0914904B0911A
:1002D0004A0426B5A89B05C02F3F19F00196A11D21
:1002E000B11D3FBFBA2FA92F982F8827BC01CD0180
:1002F000620F711D811D911D42E0660F771F881FDF
:10030000991F4A95D1F708958F929F92AF92BF920D
:10031000CF92DF92EF92FF924B015C010E945F014E
:100320006B017C010E945F016C197D098E099F0998
:10033000683E734081059105A8F321E0821A910877
:10034000A108B10888EEC80E83E0D81EE11CF11C9C
:1003500081149104A104B10429F7FF90EF90DF907C
:10036000CF90BF90AF909F908F9008952FB7F89443
:100370006091430470914404809145049091460437
:100380002FBF089520914702260F3327331F2132B4
:100390003105ECF420917704FC0190E080E02430FA
:1003A00069F082E00895A09147022191AC01495D76
:1003B0005D4FA40FB52FB11D2C930196861798F3AE
:1003C00080914702680F6093470280E0089581E0C2
:1003D00008951092770481E080937604109251047E
:1003E00061E082E10E94E00061E083E10E94E000C0
:1003F000E9EBF0E080818E7F808380818D7F808338
:1004000088E48093B80085E48093BC00089510923E
:10041000500410924F0410927E041092A0040E9487
:10042000E9018CE890E090934E0480934D048DE8B0
:1004300090E090934C0480934B040895CF93DF9306
:1004400091E0909326028823B9F0C091B800D09132
:10045000BA008091BC008A7B8093BC0060E082E19E
:100460000E94E00060E083E10E94E0000E94E90158
:10047000D093BA00C093B800DF91CF9108958F92C6
:100480009F92AF92BF92CF92DF92EF92FF920F9323
:100490001F93CF93DF93D091A004D13208F0D7C03F
:1004A000182FC0919F040E945F016B017C01809115
:1004B000770481116BC082E08093770410937604F7
:1004C0008FEF8093750410927404D0937304AFE798
:1004D000B4E0E3E5F4E080E0D81391C01092520458
:1004E00080915204CC0FC82BC093520480915104C8
:1004F000813009F088C0109251040E945F016B01A5
:100500007C01809152048093BB008091790490918A
:100510007A04A0917B04B0917C04892B8A2B8B2BCD
:10052000A1F00E945F010091790410917A0420915A
:100530007B0430917C046C197D098E099F09061794
:1005400017072807390708F442C08091BC0083FDD3
:10055000D8CF85EC8093BC000E945F016B017C01C9
:1005600080917704823009F450C0809175048F3FE8
:1005700009F46FC080917504803209F46CC08091D9
:100580007504803309F469C084E026C08091790441
:1005900090917A04A0917B04B0917C04892B8A2BE2
:1005A0008B2B09F484CF0E945F0180907904909096
:1005B0007A04A0907B04B0907C046C197D098E09AC
:1005C0009F0986169706A806B90608F070CF809195
:1005D00078040E941E0285E010927E041092A0040E
:1005E00010927D04DF91CF911F910F91FF90EF90BA
:1005F000DF90CF90BF90AF909F908F9008959D9186
:1006000091938F5F69CF85EEA5CF8091790490910A
:100610007A04A0917B04B0917C04892B8A2B8B2BCC
:1006200009F49ECF0E945F010091790410917A0431
:1006300020917B0430917C046C197D098E099F09FF
:10064000061717072807390708F08ACFC0CF81E0BF
:10065000C3CF80E0C1CF82E0BFCF83E0BDCF08959C
:10066000E091500480914F04E81730F4F0E0EA5F25
:10067000FD4F808190E008958FEF9FEF0895909156
:10068000500480914F042FEF3FEF981748F4E92F63
:10069000F0E0EA5FFD4F208130E09F5F90935004CF
:1006A000C901089580914F0490915004891B990BC2
:1006B0000895CF92DF92EF92FF920F931F93CF9303
:1006C000DF937C01CB018A0120917D04222389F0F4
:1006D000EB016B01C40ED51ECC15DD0569F06991E7
:1006E000D701ED91FC910190F081E02DC7010995B2
:1006F000F3CF642F0E94C201C801DF91CF911F91F7
:100700000F91FF90EF90DF90CF900895CF93DF93FC
:100710001F92CDB7DEB7698320917D042223F9F0C3
:100720002091A004203258F021E030E0FC01338316
:10073000228390E080E00F90DF91CF910895809127
:100740007E04E82FF0E0E158FB4F998190838F5FA2
:1007500080937E048093A00481E090E0ECCF61E080
:10076000CE0101960E94C201F7CF90E080E008958B
:10077000CF93DF93EC018B818823A1F0888191E0F6
:1007800090937D0480939F0410927E041092A004A5
:1007900081E00E943F0291E0811190E0892FDF917A
:1007A000CF9108950E94070281E08B83CE010E94C1
:1007B000B803982F8111E2CFF1CF20913304222387
:1007C00019F120913B0430913604311102C02223EB
:1007D000D9F06091C6017091C701222311F0660F14
:1007E000771F6131710514F060E170E02091CA0358
:1007F0003091CB03820F931F860F971F0E94C61B59
:100800009093CB038093CA030895EFEDF3E030E0BB
:1008100020E090E080E041E050E06191662349F003
:10082000BA01022E02C0660F771F0A94E2F7862BE8
:10083000972B2F5F3F4F2C30310579F708958F921A
:100840009F92AF92BF92CF92DF92EF92FF92CF939F
:10085000DF93E090C401F090C501682F70E08091B3
:10086000DD039091DE031816190694F1072E000C93
:10087000880B990B0E94A41A20E030E04FE753E464
:100880000E94FA194B015C01B701FF0C880B990B10
:100890000E94A41A9B01AC01C501B4010E94591B1E
:1008A0006B017C0120E030E040E850E40E94541BE2
:1008B00018160CF46BC0C701B601DF91CF91FF9001
:1008C000EF90DF90CF90BF90AF909F908F90089562
:1008D0002CE02E9DC0012F9D900D1124869F90012C
:1008E000879F300D969F300D1124C90164EF7BE086
:1008F0000E94C61B6B01C9016FEF70E00E94C61B0E
:10090000CB016CE070E00E94C61BFC019C01245FDF
:100910003F4F7C01CCE0D0E0C701BE010E94C61B66
:10092000DC01A152BC4F4C91411113C0C901BE0161
:100930000E94C61BDC01A152BC4F4C91411109C061
:100940008FEFE81AF80A215031092E173F0721F7D7
:10095000C9014CE04C9D90014D9D300D1124820F3A
:10096000931F97FF02C090E080E08133910514F05F
:1009700080E390E0880F991F880F991FFC01E755CD
:10098000FD4FC080D180E280F38095CFC12CD12C67
:1009900080E8E82E80E4F82E8ECF2F923F925F926F
:1009A0006F927F928F929F92AF92BF92CF92DF927F
:1009B000EF92FF920F931F93CF93DF9350903B04DE
:1009C0008091360481111AC00091370410913804C7
:1009D000511018C010923304DF91CF911F910F91E5
:1009E000FF90EF90DF90CF90BF90AF909F908F904F
:1009F0007F906F905F903F902F9008950091340406
:100A000010913504C091C601D091C7017E015520D7
:100A100011F0EE0CFF1C21E1E216F1041CF040E1A4
:100A2000E42EF12CCC24C394D12C0C2E02C0CC0C7F
:100A3000DD1C0A94E2F7E1E0CE1AD1081E01F8E0CD
:100A40002F1A31083E0121E0621A71083AEA832E1A
:100A500033E0932EB12CA12CAE14BF040CF078C05F
:100A6000F801EC21FD21C830D10544F1CF01022C61
:100A700002C0969587950A94E2F70E941F042FE31F
:100A800038EA4FE454E40E94591B0E94731AF4019F
:100A9000619371934F01C801062C02C0969587950A
:100AA0000A94E2F7511051C081709927000F111F6D
:100AB000082B192BFFEFAF1ABF0ACECF8E2FC430F1
:100AC000D10569F1B4F4C330D105B9F6E7702E2F22
:100AD00030E0C901A5E0880F991FAA95E1F7B90197
:100AE000660F771F660F771F862B35952795822B0C
:100AF000C4CFC530D105D1F0C630D10509F0BDCF86
:100B0000EF734E2F50E0CA01880F991F880F991F6D
:100B100064E0559547956A95E1F7842BAECFEF7069
:100B2000F0E1EF9FC00111248E2BA7CFEF716E2F44
:100B300070E0CB01E3E0880F991FEA95E1F7759526
:100B4000679575956795862B98CF80959095ACCFD6
:100B50001092CB031092CA0381E0809333043CCF00
:100B6000EFEDF3E050E040E030E020E0BC01022E89
:100B700002C0769567950A94E2F7762F71707193AB
:100B800060FF02C04F5F5F4F2F5F3F4F2C3031053A
:100B900069F75093DE034093DD030C94CD04EFED31
:100BA000F3E0119283E0EB3EF807D9F71092DE03F1
:100BB0001092DD030C94CD049C012856310981E08C
:100BC0002E30310508F080E00895CF93DF9300D0F8
:100BD0001F92CDB7DEB71092B9002CE02093B80079
:100BE00020E429839C0194E0369527959A95E1F7B6
:100BF0002A838295807F8B83E091AD04F091AE04CF
:100C000084819581039738F480E00F900F900F90C6
:100C1000DF91CF91089581819281208131E03093DD
:100C20007D0420939F0410927E041092A004DC01A6
:100C3000ED91FC910280F381E02D43E050E0BE0194
:100C40006F5F7F4F09950397F9F681E00E943F029D
:100C50008111DACF1092B90088E48093B80081E066
:100C6000D4CFCF93DF93EB010E940F198883CE017D
:100C7000DF91CF9108950F931F93CF93DF938C0152
:100C8000EB010E940F198883C80101960E940F1979
:100C90008983CE01DF91CF911F910F9108950F931A
:100CA0001F93CF93DF93CDB7DEB72C970FB6F89491
:100CB000DEBF0FBECDBF8C01BE01695F7F4F0E94BA
:100CC0003B068F819885813B914B09F085C0BE0121
:100CD0006B5F7F4FC80102960E943B06BE01645FB6
:100CE0007F4FC80104960E943106BE01655F7F4FA9
:100CF000C80105960E943106BE01665F7F4FC8019C
:100D000006960E943106BE01675F7F4FC8010796B5
:100D10000E943106BE016D5F7F4FC80108960E9498
:100D20003B06BE016F5F7F4FC8010A960E943B06DB
:100D30008C859DEF980F943038F0982F9B7F9830DA
:100D400019F0803109F048C02A859FEF920F943046
:100D500008F042C04D815E8150933A0440933904BB
:100D600090E09093C7018093C60130E03093C501B5
:100D70002093C4011092CD031092CC0389819A81F3
:100D80000E94B0051092360410923B041092330476
:100D90008B85803108F080E090E09093CB038093C6
:100DA000CA038B819C819093CF018093CE018EE00A
:100DB0000E944A0190933E0480933D0481E0809319
:100DC0003F042C960FB6F894DEBF0FBECDBFDF9167
:100DD000CF911F910F91089580E0F3CFCF92DF92D2
:100DE000EF92FF920F931F93CF93DF938C017B01C0
:100DF0000E94DC05882351F068018FEFC81AD80AD9
:100E0000C6010E94DC05C82F811110C08FEF9FEF33
:100E1000F70191838083C0E08C2FDF91CF911F91E8
:100E20000F91FF90EF90DF90CF900895C8010E943E
:100E30000F19D82FC6010E940F19982F8D2FF70177
:100E400091838083E9CF85ED8093BC008091790404
:100E500090917A04A0917B04B0917C040796A11D27
:100E6000B11D23E0B695A795979587952A95D1F75B
:100E70002091BC0024FD03C0109277040895409196
:100E8000790450917A0460917B0470917C04452B25
:100E9000462B472B69F30097A105B10541F02AE2E3
:100EA0002A95F1F700C00197A109B109E1CF80911E
:100EB00078040C941E02FF920F931F93CF93DF933D
:100EC000EC01F62E08811981C8010E940F19F8164D
:100ED00021F06F2DC8010E941719CE01DF91CF912B
:100EE0001F910F91FF9008950F931F93CF93DF935E
:100EF00000D0CDB7DEB78B019A838983FB01608177
:100F0000CE0101960E945B07C8010F900F90DF9100
:100F1000CF911F910F910895EF92FF920F931F931E
:100F2000CF93DF9300D0CDB7DEB78C017B019A83DE
:100F30008983FB016081CE0101960E945B070F5FF0
:100F40001F4F1A830983F7016181CE0101960E9428
:100F50005B07C7010F900F90DF91CF911F910F9109
:100F6000FF90EF9008950F931F93CF93DF93CDB72A
:100F7000DEB72C970FB6F894DEBF0FBECDBF8C0145
:100F800081EB91EB98878F838091390490913A049B
:100F90009E838D838091C6018C878091CA038B8745
:100FA0008091C4018A878EE00E944A019C838B83D2
:100FB0000E9405049A8389831986BE01695F7F4F69
:100FC000C8010E948C07BE016B5F7F4FC80102966B
:100FD0000E948C07BE01645F7F4FC80104960E9487
:100FE0007407BE01655F7F4FC80105960E947407B4
:100FF000BE01665F7F4FC80106960E947407BE015E
:10100000675F7F4FC80107960E947407BE016D5F3E
:101010007F4FC80108960E948C07BE016F5F7F4F0B
:10102000C8010A960E948C072C960FB6F894DEBF72
:101030000FBECDBFDF91CF911F910F910895BF9249
:10104000CF92DF92EF92FF920F931F93CF93DF9394
:1010500000D0CDB7DEB77C01B62E072F0E94DC058D
:10106000182F8823C1F067018FEFC81AD80AC6016C
:101070000E94DC05182F882371F0FA82E9826B2D1B
:10108000CE0101960E945B07DA82C982602FCE01F1
:1010900001960E945B07812F0F900F90DF91CF91F7
:1010A0001F910F91FF90EF90DF90CF90BF90089528
:1010B0001F920F920FB60F9211242F933F938F938D
:1010C0009F93AF93BF938091430490914404A09168
:1010D0004504B09146043091420423E0230F2D379C
:1010E00058F50196A11DB11D20934204809343043D
:1010F00090934404A0934504B09346048091470420
:1011000090914804A0914904B0914A040196A11D10
:10111000B11D8093470490934804A0934904B09371
:101120004A04BF91AF919F918F913F912F910F9062
:101130000FBE0F901F90189526E8230F0296A11D51
:10114000B11DD2CF1F920F920FB60F9211242F9381
:101150003F934F935F936F937F938F939F93AF933F
:10116000BF93EF93FF938091B900887F803609F495
:101170004AC0F0F5883209F4A7C018F5803109F4A7
:101180009BC0B8F4882309F4F9C0883009F494C0EE
:10119000FF91EF91BF91AF919F918F917F916F914F
:1011A0005F914F913F912F910F900FBE0F901F9025
:1011B0001895883109F488C0803251F780937504FE
:1011C00014C0803409F49DC040F48033B9F38833EF
:1011D000F9F68093750485ECB0C0803509F485C0BC
:1011E000883509F496C0883499F60E942307D0CF39
:1011F000883909F48CC038F5883729F050F48836DE
:1012000011F0803729F683E0809377041092690209
:1012100057C0883809F47BC0803919F0803809F04C
:10122000B7CF80916902803208F071C0E091690205
:1012300081E08E0F809369028091BB00F0E0E75B54
:10124000FD4F80833DC0803B39F0E0F4803A09F4E3
:1012500079C0883A09F09CCF84E08093770410929B
:10126000480210924702E0914D04F0914E04099516
:101270008091470281110FC081E080934702109254
:10128000270209C0803C09F4A6CF883C09F4A3CF0B
:10129000883B09F07DCFE091480281E08E0F80937A
:1012A0004802F0E0E95DFD4F80818093BB009091A2
:1012B00048028091470229C0809152048093BB006C
:1012C00085EC8093BC0064CF90917404809173048A
:1012D000981758F5E091740481E08E0F80937404A0
:1012E000F0E0ED5AFB4F8081E9CFE091740481E09A
:1012F0008E0F809374048091BB00F0E0ED5AFB4F99
:10130000808390917404809173049817C8F285E8E3
:10131000D8CFE091740481E08E0F809374048091A3
:10132000BB00F0E0ED5AFB4F808380917604811181
:101330005CCF81E08093510484EA8093BC001092DA
:10134000770426CF85EC8093BC00109277048091BF
:101350006902803230F4E0916902F0E0E75BFD4F12
:1013600010826091690270E0E0914B04F0914C04AE
:1013700089E492E00995109269020ACF10927504EF
:1013800034CFE1EAF4E01382128288EE93E0A0E029
:10139000B0E084839583A683B78388EF91E091833F
:1013A00080831092AE041092AD040895CF93DF9322
:1013B000CDB7DEB767970FB6F894DEBF0FBECDBFCF
:1013C000789484B5826084BD84B5816084BD85B520
:1013D000826085BD85B5816085BD80916E0081602C
:1013E00080936E00109281008091810082608093D2
:1013F00081008091810081608093810080918000D4
:101400008160809380008091B10084608093B100FE
:101410008091B00081608093B00080917A008460F8
:1014200080937A0080917A00826080937A00809124
:101430007A00816080937A0080917A00806880933E
:101440007A001092C1000E9407028091AD04909131
:10145000AE04009711F00E94901C86E090E00E947C
:10146000F41B8C0180E6D8018C9381EA94E01296FB
:101470009C938E93119713961C92139780E290E0A1
:1014800015969C938E9314971093AE040093AD041D
:101490000E94070281E0F8018383C8010E94B8031B
:1014A00001EF13E021E2E22E24E0F22E2DEE31E0F6
:1014B0003B8B2A8B34EF832E31E0932E62E0AA8996
:1014C000BB898D91BB8BAA8B0E940E0168015701CD
:1014D000E0EFF1E0FD8BEC8BAC89BD897D90BD8B9D
:1014E000AC8B61E0872D0E940E0161E0872D0E9488
:1014F000E000F50111925F01D6011D921D921D922F
:101500001D926D012C883D888214930429F724E0F4
:10151000E20EF11C005F1F4F4A895B89405F51401A
:1015200069F662E089E00E940E0162E08AE00E94B2
:101530000E0160E08BE00E940E0162E08CE00E94F0
:101540000E0160E08EE00E940E0161E08DE00E94DD
:101550000E0160E08BE00E94E0000E94B6014B01AA
:101560005C010E94B601681979098A099B09603DEE
:10157000774081059105D0F489E00E94B7007C0195
:101580008AE00E94B7008C018CE00E94B700EF282F
:1015900011F00C944F18012B11F00C94531881E0AA
:1015A0008093410461E08BE00E94E000BE016B5F2C
:1015B0007F4F90E080E00E943B068D819E818933C1
:1015C0009043A1F16EED71E090E080E00E948C0705
:1015D00090E0E92E91E0F92E04E010E0F801E050EF
:1015E000FF4F5F01670148018E189F08C4018C0DF1
:1015F0009D1D9A838983D6016D916D01CE0101965F
:101600000E945B07CA14DB0489F7B4E0EB0EF11CFF
:101610000C5F1F4F083C110509F71A821982BE01A1
:101620006F5F7F4F88EC90E00E948C07BE016D5F7A
:101630007F4F88EC90E00E943B068B819C81823337
:10164000994009F440C019EAE12E12E0F12E04E0BD
:1016500010E084E0682E712C980127553D4F590108
:10166000670148018E189F08C4018C0D9D1D0E94C2
:101670000F19D6018D936D01AA16BB06A9F7F701C4
:1016800061917191819191917F0120E030E04AE771
:1016900054E40E94591B0E946C1A7A836983BE012C
:1016A0006F5F7F4FC3010E948C07F2E06F0E711CC9
:1016B0000C5F1F4F083C110579F66CED71E088EC6A
:1016C00090E00E948C07B9EAEB2EB2E0FB2E04E01A
:1016D00010E0BE016F5F7F4FC8010E943B06698129
:1016E0007A81072E000C880B990B0E94A41A20E027
:1016F00030E04AE754E40E94FA19D7016D937D93D4
:101700008D939D937D010E5F1F4F0636110509F7DE
:10171000812C912C5401D12CC12C8FE00E944A01C4
:101720007C0180E10E944A018C010E945F019601C8
:10173000285F3F4F02C0000F111F2A95E2F7012ECC
:10174000000C220B330B0C2C02C0EE0CFF1C0A9475
:10175000E2F72701FF0C66087708DC01CB0184253E
:101760009525A625B725082719272A273B27802650
:101770009126A226B32661E070E080E090E00E940E
:101780008401BFEFCB1ADB0AE8E0CE16D10429F6BC
:1017900010E000E0C8010E940F1990E09801220FAC
:1017A000331F02C0880F991F2A95E2F76C01990F29
:1017B000EE08FF08C701B601682579258A259B2513
:1017C0000F5F1F4F0830110509F0FEC1C814D9047E
:1017D000EA04FB0411F00E9406190E94B71820E0E9
:1017E00030E041E050E00E94251970933A04609384
:1017F0003904672B31F48AE59AE590933A04809393
:1018000039040E94CF05BE016F5F7F4F88E690E0EC
:101810000E94EE068823C9F089819A81853A954A0B
:10182000A1F065EA75EA88E690E00E941F08882327
:1018300061F00AE610E070E060E0C8010E941F0855
:101840000E5F1F4F06371105B1F70E94B6016B01FD
:101850007C0180914104882309F463C20E94B6018F
:101860006B017C0189E00E94B700892B09F0AFC1B0
:101870008AE00E94B700892B09F0A9C180918F02EC
:1018800090919002A0919102B091920216012701CD
:10189000281A390A4A0A5B0AD201C101813D9740E0
:1018A000A105B10508F09EC189E00E94B700892B0F
:1018B00071F58AE00E94B700892B49F180918A0274
:1018C00090918B02A0918C02B0918D02A70196019C
:1018D000281B390B4A0B5B0BDA01C901893C9105C6
:1018E000A105B105A0F08091880290918902843011
:1018F00091052CF401969093890280938802C092FE
:101900008A02D0928B02E0928C02F0928D028AE0E1
:101910000E94B700892B31F489E00E94B700892B1F
:1019200009F076C11092840210928502109286020C
:10193000109287026CE6A62E62E0B62E70EF272E7C
:1019400071E0372E10E000E0E0E36E2E712CF10123
:1019500041901F0160E0842D0E94E00065015DEE72
:10196000852E51E0952EF12CE12CD4018D914D0165
:101970000E94B70055245394009709F0512C892BED
:1019800009F047C0F60180819181892B09F041C09F
:101990002091880230918902C701880F991F880F12
:1019A000991F800F911FFCE0F29FA001F39F500D43
:1019B0001124840F951F90936B0280936A02243048
:1019C000310551F4E114F10439F40115110521F444
:1019D00070926B0260926A0280916A0290916B022F
:1019E00081339105B0F4880F991F880F991FFC016E
:1019F000E755FD4F2FE338EA4FE454E460817181ED
:101A0000828193810E94591B0E946C1ACB010E9413
:101A1000E505852D90E0D6018D939C93BFEFEB1AE1
:101A2000FB0AE8E0CE0ED11CF3E0EF16F10409F05A
:101A30009CCF61E0842D0E94E0000F5F1F4F22E0E9
:101A4000A20EB11C0430110509F081CF8CE00E9478
:101A5000B700892B09F076C0E0906A02F0906B0223
:101A60003FEFE316F30609F46DC08701000F111F65
:101A7000000F111FF801E050FF4F80809180A2807D
:101A8000B3808EE00E944A01BC01990F880B990B2C
:101A90000E94A41A20E030EC4FE754E40E94FA19A7
:101AA00020E030E040E85EE30E94591B20E030E097
:101AB00040E05EE30E948819A50194010E94891903
:101AC0004B015C01E114F10409F017C120E030E0A2
:101AD000A9010E94541B18161CF0812C912C540152
:101AE000F801E755FD4F80829182A282B3822FE3F5
:101AF00038EA4FE454E4C501B4010E94591B0E9426
:101B00006C1ACB010E94E50520E030E04AE754E47E
:101B1000C501B4010E94591B0E946C1A7A83698323
:101B200080916A0290916B020296BE016F5F7F4FB7
:101B3000880F991F0E948C078FEF9FEF90936B0285
:101B400080936A0280E090E0892B09F47ECE0E94A7
:101B500000007BCE012B11F40C94531881E080938C
:101B6000400461E08BE00E940E0160E08BE00E9487
:101B7000E0008DE693E04DE953E06DE973E0FC0190
:101B800030E020E01192119211921192DA01A20F2D
:101B9000B31F1C922F5F3F4F2430310599F74096B9
:101BA0004C5F5F4F6817790751F7109298021092B7
:101BB000990210929A0210929B0210929C0210922B
:101BC000A90310929702F2CC4B015C01E3CDC092C5
:101BD0008F02D0929002E0929102F09292021092C3
:101BE0008E0262CE80918E0281115ECE10924104EF
:101BF00081E080938E0260E08BE00E94E000C09262
:101C00008F02D0929002E0929102F09292024CCE1A
:101C100080918A0290918B02A0918C02B0918D02EA
:101C200016012701281A390A4A0A5B0AD201C101A2
:101C3000893C9105A105B105A0F0809188029091A1
:101C40008902181619062CF4019790938902809343
:101C50008802C0928A02D0928B02E0928C02F092AB
:101C60008D028091840290918502A0918602B091AC
:101C700087020097A105B10549F4C0928402D09271
:101C80008502E0928602F092870254CEC81AD90AE1
:101C9000EA0AFB0A01E4C0160FE1D006E104F104F0
:101CA00008F448CE84ECE0E0F1E0A9EAB2E001906B
:101CB0000D928A95E1F7F0E0EF2EF1E0FF2E04E0BF
:101CC00010E0D7016D917D918D919D917D0120E076
:101CD00030E04AE754E40E94591B0E946C1A7A8350
:101CE0006983BE016F5F7F4FC8010E948C070E5F42
:101CF0001F4F0636110529F715CE40E3E416F1040F
:101D000009F0EECE20E030E040E850E40E94F51902
:101D100087FDE6CE812C912CF0E8AF2EF0E4BF2EAB
:101D2000DFCEB0904004BB2009F4C6C21092A903D4
:101D300089E00E94B7008C01BB24B394892B09F081
:101D4000B12C8AE00E94B70041E0009709F040E022
:101D5000012B71F52091D40321112AC00091CF03EA
:101D60001091D0032091D1033091D20316012701A5
:101D7000201A310A420A530A9201810103331105E4
:101D800021053105A8F02091C4013091C50124300E
:101D9000310534F42F5F3F4F3093C5012093C401C8
:101DA000C092CF03D092D003E092D103F092D2033D
:101DB000892B61F58091D303811128C08091CF03D5
:101DC0009091D003A091D103B091D20326013701A5
:101DD000481A590A6A0A7B0AD301C201C397A105AE
:101DE000B105A0F08091C4019091C50182309105A8
:101DF0002CF001979093C5018093C401C092CF034A
:101E0000D092D003E092D103F092D203B092D403E7
:101E10004093D3035DE6A52E53E0B52E6DE9862EE3
:101E200063E0962E00EF11E0188B0F87AF85B8891D
:101E30002D90B88BAF87298A60E0822D0E94E00048
:101E4000350184012DEE31E03C872B87AB85BC85C5
:101E50008D91BC87AB870E94B700B1E0BF8300972C
:101E600009F01F82F80120812F80221609F46DC02D
:101E7000D3014D915D916D917C9116012701241A3A
:101E8000350A460A570AB201A1014A3151056105D6
:101E9000710508F45AC0892B09F04EC02091C40185
:101EA0003091C501215031094CE0342E329EC001E1
:101EB000339E900D112498012D593340820F931FAA
:101EC0008133910514F080E390E0880F991F880F0B
:101ED000991FFC01E755FD4F2080318042805380DF
:101EE0002092A5023092A6024092A7025092A80228
:101EF00020E030E0A9016091A1027091A2028091DE
:101F0000A3029091A4020E94F519811115C020929C
:101F10009D0230929E0240929F025092A0022FE3B7
:101F200038EA4FE454E4C201B1010E94591B0E94F7
:101F30006C1ACB010E94E5052F80D8012C92D301A9
:101F4000CD92DD92ED92FC921397F8018081882367
:101F500019F0F1E0F093A9030C5F1F4F20E1620E2E
:101F6000711C2A883B884B845C842414350409F056
:101F70006DCF61E089890E94E0000FEF801A900A1E
:101F800014E0A10EB11C2C883D884F84588824147D
:101F9000350409F04BCF8CE00E94B70011E00097A8
:101FA00009F010E020919C02121709F46AC04091D8
:101FB00098025091990260919A0270919B023601A9
:101FC0004701641A750A860A970AB401A3014A31C7
:101FD00051056105710508F454C0892B09F047C00B
:101FE0008091C4019091C50101978330910508F05B
:101FF000E1C080529E4FDC018C91082E000C990BA1
:10200000880F991F880F991FFC01E755FD4F8080AD
:102010009180A280B3808092A5029092A602A092A5
:10202000A702B092A80220E030E0A9016091A102CD
:102030007091A2028091A3029091A4020E94F519CE
:10204000811115C080929D0290929E02A0929F02E3
:10205000B092A0022FE338EA4FE454E4C501B40182
:102060000E94591B0E946C1ACB010E94E505109337
:102070009C02C0929802D0929902E0929A02F09249
:102080009B0280919C02882319F081E08093A90330
:102090001091A90380919702181731F0612F8BE0FE
:1020A0000E94E000109397028EE00E944A01803166
:1020B00091050CF082C01092A1021092A20210921F
:1020C000A3021092A4022090A1023090A20240909C
:1020D000A3025090A4022F82388649865A8620E0B7
:1020E00030E0A901C201B1010E94541B18160CF086
:1020F00029CD40909D0250909E0260909F0270906A
:10210000A002C090A502D090A602E090A702F09095
:10211000A802A7019601C301B2010E94F519882304
:1021200009F410CD0E945F016B877C878D879E87A5
:102130008091930290919402A0919502B0919602A1
:102140008B849C84AD84BE84881A990AAA0ABB0A2F
:10215000D501C401843F9140A105B10508F4F2CC3A
:10216000A3019201C701B6010E9488194B015C01CD
:1021700020E030E0A9010E94541B18160CF066C044
:102180002FE632E143E85AE3C501B4010E94541B33
:1021900018160CF465C0C0929D02D0929E02E09287
:1021A0009F02F092A0022FE338EA4FE454E4C70103
:1021B000B6016EC080E390E023CF9C018132934052
:1021C00014F020E233E0032E000C440B550B2C5F7F
:1021D000334041095109A4E6B0E00E94441924E1CA
:1021E0003CEF4FEF5FEF0E942519CA01B9010E9431
:1021F000A41A20E030EC4FE754E40E94FA196B0176
:102200007C0120E030E0A9010E94F51987FD1AC089
:102210002DEC3CEC4CEC5DE3C701B6010E94541B75
:1022200018163CF48DECC82E8CECD82EED2C8DE3DA
:10223000F82EC092A102D092A202E092A302F092E4
:10224000A40241CFC12CD12C7601F3CF2FE632E18D
:1022500043E85AEBC501B4010E94F51987FF9BCFF3
:10226000A50194016F81788589859A850E94591B03
:10227000A30192010E94891960939D0270939E02AE
:1022800080939F029093A0022FE338EA4FE454E436
:102290000E94591B0E946C1ACB010E94E5052B84F9
:1022A0003C844D845E84209293023092940240924A
:1022B00095025092960246CC8EE00E944A014091CF
:1022C000D0015091D1019A01220F331F240F351FE5
:1022D000820F931F97FD0396AC0155954795559531
:1022E00047955093D1014093D00120913F04222380
:1022F00099F020913D0430913E042A01421A530A7C
:10230000920157FE03C03195219531092F313105D6
:102310000CF4BCC010923F04E090CC01F090CD01D1
:10232000403151050CF0B7C01092CD011092CC0194
:102330000091CC011091CD010230110509F46BC15F
:1023400008F0C5C00115110509F4ECC001301105F4
:1023500009F411C144E0E416F10409F003C110923C
:102360003604109233048CE00E94B7009C0111E007
:10237000892B09F010E090913204232B09F09BC6C1
:1023800091118CC10E94B60160932E0470932F04AA
:10239000809330049093310410933204B1EF4B2EAC
:1023A000B3E05B2E00EF11E01C870B87198AE12C4C
:1023B000A12C912C812CFF24F39460E0AB85BC858B
:1023C0008C910E94E0008401F401EF5DFB4F1F013E
:1023D0009401245F3F4F3F8B2E8B32014DEE51E035
:1023E000588B4F87AF85B8898D91B88BAF870E9486
:1023F000B7006C01B1E0BF83892B09F01F82011582
:10240000110509F067C1C114D10409F461C6F101D5
:102410008081FF81F81709F4C6C30E94B601D30179
:102420002D913D914D915C91621B730B840B950B2B
:10243000633371058105910508F472C12F81F101A3
:1024400020830E94B601D3016D937D938D939C935D
:102450001397CD2809F064C1B0902D04BB2009F476
:10246000E4C20C30110508F05BC1F801E65CFD4EDA
:102470000C94DA1B87138E13EB149013F214F914D7
:102480009013001507150C150F1512154091CE016C
:102490005091CF0141CF24E030E04D3E03E05007A2
:1024A00044F49A01245F31402B30310538F422E0A6
:1024B00030E03093CD012093CC013ACF21E030E0E1
:1024C000443F11E05107ACF323E030E0F2CF03309A
:1024D000110509F4ADC00430110509F03BCF10928D
:1024E000C8011092C9011092CA011092CB0110923A
:1024F0003C048091360481110DC080913904909183
:102500003A04909335048093340481E08093360438
:102510000E94CD0404E0E016F10409F424CFEF2872
:1025200039F121CF1092C8011092C9011092CA014D
:102530001092CB0181E080933C0490913B04911177
:102540000CC02091390430913A0430933804209320
:10255000370480933B040E94CD04F4E0EF16F104AD
:1025600009F4FDCEEF2809F0FECE012B09F4FBCED5
:1025700010923B04F6CEBA01052E000C880B990B85
:10258000443A5140FCF49B01AC012C533109410900
:102590005109ACE8B0E00E94441928E631E040E07F
:1025A00050E00E942519CA01B901665F7F4F8F4F25
:1025B0009F4F0E94A41A20E030E04AE754E40E94B2
:1025C000FA191EC00E94A41A20E030E042ED53E444
:1025D0000E94881920E030E040EA52E40E94FA1993
:1025E0009B01AC010E94591B2AE939E949E55FE3E7
:1025F0000E94591B2AE939E949E15EE30E948919E1
:102600006093C8017093C9018093CA019093CB0174
:1026100010923C04A2CF80E090E0A0E8BFE380935A
:10262000C8019093C901A093CA01B093CB01F0CF28
:10263000BA01052E000C880B990B49355240BCF0AD
:102640009B01AC012855324041095109A4E7BFEF75
:102650000E9452192EE531E040E050E00E94251919
:10266000CA01B9016A567F4F8F4F9F4FA2CF0E9478
:10267000A41A20E030E04FEF53E40E94881920E0D4
:1026800030E044EB52E40E94FA199B01AC0160E097
:1026900070E080E89FE30E948819A2CF80912D040A
:1026A00081117ACE0E94B601C0902E04D0902F04E2
:1026B000E0903004F09031046C197D098E099F0977
:1026C000663971058105910508F466CE81E0809335
:1026D0002D0462CE0330110559F4C114D10409F060
:1026E00096CE80912D04882309F491CEA82E8FCE0A
:1026F0000630110509F08BCEC114D10409F087CE44
:1027000080912D04882309F482CEE82E80CEE3E068
:10271000F0E0F093C701E093C60102C0F092F0032D
:102720000C5F1F4F50E1650E711C64E0260E311CDA
:102730008E899F898017910709F054CE61E0AB859F
:10274000BC858D91BC87AB870E94E000BFEF8B1AE0
:102750009B0AE4E04E0E511CF4E08F16910409F040
:102760002CCE9090ED03992041F02988222029F069
:102770000E94CF0581E08093EE03A092EC03E092EB
:10278000EB03B11002C0B0902D046B2D8DE00E94C0
:10279000E0000E94B6012B013C0189E00E94B700D5
:1027A0006C01BB24B394892B09F0B12C8AE00E9400
:1027B000B7008C01FF24F394892B09F0F12CCD286C
:1027C00009F009C28091D9039091DA03A091DB034B
:1027D000B091DC030097A105B10509F0E8C1409272
:1027E000D9035092DA036092DB037092DC031092FB
:1027F000EE03012B09F037C28091D5039091D603E7
:10280000A091D703B091D8030097A105B10509F0B5
:1028100017C24092D5035092D6036092D7037092AC
:10282000D8031092EE038091D403B81204C08091B3
:10283000D303F81609F10E94B6010091CF0310915D
:10284000D0032091D1033091D203601B710B820B16
:10285000930B633371058105910570F0B092D40339
:10286000F092D3030E94B6016093CF037093D0031C
:102870008093D1039093D2038BE00E94B700BB24D6
:10288000B394009709F4B12C892B09F449C28091C3
:10289000CE03811145C2F09036048091F003882365
:1028A00009F4B4C2F11017C280913B0481113CC2FB
:1028B00080913B048111ADC24091C6015091C70186
:1028C0006091390470913A0421E030E0042E02C096
:1028D000220F331F0A94E2F72150310926233723B0
:1028E000483051050CF42EC3CA01089702C0369532
:1028F00027958A95E2F7822FAA2009F483C34150D5
:1029000051092091CC033091CD03421B530B21E0A0
:1029100030E002C0220F331F4A95E2F7A90140952B
:1029200050956423752370933A0460933904FF2013
:1029300009F44DC37093350460933404E110C1C3AE
:102940000E941F042FE338EA4FE454E40E94591B0D
:102950000E946C1ACB010E94E5058091C6019091FE
:10296000C70101970091390410913A0402C01695ED
:1029700007958A95E2F7B02FB170AB2E80913C0499
:10298000882309F45EC300951095E02FE170AE2E08
:102990008091390490913A04880F991F8A29909365
:1029A0003A04809339048091CC039091CD03019631
:1029B0009093CD038093CC032091C6013091C70141
:1029C00040913C04442311F0220F331F82179307D8
:1029D0000CF0A4C2A5C124E030E03093C7012093DD
:1029E000C6019ECE45E050E05093C7014093C6011A
:1029F00097CE86E090E09093C7018093C60190CE79
:102A0000A8E0B0E0B093C701A093C60189CE8FEFD4
:102A10009FEF0E94DD0384CEECE0F0E07ACE81E00F
:102A200090E0F7CF20E130E0D8CFB090EF03BB20AB
:102A300009F445C086E790E001301105A1F082E875
:102A400090E00330110579F08EE890E00630110532
:102A500051F08AE990E00830110529F00A3011059B
:102A600039F486EA90E00E94B307F092EE0358CE64
:102A70000230110559F0C8010497029738F0073069
:102A8000110521F0C8018D7F0997B1F4C8010297A3
:102A90008A30910578F48D519E4FDC01CC900C2C3E
:102AA000000CDD08D7FC06C00E940504BC01C6016D
:102AB0000E941F08F092EE03BB24B39431CEB09075
:102AC000ED03BB2009F45CC086E790E001301105FE
:102AD000A1F082E890E00330110579F08EE890E0F3
:102AE0000630110551F08AE990E00830110529F00F
:102AF0000A30110529F486EA90E00E944F06B5CF0E
:102B00000230110559F0C8010497029738F00730D8
:102B1000110521F0C8018D7F099771F6C801029750
:102B20008A30910538F68D519E4FFC018081082E28
:102B3000000C990B97FDBECFBE016D5F7F4F0E94C9
:102B4000EE06882309F4B6CFBE016F5F7F4F88E69B
:102B500090E00E94EE06882309F4ACCF89819A8127
:102B6000853A954A09F0A6CF8B819C819C01215022
:102B700031092E3F3F4F08F09DCF0E94B0059ACFFC
:102B8000F801E152FC4F8081811196CFF082809153
:102B9000DD039091DE0301969093DE038093DD03C5
:102BA0000E94CD0489CFCD2809F0BACD85CF9110F0
:102BB00020CEA3019201281B390B4A0B5B0BDA01D3
:102BC000C90186399105A105B10508F412CE81E04D
:102BD0008093ED030ECE992059F01092ED031092E0
:102BE000D9031092DA031092DB031092DC0301CEBA
:102BF0008091D9039091DA03A091DB03B091DC03BB
:102C0000A3019201281B390B4A0B5B0BDA01C901A6
:102C100086399105A105B10510F78091EE03811168
:102C2000DECF8091C4019091C50184309105BCF63E
:102C300001969093C5018093C4010E94CD04CFCF2B
:102C40002091EF032111EFCD481A590A6A0A7B0A35
:102C500036E9431651046104710408F4E4CD81E0BF
:102C60008093EF03E0CD8091EF03882359F0109219
:102C7000EF031092D5031092D6031092D70310924F
:102C8000D803D1CD8091D5039091D603A091D703DD
:102C9000B091D803481A590A6A0A7B0A46E94416D1
:102CA00051046104710428F78091EE038111E1CF92
:102CB0008091ED038111DDCF8091C4019091C50118
:102CC00082309105B4F201979093C5018093C401BD
:102CD0000E94CD04CECF809134049091350490931E
:102CE0003A048093390421E030E03093CD032093FF
:102CF000CC031092F003809133048823D1F08091AB
:102D0000CA039091CB0360E170E00E94C61BFC01F6
:102D1000EE0FFF1FE655FC4F808191810E94E50573
:102D2000B092CE030C94A20D809137049091380498
:102D3000D6CFA091C601B091C7010A2E02C0220FC2
:102D4000331F0A94E2F721503109809139049091A0
:102D50003A0428233923A830B105A4F0189702C0FB
:102D600036952795AA95E2F7E22F8E2F0E941F0431
:102D70002FE338EA4FE454E40E94591B0E946C1A76
:102D8000CB01CCCFE22FA430B10559F1B4F41397A5
:102D900061F72770422F50E09A0165E0220F331F40
:102DA0006A95E1F7FA01EE0FFF1FEE0FFF1F2E2BC2
:102DB00055954795E22FE42BD8CFA530B105C1F04A
:102DC000169799F62F73622F70E0FB01EE0FFF1F2D
:102DD000EE0FFF1F34E0759567953A95E1F7E62B06
:102DE000C4CF2F7050E1259FF0011124E22BBDCFFD
:102DF0002F71E22FF0E09F0143E0220F331F4A952D
:102E0000E1F7F595E795F595E795F0CFFF2009F403
:102E10004FCD80913304882309F44ECD0091C60133
:102E20001091C70150903B046801552011F0CC0C63
:102E3000DD1C61E1C616D1041CF080E1C82ED12C46
:102E40006090CC037090CD038091CA039091CB0326
:102E5000860D971DB6010E94C61B4C01AA2029F1C0
:102E60009801215031092619370981E090E002C00C
:102E7000880F991F2A95E2F7809590952091390443
:102E800030913A048223932390933A048093390437
:102E9000FF2009F448C090933504809334040E94C5
:102EA000CD041092CB031092CA03EE2009F1015019
:102EB00011090619170981E090E002C0880F991FD7
:102EC0000A95E2F72091390430913A04822B932B32
:102ED00090933A0480933904FF2069F1909335046C
:102EE000809334040E94CD041092CB031092CA0345
:102EF000F401EE0FFF1FE655FC4F808191810E9487
:102F0000E5058091CC039091CD0301969093CD037C
:102F10008093CC038C159D050CF402CF1092CD0349
:102F20001092CC03FDCE552009F4B9CF909338040C
:102F300080933704B4CF5520A9F29093380480933E
:102F40003704D0CF822F4430510561F1B4F44330BF
:102F5000510509F0D1CC277030E0C901E5E0880FB8
:102F6000991FEA95E1F7F901EE0FFF1FEE0FFF1F22
:102F70008E2B35952795822BBFCC45305105C1F05E
:102F80004630510509F0B8CC2F73A22FB0E0CD0127
:102F9000880F991F880F991FF4E0B595A795FA95AA
:102FA000E1F713C02F70A0E12A9FC0011124E3CFE5
:102FB0002F71A22FB0E0CD0113E0880F991F1A9551
:102FC000E1F7B595A795B595A7958A2B95CC9091E6
:102FD0003B04992321F07093380460933704EE206A
:102FE00009F4AECC622B732B70933A0460933904CE
:102FF00090913B04992309F4A3CC70933804609317
:1030000037049ECCEE2009F49BCC4150510920910D
:10301000CC033091CD03421B530B21E030E002C0C2
:10302000220F331F4A95E2F7622B732B70933A04F9
:1030300060933904FF20E1F2709335046093340407
:103040007FCC20E030E0A9016091C8017091C901F6
:103050008091CA019091CB010E94541B18160CF06C
:1030600097CC0E94B71828EE33E040E050E00E9471
:1030700025196B0120E030E04AE754E46091C80173
:103080007091C9018091CA019091CB010E94591B96
:103090000E946C1AC616D7060CF475CC79CC892B15
:1030A00011F40C94AA0D62E370E080E090E00E94BD
:1030B00084010C94B10A992309F46EC910922D046D
:1030C0006BC9622B732B70933A0460933904B4CFAD
:1030D00021E0298B9CC98F929F92AF92BF92CF9291
:1030E000DF92EF92FF92CF93DF93EC0168817981B9
:1030F0008A819B81611571058105910521F464E246
:1031000079ED8BE597E02DE133EF41E050E00E944F
:10311000251949015A019B01AC01A7EAB1E40E94BB
:1031200044196B017C01ACEEB4EFA50194010E943F
:103130005219C60ED71EE81EF91EF7FE06C081E022
:10314000C81AD108E10880E8F80AC882D982EA8260
:10315000FB82C701B6019F77DF91CF91FF90EF907F
:10316000DF90CF90BF90AF909F908F9008958F92F7
:103170009F92AF92BF92CF92DF92EF92FF926091B7
:10318000D2017091D3018091D4019091D501611544
:1031900071058105910521F464E279ED8BE597E0F5
:1031A0002DE133EF41E050E00E94251949015A0119
:1031B0009B01AC01A7EAB1E40E9444196B017C01B8
:1031C000ACEEB4EFA50194010E945219C60ED71EB1
:1031D000E81EF91EF7FE06C081E0C81AD108E10812
:1031E00080E8F80AC092D201D092D301E092D401D3
:1031F000F092D501C701B6019F77FF90EF90DF9065
:10320000CF90BF90AF909F908F9008956093D20120
:103210007093D3018093D4019093D5010895F999C7
:10322000FECF92BD81BDF89A992780B50895262FCB
:10323000F999FECF1FBA92BD81BD20BD0FB6F8949B
:10324000FA9AF99A0FBE01960895052E97FB1EF47F
:1032500000940E943C1957FD07D00E94571907FCA3
:1032600003D04EF40C943C1950954095309521951F
:103270003F4F4F4F5F4F08959095809570956195A2
:103280007F4F8F4F9F4F08950E947919A59F900DF2
:10329000B49F900DA49F800D911D11240895B7FF38
:1032A0000C9444190E944419821B930B0895A1E2C7
:1032B0001A2EAA1BBB1BFD010DC0AA1FBB1FEE1FB0
:1032C000FF1FA217B307E407F50720F0A21BB30BFB
:1032D000E40BF50B661F771F881F991F1A9469F777
:1032E00060957095809590959B01AC01BD01CF01D3
:1032F0000895A29FB001B39FC001A39F700D811DCF
:103300001124911DB29F700D811D1124911D0895EE
:103310005058BB27AA270E94A0190C941A1B0E9480
:103320000C1B38F00E94131B20F039F49F3F19F456
:1033300026F40C94091B0EF4E095E7FB0C94031B98
:10334000E92F0E942B1B58F3BA17620773078407F3
:10335000950720F079F4A6F50C944D1B0EF4E0953A
:103360000B2EBA2FA02D0B01B90190010C01CA013F
:10337000A0011124FF27591B99F0593F50F4503EEA
:1033800068F11A16F040A22F232F342F4427585FDC
:10339000F3CF469537952795A795F0405395C9F7F4
:1033A0007EF41F16BA0B620B730B840BBAF09150AC
:1033B000A1F0FF0FBB1F661F771F881FC2F70EC04B
:1033C000BA0F621F731F841F48F48795779567951E
:1033D000B795F7959E3F08F0B0CF9395880F08F00A
:1033E0009927EE0F9795879508950E94DF1A08F4A4
:1033F00081E008950E940E1A0C941A1B0E94131B60
:1034000058F00E940C1B40F029F45F3F29F00C9407
:10341000031B51110C944E1B0C94091B0E942B1B77
:1034200068F39923B1F3552391F3951B550BBB27F3
:10343000AA2762177307840738F09F5F5F4F220F38
:10344000331F441FAA1FA9F335D00E2E3AF0E0E82F
:1034500032D091505040E695001CCAF72BD0FE2F79
:1034600029D0660F771F881FBB1F2617370748070D
:10347000AB07B0E809F0BB0B802DBF01FF279358C5
:103480005F4F3AF09E3F510578F00C94031B0C946B
:103490004E1B5F3FE4F3983ED4F38695779567958E
:1034A000B795F7959F5FC9F7880F911D96958795FA
:1034B00097F90895E1E0660F771F881FBB1F621719
:1034C00073078407BA0720F0621B730B840BBA0BD7
:1034D000EE1F88F7E09508950E94731A6894B11161
:1034E0000C944E1B08950E94331B88F09F5798F050
:1034F000B92F9927B751B0F0E1F0660F771F881FF9
:10350000991F1AF0BA95C9F714C0B13091F00E9412
:103510004D1BB1E008950C944D1B672F782F882721
:10352000B85F39F0B93FCCF3869577956795B39539
:10353000D9F73EF490958095709561957F4F8F4FA8
:103540009F4F0895E89409C097FB3EF490958095AD
:10355000709561957F4F8F4F9F4F9923A9F0F92F59
:1035600096E9BB279395F695879577956795B795D7
:10357000F111F8CFFAF4BB0F11F460FF1BC06F5FBD
:103580007F4F8F4F9F4F16C0882311F096E911C0CF
:10359000772321F09EE8872F762F05C0662371F0F0
:1035A00096E8862F70E060E02AF09A95660F771F04
:1035B000881FDAF7880F9695879597F90895990FE0
:1035C0000008550FAA0BE0E8FEEF16161706E807ED
:1035D000F907C0F012161306E407F50798F0621B0E
:1035E000730B840B950B39F40A2661F0232B242BE3
:1035F000252B21F408950A2609F4A140A6958FEF02
:10360000811D811D089597F99F6780E870E060E053
:1036100008959FEF80EC089500240A94161617066B
:1036200018060906089500240A94121613061406B3
:1036300005060895092E0394000C11F4882352F016
:10364000BB0F40F4BF2B11F460FF04C06F5F7F4FCE
:103650008F4F9F4F089557FD9058440F551F59F0B5
:103660005F3F71F04795880F97FB991F61F09F3F6F
:1036700079F087950895121613061406551FF2CF98
:103680004695F1DF08C0161617061806991FF1CFE8
:1036900086957105610508940895E894BB2766270F
:1036A0007727CB0197F908950E94DF1A08F48FEF6E
:1036B00008950E946C1B0C941A1B0E940C1B38F07E
:1036C0000E94131B20F0952311F00C94031B0C9403
:1036D000091B11240C944E1B0E942B1B70F3959F09
:1036E000C1F3950F50E0551F629FF001729FBB27F9
:1036F000F00DB11D639FAA27F00DB11DAA1F649F95
:103700006627B00DA11D661F829F2227B00DA11D47
:10371000621F739FB00DA11D621F839FA00D611DCD
:10372000221F749F3327A00D611D231F849F600DEE
:10373000211D822F762F6A2F11249F5750409AF017
:10374000F1F088234AF0EE0FFF1FBB1F661F771FA3
:10375000881F91505040A9F79E3F510580F00C946E
:10376000031B0C944E1B5F3FE4F3983ED4F3869505
:1037700077956795B795F795E7959F5FC1F7FE2B0E
:10378000880F911D9695879597F9089597FB072EB9
:1037900016F4009407D077FD09D00E94E01B07FCC7
:1037A00005D03EF4909581959F4F08957095619551
:1037B0007F4F0895EE0FFF1F0590F491E02D0994BF
:1037C000AA1BBB1B51E107C0AA1FBB1FA617B70747
:1037D00010F0A61BB70B881F991F5A95A9F7809563
:1037E0009095BC01CD0108950F931F93CF93DF9364
:1037F0008230910510F482E090E0E091B104F09104
:10380000B20430E020E0B0E0A0E0309799F4211558
:10381000310509F44AC0281B390B24303105D8F58D
:103820008A819B816115710589F1FB0193838283F4
:10383000FE0111C04081518102811381481759074F
:10384000E0F04817590799F4109761F012960C931D
:10385000129713961C933296CF01DF91CF911F914F
:103860000F9108950093B1041093B204F4CF211581
:10387000310551F04217530738F0A901DB019A01D5
:10388000BD01DF01F801C1CFEF01F9CF9093B20480
:103890008093B104CDCFFE01E20FF31F819391938A
:1038A0002250310939832883D7CF2091AF0430913A
:1038B000B004232B41F42091D8013091D9013093E9
:1038C000B0042093AF042091D6013091D701211587
:1038D000310541F42DB73EB74091DA015091DB013B
:1038E000241B350BE091AF04F091B004E217F3070D
:1038F000A0F42E1B3F0B2817390778F0AC014E5F60
:103900005F4F2417350748F04E0F5F1F5093B004E8
:103910004093AF04819391939FCFF0E0E0E09CCF80
:10392000CF93DF930097E9F0FC0132971382128264
:10393000A091B104B091B204ED0130E020E0109705
:10394000A1F420813181820F931F2091AF04309127
:10395000B0042817390709F061C0F093B004E09370
:10396000AF04DF91CF910895EA01CE17DF07E8F5A4
:103970004A815B819E0141155105B1F7E901FB8345
:10398000EA8349915991C40FD51FEC17FD0761F4E3
:10399000808191810296840F951FE9019983888324
:1039A000828193819B838A83F0E0E0E012968D917F
:1039B0009C9113970097B9F52D913C911197CD01EA
:1039C0000296820F931F2091AF043091B004281704
:1039D000390739F6309751F51092B2041092B104BC
:1039E000B093B004A093AF04BCCFD383C283408113
:1039F0005181840F951FC817D90761F44E5F5F4F3F
:103A000088819981480F591F518340838A819B8106
:103A1000938382832115310509F0B0CFF093B2046E
:103A2000E093B1049ECFFD01DC01C0CF138212826E
:063A3000D7CFF894FFCF90
:103A360000000000E7FBA93D0C022B3E0000803E83
:103A4600FA7EAA3E0681D53E0000003F7D3F153F27
:103A560083C02A3F0000403F7D3F553F83C06A3FF9
:103A66000000803FBE9F8A3F4260953F0000A03F16
:103A7600BE9FAA3F4260B53F0000C03FBE9FCA3FFF
:103A86004260D53F0000E03FBE9FEA3F4260F53FFF
:103A960000000040DF4F054021B00A400000104002
:103AA600DF4F154021B01A4000002040DF4F25406F
:103AB60021B02A4000003040DF4F354021B03A4067
:103AC60000004040DF4F454021B04A4000005040D2
:103AD600DF4F554021B05A4000006040DF4F65403F
:103AE60021B06A4000007040DF4F754021B07A4037
:103AF60000008040010008000000003F02000002B4
:103B06000002010000000000B304800032093930D1
:103B16000C18246AFF6C6EFF70FF72FF74020304B8
:103B2600050607080000000086035903B5032F03A6
:063B360052033F033003BF
:00000001FF
