:100000000C9462000C948A000C948A000C948A0070
:100010000C948A000C948A000C948A000C948A0038
:100020000C948A000C948A000C948A000C948A0028
:100030000C948A000C948A000C948A000C948A0018
:100040000C944B050C948A000C948A000C948A0042
:100050000C948A000C948A000C948A000C948A00F8
:100060000C9495050C948A000000000024002700E1
:100070002A0000000000250028002B0000000000DE
:1000800023002600290004040404040404040202DA
:100090000202020203030303030301020408102007
:1000A0004080010204081020010204081020000012
:1000B0000008000201000003040700000000000027
:1000C0000000B40611241FBECFEFD8E0DEBFCDBFC5
:1000D00011E0A0E0B1E0E0EBFEE102C005900D927E
:1000E000A83EB107D9F723E0A8EEB1E001C01D9208
:1000F000A73FB207E1F710E0C2E6D0E004C02197C5
:10010000FE010E942B0EC136D107C9F70E94C90615
:100110000C94560F0C9400000895089580E4809389
:100120007C0080917A00806480937A0080917A00CC
:1001300086FDFCCF809178009091790008958330FE
:1001400081F028F4813099F08230A9F00895873049
:10015000A9F08830C9F08430B1F4809180008F7D9F
:1001600003C0809180008F7780938000089584B5CC
:100170008F7784BD089584B58F7DFBCF8091B000CB
:100180008F778093B00008958091B0008F7DF9CF74
:10019000CF93DF93282F30E0F901E255FF4F849190
:1001A000F901E656FF4FD491F901EA57FF4FC49188
:1001B000CC23A1F081110E949F00EC2FF0E0EE0F04
:1001C000FF1FE458FF4FA591B491EC91ED2381E01E
:1001D00090E009F480E0DF91CF91089580E090E015
:1001E000FACF1F93CF93DF93282F30E0F901E25528
:1001F000FF4F8491F901E656FF4FD491F901EA5778
:10020000FF4FC491CC23A9F0162F81110E949F00AB
:10021000EC2FF0E0EE0FFF1FEE58FF4FA591B491C9
:100220008FB7F894EC91111108C0D095DE23DC93C0
:100230008FBFDF91CF911F910895DE2BF8CFCF9321
:10024000DF9390E0FC01E656FF4F24918A579F4FC1
:10025000FC0184918823C9F090E0880F991FFC016C
:10026000E859FF4FA591B491FC01EE58FF4FC5919D
:10027000D49161110DC09FB7F8948C912095822381
:100280008C938881282328839FBFDF91CF91089585
:10029000623051F49FB7F8943C91822F809583236C
:1002A0008C93E8812E2BEFCF8FB7F894EC912E2B07
:1002B0002C938FBFEACF3FB7F89480918B03909136
:1002C0008C03A0918D03B0918E0326B5A89B05C029
:1002D0002F3F19F00196A11DB11D3FBFBA2FA92FC5
:1002E000982F8827BC01CD01620F711D811D911DC2
:1002F00042E0660F771F881F991F4A95D1F708952E
:100300008F929F92AF92BF92CF92DF92EF92FF9225
:100310006B017C010E945B014B015C01C114D104A3
:10032000E104F104B9F00E945B01681979098A09B6
:100330009B09683E73408105910580F321E0C21A54
:10034000D108E108F10888EE880E83E0981EA11C10
:10035000B11CE4CFFF90EF90DF90CF90BF90AF90B3
:100360009F908F9008952FB7F894609187037091B4
:1003700088038091890390918A032FBF089520916B
:100380003602260F3327331F21323105ECF420913A
:10039000BB03FC0190E080E0243069F082E0089526
:1003A000A09136022191AC014A5E5D4FA40FB52F9A
:1003B000B11D2C930196861798F380913602680F31
:1003C0006093360280E0089581E008951092BB03A7
:1003D00081E08093BA031092950361E082E10E946C
:1003E000F10061E083E10E94F100E9EBF0E080813F
:1003F0008E7F808380818D7F808388E48093B800A6
:1004000085E48093BC0008951092940310929303A6
:100410001092C2031092E4030E94E6018CE890E07F
:1004200090939203809391038DE890E090939003D2
:1004300080938F030895CF93DF9391E090931502FB
:100440008823B9F0C091B800D091BA008091BC0067
:100450008A7B8093BC0060E082E10E94F10060E052
:1004600083E10E94F1000E94E601D093BA00C0939C
:10047000B800DF91CF9108958F929F92AF92BF9273
:10048000CF92DF92EF92FF920F931F93CF93DF9360
:10049000D091E403D13208F0D7C0182FC091E30304
:1004A0000E945B016B017C018091BB0381116BC0D9
:1004B00082E08093BB031093BA038FEF8093B9035C
:1004C0001092B803D093B703A3ECB3E0E7E9F3E0ED
:1004D00080E0D81391C01092960380919603CC0FC0
:1004E000C82BC093960380919503813009F088C092
:1004F000109295030E945B016B017C018091960331
:100500008093BB008091BD039091BE03A091BF0377
:10051000B091C003892B8A2B8B2BA1F00E945B0129
:100520000091BD031091BE032091BF033091C00321
:100530006C197D098E099F090617170728073907C7
:1005400008F442C08091BC0083FDD8CF85EC809335
:10055000BC000E945B016B017C018091BB03823077
:1005600009F450C08091B9038F3F09F46FC08091A6
:10057000B903803209F46CC08091B903803309F467
:1005800069C084E026C08091BD039091BE03A09114
:10059000BF03B091C003892B8A2B8B2B09F484CF26
:1005A0000E945B018090BD039090BE03A090BF03AA
:1005B000B090C0036C197D098E099F0986169706B5
:1005C000A806B90608F070CF8091BC030E941B02F8
:1005D00085E01092C2031092E4031092C103DF91F0
:1005E000CF911F910F91FF90EF90DF90CF90BF9030
:1005F000AF909F908F9008959D9191938F5F69CF59
:1006000085EEA5CF8091BD039091BE03A091BF035D
:10061000B091C003892B8A2B8B2B09F49ECF0E94AB
:100620005B010091BD031091BE032091BF03309187
:10063000C0036C197D098E099F0906171707280743
:10064000390708F08ACFC0CF81E0C3CF80E0C1CFA7
:1006500082E0BFCF83E0BDCFCF93DF93EC018B81EE
:100660008823A1F0888191E09093C1038093E303F4
:100670001092C2031092E40381E00E943C0291E0D8
:10068000811190E0892FDF91CF9108950E9404029B
:1006900081E08B83CE010E942C03982F8111E2CF41
:1006A000F1CF0895E091940380919303E81730F41B
:1006B000F0E0EB50FE4F808190E008958FEF9FEFC8
:1006C000089590919403809193032FEF3FEF981733
:1006D00048F4E92FF0E0EB50FE4F208130E09F5FBF
:1006E00090939403C901089580919303909194038A
:1006F000891B990B0895CF92DF92EF92FF920F938F
:100700001F93CF93DF937C01CB018A012091C1031A
:10071000222389F0EB016B01C40ED51ECC15DD053B
:1007200069F06991D701ED91FC910190F081E02D84
:10073000C7010995F3CF642F0E94BF01C801DF9163
:10074000CF911F910F91FF90EF90DF90CF90089580
:10075000CF93DF931F92CDB7DEB769832091C1039A
:100760002223F9F02091E403203258F021E030E018
:10077000FC013383228390E080E00F90DF91CF91E2
:1007800008958091C203E82FF0E0ED53FC4F99816A
:1007900090838F5F8093C2038093E40381E090E0B5
:1007A000ECCF61E0CE0101960E94BF01F7CF90E04F
:1007B00080E00895CF93DF9300D01F92CDB7DEB7CE
:1007C0001092B9002CE02093B80020E429839C010A
:1007D00094E0369527959A95E1F72A838295807F54
:1007E0008B83E091F103F091F2038481958103976B
:1007F00038F480E00F900F900F90DF91CF91089523
:1008000081819281208131E03093C1032093E30301
:100810001092C2031092E403DC01ED91FC9102807E
:10082000F381E02D43E050E0BE016F5F7F4F0995FB
:100830000397F9F681E00E943C028111DACF109211
:10084000B90088E48093B80081E0D4CFCF92DF92E2
:10085000EF92FF928091F401882309F444C00E9432
:100860005B016B017C018091F0019091F101A091FD
:10087000F201B091F301B701A601481B590B6A0BB5
:100880007B0B8091EE019091EF01092E000CAA0BD9
:10089000BB0B481759076A077B0728F18091EC01C9
:1008A0009091ED012091EA013091EB01820F931FAD
:1008B0009093ED018093EC010E94DA03C092F00165
:1008C000D092F101E092F201F092F3012091EC015B
:1008D0003091ED018091E8019091E90128173907E5
:1008E00011F41092F401FF90EF90DF90CF900895F3
:1008F0008F929F92AF92BF92CF92DF92EF92FF9230
:100900000F931F93CF93DF9369017A012FE338EAA6
:100910004FE454E40E94AE0D0E94C10C4B018B01C8
:100920007093E9016093E801C091EC01D091ED0171
:100930006C177D07F1F1C114D104E104F104C9F190
:1009400081E08093F4010E945B016093F001709359
:10095000F1018093F2019093F3019E012819390966
:1009600037FF03C0319521953109032E000C440B4C
:10097000550BC701B6010E94AC0B3093EF012093D9
:10098000EE018FEF9FEFC017D10714F481E090E0E4
:100990009093EB018093EA01DF91CF911F910F912A
:1009A000FF90EF90DF90CF90BF90AF909F908F908F
:1009B00008959092ED018092EC01C4010E94DA0347
:1009C0001092F401E9CF9F92AF92BF92CF92DF9243
:1009D000EF92FF920F931F93CF93DF935C017B0104
:1009E0008B01D0E0C0E0F80191908F016501CC0E41
:1009F000DD1EC6010E946C0B981621F0692DC60100
:100A00000E94740B2196C430D10569F7C701DF91AC
:100A1000CF911F910F91FF90EF90DF90CF90BF90FB
:100A2000AF909F90089585ED8093BC008091BD03A9
:100A30009091BE03A091BF03B091C0030796A11D82
:100A4000B11D23E0B695A795979587952A95D1F77F
:100A50002091BC0024FD03C01092BB030895409177
:100A6000BD035091BE036091BF037091C003452B3D
:100A7000462B472B69F30097A105B10541F02AE207
:100A80002A95F1F700C00197A109B109E1CF809142
:100A9000BC030C941B021F920F920FB60F921124ED
:100AA0002F933F938F939F93AF93BF93809187032F
:100AB00090918803A0918903B0918A0330918603B5
:100AC00023E0230F2D3758F50196A11DB11D20936A
:100AD00086038093870390938803A0938903B09340
:100AE0008A0380918B0390918C03A0918D03B09128
:100AF0008E030196A11DB11D80938B0390938C03EF
:100B0000A0938D03B0938E03BF91AF919F918F916E
:100B10003F912F910F900FBE0F901F90189526E8D0
:100B2000230F0296A11DB11DD2CF1F920F920FB6B7
:100B30000F9211242F933F934F935F936F937F9363
:100B40008F939F93AF93BF93EF93FF938091B900DF
:100B5000887F803609F44AC0F0F5883209F4A7C0CE
:100B600018F5803109F49BC0B8F4882309F4F9C062
:100B7000883009F494C0FF91EF91BF91AF919F919C
:100B80008F917F916F915F914F913F912F910F9036
:100B90000FBE0F901F901895883109F488C08032DD
:100BA00051F78093B90314C0803409F49DC040F418
:100BB0008033B9F38833F9F68093B90385ECB0C07C
:100BC000803509F485C0883509F496C0883499F6D3
:100BD0000E941305D0CF883909F48CC038F58837C6
:100BE00029F050F4883611F0803729F683E080939D
:100BF000BB031092580257C0883809F47BC0803973
:100C000019F0803809F0B7CF80915802803208F08F
:100C100071C0E091580281E08E0F8093580280915C
:100C2000BB00F0E0E85CFD4F80833DC0803B39F0C5
:100C3000E0F4803A09F479C0883A09F09CCF84E066
:100C40008093BB031092370210923602E091910319
:100C5000F091920309958091360281110FC081E0D5
:100C6000809336021092160209C0803C09F4A6CF88
:100C7000883C09F4A3CF883B09F07DCFE09137028F
:100C800081E08E0F80933702F0E0EA5EFD4F8081B5
:100C90008093BB00909137028091360229C08091E9
:100CA00096038093BB0085EC8093BC0064CF909149
:100CB000B8038091B703981758F5E091B80381E025
:100CC0008E0F8093B803F0E0E956FC4F8081E9CFA6
:100CD000E091B80381E08E0F8093B8038091BB0050
:100CE000F0E0E956FC4F80839091B8038091B70300
:100CF0009817C8F285E8D8CFE091B80381E08E0F4D
:100D00008093B8038091BB00F0E0E956FC4F8083EC
:100D10008091BA0381115CCF81E08093950384EACE
:100D20008093BC001092BB0326CF85EC8093BC005F
:100D30001092BB0380915802803230F4E091580247
:100D4000F0E0E85CFD4F10826091580270E0E091A5
:100D50008F03F091900388E392E009951092580276
:100D60000ACF1092B90334CFE5EEF3E0138212827A
:100D700088EE93E0A0E0B0E084839583A683B783F8
:100D80008AED91E0918380831092F2031092F10337
:100D90000895CF93DF93CDB7DEB72B970FB6F894B6
:100DA000DEBF0FBECDBF789484B5826084BD84B5AC
:100DB000816084BD85B5826085BD85B5816085BD56
:100DC00080916E00816080936E001092810080910E
:100DD0008100826080938100809181008160809396
:100DE0008100809180008160809380008091B100BB
:100DF00084608093B1008091B00081608093B000E6
:100E000080917A00846080937A0080917A00826079
:100E100080937A0080917A00816080937A0080913B
:100E20007A00806880937A001092C1000E940402C8
:100E30008091F1039091F203009711F00E94CD0E82
:100E400086E090E00E94310E8C0180E6F8018083FC
:100E500085EE93E092838183138280E290E0958314
:100E600084831093F2030093F1030E94040281E053
:100E7000F8018383C8010E942C033EE5E32E32E093
:100E8000F32E0FEC11E062E0F80181918F010E94D6
:100E90001F01570122EDC22E21E0D22E61E0F601A2
:100EA00081916F010E941F01F5011192119211921F
:100EB00011925F01F6EDCF16F1E0DF0679F720E140
:100EC000E20EF11C31E0023D1307E9F610928E02AA
:100ED00010928F0210929002109291021092920240
:100EE0001092930210929402109295021092960220
:100EF00010929702109298021092990262E089E093
:100F00000E941F0162E08AE00E941F0161E08BE005
:100F10000E941F0162E08CE00E941F0160E08EE0F1
:100F20000E941F0160E08BE00E94F10090E080E0F1
:100F30000E946C0B898381E090E00E946C0B8A8395
:100F400089819A818933904319F190E080E00E9471
:100F50006C0B893329F069E390E080E00E94740B08
:100F600081E090E00E946C0B803329F060E381E027
:100F700090E00E94740B04E010E0B80164507F4FD1
:100F8000C8010E94E3040C5F1F4F083C1105A9F73C
:100F90009EE9E92E92E0F92E04E010E0C8018256A5
:100FA0009D4F5C01670148018E189F08C4018C0D9C
:100FB0009D1D0E946C0BF60181936F01EA15FB05E4
:100FC000A9F7F4E0EF0EF11C0C5F1F4F083C110570
:100FD00029F789E00E94C800892B61F48AE00E9409
:100FE000C800892B39F481E08093810361E08BE0B4
:100FF0000E94F1000E9426040E94B3010091820326
:10100000109183032091840330918503601B710B41
:10101000820B930B6B3F71058105910508F441C06C
:1010200089E00E94C800892BF9F430917F03209158
:10103000800380918103882309F46DC1832F922F4F
:101040008430910514F083E090E001969093800342
:1010500080937F030E94B3016093820370938303A4
:1010600080938403909385038AE00E94C800892BB3
:10107000C1F480917F03909180031816190614F033
:1010800081E090E001979093800380937F030E941A
:10109000B3016093820370938303809384039093DE
:1010A000850310918103112309F4CDC189E00E94C9
:1010B000C800892B09F038C18AE00E94C800892B3A
:1010C00009F032C10E94B30100917B0310917C03AF
:1010D00020917D0330917E03601B710B820B930B7B
:1010E000613D77408105910508F02BC1A2E6AA2E4B
:1010F000A3E0BA2EB2ED6B2EB1E07B2E10E000E043
:101100008CE0382EF30141903F0160E0842D0E9475
:10111000F1006501FFEC8F2EF1E09F2EF12CE12C08
:10112000F40181914F010E94C80055245394009707
:1011300009F0512C892B09F043C0F601808191817F
:10114000892BF1F520917F0330918003C701880F2F
:10115000991F880F991F800F911F329EA001339E07
:10116000500D1124840F951F9093C5018093C401E5
:101170002430310561F4E114F10449F4011511053D
:1011800031F420E330E03093C5012093C401E091B5
:10119000C401F091C501EE0FFF1FEE0FFF1FE256D5
:1011A000FD4F2FE338EA4FE454E46081718182817E
:1011B00093810E94AE0D0E94C10CCB010E94DA0304
:1011C000852D90E0F60191838083FFEFEF1AFF0AEF
:1011D00028E0C20ED11C33E0E316F10409F0A0CFE1
:1011E00061E0842D0E94F1000F5F1F4F42E0A40ECA
:1011F000B11C0430110509F085CF8CE00E94C800B5
:10120000892B09F06BC0E090C401F090C5015FEF3D
:10121000E516F50609F462C08701000F111F000FE3
:10122000111FF801E050FF4F80809180A280B380B1
:101230000E948E00BC01990F880B990B0E94F90C3B
:1012400020E030EC4FE754E40E944F0C20E030E007
:1012500040E85EE30E94AE0D20E030E040E05EE357
:101260000E94DD0BA50194010E94DE0B4B015C0185
:10127000E114F10409F07DC020E030E0A9010E94F2
:10128000A90D18161CF0812C912C5401F801E2567E
:10129000FD4F80829182A282B3822FE338EA4FE42D
:1012A00054E4C501B4010E94AE0D0E94C10CCB01F3
:1012B0000E94DA038091C4019091C501880F991FA3
:1012C000880F991FBC0162567D4F04960E94E3046B
:1012D0008FEF9FEF9093C5018093C4018AE00E9435
:1012E000C800892B31F489E00E94C800892B09F0DD
:1012F00056C010929A0210929B0210929C02109279
:101300009D020E94260480E090E0892B09F472CEB1
:101310000E9400006FCE832F922F833091050CF432
:1013200094CE82E090E091CE0E94B30160937B0363
:1013300070937C0380937D0390937E0310927A03D5
:10134000D5CE80917A038111D1CE1092810331E004
:1013500030937A0360E08BE00E94F1000E94B301B9
:1013600060937B0370937C0380937D0390937E0353
:10137000BDCE80E3E816F10409F088CF20E030E02C
:1013800040E850E4C501B4010E944A0C87FD7ECFBD
:10139000812C912C50E8A52E50E4B52E77CFC0902B
:1013A0009A02D0909B02E0909C02F0909D02C114A2
:1013B000D104E104F10459F40E94B30160939A024C
:1013C00070939B0280939C0290939D029ACF0E94FF
:1013D000B3016C197D098E099F0961347F41810534
:1013E000910508F48ECF84ECE0E0F1E0AEE9B2E0E4
:1013F00001900D928A95E1F704E010E0B80166567D
:101400007D4FC8010E94E3040C5F1F4F083C11058B
:10141000A9F706E010E061E08BE00E94F1006AEFBE
:1014200070E080E090E00E94800160E08BE00E942C
:10143000F1006AEF70E080E090E00E9480010150CE
:10144000110949F756CF0E9426040E948E00C12C34
:10145000D12C7601823091056CF1BC01990F880B7B
:10146000990B0E94F90C20E030EC4FE754E40E9405
:101470004F0C9B01AC010E94AE0D20E030EC4FE719
:1014800054E40E94AE0D0E94C10C9B01AC016FE7B9
:1014900074E88EE190E00E941B0E2FEF33E040E0F5
:1014A00050E00E94820B69017A01FFEFCF1ADF0A38
:1014B000EF0AFF0A0E9426042EE532E03E832D83C8
:1014C0004EE852E058874F8382ED91E09A878987F2
:1014D000E985FA852191FA87E9872B8760E0822FD9
:1014E0000E94F1006D807E80AF80B8844FEC51E0A7
:1014F0005C834B83EB81FC818191FC83EB830E94B5
:10150000C8004C0101E0892B09F000E00E94B30102
:101510001B012C01F5018081081709F4CBC0F301F0
:1015200080819181A281B381A2019101281B390B95
:101530004A0B5B0BDA01C901CD97A105B10590F10A
:10154000F50100830E942604892839F561E08BE0CB
:101550000E94F10020917F0330918003FCE0F29F14
:10156000C001F39F900D112495012E583240820F37
:10157000931F8133910508F099C0880F991F880F38
:10158000991FFC01E256FD4F608171818281938138
:10159000A70196010E94780411E0F30120823182B4
:1015A00042825382F4E0AF0EB11C20E1620E711C46
:1015B0004B815C81425D514009F09CCF61E08B859D
:1015C0000E94F100EF81F8853196F887EF832D8135
:1015D0003E812C5F3F4F3E832D8349855A85465D72
:1015E000514009F075CF0E9426048CE00E94C8008B
:1015F0005C0101E0892B09F000E00E94B301209119
:101600005D02021709F446C04090590250905A02F8
:1016100060905B0270905C029B01AC01241935095B
:101620004609570929013A013CE343165104610474
:10163000710480F100935D026093590270935A0225
:1016400080935B0290935C020E942604A114B10473
:10165000C9F561E08BE00E94F10080917F039091D9
:1016600080038330910558F584539E4FFC0180819F
:10167000082E000C990B880F991F880F991FFC01E9
:10168000E256FD4F6081718182819381A7019601AD
:101690000E9478040E942604111103C060E0AB2868
:1016A00009F461E08BE00E94F1002BCE60E070E075
:1016B000CB016ECF892809F075CF11E073CF80E39D
:1016C00090E0D9CF111105C060E08BE00E94F100DD
:1016D000E1CF0E942604E5CFF999FECF92BD81BDEE
:1016E000F89A992780B50895262FF999FECF1FBA49
:1016F00092BD81BD20BD0FB6F894FA9AF99A0FBE3B
:1017000001960895052E97FB1EF400940E94990BF4
:1017100057FD07D00E94AC0B07FC03D04EF40C948D
:10172000990B50954095309521953F4F4F4F5F4F06
:10173000089590958095709561957F4F8F4F9F4F3D
:1017400008950E94CE0BA59F900DB49F900DA49F6D
:10175000800D911D11240895A1E21A2EAA1BBB1B16
:10176000FD010DC0AA1FBB1FEE1FFF1FA217B3076D
:10177000E407F50720F0A21BB30BE40BF50B661F83
:10178000771F881F991F1A9469F760957095809547
:1017900090959B01AC01BD01CF010895A29FB001BE
:1017A000B39FC001A39F700D811D1124911DB29F95
:1017B000700D811D1124911D08955058BB27AA2733
:1017C0000E94F50B0C946F0D0E94610D38F00E9481
:1017D000680D20F039F49F3F19F426F40C945E0D47
:1017E0000EF4E095E7FB0C94580DE92F0E94800D54
:1017F00058F3BA17620773078407950720F079F446
:10180000A6F50C94A20D0EF4E0950B2EBA2FA02D88
:101810000B01B90190010C01CA01A0011124FF279D
:10182000591B99F0593F50F4503E68F11A16F04098
:10183000A22F232F342F4427585FF3CF4695379597
:101840002795A795F0405395C9F77EF41F16BA0B5C
:10185000620B730B840BBAF09150A1F0FF0FBB1F0A
:10186000661F771F881FC2F70EC0BA0F621F731F53
:10187000841F48F4879577956795B795F7959E3FB0
:1018800008F0B0CF9395880F08F09927EE0F979541
:10189000879508950E94340D08F481E008950E9410
:1018A000630C0C946F0D0E94680D58F00E94610D3E
:1018B00040F029F45F3F29F00C94580D51110C941D
:1018C000A30D0C945E0D0E94800D68F39923B1F373
:1018D000552391F3951B550BBB27AA276217730756
:1018E000840738F09F5F5F4F220F331F441FAA1FEA
:1018F000A9F335D00E2E3AF0E0E832D091505040A6
:10190000E695001CCAF72BD0FE2F29D0660F771F53
:10191000881FBB1F261737074807AB07B0E809F039
:10192000BB0B802DBF01FF2793585F4F3AF09E3FBE
:10193000510578F00C94580D0C94A30D5F3FE4F31F
:10194000983ED4F3869577956795B795F7959F5F01
:10195000C9F7880F911D9695879597F90895E1E04D
:10196000660F771F881FBB1F621773078407BA07AC
:1019700020F0621B730B840BBA0BEE1F88F7E09507
:1019800008950E94C80C6894B1110C94A30D089599
:101990000E94880D88F09F5798F0B92F9927B7516A
:1019A000B0F0E1F0660F771F881F991F1AF0BA9503
:1019B000C9F714C0B13091F00E94A20DB1E00895B2
:1019C0000C94A20D672F782F8827B85F39F0B93FA4
:1019D000CCF3869577956795B395D9F73EF49095B6
:1019E0008095709561957F4F8F4F9F4F0895E89434
:1019F00009C097FB3EF490958095709561957F4F57
:101A00008F4F9F4F9923A9F0F92F96E9BB27939504
:101A1000F695879577956795B795F111F8CFFAF414
:101A2000BB0F11F460FF1BC06F5F7F4F8F4F9F4F45
:101A300016C0882311F096E911C0772321F09EE8A3
:101A4000872F762F05C0662371F096E8862F70E009
:101A500060E02AF09A95660F771F881FDAF7880FE3
:101A60009695879597F90895990F0008550FAA0B39
:101A7000E0E8FEEF16161706E807F907C0F01216A1
:101A80001306E407F50798F0621B730B840B950BA4
:101A900039F40A2661F0232B242B252B21F40895F9
:101AA0000A2609F4A140A6958FEF811D811D089596
:101AB00097F99F6780E870E060E008959FEF80EC01
:101AC000089500240A9416161706180609060895A4
:101AD00000240A9412161306140605060895092E0A
:101AE0000394000C11F4882352F0BB0F40F4BF2B79
:101AF00011F460FF04C06F5F7F4F8F4F9F4F0895B9
:101B000057FD9058440F551F59F05F3F71F04795AE
:101B1000880F97FB991F61F09F3F79F08795089593
:101B2000121613061406551FF2CF4695F1DF08C0B2
:101B3000161617061806991FF1CF869571056105CF
:101B400008940895E894BB2766277727CB0197F977
:101B500008950E94340D08F48FEF08950E94C10D7E
:101B60000C946F0D0E94610D38F00E94680D20F0FA
:101B7000952311F00C94580D0C945E0D11240C94C7
:101B8000A30D0E94800D70F3959FC1F3950F50E057
:101B9000551F629FF001729FBB27F00DB11D639F1F
:101BA000AA27F00DB11DAA1F649F6627B00DA11DC5
:101BB000661F829F2227B00DA11D621F739FB00D6B
:101BC000A11D621F839FA00D611D221F749F3327DB
:101BD000A00D611D231F849F600D211D822F762F74
:101BE0006A2F11249F5750409AF0F1F088234AF051
:101BF000EE0FFF1FBB1F661F771F881F91505040BD
:101C0000A9F79E3F510580F00C94580D0C94A30D3C
:101C10005F3FE4F3983ED4F3869577956795B79543
:101C2000F795E7959F5FC1F7FE2B880F911D96955D
:101C3000879597F90895DB018F939F930E94A10BDD
:101C4000BF91AF91A29F800D911DA39F900DB29F58
:101C5000900D11240895EE0FFF1F0590F491E02DD3
:101C600009940F931F93CF93DF938230910510F463
:101C700082E090E0E091F503F091F60330E020E09F
:101C8000B0E0A0E0309799F42115310509F44AC07D
:101C9000281B390B24303105D8F58A819B816115C9
:101CA000710589F1FB0193838283FE0111C040819C
:101CB00051810281138148175907E0F048175907ED
:101CC00099F4109761F012960C93129713961C9347
:101CD0003296CF01DF91CF911F910F91089500931C
:101CE000F5031093F603F4CF2115310551F0421797
:101CF000530738F0A901DB019A01BD01DF01F801AA
:101D0000C1CFEF01F9CF9093F6038093F503CDCFC8
:101D1000FE01E20FF31F8193919322503109398321
:101D20002883D7CF2091F3033091F403232B41F480
:101D30002091C8013091C9013093F4032093F3033B
:101D40002091C6013091C7012115310541F42DB70D
:101D50003EB74091CA015091CB01241B350BE09155
:101D6000F303F091F403E217F307A0F42E1B3F0BEB
:101D70002817390778F0AC014E5F5F4F24173507FD
:101D800048F04E0F5F1F5093F4034093F303819389
:101D900091939FCFF0E0E0E09CCFCF93DF9300974B
:101DA000E9F0FC01329713821282A091F503B09101
:101DB000F603ED0130E020E01097A1F4208131819D
:101DC000820F931F2091F3033091F40328173907F2
:101DD00009F061C0F093F403E093F303DF91CF9136
:101DE0000895EA01CE17DF07E8F54A815B819E017D
:101DF00041155105B1F7E901FB83EA8349915991F6
:101E0000C40FD51FEC17FD0761F480819181029604
:101E1000840F951FE90199838883828193819B8335
:101E20008A83F0E0E0E012968D919C9113970097E1
:101E3000B9F52D913C911197CD010296820F931F18
:101E40002091F3033091F4032817390739F63097BE
:101E500051F51092F6031092F503B093F403A0939A
:101E6000F303BCCFD383C28340815181840F951F7C
:101E7000C817D90761F44E5F5F4F88819981480F79
:101E8000591F518340838A819B81938382832115CB
:101E9000310509F0B0CFF093F603E093F5039ECF40
:101EA000FD01DC01C0CF13821282D7CFF894FFCF9F
:101EB00000000000E7FBA93D0C022B3E0000803E25
:101EC000FA7EAA3E0681D53E0000003F7D3F153FC9
:101ED00083C02A3F0000403F7D3F553F83C06A3F9B
:101EE0000000803FBE9F8A3F4260953F0000A03FB8
:101EF000BE9FAA3F4260B53F0000C03FBE9FCA3FA1
:101F00004260D53F0000E03FBE9FEA3F4260F53FA0
:101F100000000040DF4F054021B00A4000001040A3
:101F2000DF4F154021B01A4000002040DF4F254010
:101F300021B02A4000003040DF4F354021B03A4008
:101F400000004040DF4F454021B04A400000504073
:101F5000DF4F554021B05A4000006040DF4F6540E0
:101F600021B06A4000007040DF4F754021B07A40D8
:101F700000008040FFFF0000F70380000C182402DF
:101F800003040506070800000000A8037B03D7032D
:081F90005103740361035203C5
:00000001FF
