:100000000C9462000C948A000C948A000C948A0070
:100010000C948A000C948A000C948A000C948A0038
:100020000C948A000C948A000C948A000C948A0028
:100030000C948A000C948A000C948A000C948A0018
:100040000C94BE050C948A000C942E060C940806A1
:100050000C948A000C948A000C948A000C948A00F8
:100060000C9460060C948A00000000002400270015
:100070002A0000000000250028002B0000000000DE
:1000800023002600290004040404040404040202DA
:100090000202020203030303030301020408102007
:1000A0004080010204081020010204081020000012
:1000B0000008000201000003040700000000000027
:1000C00000007F0711241FBECFEFD8E0DEBFCDBFF9
:1000D00011E0A0E0B1E0EAE8F3E202C005900D9281
:1000E000AC3FB107D9F724E0ACEFB1E001C01D92FD
:1000F000A13BB207E1F710E0C2E6D0E004C02197CF
:10010000FE010E949810C136D107C9F70E94BC07B2
:100110000C94C3110C94000008950895833081F06D
:1001200028F4813099F08230A9F008958730A9F041
:100130008830C9F08430B1F4809180008F7D03C095
:10014000809180008F7780938000089584B58F77A9
:1001500084BD089584B58F7DFBCF8091B0008F77EB
:100160008093B00008958091B0008F7DF9CFCF9338
:10017000DF93282F30E0F901E255FF4F8491F90118
:10018000E656FF4FD491F901EA57FF4FC491CC23B3
:10019000A1F081110E948E00EC2FF0E0EE0FFF1F06
:1001A000E458FF4FA591B491EC91ED2381E090E0EC
:1001B00009F480E0DF91CF91089580E090E0FACFDC
:1001C0001F93CF93DF93282F30E0F901E255FF4FC3
:1001D0008491F901E656FF4FD491F901EA57FF4F98
:1001E000C491CC23A9F0162F81110E948E00EC2F10
:1001F000F0E0EE0FFF1FEE58FF4FA591B4918FB7BF
:10020000F894EC91111108C0D095DE23DC938FBFD8
:10021000DF91CF911F910895DE2BF8CFCF93DF931D
:1002200090E0FC01E656FF4F24918A579F4FFC0156
:1002300084918823C9F090E0880F991FFC01E85948
:10024000FF4FA591B491FC01EE58FF4FC591D49199
:1002500061110DC09FB7F8948C91209582238C93E7
:100260008881282328839FBFDF91CF910895623032
:1002700051F49FB7F8943C91822F809583238C93FF
:10028000E8812E2BEFCF8FB7F894EC912E2B2C9387
:100290008FBFEACF8E3008F08E50877080648093D5
:1002A0007C0080917A00806480937A0080917A004B
:1002B00086FDFCCF809178009091790008953FB73A
:1002C000F8948091A8039091A903A091AA03B091FA
:1002D000AB0326B5A89B05C02F3F19F00196A11DC1
:1002E000B11D3FBFBA2FA92F982F8827BC01CD0180
:1002F000620F711D811D911D42E0660F771F881FDF
:10030000991F4A95D1F708952FB7F8946091A403E7
:100310007091A5038091A6039091A7032FBF089524
:10032000AF92BF92CF92DF92EF92FF920F931F9303
:10033000CF93DF936C017B018B01040F151FEB0141
:100340005E01AE18BF08C017D10759F06991D601F8
:10035000ED91FC910190F081E02DC6010995892B6A
:1003600079F7C501DF91CF911F910F91FF90EF9029
:10037000DF90CF90BF90AF900895FC01538D448DD6
:10038000252F30E0842F90E0821B930B541710F040
:10039000CF96089501970895FC01918D828D98174D
:1003A00061F0A28DAE0FBF2FB11D5D968C91928D25
:1003B0009F5F9F73928F90E008958FEF9FEF089556
:1003C000FC01918D828D981731F0828DE80FF11D1F
:1003D000858D90E008958FEF9FEF0895FC01918D3A
:1003E000228D892F90E0805C9F4F821B91098F7333
:1003F0009927089582E094E00E94EE0121E0892B84
:1004000009F420E0822F089580E090E0892B29F004
:100410000E94FA0181110C9400000895FC01A48D42
:10042000A80FB92FB11DA35ABF4F2C91848D90E016
:1004300001968F739927848FA689B7892C93A089F9
:10044000B1898C91837080648C93938D848D981383
:1004500006C00288F389E02D80818F7D8083089516
:10046000EF92FF920F931F93CF93DF93EC0181E004
:10047000888F9B8D8C8D98131AC0E889F9898081AB
:1004800085FF15C09FB7F894EE89FF896083E889DE
:10049000F98980818370806480839FBF81E090E0D0
:1004A000DF91CF911F910F91FF90EF900895F62E5D
:1004B0000B8D10E00F5F1F4F0F731127E02E8C8DF7
:1004C0008E110CC00FB607FCFACFE889F98980813C
:1004D00085FFF5CFCE010E940E02F1CFEB8DEC0F20
:1004E000FD2FF11DE35AFF4FF0829FB7F8940B8F59
:1004F000EA89FB8980818062CFCFCF93DF93EC01C3
:10050000888D8823B9F0AA89BB89E889F9898C91FB
:1005100085FD03C0808186FD0DC00FB607FCF7CFB7
:100520008C9185FFF2CF808185FFEDCFCE010E94B7
:100530000E02E9CFDF91CF91089520913D02260F61
:100540003327331F21323105ECF42091D803FC010D
:1005500090E080E0243069F082E00895A0913D02AF
:100560002191AC01435E5D4FA40FB52FB11D2C93BB
:100570000196861798F380913D02680F60933D02C3
:1005800080E0089581E008951092D80381E080937F
:10059000D7031092B20361E082E10E94E00061E0C3
:1005A00083E10E94E000E9EBF0E080818E7F8083B0
:1005B00080818D7F808388E48093B80085E4809378
:1005C000BC0008951092B1031092B0031092DF03A3
:1005D000109201040E94C4028CE890E09093AF0353
:1005E0008093AE038DE890E09093AD038093AC03CD
:1005F0000895CF93DF9391E090931C028823B9F084
:10060000C091B800D091BA008091BC008A7B8093E1
:10061000BC0060E082E10E94E00060E083E10E94B3
:10062000E0000E94C402D093BA00C093B800DF91EA
:10063000CF9108958F929F92AF92BF92CF92DF9207
:10064000EF92FF920F931F93CF93DF93D09101040A
:10065000D13208F0D7C0182FC09100040E945F016A
:100660006B017C018091D80381116BC082E0809383
:10067000D8031093D7038FEF8093D6031092D5033E
:10068000D093D403A0EEB3E0E4EBF3E080E0D81322
:1006900091C01092B3038091B303CC0FC82BC093C9
:1006A000B3038091B203813009F088C01092B20385
:1006B0000E945F016B017C018091B3038093BB00BA
:1006C0008091DA039091DB03A091DC03B091DD030C
:1006D000892B8A2B8B2BA1F00E945F010091DA03FA
:1006E0001091DB032091DC033091DD036C197D094F
:1006F0008E099F09061717072807390708F442C013
:100700008091BC0083FDD8CF85EC8093BC000E9413
:100710005F016B017C018091D803823009F450C0E5
:100720008091D6038F3F09F46FC08091D603803249
:1007300009F46CC08091D603803309F469C084E069
:1007400026C08091DA039091DB03A091DC03B09185
:10075000DD03892B8A2B8B2B09F484CF0E945F0148
:100760008090DA039090DB03A090DC03B090DD036F
:100770006C197D098E099F0986169706A806B90689
:1007800008F070CF8091D9030E94F90285E01092A1
:10079000DF03109201041092DE03DF91CF911F91CD
:1007A0000F91FF90EF90DF90CF90BF90AF909F9010
:1007B0008F9008959D9191938F5F69CF85EEA5CF1E
:1007C0008091DA039091DB03A091DC03B091DD030B
:1007D000892B8A2B8B2B09F49ECF0E945F010091FD
:1007E000DA031091DB032091DC033091DD036C19F7
:1007F0007D098E099F09061717072807390708F092
:100800008ACFC0CF81E0C3CF80E0C1CF82E0BFCF2D
:1008100083E0BDCFCF93DF93EC018B818823A1F0E0
:10082000888191E09093DE03809300041092DF03AF
:100830001092010481E00E941A0391E0811190E07E
:10084000892FDF91CF9108950E94E20281E08B838E
:10085000CE010E940A04982F8111E2CFF1CF0895B2
:10086000E091B1038091B003E81730F4F0E0E45078
:10087000FE4F808190E008958FEF9FEF0895909153
:10088000B1038091B0032FEF3FEF981748F4E92FA1
:10089000F0E0E450FE4F208130E09F5F9093B10381
:1008A000C90108958091B0039091B103891B990B00
:1008B0000895CF92DF92EF92FF920F931F93CF9301
:1008C000DF937C01CB018A012091DE03222389F092
:1008D000EB016B01C40ED51ECC15DD0569F06991E5
:1008E000D701ED91FC910190F081E02DC7010995B0
:1008F000F3CF642F0E949D02C801DF91CF911F9119
:100900000F91FF90EF90DF90CF900895CF93DF93FA
:100910001F92CDB7DEB769832091DE032223F9F061
:1009200020910104203258F021E030E0FC013383B3
:10093000228390E080E00F90DF91CF910895809125
:10094000DF03E82FF0E0E052FC4F998190838F5F46
:100950008093DF038093010481E090E0ECCF61E0BD
:10096000CE0101960E949D02F7CF90E080E00895AD
:10097000CF93DF9300D01F92CDB7DEB71092B900AE
:100980002CE02093B80020E429839C0194E0369564
:1009900027959A95E1F72A838295807F8B83E09152
:1009A000AB04F091AC0484819581039738F480E026
:1009B0000F900F900F90DF91CF91089581819281D8
:1009C000208131E03093DE03209300041092DF0396
:1009D00010920104DC01ED91FC910280F381E02D85
:1009E00043E050E0BE016F5F7F4F09950397F9F632
:1009F00081E00E941A038111DACF1092B90088E4D5
:100A00008093B80081E0D4CFCF92DF92EF92FF9233
:100A1000C12CD12C76018133910558F4880F991F90
:100A2000880F991FFC01E658FD4FC080D180E280FD
:100A3000F380C0924F03D0925003E0925103F092A2
:100A4000520320E030E0A90160919803709199036E
:100A500080919A0390919B030E94C70E811119C047
:100A6000C0925303D0925403E0925503F092560380
:100A70002FE338EA4FE454E4C701B6010E942B107B
:100A80000E943E0FCB01FF90EF90DF90CF900C942F
:100A9000B804FF90EF90DF90CF9008950F931F93CD
:100AA000CF93DF938C01EB010E94440E8883C80131
:100AB00001960E94440E8983CE01DF91CF911F9150
:100AC0000F910895FF920F931F93CF93DF93EC0143
:100AD0008B01FB01F0800E94440EF81621F06F2D6F
:100AE000CE010E944C0EF801F1802196CE010E94A9
:100AF000440EF81621F06F2DCE010E944C0EC80155
:100B0000DF91CF911F910F91FF90089585ED809314
:100B1000BC008091DA039091DB03A091DC03B091DB
:100B2000DD030796A11DB11D23E0B695A795979506
:100B300087952A95D1F72091BC0024FD03C010921F
:100B4000D80308954091DA035091DB036091DC03F0
:100B50007091DD03452B462B472B69F30097A105C8
:100B6000B10541F02AE22A95F1F700C00197A109E9
:100B7000B109E1CF8091D9030C94F9021F920F9231
:100B80000FB60F9211242F933F938F939F93AF93A0
:100B9000BF938091A4039091A503A091A603B09167
:100BA000A7033091A30323E0230F2D3758F50196B7
:100BB000A11DB11D2093A3038093A4039093A503CB
:100BC000A093A603B093A7038091A8039091A903D3
:100BD000A091AA03B091AB030196A11DB11D809312
:100BE000A8039093A903A093AA03B093AB03BF916A
:100BF000AF919F918F913F912F910F900FBE0F90CA
:100C00001F90189526E8230F0296A11DB11DD2CF83
:100C10001F920F920FB60F9211242F933F934F9371
:100C20005F936F937F938F939F93AF93BF93EF9354
:100C3000FF9382E094E00E940E02FF91EF91BF913A
:100C4000AF919F918F917F916F915F914F913F9164
:100C50002F910F900FBE0F901F9018951F920F921B
:100C60000FB60F9211242F938F939F93EF93FF93BF
:100C7000E0911204F09113048081E0911804F09146
:100C8000190482FD1BC0908180911B048F5F8F73BC
:100C900020911C04821741F0E0911B04F0E0EE5F0C
:100CA000FB4F958F80931B04FF91EF919F918F9144
:100CB0002F910F900FBE0F901F9018958081F4CF49
:100CC0001F920F920FB60F9211242F933F934F93C1
:100CD0005F936F937F938F939F93AF93BF93EF93A4
:100CE000FF938091B900887F803609F44AC0F0F5FF
:100CF000883209F4A7C018F5803109F49BC0B8F414
:100D0000882309F4F9C0883009F494C0FF91EF9169
:100D1000BF91AF919F918F917F916F915F914F9113
:100D20003F912F910F900FBE0F901F901895883113
:100D300009F488C0803251F78093D60314C0803400
:100D400009F49DC040F48033B9F38833F9F68093F9
:100D5000D60385ECB0C0803509F485C0883509F428
:100D600096C0883499F60E948605D0CF883909F458
:100D70008CC038F5883729F050F4883611F0803768
:100D800029F683E08093D80310925F0257C0883819
:100D900009F47BC0803919F0803809F0B7CF809111
:100DA0005F02803208F071C0E0915F0281E08E0F37
:100DB00080935F028091BB00F0E0E15CFD4F808397
:100DC0003DC0803B39F0E0F4803A09F479C0883ABC
:100DD00009F09CCF84E08093D80310923E021092D9
:100DE0003D02E091AE03F091AF03099580913D0281
:100DF00081110FC081E080933D0210921D0209C055
:100E0000803C09F4A6CF883C09F4A3CF883B09F0C5
:100E10007DCFE0913E0281E08E0F80933E02F0E0B4
:100E2000E35EFD4F80818093BB0090913E028091F4
:100E30003D0229C08091B3038093BB0085EC809371
:100E4000BC0064CF9091D5038091D403981758F5D6
:100E5000E091D50381E08E0F8093D503F0E0EC5450
:100E6000FC4F8081E9CFE091D50381E08E0F809324
:100E7000D5038091BB00F0E0EC54FC4F808390914F
:100E8000D5038091D4039817C8F285E8D8CFE091B4
:100E9000D50381E08E0F8093D5038091BB00F0E0F5
:100EA000EC54FC4F80838091D70381115CCF81E0AB
:100EB0008093B20384EA8093BC001092D80326CFBB
:100EC00085EC8093BC001092D80380915F02803241
:100ED00030F4E0915F02F0E0E15CFD4F1082609140
:100EE0005F0270E0E091AC03F091AD038FE392E01C
:100EF000099510925F020ACF1092D60334CFE2E038
:100F0000F4E01382128288EE93E0A0E0B0E08483E4
:100F10009583A683B7832CED31E03183208325ECC4
:100F200030E03587248724EC30E03787268720ECB3
:100F300030E0318B208B21EC30E0338B228B22ECA4
:100F400030E0358B248B26EC30E0378B268B118EEE
:100F5000128E138E148EEFE9F4E0138212828483D2
:100F60009583A683B7838EEE91E091838083109260
:100F7000AC041092AB040895CF93DF93CDB7DEB7E6
:100F800061970FB6F894DEBF0FBECDBF789484B5DD
:100F9000826084BD84B5816084BD85B5826085BD75
:100FA00085B5816085BD80916E00816080936E0003
:100FB00010928100809181008260809381008091F5
:100FC00081008160809381008091800081608093A6
:100FD00080008091B10084608093B1008091B00066
:100FE00081608093B00080917A00846080937A0061
:100FF00080917A00826080937A0080917A0081608B
:1010000080937A0080917A00806880937A001092B1
:10101000C1000E94E2028091AB049091AC04009761
:1010200011F00E943A1186E090E00E949E108C011F
:1010300080E6D8018C938FE994E012969C938E936E
:10104000119713961C92139780E290E015969C934B
:101050008E9314971093AC040093AB040E94E202A9
:1010600081E0F8018383C8010E940A04E091120420
:10107000F091130482E08083E0910E04F0910F045C
:101080001082E0911004F09111048FEC8083109293
:101090001A04E0911604F091170486E08083E09131
:1010A0001404F0911504808180618083E091140420
:1010B000F0911504808188608083E0911404F091A0
:1010C0001504808180688083E0911404F0911504F8
:1010D00080818F7D80839CE5E92E93E0F92E01EDE0
:1010E00011E062E0D8018D918D010E940E0157013F
:1010F00084EDC82E81E0D82E61E0F60181916F0168
:101100000E940E01D5011D921D921D921D925D013E
:10111000B8EDCB16B1E0DB0679F7E0E1EE0EF11C9D
:10112000F1E0043D1F07E9F610928C0310928D0345
:1011300010928E0310928F031092900310929103DD
:1011400010929203109293031092940310929503BD
:10115000109296031092970362E089E00E940E01BC
:1011600062E08AE00E940E0161E08BE00E940E01C5
:1011700062E08CE00E940E0160E08EE00E940E01B1
:1011800060E08BE00E94E000BE016B5F7F4F90E06B
:1011900080E00E944E058D819E818933904391F1BC
:1011A0006CEC71E090E080E00E94620504E010E0E9
:1011B000A80144505F4F6A01F12CE12CD6019D90AB
:1011C0006D015701A00EB11EC5010E94440E981674
:1011D00021F0692DC5010E944C0EBFEFEB1AFB0AEE
:1011E000E4E0EE16F10451F70C5F1F4F083C1105C7
:1011F000F9F61A821982BE016F5F7F4F88EC90E08A
:101200000E946205BE016D5F7F4F88EC90E00E94F6
:101210004E058B819C818233994009F440C0AAE736
:10122000EA2EA2E0FA2E04E010E0B4E06B2E712C5E
:10123000980126583D4F5901670148018E189F08B3
:10124000C4018C0D9D1D0E94440ED6018D936D012D
:10125000AA15BB05A9F7F70161917191819191914F
:101260007F0120E030E04AE754E40E942B100E9406
:101270003E0F7A836983BE016F5F7F4FC3010E9477
:101280006205F2E06F0E711C0C5F1F4F083C1105E8
:1012900079F66AEC71E088EC90E00E946205FAE76A
:1012A000EF2EF2E0FF2E04E010E0BE016F5F7F4FF3
:1012B000C8010E944E0569817A81072E000C880BB7
:1012C000990B0E94760F20E030E04AE754E40E9438
:1012D000CC0ED7016D937D938D939D937D010E5F11
:1012E0001F4F0636110509F789E00E94B700892BC8
:1012F00081F48AE00E94B700892B59F481E0809341
:10130000A20310929D0310929C0361E08BE00E9467
:10131000E000B091A203BF83B11136C30E948401E3
:1013200000919E0310919F032091A0033091A1038F
:10133000601B710B820B930B6B3F7105810591054F
:10134000D0F189E00E94B700892BC1F480919C0301
:1013500090919D038330910514F082E090E0019616
:1013600090939D0380939C030E94840160939E034D
:1013700070939F038093A0039093A1038AE00E943F
:10138000B700892BC1F480919C0390919D0318169E
:10139000190614F081E090E0019790939D038093EB
:1013A0009C030E94840160939E0370939F0380932B
:1013B000A0039093A1038EE00E944A018031910521
:1013C0000CF4FAC0BC01813253E0950714F060E2DE
:1013D00073E0803392400CF045C260517109072ED2
:1013E000000C880B990B0E94760F20E030E048E05B
:1013F00054E40E94CC0E9B01AC010E942B1022EC05
:1014000030EC43E95DE30E942B109B01AC016BE1E2
:101410007FE28DE99DE30E945A0E6B017C012AE870
:1014200035EE46E95BE30E94C70E87FD12C22BE151
:101430003FE24DE95DE3C701B6010E942610181690
:1014400044F46BE1C62E6FE2D62E6DE9E62E6DE315
:10145000F62EC0929803D0929903E0929A03F092EC
:101460009B03B2C0C0924703D0924803E092490365
:10147000F0924A0310924603ADC280914603811157
:10148000A9C21092A20341E04093460360E08BE0C2
:101490000E94E000C0924703D0924803E0924903C3
:1014A000F0924A0397C28091420390914303A09126
:1014B0004403B0914503A7019601281B390B4A0B41
:1014C0005B0BDA01C901893C9105A105B105A0F0CA
:1014D00080919C0390919D03181619062CF4019796
:1014E00090939D0380939C03C0924203D092430348
:1014F000E0924403F092450380913E0390913F03B4
:10150000A0914003B09141030097A105B10549F4B2
:10151000C0923E03D0923F03E0924003F092410319
:101520009FC2C81AD90AEA0AFB0A31E4C3163FE18E
:10153000D306E104F10408F493C284ECE0E0F1E0A6
:10154000AAE7B2E001900D928A95E1F7E0E0EE2E75
:10155000E1E0FE2E04E010E0D7016D917D918D91C8
:101560009D917D0120E030E04AE754E40E942B1079
:101570000E943E0F7A836983BE016F5F7F4FC8016F
:101580000E9462050E5F1F4F0636110529F760C2E3
:1015900040E3E416F10409F038C320E030E040E80D
:1015A00050E40E94C70E87FD30C3812C912CF0E8D7
:1015B000AF2EF0E4BF2E29C3109298031092990326
:1015C00010929A0310929B039CE5C92E93E0D92EAA
:1015D0002CE8A22E23E0B22EE4EDF1E0F88BEF87A9
:1015E000AF85B889ED91B88BAF87E98B60E08E2F1E
:1015F0000E94E0007601850181ED282E81E0382EE1
:10160000D1018D911D010E94B7004C01B1E0BB8753
:10161000892B09F01B860E9484012B013C01F801F3
:101620008081FB85F81709F460C1F7018081918101
:10163000A281B381A3019201281B390B4A0B5B0BDA
:10164000DA01C901CD97A105B10510F1EB85D801EB
:10165000EC938928B9F461E08BE00E94E00080916E
:101660009C0390919D03FCE0F89F9001F99F300D41
:101670001124C8018C589340820F931F0E940405C7
:1016800021E02F83D7014D925D926D927C9213974A
:101690000C5F1F4FE0E1EE0EF11CF4ED2F16F1E0B0
:1016A0003F0609F0ADCF61E089890E94E0002FEF8D
:1016B000A21AB20A34E0C30ED11C4F855889485D86
:1016C000514009F08DCF8CE00E94B7008C01FF24BF
:1016D000F394892B09F0F12C0E94840120915B0383
:1016E000F21609F414C18090570390905803A0900B
:1016F0005903B0905A039B01AC01281939094A09D2
:101700005B0949015A013CE383169104A104B10429
:1017100008F4FDC0F0925B03609357037093580385
:101720008093590390935A03012B09F0E7C061E0BD
:101730008BE00E94E00080919C0390919D03833098
:10174000910508F0D8C082539E4FDC018C91082E81
:10175000000C990B0E94040561E08BE00E94E00000
:10176000209198033091990340919A0350919B03E3
:101770002F83388749875A8720E030E0A9016F819D
:10178000788589859A850E94261018160CF06FC2FC
:10179000409053035090540360905503709056034B
:1017A000C0904F03D0905003E0905103F09052034B
:1017B000A7019601C301B2010E94C70E882309F454
:1017C00056C20E945F016B877C878D879E878091C0
:1017D0004B0390914C03A0914D03B0914E032B8588
:1017E0003C854D855E85281B390B4A0B5B0BDA0166
:1017F000C901843F9140A105B10508F438C2A30195
:101800009201C701B6010E945A0E4B015C0120E013
:1018100030E0A9010E94261018160CF07FC02FE6B8
:1018200032E143E85AE3C501B4010E9426101816BC
:101830000CF47EC0C0925303D0925403E09255033F
:10184000F09256032FE338EA4FE454E4C701B6019F
:1018500087C05AE8C52E55EED52E56E9E52E5BE336
:10186000F52EF7CD60537240072E000C880B990BB4
:101870000E94760F20E030E040E753E40E94CC0E57
:101880002AED36EE46E45BE30E942B109B01AC018F
:1018900067EB7AE289E89BE30E945A0E6B017C01B8
:1018A00027E23DED46E95AE30E94C70E87FD14C0CA
:1018B00027EB3AE249E85BE3C701B6010E94261034
:1018C00018160CF0C6CD47EBC42E4AE2D42E49E8D8
:1018D000E42E4BE3F42EBDCD37E2C32E3DEDD32EE7
:1018E00036E9E32E3AE3F32EB4CD892809F0D0CEC1
:1018F000B1E0BF83CDCE80E390E02CCFBF81B111AA
:101900002BCF60E08BE00E94E00060E026CFEF810B
:10191000E11122CF012B09F41FCFF7CF2FE632E1DF
:1019200043E85AEBC501B4010E94C70E87FF82CF7E
:10193000A50194016F81788589859A850E942B1075
:10194000A30192010E945B0E6093530370935403B2
:1019500080935503909356032FE338EA4FE454E401
:101960000E942B100E943E0FCB010E94B8048B8571
:101970009C85AD85BE8580934B0390934C03A093CB
:101980004D03B0934E0373C10E9484016B017C012F
:1019900089E00E94B700892B09F064CD8AE00E949B
:1019A000B700892B09F05ECD8091470390914803E1
:1019B000A0914903B0914A03A7019601281B390B56
:1019C0004A0B5B0BDA01C901813D9740A105B105C6
:1019D00008F053CD89E00E94B700892B71F58AE0A9
:1019E0000E94B700892B49F18091420390914303F3
:1019F000A0914403B0914503A7019601281B390B20
:101A00004A0B5B0BDA01C901893C9105A105B105BF
:101A1000A0F080919C0390919D03843091052CF45B
:101A2000019690939D0380939C03C0924203D092B1
:101A30004303E0924403F09245038AE00E94B7001A
:101A4000892B31F489E00E94B700892B09F02BCD56
:101A500010923E0310923F031092400310924103F4
:101A600062E6A62E62E0B62E74ED672E71E0772E48
:101A700010E000E0F30141903F0160E0842D0E94FE
:101A8000E000650151ED852E51E0952EF12CE12C01
:101A9000D4018D914D010E94B700552453940097B5
:101AA00009F0512C892B09F049C0F6018081918100
:101AB000892B09F043C020919C0330919D03C701FD
:101AC000880F991F880F991F800F911FFCE0F29FCC
:101AD000A001F39F500D1124840F951F9093610274
:101AE000809360022430310561F4E114F10449F47B
:101AF0000115110531F420E330E0309361022093A9
:101B00006002809160029091610281339105B0F48E
:101B1000880F991F880F991FFC01E658FD4F2FE38E
:101B200038EA4FE454E460817181828193810E949C
:101B30002B100E943E0FCB010E94B804852D90E02F
:101B4000D6018D939C93BFEFEB1AFB0AE8E0CE0E13
:101B5000D11CF3E0EF16F10409F09ACF61E0842D77
:101B60000E94E0000F5F1F4F22E0A20EB11C043064
:101B7000110509F07FCF8CE00E94B700892B09F096
:101B800076C0E0906002F09061023FEFE316F3064A
:101B900009F46DC08701000F111F000F111FF8011C
:101BA000E050FF4F80809180A280B3808EE00E9441
:101BB0004A01BC01990F880B990B0E94760F20E017
:101BC00030EC4FE754E40E94CC0E20E030E040E8D7
:101BD0005EE30E942B1020E030E040E05EE30E94D4
:101BE0005A0EA50194010E945B0E4B015C01E114A9
:101BF000F10409F0CDCC20E030E0A9010E942610CC
:101C000018161CF0812C912C5401F801E658FD4F58
:101C100080829182A282B3822FE338EA4FE454E4B7
:101C2000C501B4010E942B100E943E0FCB010E94FF
:101C3000B80420E030E04AE754E4C501B4010E9452
:101C40002B100E943E0F7A836983809160029091ED
:101C500061020296BE016F5F7F4F880F991F0E943D
:101C600062058FEF9FEF909361028093600280E0A6
:101C700090E0892B09F44DCB0E94FA01882309F4E6
:101C800048CB0E94000045CBF999FECF92BD81BDA3
:101C9000F89A992780B50895262FF999FECF1FBA93
:101CA00092BD81BD20BD0FB6F894FA9AF99A0FBE85
:101CB000019608955058BB27AA270E94720E0C94D3
:101CC000EC0F0E94DE0F38F00E94E50F20F039F48F
:101CD0009F3F19F426F40C94DB0F0EF4E095E7FB1C
:101CE0000C94D50FE92F0E94FD0F58F3BA17620725
:101CF00073078407950720F079F4A6F50C941F105C
:101D00000EF4E0950B2EBA2FA02D0B01B901900116
:101D10000C01CA01A0011124FF27591B99F0593F5A
:101D200050F4503E68F11A16F040A22F232F342FA2
:101D30004427585FF3CF469537952795A795F040F0
:101D40005395C9F77EF41F16BA0B620B730B840B05
:101D5000BAF09150A1F0FF0FBB1F661F771F881FBD
:101D6000C2F70EC0BA0F621F731F841F48F4879515
:101D700077956795B795F7959E3F08F0B0CF939507
:101D8000880F08F09927EE0F9795879508950E9480
:101D9000B10F08F481E008950E94E00E0C94EC0F5E
:101DA0000E94E50F58F00E94DE0F40F029F45F3FDB
:101DB00029F00C94D50F51110C9420100C94DB0FCA
:101DC0000E94FD0F68F39923B1F3552391F3951BFE
:101DD000550BBB27AA2762177307840738F09F5F4C
:101DE0005F4F220F331F441FAA1FA9F335D00E2EB9
:101DF0003AF0E0E832D091505040E695001CCAF726
:101E00002BD0FE2F29D0660F771F881FBB1F2617E8
:101E100037074807AB07B0E809F0BB0B802DBF01BF
:101E2000FF2793585F4F3AF09E3F510578F00C948E
:101E3000D50F0C9420105F3FE4F3983ED4F38695C1
:101E400077956795B795F7959F5FC9F7880F911DAF
:101E50009695879597F90895E1E0660F771F881F9B
:101E6000BB1F621773078407BA0720F0621B730B4E
:101E7000840BBA0BEE1F88F7E09508950E94450F7A
:101E80006894B1110C94201008950E94051088F0F8
:101E90009F5798F0B92F9927B751B0F0E1F0660F2E
:101EA000771F881F991F1AF0BA95C9F714C0B1306F
:101EB00091F00E941F10B1E008950C941F10672F3D
:101EC000782F8827B85F39F0B93FCCF3869577959E
:101ED0006795B395D9F73EF4909580957095619587
:101EE0007F4F8F4F9F4F0895E89409C097FB3EF4B2
:101EF00090958095709561957F4F8F4F9F4F992357
:101F0000A9F0F92F96E9BB279395F69587957795D4
:101F10006795B795F111F8CFFAF4BB0F11F460FF94
:101F20001BC06F5F7F4F8F4F9F4F16C0882311F0EC
:101F300096E911C0772321F09EE8872F762F05C000
:101F4000662371F096E8862F70E060E02AF09A959B
:101F5000660F771F881FDAF7880F9695879597F990
:101F60000895990F0008550FAA0BE0E8FEEF16162A
:101F70001706E807F907C0F012161306E407F5077D
:101F800098F0621B730B840B950B39F40A2661F0F1
:101F9000232B242B252B21F408950A2609F4A14094
:101FA000A6958FEF811D811D089597F99F6780E8A1
:101FB00070E060E008959FEF80EC089500240A949B
:101FC0001616170618060906089500240A94121614
:101FD0001306140605060895092E0394000C11F447
:101FE000882352F0BB0F40F4BF2B11F460FF04C0F4
:101FF0006F5F7F4F8F4F9F4F089557FD9058440F4D
:10200000551F59F05F3F71F04795880F97FB991F57
:1020100061F09F3F79F08795089512161306140614
:10202000551FF2CF4695F1DF08C0161617061806A1
:10203000991FF1CF86957105610508940895E8947C
:10204000BB2766277727CB0197F908950E94B10F28
:1020500008F48FEF08950E943E100C94EC0F0E943C
:10206000DE0F38F00E94E50F20F0952311F00C945C
:10207000D50F0C94DB0F11240C9420100E94FD0F3F
:1020800070F3959FC1F3950F50E0551F629FF001CB
:10209000729FBB27F00DB11D639FAA27F00DB11DE4
:1020A000AA1F649F6627B00DA11D661F829F22276D
:1020B000B00DA11D621F739FB00DA11D621F839FF4
:1020C000A00D611D221F749F3327A00D611D231FCA
:1020D000849F600D211D822F762F6A2F11249F5718
:1020E00050409AF0F1F088234AF0EE0FFF1FBB1F1B
:1020F000661F771F881F91505040A9F79E3F5105DA
:1021000080F00C94D50F0C9420105F3FE4F3983EC0
:10211000D4F3869577956795B795F795E7959F5F83
:10212000C1F7FE2B880F911D9695879597F9089515
:10213000EE0FFF1F0590F491E02D09940F931F936C
:10214000CF93DF938230910510F482E090E0E0912C
:10215000AF04F091B00430E020E0B0E0A0E03097B0
:1021600099F42115310509F44AC0281B390B243094
:102170003105D8F58A819B816115710589F1FB01D3
:1021800093838283FE0111C04081518102811381BA
:1021900048175907E0F04817590799F4109761F06C
:1021A00012960C93129713961C933296CF01DF91DF
:1021B000CF911F910F9108950093AF041093B00435
:1021C000F4CF2115310551F04217530738F0A9011A
:1021D000DB019A01BD01DF01F801C1CFEF01F9CFA9
:1021E0009093B0048093AF04CDCFFE01E20FF31FB4
:1021F000819391932250310939832883D7CF20913D
:10220000AD043091AE04232B41F42091C6013091EE
:10221000C7013093AE042093AD042091C4013091E6
:10222000C5012115310541F42DB73EB74091C801D4
:102230005091C901241B350BE091AD04F091AE041F
:10224000E217F307A0F42E1B3F0B2817390778F08D
:10225000AC014E5F5F4F2417350748F04E0F5F1FEC
:102260005093AE044093AD04819391939FCFF0E0DF
:10227000E0E09CCFCF93DF930097E9F0FC01329729
:1022800013821282A091AF04B091B004ED0130E04E
:1022900020E01097A1F420813181820F931F2091BB
:1022A000AD043091AE042817390709F061C0F093EE
:1022B000AE04E093AD04DF91CF910895EA01CE170B
:1022C000DF07E8F54A815B819E0141155105B1F7B1
:1022D000E901FB83EA8349915991C40FD51FEC179B
:1022E000FD0761F4808191810296840F951FE901B9
:1022F00099838883828193819B838A83F0E0E0E0E5
:1023000012968D919C9113970097B9F52D913C9160
:102310001197CD010296820F931F2091AD04309149
:10232000AE042817390739F6309751F51092B004EA
:102330001092AF04B093AE04A093AD04BCCFD3838E
:10234000C28340815181840F951FC817D90761F45A
:102350004E5F5F4F88819981480F591F5183408399
:102360008A819B81938382832115310509F0B0CF47
:10237000F093B004E093AF049ECFFD01DC01C0CF29
:0A23800013821282D7CFF894FFCF2A
:10238A0000000000E7FBA93D0C022B3E0000803E46
:10239A00FA7EAA3E0681D53E0000003F7D3F153FEA
:1023AA0083C02A3F0000403F7D3F553F83C06A3FBC
:1023BA000000803FBE9F8A3F4260953F0000A03FD9
:1023CA00BE9FAA3F4260B53F0000C03FBE9FCA3FC2
:1023DA004260D53F0000E03FBE9FEA3F4260F53FC2
:1023EA0000000040DF4F054021B00A4000001040C5
:1023FA00DF4F154021B01A4000002040DF4F254032
:10240A0021B02A4000003040DF4F354021B03A4029
:10241A0000004040DF4F454021B04A400000504094
:10242A00DF4F554021B05A4000006040DF4F654001
:10243A0021B06A4000007040DF4F754021B07A40F9
:10244A00000080400000B1048000320939300C18C5
:10245A002402030405060708000000003002900168
:10246A00BD017D02EE01CC01E001000000008604FE
:0C247A005904B5042F0452043F04300440
:00000001FF
